:04000000FCEFDAF047
:08000800046ED8CF05F0E0CF33
:1000100006F00001E9CF0CF0EACF07F0E1CF08F0DD
:10002000E2CF09F0D9CF0AF0DACF0BF0F3CF12F01C
:10003000F4CF13F0FACF14F0F5CF15F0F6CF16F099
:10004000F7CF17F0F8CF18F0FBCF19F000C00EF083
:1000500001C00FF002C010F003C011F0F2AA34EF9B
:1000600000F0F2B474EF07F09DA03AEF00F09EB0FC
:1000700089EF07F0A0A240EF00F0A1B284EF0CF0EE
:10008000F2A846EF00F0F2B20AEF07F0F0A64CEF4C
:1000900000F0F0B075EF0BF0F0A852EF00F0F0B206
:1000A000B0EF0BF09DAA58EF00F09EBA3CEF07F0BE
:1000B0000EC000F00FC001F010C002F011C003F03C
:1000C0000CC0E9FF07C0EAFF078E08C0E1FF09C0C6
:1000D000E2FF0AC0D9FF0BC0DAFF12C0F3FF13C062
:1000E000F4FF14C0FAFF15C0F5FF16C0F6FF17C0E5
:1000F000F7FF18C0F8FF19C0FBFF045006C0E0FF6F
:1001000005C0D8FF1000F76A1A0FF66E010EF7222D
:10011000000EF86E0900F55012004E6F2045727205
:100120006F720000F76A380FF66E010EF722000EAC
:10013000F86E0900F5501200494C4C4547414C20DF
:1001400046494C45204E414D4500F76A5E0FF66E1C
:10015000010EF722000EF86E0900F55012004D4511
:10016000444941204E4F5420524541445900F76ABA
:10017000820FF66E010EF722000EF86E0900F550A0
:10018000120046494C45204E4F5420464F554E4490
:100190000000F76AA60FF66E010EF722000EF86E49
:1001A0000900F550120050415448204E4F5420464B
:1001B0004F554E440000F76ACA0FF66E010EF72243
:1001C000000EF86E0900F5501200414343455353A9
:1001D0002044454E49454400F76AEC0FF66E010E87
:1001E000F722000EF86E0900F55012004D45444903
:1001F000412046554C4C0000F76A0C0FF66E020E7B
:10020000F722000EF86E0900F5501200522F572009
:100210004552524F5200F76A2A0FF66E020EF7222D
:10022000000EF86E0900F5501200494E434F52522D
:10023000454354204D45444941204348414E47459C
:100240000000F76A560FF66E020EF722000EF86EE7
:100250000900F550120057524954452050524F544E
:10026000454354454400F76A7A0FF66E020EF722B2
:10027000000EF86E0900F55012004653204E4F5400
:1002800020454E41424C45440000F76A9E0FF66EF1
:10029000020EF722000EF86E0900F55012004E4FC4
:1002A0002046494C4553595354454D00F76AC00FF9
:1002B000F66E020EF722000EF86E0900F5501200DD
:1002C000554E4B4E4F574E204552524F5200F76AF3
:1002D000E20FF66E020EF722000EF86E0900F550DE
:1002E00012000000F76AF80FF66E020EF722000EF9
:1002F000F86E0900F550120058585800F76A100FB0
:10030000F66E030EF722000EF86E0900F55012008B
:100310004E4F3300F76A280FF66E030EF722000ED9
:10032000F86E0900F5501200504F3400F76A400F84
:10033000F66E030EF722000EF86E0900F55012005B
:100340004E483400F76A580FF66E030EF722000E7F
:10035000F86E0900F550120053694F00F76A700FEC
:10036000F66E030EF722000EF86E0900F55012002B
:1003700055726500F76A880FF66E030EF722000EBD
:10038000F86E0900F55012004E4F3200F76AA00FC8
:10039000F66E030EF722000EF86E0900F5501200FB
:1003A00046655F00F76AB80FF66E030EF722000E7F
:1003B000F86E0900F5501200436C5F00F76AD00F29
:1003C000F66E030EF722000EF86E0900F5501200CB
:1003D000536D7000F76AE80FF66E030EF722000EF9
:1003E000F86E0900F550120053746400F76A000FAC
:1003F000F66E040EF722000EF86E0900F55012009A
:10040000436D6200F76A180FF66E040EF722000EB5
:10041000F86E0900F550120054737400F76A300F3B
:10042000F66E040EF722000EF86E0900F550120069
:1004300052626C00F76A480FF66E040EF722000E47
:10044000F86E0900F550120043616C00F76A600F06
:10045000F66E040EF722000EF86E0900F550120039
:10046000466C7300F76A780FF66E040EF722000EE2
:10047000F86E0900F550120055746C00F76A900F81
:10048000F66E040EF722000EF86E0900F550120009
:1004900049307300F76AA80FF66E040EF722000EBB
:1004A000F86E0900F550120049317300F76AC00F69
:1004B000F66E040EF722000EF86E0900F5501200D9
:1004C00049307400F76AD80FF66E040EF722000E5A
:1004D000F86E0900F550120049317400F76AF00F08
:1004E000F66E040EF722000EF86E0900F5501200A9
:1004F00049307200F76A080FF66E050EF722000EFB
:10050000F86E0900F550120049317200F76A200FA9
:10051000F66E050EF722000EF86E0900F550120077
:1005200049307500F76A380FF66E050EF722000E97
:10053000F86E0900F550120049317500F76A500F46
:10054000F66E050EF722000EF86E0900F550120047
:1005500043686B00F76A680FF66E050EF722000E0F
:10056000F86E0900F550120058580000F76A800F25
:10057000F66E050EF722000EF86E0900F550120017
:100580002C2C2C2C2C2C2C0077726974696E670033
:1005900072656164696E6700256C783A20726561E6
:1005A000642025782C2073686F756C642062652048
:1005B00025780A0D0000646F6E650A0D0000454342
:1005C0004F2D322025730D0A000056322E31323560
:1005D0000000574D532D342D53442025730D0A0030
:1005E00056322E31323500004157532D31202573BC
:1005F0000D0A000056322E3132350000574D532D72
:10060000342D51452025730D0A0056322E313235D6
:1006100000005858582D302025730D0A000056321E
:100620002E313235000040494E560D0A000040413F
:1006300052470D0A0000404552520D0A0000404F3B
:100640004B210D0A0000405245530D0A0000405353
:1006500044310D0A00004053445F0D0A0000404D34
:1006600041580D0A00003F404253590D0A004052C4
:1006700044590D0A00004046533A446973636F764B
:100680006572790D0A004046533A556E61626C6599
:1006900020746F20707574206361726420696E200D
:1006A00069646C652073746174652C207265737065
:1006B0006F6E7365203D20253032780D0A0040466C
:1006C000533A436172642069646C652C20726573CF
:1006D000706F6E7365203D20253032780D0A000062
:1006E0004046533A526573706F6E736520746F2085
:1006F0005344207665722032207465737420434D14
:100700004438203D2025780D0A004046533A506F6A
:10071000737369626C65205344763220636172643E
:100720002064657465637465640D0A004046533A3D
:10073000566F6C746167652072616E6765206368CF
:1007400065636B2C206F6372203D20253032782545
:1007500030327825303278253032780D0A00404624
:10076000533A43617264205664642072616E676517
:10077000203D20322E372D332E3620766F6C747349
:100780000D0A00004046533A53656E64696E672057
:1007900041434D44343120636F6D6D616E6420744C
:1007A0006F20534420766572203220636172640D9D
:1007B0000A004046533A526573706F6E7365206647
:1007C000726F6D2073656E64696E672041434D449E
:1007D0003431203D20253032782C2054696D6572EB
:1007E000203D20256C750D0A00004046533A5265A5
:1007F00073706F6E736520746F20434D44353820DD
:100800003D2025780D0A00004046533A53656E742A
:1008100020434D442035382C2054696D6572207674
:10082000616C7565203D20256C752C206F637220EE
:100830003D20253032782530327825303278253009
:1008400032780D0A00004046533A436172642043F7
:10085000414E4E4F5420776F726B20566464207265
:10086000616E6765206F6620322E372D332E36205D
:10087000766F6C74730D0A004046533A4E6F7420C5
:10088000616E2053445343206F72205344484320E9
:10089000636172642C2054657374696E6720666F9F
:1008A000722053442056657231206F72204D4D43A3
:1008B00020436172640D0A004046533A52657370DA
:1008C0006F6E73652066726F6D20474F5F49444CB1
:1008D00045203D20253032780D0A00004046533A2D
:1008E000526573706F6E73652066726F6D2053442E
:1008F0005F434D445F53454E445F4F505F434F4EFF
:1009000044203D20253032782C2054696D657220BA
:100910003D20256C750D0A004046533A41747465BC
:100920006D7074696E6720534476312076657273FA
:100930007573204D4D432049442C20526573706FD0
:100940006E73652066726F6D2053445F434D445F44
:100950004150504C5F434D44203D20253032780DAE
:100960000A004046533A496E76616C6964207265AC
:1009700073706F6E736520746F2053445F41434DF5
:100980004434312C20726573706F6E7365203D2086
:10099000253032582C207265696E697469616C6902
:1009A0007A696E67206173204D4D430D0A00404601
:1009B000533A4661696C656420746F20696E69748E
:1009C00069616C697A65206173204D4D432C2072FA
:1009D0006573706F6E7365203D20253032582C2072
:1009E00065786974696E670D0A004046533A436141
:1009F0007264206661696C656420746F207265732F
:100A0000706F6E6420636F727265636C79206166CB
:100A10007465722053445F434D445F53454E445FB9
:100A20004F505F434F4E442C20726573706F6E734E
:100A300065203D20253032582C2054696D65722088
:100A40003D20256C750D0A004046533A5365747479
:100A5000696E6720626C6F636B206C656E6774688B
:100A60000D0A00004046533A4572726F722073655A
:100A70007474696E6720626C6F636B206C656E675F
:100A800074682C20726573706F6E7365203D20252D
:100A90003032782C2074696D6572203D20256C758C
:100AA0000D0A00004046533A436172642054797045
:100AB0006520446973636F76657279204572726F41
:100AC000720D0A004046533A4D4D43204361726413
:100AD00020666F756E640D0A00004046533A534419
:100AE0007631204361726420666F756E640D0A0072
:100AF0004046533A53445343204361726420666F27
:100B0000756E640D0A004046533A534448432043EF
:100B100061726420666F756E640D0A004046533A38
:100B200043617264205479706520446973636F7601
:100B3000657279204572726F722C20436172642055
:100B40003D20253032580D0A00004046533A43619B
:100B50007264207265736574207375636365737363
:100B6000202D20436D6420746F20526561647920CC
:100B7000636F756E74203D20256C750D0A0040462C
:100B8000533A535049206275732073706565642031
:100B900073657420746F20686967680D0A004046A9
:100BA000533A4361726420616374697661746520AD
:100BB0006661696C7572652C20726573706F6E73F7
:100BC00065203D20253032582C2054696D657220F7
:100BD0003D20256C750D0A004046533A436172640E
:100BE00020616374697661746520737563636573EE
:100BF00073206F6E20617474656D707420256C7540
:100C00000D0A000046415420617420736563746FBF
:100C10007220300D0A005459504520636F6D6D618C
:100C20006E64204552524F520D0A00004046533A1E
:100C30002025730D0A004046533A2025730D0A0003
:100C40002A2A204046533A204552524F520D0A005C
:100C50002020204E6F4572726F720D0A0000202016
:100C6000204D65646961204E6F742052656164791E
:100C70000D0A000020202046696C65204E6F74200C
:100C8000466F756E640D0A00202020496E76616CF7
:100C9000696420506174680D0A00202020496E7636
:100CA000616C6964204E616D650D0A002020204151
:100CB00063636573732044656E6965640D0A0000A3
:100CC0002020204469736B2046756C6C0D0A00006F
:100CD000202020526561642F577269746520457227
:100CE000726F720D0A00202020496E636F72726568
:100CF0006374204D65646961204368616E67650DAA
:100D00000A0020202057726974652050726F746544
:100D1000637465640D0A00002020204E6F74204526
:100D20006E61626C65640D0A00002020204E6F2009
:100D300046696C652053797374656D0D0A006170A6
:100D400070656E643A204653204552524F52206FD0
:100D50006E2066696C655F6F70656E0D0A004046B7
:100D6000533A57726974696E670D0A5B25735D0D9E
:100D70000A004046533A4552524F525B61707065CB
:100D80006E645D0D0A004046533A436C6F73696EA2
:100D9000670D0A00405254433A253032752F000047
:100DA000405254433A253032752F000040414C4D9B
:100DB0003A253032752F000040414C4D3A253032F3
:100DC000752F000074657374363A2025640D0A008F
:100DD00040414C4D0D0A00000A01376BC69A210EA6
:100DE000C66E400EC76E9190C9500F0EC96EC730C7
:100DF000FEE3C9CF37FAC95037CAC9FFC730FEE38F
:100E0000C9CF33F7C950C96AC730FEE391804D940A
:100E10000001120088AE02D0919E01D0918E4D80CB
:100E20004D924DA401D0FDD74D84D6DF352AD8B4DC
:100E3000362AF29258EF00F09EAAFED7ABCF1CF0F4
:100E4000AECF01F01CA202D0AB98AB881200090013
:100E5000F55211E0F6CF38FAF7CF39FAF8CF3AFA6F
:100E6000F5509EA8FED7AD6E38CAF6FF39CAF7FF17
:100E70003ACAF8FFECD71200AE504DB228D09EAA65
:100E800025D0DADF01C037FA0A0137513F0A0001E5
:100E900005E02E0A15E00A0A16E018D04E2C08D0FC
:100EA000D80EF66E0E0EF76E000EF86ED0DF07D07D
:100EB000E00EF66E0E0EF76E000EF86EC8DF06D06E
:100EC000010E506E03D0326A010E316E02D0F29CD8
:100ED0009E9A9E9A58EF00F03F404253590D0A00E7
:100EE000405244590D0A00000B0ED76EDC0ED66E30
:100EF0000400F294F28ACF6ACE6A89882F500208E1
:100F000003E1305201E1908C9E909D80F29458EF65
:100F100000F09D9089982F50020803E1305201E1C2
:100F2000909C9E9058EF00F0405B4F5D0D0A0000D2
:100F300040434D4420746F6F206C6F6E670D0A0044
:100F4000405B435D0D0A000040534C4545500D0A7F
:100F50000000404D45522C254C752C254C750D0A32
:100F600000006D3A25752C257520633A254C752CAB
:100F7000254C752C254C750D0A000A014351016A58
:100F8000425D03E242CA00F00CD0006A080E446FD2
:100F9000423700364351005CD8B0006E0136442F12
:100FA000F7D700011200015040CA42FA640E0A014C
:100FB000436F0001E2DF00C040FA0150300E08E14B
:100FC0000A0141A30ED041B70CD041B9200E04D084
:100FD0000A01419741994181012601509EA8FED7FF
:100FE000AD6E40CA42FA0A0E436F0001C6DF00C070
:100FF00040FA0150300E08E10A0141B70BD041A17F
:1010000009D041B9200E0001012601509EA8FED74B
:10101000AD6E0A01300E402740519EA8FED7AD6E3E
:10102000000112000900F6CF41FAF7CF42FAF8CFDB
:1010300043FAF5509EA8FED7AD6E41CAF6FF42CAEC
:10104000F7FF43CAF8FF0A01402F01D002D0000188
:10105000E9D700011200D8B204D00A0EEA6E540E8D
:10106000E96E006A016A026A036A0A01546B556BF1
:10107000566B576B53515211511150112CE0200EE9
:10108000586FD8904C374D374E374F375437553708
:10109000563757375351575D08E15251565D05E1B8
:1010A0005151555D02E15051545D0FE35051545F71
:1010B0005151D8A0513D555F5251D8A0523D565F75
:1010C0005351D8A0533D575FD880003601360236C1
:1010D0000336582FD6D754CAEFFF55CAECFF56CA6D
:1010E000ECFF57CAECFF00011200E9500A01446FFF
:1010F0003B0E4B6F9A0E4A6FCA0E496F486B0A0E31
:10110000466FD8820A0EEA6E400EE96E43CA4FFA65
:1011100042CA4EFA41CA4DFA40CA4CFA4BCA53FA77
:101120004ACA52FA49CA51FA48CA50FA000193DF32
:101130000150005213E10A014651010AD8A402D01D
:1011400000010CD044510CE00F0B465D01E00EE2B3
:1011500044BF0CD044BD04D0200E03D00A01446B20
:10116000300E002600509EA8FED7AD6ED8924BCA16
:101170004FFA4ACA4EFA49CA4DFA48CA4CFA536B5A
:10118000526B516B0A0E506F000165DF03C04BFAC2
:1011900002C04AFA01C049FA00C048FA0A01462FC3
:1011A000B0D700011200EACF48FAE9CF47FA0A01A6
:1011B0004139F009436F4327E20F446F320F466F06
:1011C00041510F0B442744274627E90F456F452718
:1011D000452740390F0B4527462745374637461FD9
:1011E000463740510F0B46274337070E426F0A0E12
:1011F00045074627FDE344074527FDE3430744270A
:10120000FDE342074327FDE30A0EEA6E420EE96E54
:10121000070E4715479DE926000EEA22E9504608C9
:1012200004E1EA500A0801E1478DEF50006E08E141
:1012300047BD06D047B90CD047B702D0200E03D027
:1012400047874799300E002600509EA8FED7AD6E06
:10125000EE5047ADE3D700011200D89007014035AA
:10126000036A4E0FE96E070E0320EA6EECCF38FAE0
:10127000ED52EFCF37FA0A013753D8A4C3D0385311
:10128000D8A4C0D0D89007014035036A860FE96E14
:10129000070E0320EA6EECCF38FAED52EFCF37FAA3
:1012A0000A0137534CE138534AE1D89007014035E1
:1012B000036ABF0FE96E070E0320EA6EECCF38FA1F
:1012C000ED52EFCF37FAD8904035036A5E0FE96EE2
:1012D000070E0320EA6EECCF03F0ED52EFCF01F0E2
:1012E00003500A01385D11E303E10150375D0DE35E
:1012F000D89007014035036ABF0FE96E070E03203F
:10130000EA6EEC6AED52EF6A0A01D89007014035A7
:10131000036ABF0FE96E070E0320EA6E010EEE2688
:1013200001E3EF2AD8904035036A9A0FE96E070E61
:101330000320EA6EEC6AED52EF6A63D00A01D8909E
:1013400007014035036A860FE96E070E0320EA6E37
:10135000ECCF38FAED52EFCF37FA0A01372D52D0E1
:10136000385350E1D89007014035036ABF0FE96E4A
:10137000070E0320EA6EECCF38FAED52EFCF37FAC2
:101380000A01375325E1385323E1D890070140354E
:10139000036ABF0F016E070E03220A0103C038FA69
:1013A000D89007014035036A5E0FE96E070E0320EF
:1013B000EA6EECCF03F0ED52EFCF39FA0A0138CAEA
:1013C000EAFF01C0E9FF03C0ECFFED5239CAEFFFAD
:1013D000D89007014035036ABF0FE96E070E03205E
:1013E000EA6EFF0EEF2602E2EE52ED06D89040358F
:1013F000036A9A0FE96E070E0320EA6EEC6AED525B
:10140000EF6A0A01D89007014035036A4E0FE96E72
:10141000070E0320EA6EECCF38FAED52EFCF37FA21
:101420000A01372DC3D03853D8A4C0D0D8900701B3
:101430004035036A860FE96E070E0320EA6EECCF93
:1014400038FAED52EFCF37FA0A01372D4CD0385326
:101450004AE1D89007014035036ABF0FE96E070ED5
:101460000320EA6EECCF38FAED52EFCF37FAD8907E
:101470004035036A5E0FE96E070E0320EA6EECCF7B
:1014800003F0ED52EFCF01F003500A01385D11E394
:1014900003E10150375D0DE3D89007014035036A41
:1014A000BF0FE96E070E0320EA6EEC6AED52EF6A99
:1014B0000A01D89007014035036ABF0FE96E070E95
:1014C0000320EA6E010EEE2601E3EF2AD8904035A4
:1014D000036A9A0FE96E070E0320EA6EEC6AED527A
:1014E000EF6A63D00A01D89007014035036A860F7E
:1014F000E96E070E0320EA6EECCF38FAED52EFCF1B
:1015000037FA0A01375352E1385350E1D8900701B6
:101510004035036ABF0FE96E070E0320EA6EECCF79
:1015200038FAED52EFCF37FA0A01375325E1385335
:1015300023E1D89007014035036ABF0F016E070E03
:1015400003220A0103C038FAD89007014035036A24
:101550005E0FE96E070E0320EA6EECCF03F0ED524A
:10156000EFCF39FA0A0138CAEAFF01C0E9FF03C028
:10157000ECFFED5239CAEFFFD89007014035036AFE
:10158000BF0FE96E070E0320EA6EFF0EEF2602E2A0
:10159000EE52ED06D8904035036A9A0FE96E070EB9
:1015A0000320EA6EEC6AED52EF6A0A011F5004084C
:1015B000D8A499D02052D8A496D0D890070140350D
:1015C000036A6A0FE96E070E0320EA6EECCF38FA61
:1015D000ED52EFCF37FA0A0137510208D8A483D071
:1015E0003853D8A480D0010E070140250A01376F77
:1015F00007014051040DF350036AA20FE96E070E74
:101600000320EA6EEFCF38FAECCF39FAECCF3AFA92
:10161000ECCF3BFAD8904035036ABB0FE96E070E5A
:101620000320EA6EECCF3DFAED52EFCF3CFAD890B2
:101630004035036ABF0FE96E070E0320EA6EECCF58
:101640003FFAED52EFCF3EFA6D0E9EA8FED7AD6E7B
:101650003A0E9EA8FED7AD6E37CA40FA1B0E0A019D
:10166000416F0001A0DC2C0E9EA8FED7AD6EAAC76C
:1016700040FA1B0E0A01416F000195DC690EF66EFF
:101680000F0EF76E000EF86E030E0A01406F000198
:10169000C9DC410EE96E3BCA43FA3ACA42FA39CA7A
:1016A00041FA38CA40FA21DD2C0E9EA8FED7AD6E55
:1016B000100EE96E3DCA41FA3CCA40FA74DD2C0EA8
:1016C0009EA8FED7AD6E100EE96E3FCA41FA3ECA23
:1016D00040FA69DD0D0E9EA8FED7AD6E0A0E9EA8DB
:1016E000FED7AD6E0A0100011200D8900701403507
:1016F000036ABB0FE96E070E0320EA6E010EEE26A9
:1017000001E3EF2AAA51000A000105E0010A06E000
:10171000030A0DE021D0F090F0901ED0020E0701D8
:10172000AA6FF096F090F086F19A000115D0010EA4
:101730000701AA6FD8904035036ABB0FE96E070E08
:101740000320EA6EFF0EEF2602E2EE52ED06F0965F
:10175000F090F086F18A000180DDF09058EF00F003
:10176000D89007014035036ABB0FE96E070E0320CE
:10177000EA6E010EEE2601E3EF2AAA51000A0001EB
:1017800005E0010A06E0030A0DE021D0F092F09294
:101790001ED0020E0701AA6FF098F092F088F1981F
:1017A000000115D0010E0701AA6FD8904035036AD9
:1017B000BB0FE96E070E0320EA6EFF0EEF2602E272
:1017C000EE52ED06F098F092F088F188000145DDC8
:1017D000F09258EF00F007014051000A000103E0C9
:1017E000010A49E08FD0D89007014035036A6A0F9B
:1017F000E96E070E0320EA6EECCF38FAED52EFCF18
:1018000037FA0A01372D0FD038530DE1036A07016B
:101810004051CB0FE96E070E0320EA6E000E81B82F
:10182000010EEF6E0A01D89007014035036A6A0F76
:10183000E96E070E0320EA6EECCF38FAED52EFCFD7
:1018400037FA0A013751020814E1385312E1036AEA
:1018500007014051CB0FE96E070E0320EA6E000E20
:1018600081B8010E0A01396F000E81B2010E3915DF
:10187000EF6E000147D0D89007014035036A6A0F28
:10188000E96E070E0320EA6EECCF38FAED52EFCF87
:1018900037FA0A01372D0FD038530DE1036A0701DB
:1018A0004051CB0FE96E070E0320EA6E000E81BA9D
:1018B000010EEF6E0A01D89007014035036A6A0FE6
:1018C000E96E070E0320EA6EECCF38FAED52EFCF47
:1018D00037FA0A013751020814E1385312E1036A5A
:1018E00007014051CB0FE96E070E0320EA6E000E90
:1018F00081BA010E0A01396F000E81B4010E39154B
:10190000EF6E000129EF0DF0F90EB36EC00EB26E4E
:10191000D89007014035036A8E0FE96E070E032049
:10192000EA6E010EEE2601E3EF2AD8904035036AF5
:101930008E0FE96E070E0320EA6EECCF38FAED52F7
:10194000EFCF37FAD8904035036A4A0FE96E070E99
:101950000320EA6EECCF03F0ED52EFCF01F003501D
:101960000A01385DD8A076D004E10150375DD8A0D7
:1019700071D007014051040DF350036AA20FE96EC4
:10198000070E0320EA6E010EEE26000EEE22EE2276
:10199000ED22D8904035036A9A0FE96E070E0320B6
:1019A000EA6E010EEE2601E3EF2AD8904035036A75
:1019B0008E0FE96E070E0320EA6EEC6AED52EF6AB5
:1019C000405302E1907830D08D78D8904035036A4A
:1019D000860FE96E070E0320EA6EECCF38FAED525F
:1019E000EFCF37FA0A01375312E1385310E1D8909C
:1019F00007014035036AB30FE96E070E0320EA6E54
:101A0000FF0EEF2602E2EE52ED060ED00A01D8904C
:101A100007014035036AB30FE96E070E0320EA6E33
:101A2000010EEE2601E3EF2AD8904035036A660FD7
:101A3000E96E070E0320EA6EECCF38FAED52EFCFD5
:101A400037FA0A013751030805E1385303E1000171
:101A5000C2D60A01A192A192000158EF00F0404CB9
:101A600050432C254C752C254C640D0A0000404D2C
:101A70004D452C25752C254C642C254C752C254C5E
:101A8000752C254C642C254C640D0A0056414C568F
:101A9000452053544F5020254C752C254C750D0A6C
:101AA0000000696E643A2575202F207068613A2520
:101AB000750D0A0040524543202D20686F6D696EF8
:101AC0006720737972696E676520616E6420616C4E
:101AD00069676E696E672076616C766520746F2029
:101AE000706F727420310D0A00002C736572696189
:101AF0006C2077616B652D75702C534420696E697D
:101B00007469616C697A65640D0A0000405253542F
:101B10000D0A0000405744540D0A00002C726573F2
:101B2000746172742063617573652C574420746905
:101B30006D652D6F75740D0A0000405744530D0AF2
:101B400000002C7265737461727420636175736533
:101B50002C57442066726F6D20736C6565700D0A9A
:101B60000000404E50550D0A00002C6964235B258F
:101B70004C755D2C706F776572206170706C696553
:101B8000642C534420696E697469616C697A656478
:101B90000D0A0000405253540D0A00002C72657368
:101BA000746172742063617573652C7265736574FA
:101BB00020696E737472756374696F6E0D0A00002C
:101BC00040424F520D0A00002C72657374617274AA
:101BD0002063617573652C62726F776E2D6F7574FB
:101BE0000D0A0000404D52530D0A00002C7265731F
:101BF000746172742063617573652C4D434C52207F
:101C000066726F6D20736C6565700D0A0000404D43
:101C100052520D0A00002C72657374617274206355
:101C2000617573652C4D434C52207768656E207248
:101C3000756E6E696E670D0A00004E4F33004E4F91
:101C40003200504F34004E48340053694F000000BA
:101C5000404445545B2F25755D5B25635D415247CC
:101C60005B254C755D0D0A002074696D652D6F75DF
:101C70007400206461746120746F6F2073686F72E8
:101C80007400206461746120746F6F206C6F6E67E4
:101C900000002C6465746563746F725B25735D2C42
:101CA0006C656E5B25755D00405254592C25750D91
:101CB0000A002C73746172742068656174696E67C0
:101CC0002C7461726765745B254C755D2C6163745F
:101CD00075616C5B254C755D2C72656164696E671E
:101CE000735B254C755D0D0A00002C656E642068E1
:101CF000656174696E672C7461726765745B254CED
:101D0000755D2C61637475616C5B254C755D2C721F
:101D1000656164696E67735B254C755D0D0A000033
:101D20004E4F33004E4F3200504F34004E48340077
:101D300053694F000000404441432C254C752C252D
:101D40004C752C00405341522C312C254C752C00E5
:101D50004056414C20004056414C20004056414CDA
:101D600020004056414C200040534F4C5B2F315DCA
:101D70005B735D5B254C755D0D0A00002F3173258B
:101D80004C750D0040534F4C5B2F315D5B635D5BC9
:101D900025755D0D0A002F316325750D00002F316B
:101DA000733235360D0028493073292C254C752C9B
:101DB00028493173292C254C752C284162732D73C9
:101DC000292C25312E34672C28493074292C254C98
:101DD000752C28493174292C254C752C28416273A7
:101DE0002D74292C25312E34672C28493072292C4A
:101DF000254C752C28493172292C254C752C2841ED
:101E000062732D72292C25312E3467004041627394
:101E10002C4E4F332C25730D0A0028493073292C82
:101E2000254C752C28493173292C254C752C2841BB
:101E300062732D73292C25312E34672C2849307478
:101E4000292C254C752C28493174292C254C752CAE
:101E5000284162732D74292C25312E34672C284992
:101E60003072292C254C752C28493172292C254C8F
:101E7000752C284162732D72292C25312E34670070
:101E8000404162732C4E4F322C25730D0A002849B5
:101E90003073292C254C752C28493173292C254C5D
:101EA000752C284162732D73292C25312E34672C13
:101EB00028493074292C254C752C28493174292C3B
:101EC000254C752C284162732D74292C25312E3414
:101ED000672C28493072292C254C752C28493172E1
:101EE000292C254C752C284162732D72292C253103
:101EF0002E346700404162732C504F342C25730DF3
:101F00000A0028493073292C254C752C2849317337
:101F1000292C254C752C284162732D73292C2531D1
:101F20002E34672C28493074292C254C752C2849CF
:101F30003174292C254C752C284162732D74292C61
:101F400025312E34672C28493072292C254C752CCC
:101F500028493172292C254C752C284162732D7229
:101F6000292C25312E346700404162732C4E4834B1
:101F70002C25730D0A0028493073292C254C752C0B
:101F800028493173292C254C752C284162732D73F7
:101F9000292C25312E34672C28493074292C254CC6
:101FA000752C28493174292C254C752C28416273D5
:101FB0002D74292C25312E34672C28493072292C78
:101FC000254C752C28493172292C254C752C28411B
:101FD00062732D72292C25312E3467004041425303
:101FE0002C53694F2C25730D0A004E4F33004E4F72
:101FF0003200504F34004E48340053694F00000007
:10200000286D292C25332E33672C2863292C253362
:102010002E336700284373292C25332E33670D0A8E
:10202000000040434F4E2C4E4F332C25730D0A00B9
:10203000286D292C25332E33672C2863292C253332
:102040002E336700284373292C25332E33670D0A5E
:10205000000040434F4E2C504F342C25730D0A0086
:10206000286D292C25332E33672C2863292C253302
:102070002E336700284373292C25332E33670D0A2E
:10208000000040434F4E2C4E48342C25730D0A005F
:10209000286D292C25332E33672C2863292C2533D2
:1020A0002E336700284373292C25332E33670D0AFE
:1020B000000040434F4E2C53694F2C25730D0A00EE
:1020C0004E4F3300504F34004E48340053694F0098
:1020D00000004D454D4F5259204F564552464C4FEA
:1020E00057204552524F522040204C696E65203A8D
:1020F000254C750A0D000D0A3A000D0A5741524E43
:10210000494E473A20494E56414C494420434F4D91
:102110004D414E4420494E204D4143524F210D0A1E
:10212000000042616420636F6D6D616E64206174B4
:10213000206C696E653A20254C64200D0A00506CB5
:10214000656173652072652D75706C6F6164206DBB
:102150006163726F0000497465726174696F6E73B8
:10216000206C6566743A20254C750D0A00002C6DB4
:102170006163726F5B25755D2C73746172740D0AF7
:102180000000404D434C5B25635D5B254C755D0D48
:102190000A00404C4E450D0A00004052554E0D0AB3
:1021A0000000404241440D0A000040542F4F0D0AE8
:1021B0000000404552520D0A000040454E440D0AB1
:1021C000000040484C540D0A00002C6D6163726F92
:1021D0005B25755D2C7374617475735B25635D2C71
:1021E0006C696E655B254C755D0D0A004052756E1D
:1021F0006E696E67202563254C75200D0A00404DE1
:102200006163726F202530344C75206F6620253055
:10221000344C750D0A00404C4E450D0A00004052EA
:10222000554E0D0A0000404241440D0A0000405442
:102230002F4F0D0A0000404552520D0A0000404544
:102240004E440D0A00002C6175746F2D73616D7022
:102250006C652C73616D706C655B254C755D2C73C2
:10226000746172740D0A00002C6175746F2D7361B6
:102270006D706C652C73616D706C655B254C755D64
:102280002C636F6D706C6574650D0A002C6175743C
:102290006F2D73616D706C652C73616D706C655B17
:1022A000254C755D2C6572726F720D0A00002C61F1
:1022B00075746F2D73616D706C652C73616D706CCE
:1022C000655B254C755D2C6D61782073616D706C5C
:1022D00065730D0A00002C6175746F2D73616D704C
:1022E0006C652C73616D706C655B254C755D2C7332
:1022F000746172740D0A00002C6175746F2D736126
:102300006D706C652C73616D706C655B254C755DD3
:102310002C636F6D706C6574650D0A002C617574AB
:102320006F2D73616D706C652C73616D706C655B86
:10233000254C755D2C73746172740D0A00002C615C
:1023400075746F2D73616D706C652C73616D706C3D
:10235000655B254C755D2C636F6D706C6574650DE8
:102360000A002C6175746F2D73616D706C652C7330
:10237000616D706C655B254C755D2C6D61782073AB
:10238000616D706C65730D0A00002C6175746F2DA2
:1023900073616D706C652C696E697469616C697AC2
:1023A000650D0A002C6865616465722C6964235BA5
:1023B000254C755D2C696E745B254C755D2C6D61CB
:1023C000785B254C755D0D0A00002C6175746F2DCE
:1023D00073616D706C652C73616D706C655B254C01
:1023E000755D2C616C61726D5B25755D0D0A000079
:1023F0002C6175746F2D73616D706C652C736C65D9
:1024000065700D0A000074313A254C752074323A1B
:10241000254C750D0A00404445542C254C750D0A79
:1024200000004E4F332C25312E35672C25312E35AB
:10243000670D0A00504F342C25312E35672C25317D
:102440002E35670D0A004E48342C25312E35672C69
:1024500025312E35670D0A0053694F342C25312E56
:1024600035672C25312E35670D0A00004E4F332875
:102470006D293A004E4F332863293A00504F3428D3
:102480006D293A00504F342863293A004E483428C9
:102490006D293A004E48342863293A0053694F3475
:1024A000286D293A000053694F342863293A000007
:1024B00041726520796F75207375726520796F752B
:1024C0002077616E7420746F20657261736520746B
:1024D00068652072617720646174612066696C654B
:1024E0003F2059206F72204E210D0A0046696C650D
:1024F0002064656C65746564210A0D004F70657217
:102500006174696F6E2063616E63656C6564210D33
:102510000A0041726520796F7520737572652079A4
:102520006F752077616E7420746F206572617365BA
:10253000207468652063616C63756C6174656420E8
:10254000646174612066696C653F2059206F722058
:102550004E210D0A000046696C652064656C657447
:102560006564210A0D004F7065726174696F6E2099
:1025700063616E63656C6564210D0A004049442304
:10258000254C752049254C75204E254C752F254C22
:10259000752058254C75205525752025342E327709
:1025A000560D0A00404D4F543A56414C3D254C754E
:1025B000205359523D254C640D0A0000405057529B
:1025C0003A253032752F253032752F25303275205F
:1025D000253032753A253032753A253032750D0A7C
:1025E0000000405057523A253032752F2530327551
:1025F0002F2530327520253032753A253032753A24
:10260000253032750D0A000041254C752049254CB6
:1026100075204C254C752051254C752053254C7543
:102620002025342E3277560D0A00404D4F543A562D
:10263000414C3D254C75205359523D254C640D0AA3
:102640000000405057523A253032752F25303275F0
:102650002F2530327520253032753A253032753AC3
:10266000253032750D0A000049254C75204E254C49
:10267000752F254C752050254C752025342E32772A
:10268000560D0A00404D4F543A5359523D254C6463
:102690000D0A0000405057523A253032752F253030
:1026A00032752F2530327520253032753A2530327B
:1026B000753A253032750D0A000040534D502025E3
:1026C00030344C750D0A000040534D5020253034F5
:1026D0004C750D0A0000456E746572206461746566
:1026E00020666F726D617420303D4D4D2F44442F34
:1026F00059592020313D44442F4D4D2F59590D0A31
:102700000000404F4B210D0A2000404552520D0A57
:1027100000004052554E0D0A00005B6D6F746F72E1
:102720003A315D0D0A005B6D6F746F723A325D0D68
:102730000A002C45434F206D6F6465207365740D4E
:102740000A002C574D532D342D5344206D6F646572
:10275000207365740D0A00002C415753206D6F647F
:1027600065207365740D0A002C574D532D342D517F
:1027700045206D6F6465207365740D0A0000303666
:102780002D4A756C2D31370031363A30393A3031B7
:10279000000053454E44204845582046494C4520AA
:1027A0002831393230302C4E38312C584F4E2D587C
:1027B0004F4646290D0A0000404F4B212000404162
:1027C00052472000404F4B212000404152472000FB
:1027D0000D0A40494E5600000D0A404F4B21200083
:1027E00040494E56000040434D4400002C636F6D3D
:1027F0006D616E642070726F6D70740D0A00202020
:1028000020202020202020202020202020202020C8
:1028100020202020202020202020202020202020B8
:102820002020202020000D0A404152472000404334
:102830004D4400002C636F6D6D616E642070726F8B
:102840006D70740D0A004053443D254C750D0A000F
:10285000404D43312C254C752C254C640D0A00004D
:10286000404D43322C254C752C254C640D0A00003C
:10287000507265737320616E6420686F6C6420749D
:10288000686520457363206B657920746F207265DD
:102890007475726E20746F20436F6D6D616E64206D
:1028A0004D6F64650D0A000052657475726E696E35
:1028B0006720746F204C6F6767696E67204D6F6487
:1028C000650D0A008B940C0EBB6EBE6ABF6A010ECA
:1028D0009C6EF80E0F012D17000E2D138B920C0E0F
:1028E0004E6F516B526B010E1B6FC70E2D17000EF2
:1028F0002D130509CA6E7F0ECB6E0001FBEFDBF0D6
:102900000B0ED76EDC0ED66EF294F28AD1801200D6
:10291000090EEA6EEC0EE96EEF500EE0140E016E39
:10292000006A002EFED7012EFBD7BF0E006E002ED0
:10293000FED700D0EF2EF2D712002F0E926E370E78
:10294000936E900E946E200E956E400E966E000E55
:10295000976EE40E986E400E996E000E9A6E8E96EB
:102960008E988E9A91969184918091829188918C83
:10297000918A8F908F988F96140E0901EC6F000149
:10298000C7DF8E92909E0401B66B8C848C868C90EF
:102990008C92B56B0001120090909092909490965A
:1029A0009098909ABC6A8D908D928D948D968D980A
:1029B0008D9A0F014F6B8E9C8E9E8E94000112009B
:1029C000010E4E6EAE509D8A120008019A6B996BF3
:1029D000986B9851010820E3080E9C6F990E9B6F2D
:1029E00098519B25016E000E9C21036E0150E96EEB
:1029F00003C0EAFF975198259D6FF2CF9EF8F29E93
:102A0000636A9DC862FF7F9C7F9E7F8061509EBFEE
:102A1000F28EEF6E982BDDD799C801F09AC802F0BC
:102A2000000112000801B86BF2CFB9F8F29E636A98
:102A3000B7C862FF7F9C7F9E7F806150B9BFF28ED6
:102A4000B86FB8C801F00001120008018B6B8A6BE7
:102A5000896B886B876B8751030824E3080E8D6FA1
:102A6000880E8C6F87518C25016E000E8D21036EB0
:102A70000150E96E03C0EAFF875185258E6F000E75
:102A800086218F6FF2CF90F8F29E8FC863FF8EC8B9
:102A900062FF7F9C7F9E7F80615090BFF28EEF6EC1
:102AA000872BD9D788C800F089C801F08AC802F0FE
:102AB0008BC803F0000112001E0E0801976F000181
:102AC00084DF02C030F001C02FF01C0E0801976FA8
:102AD00000017BDF02C020F001C01FF0160E0801CC
:102AE000976F000172DF02C022F001C021F0140EC6
:102AF0000801976F000169DF02C024F001C023F0D4
:102B00000801976B000161DF02C026F001C025F0CB
:102B1000180E0801976F000158DF02C028F001C0AD
:102B200027F0020E0801B76F00017CDF326A01C096
:102B300031F0280E0801B76F000174DF346A01C05C
:102B400033F0120E0801976F00013FDF02C036F02C
:102B500001C035F03A0E0801976F000136DF02C060
:102B600038F001C037F03C0E0801976F00012DDFEF
:102B700002C03EF001C03DF03E0E0801976F00011B
:102B800024DF02C040F001C03FF0400E0801976F03
:102B900000011BDF02C042F001C041F0420E0801FB
:102BA000976F000112DF02C044F001C043F0040E31
:102BB0000801B76F000136DF01C02DF70801866BF1
:102BC000440E856F000141DF03C0F8F302C0F7F344
:102BD00001C0F6F300C0F5F30801866B480E856F5F
:102BE000000133DF03C0FCF302C0FBF301C0FAF3C2
:102BF00000C0F9F30801866B4C0E856F000125DFDC
:102C000003C000F402C0FFF301C0FEF300C0FDF3F7
:102C10000801866B520E856F000117DF03C004F4B4
:102C200002C003F401C002F400C001F40801866B85
:102C3000560E856F000109DF03C008F402C007F4D7
:102C400001C006F400C005F40801866B5A0E856FBA
:102C50000001FBDE03C00CF402C00BF401C00AF457
:102C600000C009F40801866B5E0E856F0001EDDE81
:102C700003C010F402C00FF401C00EF400C00DF444
:102C80000801866B620E856F0001DFDE03C014F45D
:102C900002C013F401C012F400C011F4200E0801A8
:102CA000976F000192DE02C02AF001C029F0220EC7
:102CB0000801976F000189DE02C02CF001C02BF0E3
:102CC000240E0801976F000180DE02C02EF001C0C3
:102CD0002DF01200016A026A006A036A0801DE51DF
:102CE00002E1DD5118E0100EDF6FD890DB37DC37E2
:102CF00000360336DE51035C02E1DD51005C07E380
:102D0000DD51005ED8A00306DE51035ED880013697
:102D10000236DF2FEAD700011200860E0801976FF6
:102D2000000153DE02C043F701C042F78A0E0801DA
:102D3000976F00014ADE02C047F701C046F78E0ECA
:102D40000801976F000141DE02C04BF701C04AF74E
:102D5000920E0801976F000138DE02C04FF701C0E4
:102D60004EF7960E0801976F00012FDE02C053F751
:102D700001C052F79A0E0801976F000126DE02C0CB
:102D800057F701C056F79E0E0801976F00011DDE30
:102D900002C05BF701C05AF7A20E0801976F00014D
:102DA00014DE02C05FF701C05EF7A60E0801976F40
:102DB00000010BDE02C063F701C062F7820E08015A
:102DC000976F000102DE02C067F701C066F77E0E52
:102DD0000801976F0001F9DD02C0C0F701C0BFF71D
:102DE000AA0E0801976F0001F0DD02C0C4F701C010
:102DF000C3F77A0E0801976F0001E7DD02C06BF799
:102E000001C06AF7760E0801976F0001DEDD02C08F
:102E10006FF701C06EF7720E0801976F0001D5DDE4
:102E200002C073F701C072F76E0E0801976F0001C0
:102E3000CCDD02C097F701C096F7AE0E0801976F80
:102E40000001C3DD02C077F701C076F7B20E0801BA
:102E5000976F0001BADD02C0B0F701C0AFF7B60E40
:102E60000801976F0001B1DD02C0B4F701C0B3F7EC
:102E7000BA0E0801976F0001A8DD02C07BF701C000
:102E80007AF7BE0E0801976F00019FDD02C07FF741
:102E900001C07EF7C20E0801976F000196DD02C0E7
:102EA00083F701C082F7880E0801976F00018DDD5E
:102EB00002C045F701C044F78C0E0801976F00016E
:102EC00084DD02C049F701C048F7900E0801976FF2
:102ED00000017BDD02C04DF701C04CF7940E0801E4
:102EE000976F000172DD02C051F701C050F7980ED4
:102EF0000801976F000169DD02C055F701C054F762
:102F00009C0E0801976F000160DD02C059F701C0F7
:102F100058F7A00E0801976F000157DD02C05DF75A
:102F200001C05CF7A40E0801976F00014EDD02C0DE
:102F300061F701C060F7A80E0801976F000145DD39
:102F400002C065F701C064F7840E0801976F0001A5
:102F50003CDD02C069F701C068F7800E0801976F79
:102F6000000133DD02C0C2F701C0C1F7AC0E080199
:102F7000976F00012ADD02C0C6F701C0C5F77C0EBD
:102F80000801976F000121DD02C06DF701C06CF7E9
:102F9000780E0801976F000118DD02C071F701C0BB
:102FA00070F7740E0801976F00010FDD02C075F70E
:102FB00001C074F7700E0801976F000106DD02C0B2
:102FC00099F701C098F7B00E0801976F0001FDDC7A
:102FD00002C079F701C078F7B40E0801976F0001BD
:102FE000F4DC02C0B2F701C0B1F7B80E0801976F68
:102FF0000001EBDC02C0B6F701C0B5F7BC0E08015A
:10300000976F0001E2DC02C07DF701C07CF7C00EC3
:103010000801976F0001D9DC02C081F701C080F779
:10302000C40E0801976F0001D0DC02C085F701C013
:1030300084F70701406B010E416FA56BA46BA36B76
:10304000A26BA96BA86BA76BA66BBC6BBB6BBE6BB3
:10305000BD6B9B6B9A6B9D6B9C6B9F6B9E6BA16B0F
:10306000A06BB86BB76BBA6BB96B77C7DCF876C778
:10307000DBF863C7DEF862C7DDF800012BDED8900D
:10308000080101340701AB6F080102340701AC6F7E
:1030900079C7DCF878C7DBF865C7DEF864C7DDF808
:1030A000000118DED890080101340701AD6F080156
:1030B00002340701AE6F000112000801B66BB65171
:1030C00020080AE3036AB651B70FE96E040E032025
:1030D000EA6EEF6AB62BF3D7000112002F500208F8
:1030E00004E1305202E1000E996EE7DF0401B66B95
:1030F00000011CEFDCF0F29AD1901200010E0801E1
:10310000646F645103081DE389882F50020803E1AE
:10311000305201E1908C200E0901EC6F000188EC27
:1031200014F089982F50020803E1305201E1909C7D
:10313000200E0901EC6F000188EC14F00801642BEB
:10314000E0D7000120EFDCF02F50006E3050036E0E
:1031500002E1005211E0035003E1010E005C35E092
:10316000035003E1020E005C59E0035004E1030E3A
:10317000005CD8B47CD0A4D0BE0EF66E050EF76EFF
:10318000000EF86E1B6AF2BE1B8EF29E060E0A013E
:10319000406F000112EC08F01BBEF28ECA0EF66EF4
:1031A000050EF76E000EF86E1B6AF2BE1B8EF29EC5
:1031B00027EC07F01BBEF28E0D0E9EA8FED7AD6E5B
:1031C0000A0E9EA8FED7AD6EA3D0D20EF66E050EE7
:1031D000F76E000EF86E1B6AF2BE1B8EF29E090E91
:1031E0000A01406F000112EC08F01BBEF28EE00EE7
:1031F000F66E050EF76E000EF86E1B6AF2BE1B8EA1
:10320000F29E27EC07F01BBEF28E0D0E9EA8FED795
:10321000AD6E0A0E9EA8FED7AD6E7AD0E80EF66EA1
:10322000050EF76E000EF86E1B6AF2BE1B8EF29E44
:10323000060E0A01406F000112EC08F01BBEF28E70
:10324000F40EF66E050EF76E000EF86E1B6AF2BEF7
:103250001B8EF29E27EC07F01BBEF28E0D0E9EA871
:10326000FED7AD6E0A0E9EA8FED7AD6E51D0FC0EF5
:10327000F66E050EF76E000EF86E1B6AF2BE1B8E20
:10328000F29E090E0A01406F000112EC08F01BBE0D
:10329000F28E0A0EF66E060EF76E000EF86E1B6AC0
:1032A000F2BE1B8EF29E27EC07F01BBEF28E0D0EB7
:1032B0009EA8FED7AD6E0A0E9EA8FED7AD6E28D092
:1032C000120EF66E060EF76E000EF86E1B6AF2BE58
:1032D0001B8EF29E060E0A01406F000112EC08F0F0
:1032E0001BBEF28E1E0EF66E060EF76E000EF86E08
:1032F0001B6AF2BE1B8EF29E27EC07F01BBEF28EFD
:103300000D0E9EA8FED7AD6E0A0E9EA8FED7AD6E1E
:103310001200EEC8EFF80801EF39006E0F0E00162C
:1033200000500A0DF3CFEEF8EF39006EF00E0016E4
:103330000050003A0F0E00160050EE27EEC801F0C4
:10334000000112000801ED6BC69A210EC66E400EF8
:10335000C76E9190C950C96AC730FEE3C9CFEDF876
:10336000C950EDC8C9FFC730FEE3C9CF2CF7C9501B
:10337000EDC8C9FFC730FEE3C9CF25F7C950EDC876
:10338000C9FFC730FEE3C9CF26F7C950EDC8C9FF52
:10339000C730FEE3C9CF27F7C950EDC8C9FFC73012
:1033A000FEE3C9CF28F7C950EDC8C9FFC730FEE317
:1033B000C9CF29F7C950EDC8C9FFC730FEE3C9CF4F
:1033C0002AF7C950EDC8C9FFC730FEE3C9CF2BF7B4
:1033D000918025C7EEF800019CDF01C025F726C7C4
:1033E000EEF897DF01C026F727C7EEF892DF01C09D
:1033F00027F729C7EEF88DDF01C029F72AC7EEF8B5
:1034000088DF01C02AF72BC7EEF883DF01C02BF756
:103410001200F250006EF29E636A89C862FF8AC889
:1034200061FF7F9C7F9E7F840F01550E7E6EAA0EEA
:103430007E6E7F827FB2FED77F940050F212000131
:10344000120025C73FF726C73EF727C73DF729C714
:103450003BF72AC73AF72BC73CF7060E0801896FDE
:103460003AC78AF80001D5DF080E0801896F3BC70B
:103470008AF80001CEDF0A0E0801896F3CC78AF87E
:103480000001C7DF0C0E0801896F3DC78AF80001F3
:10349000C0DF0E0E0801896F3EC78AF80001B9DF50
:1034A000100E0801896F3FC78AF80001B2DF26EFCE
:1034B000DCF00801CB6BC69A210EC66E400EC76EBB
:1034C0009190C9500C0EC96EC730FEE3C9CFCBF83E
:1034D000C950CBC8C9FFC730FEE3C9CF30F79180D0
:1034E0000701309D9190C9508C0EC96EC730FEE324
:1034F000C9CFCBF8C95030C7C9FFC730FEE3C9CF29
:10350000CBF89180000112000401E66B010EE56F1B
:103510000A0EE46F010EE36FE26FE16BE06BDF6BAD
:10352000DE6B00011200016603D0026602D007D0F4
:10353000022A00C0EEFF012EFCD7022EFAD712009D
:103540000A0E0A01356F2C0E35CA33FA326FC95094
:10355000C968C730FEE3C9502BCAC9FFC730FEE3B4
:10356000030E3225E96E000E3321EA6EEFCF34FAF6
:10357000C95034CAC9FFC730FEE3020E3225E96ED6
:10358000000E3321EA6EEFCF34FAC95034CAC9FFB6
:10359000C730FEE3010E3225E96E000E3321EA6EDC
:1035A000EFCF34FAC95034CAC9FFC730FEE332CA7C
:1035B000E9FF33CAEAFFEFCF34FAC95034CAC9FF72
:1035C000C730FEE32B51480806E1C950870EC96E8B
:1035D000C730FEE305D0C950950EC96EC730FEE373
:1035E000306BC950C968C730FEE3C9CF31FA313DED
:1035F0000BD03051630808E3302BC950C968C7307D
:10360000FEE3C9CF31FAF3D731CA01F0000112004D
:103610000901EDBF10D00F0E006EEC3900160A0E36
:10362000005C03E2300E002602D0ED51002600506F
:103630009EA8FED7AD6E0F0EEC170A0EEC5D02E2EF
:10364000300E02D0ED9FED51EC27EC519EA8FED735
:10365000AD6E000112004E0EF66E060EF76E000EF5
:10366000F86E1B6AF2BE1B8EF29E27EC07F01BBEA3
:10367000F28EE4EF21F00901EB6B0401E76B91821C
:103680000A0E0901EC6F000188EC14F0C69A220EB4
:10369000C66E400EC76E9E960901E36BE3510908A2
:1036A00006E3C950C968C730FEE3E32BF7D7919210
:1036B0001F50040812E1205210E1760EF66E060E3D
:1036C000F76E000EF86E1B6AF2BE1B8EF29E0001B2
:1036D00027EC07F01BBEF28E0901400E0A012B6F8A
:1036E0002F6B2E6B2D6B2C6B00012ADF01C0E4F9D0
:1036F0000901E45101082AE21F50040824E1205284
:1037000022E1860EF66E060EF76E000EF86E1B6A4C
:10371000F2BE1B8EF29E310E0A01406F000112ECC8
:1037200008F01BBEF28EE4C9ECF9570E0901ED6FEB
:1037300000016EDF0D0E9EA8FED7AD6E0A0E9EA88C
:10374000FED7AD6E0901EB81E5EF21F01F500408B3
:1037500024E1205222E1BE0EF66E060EF76E000E38
:10376000F86E1B6AF2BE1B8EF29E1A0E0A01406FA3
:10377000000112EC08F01BBEF28EE4C9ECF9570E02
:103780000901ED6F000144DF0D0E9EA8FED7AD6E5E
:103790000A0E9EA8FED7AD6E0901480E0A012B6FD6
:1037A0002F6B2E6B010E2D6FAA0E2C6F0001C8DE41
:1037B00001C0E4F91F50040823E1205221E1E00E8A
:1037C000F66E060EF76E000EF86E1B6AF2BE1B8ECA
:1037D000F29E250E0A01406F000112EC08F01BBE9C
:1037E000F28EE4C9ECF9570E0901ED6F000110DF0C
:1037F0000D0E9EA8FED7AD6E0A0E9EA8FED7AD6E2A
:103800000901E42DE8D11F50040812E1205210E113
:103810000A0EF66E070EF76E000EF86E1B6AF2BE09
:103820001B8EF29E000127EC07F01BBEF28E0901F1
:10383000E36BE35103080FE3036AE351E50FE96E1D
:10384000090E0320EA6EC950C968C730FEE3C9CF2C
:10385000EFFFE32BEED71F50040839E1205237E188
:103860002C0EF66E070EF76E000EF86E1B6AF2BE97
:103870001B8EF29E1F0E0A01406F000112EC08F031
:103880001BBEF28EE5C9ECF9570E0901ED6F000180
:10389000BFDEE6C9ECF9570E0901ED6F0001B8DE95
:1038A000E7C9ECF9570E0901ED6F0001B1DEE8C977
:1038B000ECF9570E0901ED6F0001AADE0D0E9EA86E
:1038C000FED7AD6E0A0E9EA8FED7AD6E0901E72D9C
:1038D0006DD1E851AA08D8A469D11F50040812E19B
:1038E000205210E15E0EF66E070EF76E000EF86EB7
:1038F0001B6AF2BE1B8EF29E000127EC07F01BBE76
:10390000F28E09011F50040812E1205210E1840ECA
:10391000F66E070EF76E000EF86E1B6AF2BE1B8E77
:10392000F29E000127EC07F01BBEF28E0901EA6B44
:10393000E96B770E0A012B6F2F6B2E6B2D6B2C6BA7
:103940000001FEDD01C0E4F9690E0A012B6F400E93
:103950002F6F2E6B2D6B2C6B0001F2DD01C0E4F993
:103960000901E45328E0EA51C30825E303E1E951E2
:103970004F0821E36A0E006E002EFED70000E92BEF
:10398000D8B4EA2B770E0A012B6F2F6B2E6B2D6BA1
:103990002C6B0001D5DD01C0E4F9690E0A012B6F23
:1039A000400E2F6F2E6B2D6B2C6B0001C9DD01C0FB
:1039B000E4F9D6D709011F50040844E1205242E13E
:1039C000B20EF66E070EF76E000EF86E1B6AF2BEB0
:1039D0001B8EF29E230E0A01406F000112EC08F0CC
:1039E0001BBEF28EE4C9ECF9570E0901ED6F000120
:1039F0000FDED90EF66E070EF76E000EF86E1B6A1C
:103A0000F2BE1B8EF29E0A0E0A01406F000112ECFC
:103A100008F01BBEF28E100EE96E1B6AF2BE1B8E02
:103A2000F29EEAC941FAE9C940FAD3EC08F01BBE9C
:103A3000F28E0D0E9EA8FED7AD6E0A0E9EA8FED782
:103A4000AD6E0901E453D8A4B0D07A0E0A012B6FF1
:103A5000400E2F6F2E6B2D6B2C6B000171DD01C0A2
:103A6000E4F91F50040823E1205221E1EA0EF66E2A
:103A7000070EF76E000EF86E1B6AF2BE1B8EF29EEA
:103A8000180E0A01406F000112EC08F01BBEF28E06
:103A9000E4C9ECF9570E0901ED6F0001B9DD0D0E17
:103AA0009EA8FED7AD6E0A0E9EA8FED7AD6E090188
:103AB000E453D8A47AD0E36BE35103080FE3036A1D
:103AC000E351E50FE96E090E0320EA6EC950C9689B
:103AD000C730FEE3C9CFEFFFE32BEED7E5AD05D04E
:103AE000050E0401E76F04D00901040E0401E76F1D
:103AF0001F50040859E1205257E1080EF66E080ED7
:103B0000F76E000EF86E1B6AF2BE1B8EF29E1F0E41
:103B10000A01406F000112EC08F01BBEF28E100E7D
:103B2000E96E1B6AF2BE1B8EF29EEAC941FAE9C930
:103B300040FAD3EC08F01BBEF28E2A0EF66E080E89
:103B4000F76E000EF86E1B6AF2BE1B8EF29E080E18
:103B50000A01406F000112EC08F01BBEF28EE5C9AD
:103B6000ECF9570E0901ED6F000152DDE6C9ECF9E1
:103B7000570E0901ED6F00014BDDE7C9ECF9570E57
:103B80000901ED6F000144DDE8C9ECF9570E0901A8
:103B9000ED6F00013DDD0D0E9EA8FED7AD6E0A0E45
:103BA0009EA8FED7AD6E0401090115D01F50040870
:103BB00012E1205210E1460EF66E080EF76E000E6E
:103BC000F86E1B6AF2BE1B8EF29E000127EC07F016
:103BD0001BBEF28E09010401E753D8A467D21F501F
:103BE000040812E1205210E1780EF66E080EF76E0E
:103BF000000EF86E1B6AF2BE1B8EF29E000127ECCF
:103C000007F01BBEF28E0401400E0A012B6F2F6BD2
:103C10002E6B2D6B2C6B000193DC01C0E4F91F505F
:103C2000040823E1205221E1B80EF66E080EF76E6B
:103C3000000EF86E1B6AF2BE1B8EF29E1C0E0A016D
:103C4000406F000112EC08F01BBEF28EE4C9ECF9E3
:103C5000570E0901ED6F0001DBDC0D0E9EA8FED7AB
:103C6000AD6E0A0E9EA8FED7AD6E0901E42D01D0FF
:103C700005D0E45303E0EB81E5EF21F0EA6BE96B5B
:103C8000410E0A012B6F2F6B2E6B2D6B2C6B0001DD
:103C900057DC01C0E4F90901E45304E0350E006E7D
:103CA000002EFED7E92BD8B4EA2BE45307E0EA5103
:103CB000C30804E3E5E1E9514F08E2E21F500408BC
:103CC00044E1205242E1DC0EF66E080EF76E000E63
:103CD000F86E1B6AF2BE1B8EF29E280E0A01406F20
:103CE000000112EC08F01BBEF28EE4C9ECF9570E8D
:103CF0000901ED6F00018CDC080EF66E090EF76EFF
:103D0000000EF86E1B6AF2BE1B8EF29E0A0E0A01AE
:103D1000406F000112EC08F01BBEF28E100EE96E2F
:103D20001B6AF2BE1B8EF29EEAC941FAE9C940FA4B
:103D3000D3EC08F01BBEF28E0D0E9EA8FED7AD6E22
:103D40000A0E9EA8FED7AD6E0901E45302E0EB8196
:103D50003CD3770E0A012B6F2F6B2E6B2D6B2C6BC8
:103D60000001A0EC1AF001C0E4F91F50040823E19F
:103D7000205221E1180EF66E090EF76E000EF86E55
:103D80001B6AF2BE1B8EF29E430E0A01406F0001B9
:103D900012EC08F01BBEF28EE4C9ECF9570E0901D3
:103DA000ED6F000135DC0D0E9EA8FED7AD6E0A0E3C
:103DB0009EA8FED7AD6E0901E45305E0020E040192
:103DC000E76FFED00901690E0A012B6F2F6B2E6B76
:103DD0002D6B2C6B0001A0EC1AF001C0E4F9090175
:103DE000E451010805E3030E0401E76FE9D009017E
:103DF0001F5004082FE120522DE1620EF66E090ECD
:103E0000F76E000EF86E1B6AF2BE1B8EF29E2E0E2F
:103E10000A01406F000112EC08F01BBEF28EE4C9EB
:103E2000ECF9370E0901ED6F000108EC1BF0940E60
:103E3000F66E090EF76E000EF86E1B6AF2BE1B8E50
:103E4000F29E190E0A01406F000112EC08F01BBE31
:103E5000F28E0901400E0A012B6F2F6B2E6B2D6B1A
:103E60002C6B0001A0EC1AF001C0E4F90901E42D6B
:103E700001D036D0E45334E01F5004082FE1205223
:103E80002DE1AE0EF66E090EF76E000EF86E1B6A8F
:103E9000F2BE1B8EF29E2C0E0A01406F000112EC46
:103EA00008F01BBEF28EE4C9ECF9370E0901ED6F84
:103EB000000108EC1BF0DE0EF66E090EF76E000E28
:103EC000F86E1B6AF2BE1B8EF29E0B0E0A01406F4B
:103ED000000112EC08F01BBEF28E0901EB8175D2D5
:103EE000EA6BE96B410E0A012B6F2F6B2E6B2D6B6A
:103EF0002C6B0001A0EC1AF001C0E4F90901E453B5
:103F000004E0350E006E002EFED7E92BD8B4EA2B64
:103F1000E45307E0EA51C30804E3E4E1E9514F0840
:103F2000E1E2E4534AE01F50040845E1205243E136
:103F3000EA0EF66E090EF76E000EF86E1B6AF2BE00
:103F40001B8EF29E4A0E0A01406F000112EC08F02F
:103F50001BBEF28EE4C9ECF9370E0901ED6F0001CA
:103F600008EC1BF0380EF66E0A0EF76E000EF86EB7
:103F70001B6AF2BE1B8EF29E0A0E0A01406F000100
:103F800012EC08F01BBEF28E100EE96E1B6AF2BE38
:103F90001B8EF29EEAC941FAE9C940FAD3EC08F057
:103FA0001BBEF28E0D0E9EA8FED7AD6E0A0E9EA809
:103FB000FED7AD6E0901EB8108D2020E0401E76F56
:103FC0001F50040812E1205210E1480EF66E0A0E4E
:103FD000F76E000EF86E1B6AF2BE1B8EF29E000199
:103FE00027EC07F01BBEF28E0401500E0A012B6F66
:103FF0002F6B2E6B020E2D6F2C6B0001A0EC1AF0B4
:1040000001C0E4F90901E951500803E1EA51C3088C
:1040100003E0E45101084BE20401E76B1F50040880
:1040200045E1205243E1640EF66E0A0EF76E000E73
:10403000F86E1B6AF2BE1B8EF29E2B0E0A01406FB9
:10404000000112EC08F01BBEF28EE4C9ECF9570E29
:104050000901ED6F000108EC1BF0930EF66E0A0EDD
:10406000F76E000EF86E1B6AF2BE1B8EF29E0A0EF1
:104070000A01406F000112EC08F01BBEF28E100E18
:10408000E96E1B6AF2BE1B8EF29EEAC941FAE9C9CB
:1040900040FAD3EC08F01BBEF28E0D0E9EA8FED7A0
:1040A000AD6E0A0E9EA8FED7AD6E04010901040193
:1040B000E75319E11F50040812E1205210E1A40E49
:1040C000F66E0A0EF76E000EF86E1B6AF2BE1B8EBD
:1040D000F29E000127EC07F01BBEF28E04010901DD
:1040E000EB8173D10401E751020A000107E0010AE4
:1040F00019E0070A2BE0010A3DE050D01F500408E8
:1041000010E120520EE1C40EF66E0A0EF76E000E9C
:10411000F86E1B6AF2BE1B8EF29E27EC07F01BBEE8
:10412000F28E67D01F50040810E120520EE1DA0E23
:10413000F66E0A0EF76E000EF86E1B6AF2BE1B8E4C
:10414000F29E27EC07F01BBEF28E53D01F500408DE
:1041500010E120520EE1F00EF66E0A0EF76E000E20
:10416000F86E1B6AF2BE1B8EF29E27EC07F01BBE98
:10417000F28E3FD01F50040810E120520EE1060ECF
:10418000F66E0B0EF76E000EF86E1B6AF2BE1B8EFB
:10419000F29E27EC07F01BBEF28E2BD01F500408B6
:1041A00024E1205222E11C0EF66E0B0EF76E000E7B
:1041B000F86E1B6AF2BE1B8EF29E260E0A01406F3D
:1041C000000112EC08F01BBEF28EE7C4ECF9370ECA
:1041D0000901ED6F000108EC1BF00D0E9EA8FED743
:1041E000AD6E0A0E9EA8FED7AD6E0901EB81EDD033
:1041F00000010901EB911F5004082BE1205229E135
:104200004A0EF66E0B0EF76E000EF86E1B6AF2BECB
:104210001B8EF29E2E0E0A01406F000112EC08F078
:104220001BBEF28E100EE96E1B6AF2BE1B8EF29E52
:10423000EAC941FAE9C940FAD3EC08F01BBEF28E94
:104240000D0E9EA8FED7AD6E0A0E9EA8FED7AD6ECF
:1042500009019182C69A200EC66E400EC76E9E96C8
:1042600091921F50040812E1205210E17E0EF66E6A
:104270000B0EF76E000EF86E1B6AF2BE1B8EF29EDE
:10428000000127EC07F01BBEF28E0901EA6BE96B17
:10429000410E0A012B6F2F6B2E6B2D6B2C6B0001C7
:1042A000A0EC1AF001C0E4F90901E45304E0350E72
:1042B000006E002EFED7E92BD8B4EA2BE45307E0BA
:1042C000EA51C30804E3E4E1E9514F08E1E2E453B1
:1042D0004AE01F50040845E1205243E19E0EF66E6D
:1042E0000B0EF76E000EF86E1B6AF2BE1B8EF29E6E
:1042F000260E0A01406F000112EC08F01BBEF28E80
:10430000E4C9ECF9370E0901ED6F000108EC1BF070
:10431000C80EF66E0B0EF76E000EF86E1B6AF2BE3C
:104320001B8EF29E0A0E0A01406F000112EC08F08B
:104330001BBEF28E100EE96E1B6AF2BE1B8EF29E41
:10434000EAC941FAE9C940FAD3EC08F01BBEF28E83
:104350000D0E9EA8FED7AD6E0A0E9EA8FED7AD6EBE
:104360000901EB8132D01F5004082BE1205229E1D2
:10437000D80EF66E0B0EF76E000EF86E1B6AF2BECC
:104380001B8EF29E250E0A01406F000112EC08F010
:104390001BBEF28E100EE96E1B6AF2BE1B8EF29EE1
:1043A000EAC941FAE9C940FAD3EC08F01BBEF28E23
:1043B0000D0E9EA8FED7AD6E0A0E9EA8FED7AD6E5E
:1043C000090100012BEF1BF009019182EBC901F0FB
:1043D00000011200500E0A012B6F2ACA2FFA29CAB7
:1043E0002EFA28CA2DFA27CA2CFA0001A0EC1AF0DE
:1043F000015003E0400A0CE00ED02ACAECF429CAAE
:10440000EBF428CAEAF427CAE9F4010E016E05D0DC
:10441000000E016E02D0000E016E7FEF22F0C95037
:10442000C968C730FEE3C9CF2FFA0A012E6B2D6B86
:104430002E51270814E303E12D510F0810E32F3DFF
:104440000ED0350E006E002EFED7C950C968C73099
:10445000FEE3C9CF2FFA2D2BD8B42E2BE9D72F513D
:10446000FE0807E02F5302E1FE0E2F6F2FCA01F066
:104470002BD02E6B2D6B2C5309E12B5307E12E51C2
:104480002A5D14E303E129512D5D10E227512D250A
:10449000E96E28512E21EA6EC950C968C730FEE383
:1044A000C9CFEFFF2D2BD8B42E2BE5D7C950C96843
:1044B000C730FEE3C950C968C730FEE3C950C968B8
:1044C000C730FEE3000E016E000112000401EDA1F1
:1044D00003D0030E016E98D00A012651010802E3B1
:1044E000265305E1040E016E04018ED00A0191925B
:1044F0002A6B296B020E286F276B00016BD70152C4
:1045000006E19182010E016E04017ED000010401DA
:10451000E75105080DE0D89024CA25FA23CA24FAE9
:1045200022CA23FA0A01226B2337243725370401D4
:104530000A01262D2BD0510E2B6F25CA2FFA24CA23
:104540002EFA23CA2DFA22CA2CFA0001A0EC1AF086
:10455000015206E09182040E016E040155D0000163
:1045600021CA28FA20CA27FA0A012C6B2B6B020EEB
:104570002A6F296B000153DF015206E09182010E80
:10458000016E040141D000013BD00A01520E2B6F95
:1045900025CA2FFA24CA2EFA23CA2DFA22CA2CFAC7
:1045A0000001A0EC1AF0015206E09182040E016EA7
:1045B00004012AD0000121CA28FA20CA27FA0A01D8
:1045C0002C6B2B6B020E2A6F296B000128DF015226
:1045D00006E09182010E016E040116D00001020E68
:1045E0000A0121272607D8B402D00001E4D74C0ED7
:1045F0002B6F2F6B2E6B2D6B2C6B0001A0EC1AF028
:104600009182000E016E040100011200EAC9F0F966
:10461000E9C9EFF9ECC9F2F9EBC9F1F90901EE5377
:1046200003E1ED51000830E2EFC9E9FFF0C9EAFF0C
:10463000EFCFF3F9F2C903F0F1C9E9FFF2C9EAFFDC
:10464000EF50F35D16E0F0C903F0EFC9E9FF03C0D6
:10465000EAFFEFCFF3F9F2C903F0F1C9E9FFF2C9BC
:10466000EAFFEF50F35D02E2FF0E01D0010E016E92
:104670000DD0EF2BD8B4F02BF12BD8B4F22BED5199
:10468000D8B4EE07ED07CBD7000E016E0001120083
:10469000240E07011225016E000E1321036E01C0C6
:1046A000E7F90901E86FEA6E01C0E9FF006A020E4E
:1046B000026E016A000193EC1AF0240E0701122524
:1046C000016E000E1321036E01C0E7F90901E86FC6
:1046D000E8CF21FA01C020FAE6C925FAE5C924FA93
:1046E000E4C923FAE3C922FA010E0A01266F000188
:1046F000EDDE0152D8A477D0220E07011225016EFB
:10470000020E1321036E01C0E9FFEA6EECCFE8F957
:10471000ED52EFCFE7F90901E751550865E1E8519E
:10472000AA0862E15A0E07011225016E000E13213C
:10473000036E01C0E7F90901E86FEA6F01C0E9F90A
:10474000070EEC6F140EEB6FEE6B050EED6F0001B4
:104750005DDF015203E1010E016E49D05A0E0701DF
:104760001225016E000E1321036E01C0E7F9090145
:10477000E86FEA6F01C0E9F9070EEC6F190EEB6FF5
:10478000EE6B050EED6F000141DF015203E1020EF9
:10479000016E2DD0760E07011225016E000E132139
:1047A000036E01C0E7F90901E86FEA6F01C0E9F99A
:1047B000070EEC6F1E0EEB6FEE6B050EED6F00013A
:1047C00025DF015210E14C0E07011225E96E000EA3
:1047D0001321EA6EEF52D8B402D0000104D0030EC8
:1047E000016E000104D00901000E016E00011200EB
:1047F0000901FE6BFF6B010E0A01006FDA6AD96ACC
:10480000090E036FF60E026F090EEA6EFA0EE96EDC
:1048100003CAE2FF02CAE1FF00CA01FAD890E550DC
:10482000EE02F3500901FE23F450FF230A01012F89
:10483000F5D7FEC9DEFFFFC9FEF90901FF6BD8B04D
:10484000FF2B0A01022BD8B4032B002B00510508C3
:10485000DBE10001120007011251131103E10B0EFD
:10486000016EC6D213C7EAFF12C7E9FF006A020E43
:10487000026E240E016E000193EC1AF03BEC1BF06B
:1048800001C0EDF40401EDA106D000013BEC1BF0EA
:1048900001C0EDF40401EDA105D0010E016E070188
:1048A000A7D204010901DA6BD96BD86BD76BDAC9CF
:1048B000E6F9D9C9E5F9D8C9E4F9D7C9E3F900019E
:1048C000E7DE01C0D6F90901D65337E1E60E07014C
:1048D0001225E96E010E1321EA6EEF521EE0EA0E78
:1048E0001225016E010E132101C0E9FFEA6EEFCF20
:1048F000D7F9ECCFD8F9ECCFD9F9ECCFDAF9DAC99E
:10490000E6F9D9C9E5F9D8C9E4F9D7C9E3F900014D
:10491000BFDE01C0D6F910D00701040EF66E0C0EF2
:10492000F76E000EF86E1B6AF2BE1B8EF29E00013F
:1049300027EC07F01BBEF28E0901D65305E10C0EE1
:10494000016E070155D20901070112C7E9FF13C71C
:10495000EAFFD6C9EFFF0901D651030832E1080E7C
:1049600007011225016E000E1321036E01C0E3F949
:104970000901E46F480E07011225016E000E132194
:1049800001C0E9FFEA6EEFCF00F0ECCF01F0ECCF11
:1049900002F0ECCF03F003C0E8F902C0E7F901C070
:1049A000E6F900C0E5F9E4C9EAFFE3C9E9FF00C0A0
:1049B000EFFF01C0ECFF02C0ECFF03C0ECFF2DD005
:1049C0000901080E07011225016E000E1321036E66
:1049D00001C0E3F90901E46F3A0E07011225016EE7
:1049E000000E132101C0E9FFEA6EECCF03F0ED5297
:1049F000EFCFE5F9090103C0E6F9E4C9EAFFE3C92D
:104A0000E9FFEE52EE52EC6AED52EF6AED5203C04E
:104A1000EFFFED52E5C9EFFF0701020E1225016E0F
:104A2000000E1321036E310E07011225E96E000EF0
:104A30001321EA6EEFCFE5F9090103C0EAFF01C0D7
:104A4000E9FFE5C9EFFF030E07011225016E000E15
:104A50001321036E340E07011225E96E000E132197
:104A6000EA6EEFCFE5F9090103C0EAFF01C0E9FFF3
:104A7000E5C9EFFF100E07011225016E000E13218C
:104A8000036E01C0E3F90901E46F320E070112253C
:104A9000016E000E132101C0E9FFEA6EECCF03F0B6
:104AA000ED52EF500901D725006E0350D821016E59
:104AB000000ED921026E000EDA21E4C9EAFFE3C933
:104AC000E9FF00C0EFFF01C0ECFF02C0ECFFEC6E9D
:104AD000040E07011225016E000E1321036E01C0A2
:104AE000E3F90901E46F350E07011225016E000E8E
:104AF000132101C0E9FFEA6EECCF03F0ED52EFCFD6
:104B0000E5F90901E4C9EAFFE3C9E9FF03C0ECFFE5
:104B1000ED52E5C9EFFF080E07011225E96E000E00
:104B20001321EA6EEFCFF6F9ECCFF7F9ECCFF8F9F5
:104B3000ECCFF9F9030E1225E96E000E1321EA6E8F
:104B4000EFCFFAF90901EACFE9F9E9CFE8F9FD6B0E
:104B5000FC6BFB6B00014CDEE9C9EAFFE8C9E9FF29
:104B600003C0E6F902C0E5F901C0E4F900C0E3F9C9
:104B7000100E07011225E96E000E1321EA6EEFCF29
:104B800000F0ECCF01F0ECCF02F0ECCF03F00050DE
:104B90000901E325DB6F0150E421DC6F0250E521C0
:104BA000DD6F0350E621DE6FD651030838E1140EA5
:104BB00007011225016E000E1321036E01C0E3F9F7
:104BC0000901E46F500E07011225016E000E13213A
:104BD00001C0E9FFEA6EEFCF00F0ECCF01F0ECCFBF
:104BE00002F0ECCF03F0E4C9EAFFE3C9E9FF00C03B
:104BF000EFFF01C0ECFF02C0ECFF03C0ECFF180E9A
:104C00001225E96E000E1321EA6EDBC9EFFFDCC945
:104C1000ECFFDDC9ECFFDEC9ECFF47D00901140E43
:104C200007011225E96E000E1321EA6EDBC9EFFFC2
:104C3000DCC9ECFFDDC9ECFFDEC9ECFF180E122564
:104C4000016E000E132101C0E3F90901E46F040EA7
:104C500007011225E96E000E1321EA6EECCFE6F98A
:104C6000ED52EFCFE5F90901E633E533E633E533FD
:104C7000E633E533E633E5330F0EE617E551DB2582
:104C8000006EE651DC21016E000EDD21026E000E89
:104C9000DE21E4C9EAFFE3C9E9FF00C0EFFF01C07C
:104CA000ECFF02C0ECFFEC6E0701440E1225016E12
:104CB000000E132101C0E9FFEA6EEFCFDFF9ECCF60
:104CC000E0F9ECCFE1F9ECCFE2F90901DF5317E1AC
:104CD000E05315E1E15313E1E25311E1370E07010F
:104CE0001225016E000E132101C0E9FFEA6E0901D1
:104CF000E26BE16BECCFE0F9ED52EFCFDFF90C0E98
:104D000007011225016E000E1321036E01C0E3F9A5
:104D10000901E46F180E07011225E96E000E132138
:104D2000EA6EEFCF00F0ECCF01F0ECCF02F0ECCF69
:104D300003F000500901DF5DE56F0150E059E66FB7
:104D40000250E159E76F0350E259E86FD751E52768
:104D5000D851E623D951E723DA51E823020E07019F
:104D60001225E96E000E1321EA6EEFCF50FA090109
:104D7000EACFEBF9E9CFEAF9D8921B6AF2BE1B8EB3
:104D8000F29EE8C94FFAE7C94EFAE6C94DFAE5C9FD
:104D90004CFA0A01536B526B516B00012BEC08F07B
:104DA0001BBEF28EEBC9EAFFEAC9E9FF03C0E8F9CE
:104DB00002C0E7F901C0E6F900C0E5F9020E0901F9
:104DC0000024006E000E0120016E000E0220026E13
:104DD000000E0320E4C9EAFFE3C9E9FF00C0EFFFCA
:104DE00001C0ECFF02C0ECFFEC6E000E016E07018B
:104DF00000011200400EF66E0C0EF76E000EF86EFB
:104E00001B6AF2BE1B8EF29E27EC07F01BBEF28ED1
:104E1000000B0EE0500EF66E0C0EF76E000EF86EE4
:104E20001B6AF2BE1B8EF29E27EC07F01BBEF28EB1
:104E300008018AA110D05E0EF66E0C0EF76E000E01
:104E4000F86E1B6AF2BE1B8EF29E000127EC07F083
:104E50001BBEF28E08018AA310D0740EF66E0C0EE3
:104E6000F76E000EF86E1B6AF2BE1B8EF29E0001FA
:104E700027EC07F01BBEF28E08018A51030B10E0ED
:104E8000880EF66E0C0EF76E000EF86E1B6AF2BE00
:104E90001B8EF29E000127EC07F01BBEF28E08016C
:104EA0008AA510D09A0EF66E0C0EF76E000EF86EF4
:104EB0001B6AF2BE1B8EF29E000127EC07F01BBEA0
:104EC000F28E08018A51050B10E0AC0EF66E0C0E46
:104ED000F76E000EF86E1B6AF2BE1B8EF29E00018A
:104EE00027EC07F01BBEF28E08018A51060B10E07A
:104EF000C00EF66E0C0EF76E000EF86E1B6AF2BE58
:104F00001B8EF29E000127EC07F01BBEF28E0801FB
:104F10008A51070B10E0D00EF66E0C0EF76E000EE5
:104F2000F86E1B6AF2BE1B8EF29E000127EC07F0A2
:104F30001BBEF28E08018A51090B10E0E60EF66ED8
:104F40000C0EF76E000EF86E1B6AF2BE1B8EF29E00
:104F5000000127EC07F01BBEF28E08018A510A0BF4
:104F600010E0020EF66E0D0EF76E000EF86E1B6A64
:104F7000F2BE1B8EF29E000127EC07F01BBEF28EE4
:104F800008018A510B0B10E0180EF66E0D0EF76E2D
:104F9000000EF86E1B6AF2BE1B8EF29E000127EC1B
:104FA00007F01BBEF28E08018A510C0B10E02A0E8E
:104FB000F66E0D0EF76E000EF86E1B6AF2BE1B8EBB
:104FC000F29E000127EC07F01BBEF28E08010001E3
:104FD0002DEF28F00801F16BF15101082CE3EE519F
:104FE000F125F26F080EF46FEF0EF36FF151F32518
:104FF000016E000EF421036E0150E96E03C0EAFF5A
:10500000EFCFF3F8F250006EF29E636AF2C862FFCF
:10501000F3C861FF7F9C7F9E7F840F01550E7E6EDB
:10502000AA0E7E6E7F827FB2FED77F940050F2126E
:105030000801F12BD1D7000112000801896B8951B9
:10504000020812E3000107DC01C024F70701245322
:1050500005E024C78AF80001CDD603D0080104D0AA
:1050600000010801892BEBD73E0EEE6FF06B24C7D1
:10507000EFF80001AFDF070124C701F000011200C3
:10508000560EF66E060EF76E000EF86E1B6AF2BE36
:105090001B8EF29E27EC07F01BBEF28E12001EC084
:1050A000EAFF1DC0E9FF0801FFC8EFFFE92AD8B4F5
:1050B000EA2AEF6A1D2AD8B41E2A0001120009004C
:1050C000F55210E0F6CFEBF8F7CFECF8F8CFEDF8AB
:1050D000F5CFFFF8E4DFEBC8F6FFECC8F7FFEDC84B
:1050E000F8FFEDD71200020EEA6E990EE96E006A23
:1050F000026A1E0E016E93EC1AF012000801F36BA7
:10510000F26BF16BF06B000E016EC250830B01105D
:10511000C26E000E016EC150F80B0110C16E010E7F
:10512000ED6FED51320812E3C282C2B2FED7C3CF97
:10513000F4F8C4CFF5F8F66BF76B050E0901EC6FC8
:10514000000188EC14F00801ED2BEBD7010EED6F98
:10515000ED51640856E3C282C2B2FED7C3CFF4F861
:10516000C4CFF5F8F66BF76B010EED5DF86FF3C881
:10517000F9F9F2C8F8F9F1C8F7F9F0C8F6F9090138
:10518000FD6BFC6BFB6BFA6F0001F8EC23F003C0C6
:10519000FBF802C0FAF801C0F9F800C0F8F80801FD
:1051A000F451F827F551F923F651FA23F751FB236F
:1051B000D8921B6AF2BE1B8EF29EFBC84FFAFAC849
:1051C0004EFAF9C84DFAF8C84CFA0A01536B526B03
:1051D000516BEDC850FA00012BEC08F01BBEF28EAB
:1051E00003C0F3F802C0F2F801C0F1F800C0F0F813
:1051F000050E0901EC6F000188EC14F00801ED2B9D
:10520000A7D7F3C8F9F9F2C8F8F9F1C8F7F9F0C867
:10521000F6F90901FD6BFC6BFB6B640EFA6F000184
:10522000F8EC23F003C0FBF802C0FAF801C0F9F86B
:1052300000C0F8F8D8921B6AF2BE1B8EF29E03C023
:105240004FFA02C04EFA01C04DFA00C04CFA0A01F2
:10525000536B526B010E516F100E506F00012BEC0F
:1052600008F01BBEF28E560E08010024EE6F000EF1
:105270000120EF6FEEC801F0EFC802F0000112004C
:1052800001501B6AF2BE1B8EF29EEDC842FA640EFC
:105290000A01436F0001BDEC07F01BBEF28E00C097
:1052A000EDF80150300E08E10801EEA30FD0EEB783
:1052B0000DD0EEB9200E04D00801EE97EE99EE81E4
:1052C000012601C0FFF80001EADE08011B6AF2BEF8
:1052D0001B8EF29EEDC842FA0A0E0A01436F0001CE
:1052E000BDEC07F01BBEF28E00C0EDF80150300E91
:1052F00008E10801EEB70AD0EEA108D0EEB9200E01
:105300000001012601C0FFF8CADE0801300EED27BA
:10531000EDC8FFF80001C3DE1200E9500801F26F8A
:105320003B0EF96F9A0EF86FCA0EF76FF66B0A0E06
:10533000F46FF151D8A4F207D882080EEA6EED0E90
:10534000E96E1B6AF2BE1B8EF29EF0C84FFAEFC8E0
:105350004EFAEEC84DFAEDC84CFAF9C853FAF8C83F
:1053600052FAF7C851FAF6C850FA00012BEC08F0CF
:105370001BBEF28E0150005213E10801F129F45DC9
:10538000D8A402D000010CD0F2510CE00F0BF45D58
:1053900001E01EE2F2BF1CD0F2BD04D0200E12D0FC
:1053A0000801F26BF151F45D0CE100C0F2F82E0E31
:1053B000FF6F000174DE0801F2C800F0200EF21742
:1053C000000E300E002600C0FFF8000168DE080164
:1053D000D8921B6AF2BE1B8EF29EF9C84FFAF8C82B
:1053E0004EFAF7C84DFAF6C84CFA0A01536B526BE5
:1053F000516B0A0E506F00012BEC08F01BBEF28EB1
:1054000003C0F9F802C0F8F801C0F7F800C0F6F8D8
:105410000801F42F91D70001120065DE6FDE02C093
:10542000ECF801C0EBF8A2EC19F0020E1E6E990E1A
:105430001D6E2AC7EDF8010E0801EE6F000120DF96
:105440002F0E0801FF6F00012ADE29C7EDF8010EBB
:105450000801EE6F000114DF2F0E0801FF6F00013D
:105460001EDE2BC7EDF8010E0801EE6F000108DF0C
:10547000200E0801FF6F000112DE27C7EDF8010EB4
:105480000801EE6F0001FCDE3A0E0801FF6F00011B
:1054900006DE26C7EDF8010E0801EE6F0001F0DE12
:1054A0003A0E0801FF6F0001FADD25C7EDF8010E85
:1054B0000801EE6F0001E4DE2C0E0801FF6F000111
:1054C000EEDD440EE96E0801F06BEF6BECC8EEF810
:1054D000EBC8EDF8020EF16F00011FDF1200F9C8F2
:1054E000FDF8F8C8FCF8FDC803F00801FCC8E9FFA6
:1054F000FDC8EAFFEF5206E0FC2BD8B4FD2B0001FB
:10550000F2D70801FBC803F0FAC8E9FFFBC8EAFFBD
:10551000EF5215E0FAC8E9FFFBC8EAFFEFCF00F948
:105520000901FDC8EAFFFCC8E9FF00C9EFFF080157
:10553000FC2BD8B4FD2BFA2BD8B4FB2BE3D7FCC83B
:10554000E9FFFDC8EAFFEF6AF8C801F0F9C802F008
:1055500000011200F29A04001200CF6ACE6A898814
:105560002F50020803E1305201E1908C9E909D8003
:10557000C2EF2AF00B0ED76EDC0ED66E0400F2944A
:10558000F28AEBD712000801ED51000A000103E096
:10559000010A03E003D0DEDF01D0ECDF12000401DA
:1055A000ED93ED95EDC401F00001120007011251D9
:1055B000131103E10B0E016E28D00001F0DF01A0F2
:1055C00015D0010E07011225E96E000E1321EA6EB7
:1055D000EF5204E0090E016E18D006D000012BEC4A
:1055E00024F00150070111D00ED00001070112C7AD
:1055F000E9FF13C7EAFFEF5206E100012BEC24F0AC
:105600000150070102D0000E016E00011200020ECF
:105610000901EF5F000EF05BF15BF25B0C0E07011E
:105620001225E96E000E1321EA6EEFCF00F0ECCFE9
:1056300001F0ECCF02F0ECCF03F003500901F25D72
:1056400011E30BE10250F15D0DE307E10150F05D64
:1056500009E303E10050EF5D05E3006A016A026AB5
:10566000036A40D0020E07011225E96E000E1321D5
:10567000EA6EEFCFFAF90901EACFF5F9E9CFF4F9CB
:10568000F2C9F9F9F1C9F8F9F0C9F7F9EFC9F6F972
:10569000FD6BFC6BFB6B0001F8EC23F0F5C9EAFF36
:1056A000F4C9E9FF03C0F6F902C0F5F901C0F4F945
:1056B00000C0F3F9180E07011225E96E000E132140
:1056C000EA6EEFCF00F0ECCF01F0ECCF02F0ECCFC0
:1056D00003F00901F3510026F4510122F551022291
:1056E000F651032200011200E8C9EAFFE7C9E9FF09
:1056F000200E006E026A0B0E016E93EC1AF0090187
:10570000EC6B180EED6FE96B080EEA6FE5C9E9FF67
:10571000E6C9EAFFECCFEFF9ED52EFCFEEF9EEC9B3
:10572000E9FFEFC9EAFFEFCFEBF9E6C903F0E5C9FE
:10573000E9FFE6C9EAFF010EEE2601E3EF2AEB518D
:10574000200801E3EB6BEB5306E0EB512F0803E07D
:10575000EB515C080FE1E95301E170D00B0EE72536
:10576000E96E000EE821EA6EEC51ED15EF6EEBC923
:1057700001F066D0EB51200803E2EB517F0801E114
:105780005DD0EB512E080EE1ECB10BD0E9510008D1
:1057900008E2E951080805E3080EE96F0B0EEA6F0D
:1057A0004CD04CD0EB51220801E148D0EB512908F4
:1057B00001E335D0EB512C0801E340D0EB5139081F
:1057C00001E32DD0EB513F0801E338D0ECB127D0F5
:1057D000EB517C0801E132D0EB515A0804E2EB5165
:1057E0005D0801E32BD0EB5140080AE2EB515A0867
:1057F00007E3EA51080803E1ED97ED5101D0ED9977
:10580000EB5160080CE2EB517A0809E3200EEB5FE4
:10581000EA51080803E1EC87EC5101D0EC89EC91E6
:10582000EA51E95D01E30AD0E951E92BE725E96E88
:10583000000EE821EA6EEBC9EFFF68D7010E016E9A
:105840000001C2EF31F0C30E0A012F6F500E2E6F10
:10585000C950C968C730FEE3350E006E002EFED772
:10586000C950C968C730FEE3C9CF2DFA2E51D8B44C
:105870002F072E072D3D01D003D02E512F11ECE123
:105880002DCA01F000014BEF2CF0020E0A012C6F23
:105890002B6B0001D8D7013C01D003D0000E016E64
:1058A0004DD0C95029CAC9FFC730FEE30A012951AA
:1058B000FD0841E02CCA03F02B51D8B42C072B076C
:1058C000031011E028CA03F02751272BD8B4282B46
:1058D000E96E03C0EAFFEFCF2DFAC9502DCAC9FF08
:1058E000C730FEE3E7D7C950C968C730FEE3C950E7
:1058F000C968C730FEE3C950C968C730FEE3C9CFE5
:105900002AFA2C6B2B6B2C51C30815E303E12B51A6
:105910004F0811E3350E006E002EFED7C950C9683E
:10592000C730FEE3C9CF2AFA2A5301E004D02B2B5B
:10593000D8B42C2BE8D7010E016E0001120004012F
:10594000EDA103D0030E016E9AD0EDA503D0020E97
:10595000016E95D00A01265305E1040E016E040183
:105960008ED00A0191920401E75105080DE0D8900C
:1059700024CA25FA23CA24FA22CA23FA0A01226B6E
:1059800023372437253704010A01262D1FD0580E4E
:105990002B6F25CA2FFA24CA2EFA23CA2DFA22CA3F
:1059A0002CFA0001A0EC1AF001520EE121CA28FAEB
:1059B00020CA27FAFE0E0A01296F000166DF015294
:1059C00003E00A01266B00014DD00A010401E751F2
:1059D000030B16E0770E0A012B6F2F6B2E6B2D6BCE
:1059E0002C6B0001A0EC1AF0570E0A012B6F2F6BE5
:1059F0002E6B2D6B26CA2CFA0001A0EC1AF00401C4
:105A0000590E0A012B6F25CA2FFA24CA2EFA23CA6F
:105A10002DFA22CA2CFA0001A0EC1AF0015222E160
:105A200021CA28FA20CA27FAFC0E0A01296F0001B0
:105A30002CDF015201E109D0020E0A0121272607BD
:105A4000D8B402D00001ECD700010A01286B276B03
:105A5000FD0E296F000119DF015204E1010E0A0158
:105A6000266F00019182C950C968C730FEE30A0160
:105A7000265302E0010E01D0000E016E0401000168
:105A80001200200E07011225E96E000E1321EA6EA6
:105A9000EFCF18FAECCF19FAECCF1AFAECCF1BFAC9
:105AA0000A011451185D0AE11551195D07E11651FB
:105AB0001A5D04E117511B5DD8B4EAD0060E070148
:105AC0001225E96E000E1321EA6EEF52D8B4A5D06C
:105AD000240E1225016E000E1321036E01C01EFA62
