:04000000D9EFD7F06D
:08000800046ED8CF05F0E0CF33
:1000100006F00001E9CF0CF0EACF07F0E1CF08F0DD
:10002000E2CF09F0D9CF0AF0DACF0BF0F3CF12F01C
:10003000F4CF13F0FACF14F0F5CF15F0F6CF16F099
:10004000F7CF17F0F8CF18F0FBCF19F000C00EF083
:1000500001C00FF002C010F003C011F0F2AA34EF9B
:1000600000F0F2B46AEF07F09DA03AEF00F09EB006
:100070007FEF07F0A0A240EF00F0A1B27AEF0CF002
:10008000F2A846EF00F0F2B200EF07F0F0A64CEF56
:1000900000F0F0B06BEF0BF0F0A852EF00F0F0B210
:1000A000A6EF0BF09DAA58EF00F09EBA32EF07F0D2
:1000B0000EC000F00FC001F010C002F011C003F03C
:1000C0000CC0E9FF07C0EAFF078E08C0E1FF09C0C6
:1000D000E2FF0AC0D9FF0BC0DAFF12C0F3FF13C062
:1000E000F4FF14C0FAFF15C0F5FF16C0F6FF17C0E5
:1000F000F7FF18C0F8FF19C0FBFF045006C0E0FF6F
:1001000005C0D8FF1000F76A1A0FF66E010EF7222D
:10011000000EF86E0900F55012004E6F2045727205
:100120006F720000F76A380FF66E010EF722000EAC
:10013000F86E0900F5501200494C4C4547414C20DF
:1001400046494C45204E414D4500F76A5E0FF66E1C
:10015000010EF722000EF86E0900F55012004D4511
:10016000444941204E4F5420524541445900F76ABA
:10017000820FF66E010EF722000EF86E0900F550A0
:10018000120046494C45204E4F5420464F554E4490
:100190000000F76AA60FF66E010EF722000EF86E49
:1001A0000900F550120050415448204E4F5420464B
:1001B0004F554E440000F76ACA0FF66E010EF72243
:1001C000000EF86E0900F5501200414343455353A9
:1001D0002044454E49454400F76AEC0FF66E010E87
:1001E000F722000EF86E0900F55012004D45444903
:1001F000412046554C4C0000F76A0C0FF66E020E7B
:10020000F722000EF86E0900F5501200522F572009
:100210004552524F5200F76A2A0FF66E020EF7222D
:10022000000EF86E0900F5501200494E434F52522D
:10023000454354204D45444941204348414E47459C
:100240000000F76A560FF66E020EF722000EF86EE7
:100250000900F550120057524954452050524F544E
:10026000454354454400F76A7A0FF66E020EF722B2
:10027000000EF86E0900F55012004653204E4F5400
:1002800020454E41424C45440000F76A9E0FF66EF1
:10029000020EF722000EF86E0900F55012004E4FC4
:1002A0002046494C4553595354454D00F76AC00FF9
:1002B000F66E020EF722000EF86E0900F5501200DD
:1002C000554E4B4E4F574E204552524F5200F76AF3
:1002D000E20FF66E020EF722000EF86E0900F550DE
:1002E00012000000F76AF80FF66E020EF722000EF9
:1002F000F86E0900F550120058585800F76A100FB0
:10030000F66E030EF722000EF86E0900F55012008B
:100310004E4F3300F76A280FF66E030EF722000ED9
:10032000F86E0900F5501200504F3400F76A400F84
:10033000F66E030EF722000EF86E0900F55012005B
:100340004E483400F76A580FF66E030EF722000E7F
:10035000F86E0900F550120053694F00F76A700FEC
:10036000F66E030EF722000EF86E0900F55012002B
:1003700055726500F76A880FF66E030EF722000EBD
:10038000F86E0900F55012004E4F3200F76AA00FC8
:10039000F66E030EF722000EF86E0900F5501200FB
:1003A00046655F00F76AB80FF66E030EF722000E7F
:1003B000F86E0900F5501200436C5F00F76AD00F29
:1003C000F66E030EF722000EF86E0900F5501200CB
:1003D000536D7000F76AE80FF66E030EF722000EF9
:1003E000F86E0900F550120053746400F76A000FAC
:1003F000F66E040EF722000EF86E0900F55012009A
:10040000436D6200F76A180FF66E040EF722000EB5
:10041000F86E0900F550120054737400F76A300F3B
:10042000F66E040EF722000EF86E0900F550120069
:1004300052626C00F76A480FF66E040EF722000E47
:10044000F86E0900F550120043616C00F76A600F06
:10045000F66E040EF722000EF86E0900F550120039
:10046000466C7300F76A780FF66E040EF722000EE2
:10047000F86E0900F550120055746C00F76A900F81
:10048000F66E040EF722000EF86E0900F550120009
:1004900049307300F76AA80FF66E040EF722000EBB
:1004A000F86E0900F550120049317300F76AC00F69
:1004B000F66E040EF722000EF86E0900F5501200D9
:1004C00049307400F76AD80FF66E040EF722000E5A
:1004D000F86E0900F550120049317400F76AF00F08
:1004E000F66E040EF722000EF86E0900F5501200A9
:1004F00049307200F76A080FF66E050EF722000EFB
:10050000F86E0900F550120049317200F76A200FA9
:10051000F66E050EF722000EF86E0900F550120077
:1005200049307500F76A380FF66E050EF722000E97
:10053000F86E0900F550120049317500F76A500F46
:10054000F66E050EF722000EF86E0900F550120047
:1005500043686B00F76A680FF66E050EF722000E0F
:10056000F86E0900F550120058580000F76A800F25
:10057000F66E050EF722000EF86E0900F550120017
:100580002C2C2C2C2C2C2C0077726974696E670033
:1005900072656164696E6700256C783A20726561E6
:1005A000642025782C2073686F756C642062652048
:1005B00025780A0D0000646F6E650A0D0000454342
:1005C0004F2D322025730D0A000056322E31323560
:1005D0000000574D532D342D53442025730D0A0030
:1005E00056322E31323500004157532D31202573BC
:1005F0000D0A000056322E3132350000574D532D72
:10060000342D51452025730D0A0056322E313235D6
:1006100000005858582D302025730D0A000056321E
:100620002E313235000040494E560D0A000040413F
:1006300052470D0A0000404552520D0A0000404F3B
:100640004B210D0A0000405245530D0A0000405353
:1006500044310D0A00004053445F0D0A0000404D34
:1006600041580D0A00003F404253590D0A004052C4
:1006700044590D0A00004046533A446973636F764B
:100680006572790D0A004046533A556E61626C6599
:1006900020746F20707574206361726420696E200D
:1006A00069646C652073746174652C207265737065
:1006B0006F6E7365203D20253032780D0A0040466C
:1006C000533A436172642069646C652C20726573CF
:1006D000706F6E7365203D20253032780D0A000062
:1006E0004046533A526573706F6E736520746F2085
:1006F0005344207665722032207465737420434D14
:100700004438203D2025780D0A004046533A506F6A
:10071000737369626C65205344763220636172643E
:100720002064657465637465640D0A004046533A3D
:10073000566F6C746167652072616E6765206368CF
:1007400065636B2C206F6372203D20253032782545
:1007500030327825303278253032780D0A00404624
:10076000533A43617264205664642072616E676517
:10077000203D20322E372D332E3620766F6C747349
:100780000D0A00004046533A53656E64696E672057
:1007900041434D44343120636F6D6D616E6420744C
:1007A0006F20534420766572203220636172640D9D
:1007B0000A004046533A526573706F6E7365206647
:1007C000726F6D2073656E64696E672041434D449E
:1007D0003431203D20253032782C2054696D6572EB
:1007E000203D20256C750D0A00004046533A5265A5
:1007F00073706F6E736520746F20434D44353820DD
:100800003D2025780D0A00004046533A53656E742A
:1008100020434D442035382C2054696D6572207674
:10082000616C7565203D20256C752C206F637220EE
:100830003D20253032782530327825303278253009
:1008400032780D0A00004046533A436172642043F7
:10085000414E4E4F5420776F726B20566464207265
:10086000616E6765206F6620322E372D332E36205D
:10087000766F6C74730D0A004046533A4E6F7420C5
:10088000616E2053445343206F72205344484320E9
:10089000636172642C2054657374696E6720666F9F
:1008A000722053442056657231206F72204D4D43A3
:1008B00020436172640D0A004046533A52657370DA
:1008C0006F6E73652066726F6D20474F5F49444CB1
:1008D00045203D20253032780D0A00004046533A2D
:1008E000526573706F6E73652066726F6D2053442E
:1008F0005F434D445F53454E445F4F505F434F4EFF
:1009000044203D20253032782C2054696D657220BA
:100910003D20256C750D0A004046533A41747465BC
:100920006D7074696E6720534476312076657273FA
:100930007573204D4D432049442C20526573706FD0
:100940006E73652066726F6D2053445F434D445F44
:100950004150504C5F434D44203D20253032780DAE
:100960000A004046533A496E76616C6964207265AC
:1009700073706F6E736520746F2053445F41434DF5
:100980004434312C20726573706F6E7365203D2086
:10099000253032582C207265696E697469616C6902
:1009A0007A696E67206173204D4D430D0A00404601
:1009B000533A4661696C656420746F20696E69748E
:1009C00069616C697A65206173204D4D432C2072FA
:1009D0006573706F6E7365203D20253032582C2072
:1009E00065786974696E670D0A004046533A436141
:1009F0007264206661696C656420746F207265732F
:100A0000706F6E6420636F727265636C79206166CB
:100A10007465722053445F434D445F53454E445FB9
:100A20004F505F434F4E442C20726573706F6E734E
:100A300065203D20253032582C2054696D65722088
:100A40003D20256C750D0A004046533A5365747479
:100A5000696E6720626C6F636B206C656E6774688B
:100A60000D0A00004046533A4572726F722073655A
:100A70007474696E6720626C6F636B206C656E675F
:100A800074682C20726573706F6E7365203D20252D
:100A90003032782C2074696D6572203D20256C758C
:100AA0000D0A00004046533A436172642054797045
:100AB0006520446973636F76657279204572726F41
:100AC000720D0A004046533A4D4D43204361726413
:100AD00020666F756E640D0A00004046533A534419
:100AE0007631204361726420666F756E640D0A0072
:100AF0004046533A53445343204361726420666F27
:100B0000756E640D0A004046533A534448432043EF
:100B100061726420666F756E640D0A004046533A38
:100B200043617264205479706520446973636F7601
:100B3000657279204572726F722C20436172642055
:100B40003D20253032580D0A00004046533A43619B
:100B50007264207265736574207375636365737363
:100B6000202D20436D6420746F20526561647920CC
:100B7000636F756E74203D20256C750D0A0040462C
:100B8000533A535049206275732073706565642031
:100B900073657420746F20686967680D0A004046A9
:100BA000533A4361726420616374697661746520AD
:100BB0006661696C7572652C20726573706F6E73F7
:100BC00065203D20253032582C2054696D657220F7
:100BD0003D20256C750D0A004046533A436172640E
:100BE00020616374697661746520737563636573EE
:100BF00073206F6E20617474656D707420256C7540
:100C00000D0A000046415420617420736563746FBF
:100C10007220300D0A005459504520636F6D6D618C
:100C20006E64204552524F520D0A00004046533A1E
:100C30002025730D0A004046533A2025730D0A0003
:100C40002A2A204046533A204552524F520D0A005C
:100C50002020204E6F4572726F720D0A0000202016
:100C6000204D65646961204E6F742052656164791E
:100C70000D0A000020202046696C65204E6F74200C
:100C8000466F756E640D0A00202020496E76616CF7
:100C9000696420506174680D0A00202020496E7636
:100CA000616C6964204E616D650D0A002020204151
:100CB00063636573732044656E6965640D0A0000A3
:100CC0002020204469736B2046756C6C0D0A00006F
:100CD000202020526561642F577269746520457227
:100CE000726F720D0A00202020496E636F72726568
:100CF0006374204D65646961204368616E67650DAA
:100D00000A0020202057726974652050726F746544
:100D1000637465640D0A00002020204E6F74204526
:100D20006E61626C65640D0A00002020204E6F2009
:100D300046696C652053797374656D0D0A006170A6
:100D400070656E643A204653204552524F52206FD0
:100D50006E2066696C655F6F70656E0D0A004046B7
:100D6000533A57726974696E670D0A5B25735D0D9E
:100D70000A004046533A4552524F525B61707065CB
:100D80006E645D0D0A004046533A436C6F73696EA2
:100D9000670D0A00405254433A253032752F000047
:100DA000405254433A253032752F000040414C4D9B
:100DB0003A253032752F000040414C4D3A253032F3
:100DC000752F000040414C4D0D0A00000A010F6BC9
:100DD000C69A210EC66E400EC76E9190C9500F0E76
:100DE000C96EC730FEE3C9CF0FFAC9500FCAC9FF99
:100DF000C730FEE3C9CF2FF791804994000112005C
:100E000088AE02D0919E01D0918E4980499249A42A
:100E100001D0FDD74984DADF352AD8B4362AF292D8
:100E200058EF00F09EAAFED7ABCF1CF0AECF01F07A
:100E30001CA202D0AB98AB8812000900F55211E059
:100E4000F6CF10FAF7CF11FAF8CF12FAF5509EA8A4
:100E5000FED7AD6E10CAF6FF11CAF7FF12CAF8FF2F
:100E6000ECD71200AE5049B228D09EAA25D0DADFC6
:100E700001C00FFA0A010F513F0A000105E02E0AD6
:100E800015E00A0A16E018D04A2C08D0C40EF66EF7
:100E90000E0EF76E000EF86ED0DF07D0CC0EF66E99
:100EA0000E0EF76E000EF86EC8DF06D0010E4C6E07
:100EB00003D0326A010E316E02D0F29C9E9A9E9A45
:100EC00058EF00F03F404253590D0A004052445938
:100ED0000D0A00000B0ED76EDC0ED66E0400F294E5
:100EE000F28ACF6ACE6A89882F50020803E1305215
:100EF00001E1908C9E909D80F29458EF00F09D90BF
:100F000089982F50020803E1305201E1909C9E9095
:100F100058EF00F0405B4F5D0D0A000040434D4428
:100F200020746F6F206C6F6E670D0A00405B435D2D
:100F30000D0A000040534C4545500D0A0000404D3D
:100F400045522C254C752C254C750D0A00006D3A28
:100F500025752C257520633A254C752C254C752C50
:100F6000254C750D0A000A011B51016A1A5D03E246
:100F70001ACA00F00CD0006A080E1C6F1A3700362F
:100F80001B51005CD8B0006E01361C2FF7D7000152
:100F90001200015018CA1AFA640E0A011B6F0001F0
:100FA000E2DF00C018FA0150300E08E10A0119A36F
:100FB0000ED019B70CD019B9200E04D00A01199718
:100FC00019991981012601509EA8FED7AD6E18CA45
:100FD0001AFA0A0E1B6F0001C6DF00C018FA015092
:100FE000300E08E10A0119B70BD019A109D019B9BF
:100FF000200E0001012601509EA8FED7AD6E0A0109
:10100000300E182718519EA8FED7AD6E00011200B1
:101010000900F6CF19FAF7CF1AFAF8CF1BFAF550F4
:101020009EA8FED7AD6E19CAF6FF1ACAF7FF1BCAF3
:10103000F8FF0A01182F01D002D00001E9D7000102
:101040001200D8B204D00A0EEA6E2C0EE96E006AC5
:10105000016A026A036A0A012C6B2D6B2E6B2F6BDF
:101060002B512A11291128112CE0200E306FD89015
:1010700024372537263727372C372D372E372F376C
:101080002B512F5D08E12A512E5D05E129512D5D7F
:1010900002E128512C5D0FE328512C5F2951D8A083
:1010A000293D2D5F2A51D8A02A3D2E5F2B51D8A073
:1010B0002B3D2F5FD8800036013602360336302FA5
:1010C000D6D72CCAEFFF2DCAECFF2ECAECFF2FCAD1
:1010D000ECFF00011200E9500A011C6F3B0E236F68
:1010E0009A0E226FCA0E216F206B0A0E1E6FD882D5
:1010F0000A0EEA6E180EE96E1BCA27FA1ACA26FAF9
:1011000019CA25FA18CA24FA23CA2BFA22CA2AFABB
:1011100021CA29FA20CA28FA000193DF015000529F
:1011200013E10A011E51010AD8A402D000010CD01B
:101130001C510CE00F0B1E5D01E00EE21CBF0CD039
:101140001CBD04D0200E03D00A011C6B300E0026FB
:1011500000509EA8FED7AD6ED89223CA27FA22CAA5
:1011600026FA21CA25FA20CA24FA2B6B2A6B296B8E
:101170000A0E286F000165DF03C023FA02C022FABD
:1011800001C021FA00C020FA0A011E2FB0D70001C9
:101190001200EACF20FAE9CF1FFA0A011939F00943
:1011A0001B6F1B27E20F1C6F320F1E6F19510F0BA5
:1011B0001C271C271E27E90F1D6F1D271D27183907
:1011C0000F0B1D271E271D371E371E1F1E371851D8
:1011D0000F0B1E271B37070E1A6F0A0E1D071E273F
:1011E000FDE31C071D27FDE31B071C27FDE31A0772
:1011F0001B27FDE30A0EEA6E1A0EE96E070E1F1595
:101200001F9DE926000EEA22E9501E0804E1EA507B
:101210000A0801E11F8DEF50006E08E11FBD06D0E6
:101220001FB90CD01FB702D0200E03D01F871F9903
:10123000300E002600509EA8FED7AD6EEE501FADBA
:10124000E3D700011200D89007013C35036A4A0F2A
:10125000E96E070E0320EA6EECCF10FAED52EFCFE5
:101260000FFA0A010F53D8A4C3D01053D8A4C0D08A
:10127000D89007013C35036A820FE96E070E032000
:10128000EA6EECCF10FAED52EFCF0FFA0A010F53CE
:101290004CE110534AE1D89007013C35036ABB0F7B
:1012A000E96E070E0320EA6EECCF10FAED52EFCF95
:1012B0000FFAD8903C35036A5A0FE96E070E0320E7
:1012C000EA6EECCF03F0ED52EFCF01F003500A01CC
:1012D000105D11E303E101500F5D0DE3D8900701AC
:1012E0003C35036ABB0FE96E070E0320EA6EEC6A19
:1012F000ED52EF6A0A01D89007013C35036ABB0F33
:10130000E96E070E0320EA6E010EEE2601E3EF2AD6
:10131000D8903C35036A960FE96E070E0320EA6EFB
:10132000EC6AED52EF6A63D00A01D89007013C35B0
:10133000036A820FE96E070E0320EA6EECCF10FA03
:10134000ED52EFCF0FFA0A010F2D52D0105350E19A
:10135000D89007013C35036ABB0FE96E070E0320E6
:10136000EA6EECCF10FAED52EFCF0FFA0A010F53ED
:1013700025E1105323E1D89007013C35036ABB0FE8
:10138000016E070E03220A0103C010FAD89007016C
:101390003C35036A5A0FE96E070E0320EA6EECCF64
:1013A00003F0ED52EFCF11FA0A0110CAEAFF01C0B3
:1013B000E9FF03C0ECFFED5211CAEFFFD89007011F
:1013C0003C35036ABB0FE96E070E0320EA6EFF0E81
:1013D000EF2602E2EE52ED06D8903C35036A960FF6
:1013E000E96E070E0320EA6EEC6AED52EF6A0A011D
:1013F000D89007013C35036A4A0FE96E070E0320B7
:10140000EA6EECCF10FAED52EFCF0FFA0A010F2D72
:10141000C3D01053D8A4C0D0D89007013C35036A7C
:10142000820FE96E070E0320EA6EECCF10FAED5240
:10143000EFCF0FFA0A010F2D4CD010534AE1D8908C
:1014400007013C35036ABB0FE96E070E0320EA6E05
:10145000ECCF10FAED52EFCF0FFAD8903C35036A7B
:101460005A0FE96E070E0320EA6EECCF03F0ED523F
:10147000EFCF01F003500A01105D11E303E10150C9
:101480000F5D0DE3D89007013C35036ABB0FE96E91
:10149000070E0320EA6EEC6AED52EF6A0A01D8905B
:1014A00007013C35036ABB0FE96E070E0320EA6EA5
:1014B000010EEE2601E3EF2AD8903C35036A960F21
:1014C000E96E070E0320EA6EEC6AED52EF6A63D014
:1014D0000A01D89007013C35036A820FE96E070EB6
:1014E0000320EA6EECCF10FAED52EFCF0FFA0A01AB
:1014F0000F5352E1105350E1D89007013C35036A75
:10150000BB0FE96E070E0320EA6EECCF10FAED5226
:10151000EFCF0FFA0A010F5325E1105323E1D890C2
:1015200007013C35036ABB0F016E070E03220A0157
:1015300003C010FAD89007013C35036A5A0FE96ED0
:10154000070E0320EA6EECCF03F0ED52EFCF11FA55
:101550000A0110CAEAFF01C0E9FF03C0ECFFED5227
:1015600011CAEFFFD89007013C35036ABB0FE96E43
:10157000070E0320EA6EFF0EEF2602E2EE52ED06A2
:10158000D8903C35036A960FE96E070E0320EA6E89
:10159000EC6AED52EF6A0A011F500408D8A499D0F2
:1015A0002052D8A496D0D89007013C35036A660F24
:1015B000E96E070E0320EA6EECCF10FAED52EFCF82
:1015C0000FFA0A010F510208D8A483D01053D8A4EF
:1015D00080D0010E07013C250A010F6F07013C5125
:1015E000040DF350036A9E0FE96E070E0320EA6EA6
:1015F000EFCF10FAECCF11FAECCF12FAECCF13FACE
:10160000D8903C35036AB70FE96E070E0320EA6EE7
:10161000ECCF15FAED52EFCF14FAD8903C35036AAF
:10162000BB0FE96E070E0320EA6EECCF17FAED52FE
:10163000EFCF16FA6D0E9EA8FED7AD6E3A0E9EA89D
:10164000FED7AD6E0FCA18FA1B0E0A01196F000102
:10165000A0DC2C0E9EA8FED7AD6EA6C718FA1B0EF6
:101660000A01196F000195DC550EF66E0F0EF76E2C
:10167000000EF86E030E0A01186F0001C9DC410E5E
:10168000E96E13CA1BFA12CA1AFA11CA19FA10CA59
:1016900018FA21DD2C0E9EA8FED7AD6E100EE96E55
:1016A00015CA19FA14CA18FA74DD2C0E9EA8FED7B2
:1016B000AD6E100EE96E17CA19FA16CA18FA69DD6E
:1016C0000D0E9EA8FED7AD6E0A0E9EA8FED7AD6E7B
:1016D0000A0100011200D89007013C35036AB70FD8
:1016E000E96E070E0320EA6E010EEE2601E3EF2AF3
:1016F000A651000A000105E0010A06E0030A0DE018
:1017000021D0F090F0901ED0020E0701A66FF09647
:10171000F090F086F19A000115D0010E0701A66F36
:10172000D8903C35036AB70FE96E070E0320EA6EC6
:10173000FF0EEF2602E2EE52ED06F096F090F086F4
:10174000F18A000180DDF09058EF00F0D890070199
:101750003C35036AB70FE96E070E0320EA6E010EEF
:10176000EE2601E3EF2AA651000A000105E0010A76
:1017700006E0030A0DE021D0F092F0921ED0020E96
:101780000701A66FF098F092F088F198000115D04B
:10179000010E0701A66FD8903C35036AB70FE96EBA
:1017A000070E0320EA6EFF0EEF2602E2EE52ED0670
:1017B000F098F092F088F188000145DDF09258EF42
:1017C00000F007013C51000A000103E0010A49E072
:1017D0008FD0D89007013C35036A660FE96E070E7B
:1017E0000320EA6EECCF10FAED52EFCF0FFA0A01A8
:1017F0000F2D0FD010530DE1036A07013C51C70FA5
:10180000E96E070E0320EA6E000E81B8010EEF6E3E
:101810000A01D89007013C35036A660FE96E070E8E
:101820000320EA6EECCF10FAED52EFCF0FFA0A0167
:101830000F51020814E1105312E1036A07013C51F1
:10184000C70FE96E070E0320EA6E000E81B8010E85
:101850000A01116F000E81B2010E1115EF6E000129
:1018600047D0D89007013C35036A660FE96E070E32
:101870000320EA6EECCF10FAED52EFCF0FFA0A0117
:101880000F2D0FD010530DE1036A07013C51C70F14
:10189000E96E070E0320EA6E000E81BA010EEF6EAC
:1018A0000A01D89007013C35036A660FE96E070EFE
:1018B0000320EA6EECCF10FAED52EFCF0FFA0A01D7
:1018C0000F51020814E1105312E1036A07013C5161
:1018D000C70FE96E070E0320EA6E000E81BA010EF3
:1018E0000A01116F000E81B4010E1115EF6E000197
:1018F0001FEF0DF0F90EB36EC00EB26ED890070157
:101900003C35036A8A0FE96E070E0320EA6E010E6A
:10191000EE2601E3EF2AD8903C35036A8A0FE96E80
:10192000070E0320EA6EECCF10FAED52EFCF0FFA5C
:10193000D8903C35036A460FE96E070E0320EA6E25
:10194000ECCF03F0ED52EFCF01F003500A01105D30
:10195000D8A076D004E101500F5DD8A071D0070166
:101960003C51040DF350036A9E0FE96E070E0320ED
:10197000EA6E010EEE26000EEE22EE22ED22D89047
:101980003C35036A960FE96E070E0320EA6E010EDE
:10199000EE2601E3EF2AD8903C35036A8A0FE96E00
:1019A000070E0320EA6EEC6AED52EF6A3C5302E147
:1019B000907830D08D78D8903C35036A820FE96EEC
:1019C000070E0320EA6EECCF10FAED52EFCF0FFABC
:1019D0000A010F5312E1105310E1D89007013C3572
:1019E000036AAF0FE96E070E0320EA6EFF0EEF26C3
:1019F00002E2EE52ED060ED00A01D89007013C3506
:101A0000036AAF0FE96E070E0320EA6E010EEE26A1
:101A100001E3EF2AD8903C35036A620FE96E070EA6
:101A20000320EA6EECCF10FAED52EFCF0FFA0A0165
:101A30000F51030805E1105303E10001C2D60A016A
:101A4000A192A192000158EF00F0404C50432C2588
:101A50004C752C254C640D0A0000404D4D452C253D
:101A6000752C254C642C254C752C254C752C254C3F
:101A7000642C254C640D0A0056414C5645205354A5
:101A80004F5020254C752C254C750D0A0000696EB1
:101A9000643A2575202F207068613A25750D0A007B
:101AA00040524543202D20686F6D696E6720737921
:101AB00072696E676520616E6420616C69676E692A
:101AC0006E672076616C766520746F20706F72741B
:101AD00020310D0A00002C73657269616C207761FA
:101AE0006B652D75702C534420696E697469616C47
:101AF000697A65640D0A0000405253540D0A0000D3
:101B0000405744540D0A00002C726573746172745E
:101B10002063617573652C57442074696D652D6F62
:101B200075740D0A0000405744530D0A00002C72D2
:101B30006573746172742063617573652C574420FA
:101B400066726F6D20736C6565700D0A0000404E03
:101B500050550D0A00002C6964235B254C755D2CE3
:101B6000706F776572206170706C6965642C534486
:101B700020696E697469616C697A65640D0A000098
:101B8000405253540D0A00002C72657374617274D4
:101B90002063617573652C726573657420696E735B
:101BA0007472756374696F6E0D0A000040424F5283
:101BB0000D0A00002C726573746172742063617584
:101BC00073652C62726F776E2D6F75740D0A00004D
:101BD000404D52530D0A00002C726573746172748B
:101BE0002063617573652C4D434C522066726F6D96
:101BF00020736C6565700D0A0000404D52520D0A4D
:101C000000002C7265737461727420636175736572
:101C10002C4D434C52207768656E2072756E6E694C
:101C20006E670D0A00004E4F33004E4F3200504F8A
:101C300034004E48340053694F000000404445547E
:101C40005B2F25755D5B25635D4152475B254C75B8
:101C50005D0D0A002074696D652D6F757400206438
:101C600061746120746F6F2073686F7274002064F8
:101C700061746120746F6F206C6F6E6700002C645C
:101C800065746563746F725B25735D2C6C656E5B48
:101C900025755D00405254592C25750D0A002C7392
:101CA000746172742068656174696E672C74617206
:101CB0006765745B254C755D2C61637475616C5B45
:101CC000254C755D2C72656164696E67735B254C8C
:101CD000755D0D0A00002C656E642068656174698D
:101CE0006E672C7461726765745B254C755D2C6141
:101CF000637475616C5B254C755D2C7265616469FC
:101D00006E67735B254C755D0D0A00004E4F330006
:101D10004E4F3200504F34004E48340053694F004C
:101D20000000404441432C254C752C254C752C005B
:101D3000405341522C312C254C752C004056414CBF
:101D400020004056414C20004056414C2000405657
:101D5000414C200040534F4C5B2F315D5B735D5B0A
:101D6000254C755D0D0A00002F3173254C750D0053
:101D700040534F4C5B2F315D5B635D5B25755D0DA3
:101D80000A002F316325750D00002F31733235366F
:101D90000D0028493073292C254C752C28493173A6
:101DA000292C254C752C284162732D73292C253143
:101DB0002E34672C28493074292C254C752C284941
:101DC0003174292C254C752C284162732D74292CD3
:101DD00025312E34672C28493072292C254C752C3E
:101DE00028493172292C254C752C284162732D729B
:101DF000292C25312E346700404162732C4E4F331D
:101E00002C25730D0A0028493073292C254C752C7C
:101E100028493173292C254C752C284162732D7368
:101E2000292C25312E34672C28493074292C254C37
:101E3000752C28493174292C254C752C2841627346
:101E40002D74292C25312E34672C28493072292CE9
:101E5000254C752C28493172292C254C752C28418C
:101E600062732D72292C25312E3467004041627334
:101E70002C4E4F322C25730D0A0028493073292C23
:101E8000254C752C28493173292C254C752C28415B
:101E900062732D73292C25312E34672C2849307418
:101EA000292C254C752C28493174292C254C752C4E
:101EB000284162732D74292C25312E34672C284932
:101EC0003072292C254C752C28493172292C254C2F
:101ED000752C284162732D72292C25312E34670010
:101EE000404162732C504F342C25730D0A00284951
:101EF0003073292C254C752C28493173292C254CFD
:101F0000752C284162732D73292C25312E34672CB2
:101F100028493074292C254C752C28493174292CDA
:101F2000254C752C284162732D74292C25312E34B3
:101F3000672C28493072292C254C752C2849317280
:101F4000292C254C752C284162732D72292C2531A2
:101F50002E346700404162732C4E48342C25730D9B
:101F60000A0028493073292C254C752C28493173D7
:101F7000292C254C752C284162732D73292C253171
:101F80002E34672C28493074292C254C752C28496F
:101F90003174292C254C752C284162732D74292C01
:101FA00025312E34672C28493072292C254C752C6C
:101FB00028493172292C254C752C284162732D72C9
:101FC000292C25312E346700404142532C53694F50
:101FD0002C25730D0A004E4F33004E4F3200504FE8
:101FE00034004E48340053694F000000286D292CFE
:101FF00025332E33672C2863292C25332E33670095
:10200000284373292C25332E33670D0A00004043E3
:102010004F4E2C4E4F332C25730D0A00286D292C62
:1020200025332E33672C2863292C25332E33670064
:10203000284373292C25332E33670D0A00004043B3
:102040004F4E2C504F342C25730D0A00286D292C2F
:1020500025332E33672C2863292C25332E33670034
:10206000284373292C25332E33670D0A0000404383
:102070004F4E2C4E48342C25730D0A00286D292C08
:1020800025332E33672C2863292C25332E33670004
:10209000284373292C25332E33670D0A0000404353
:1020A0004F4E2C53694F2C25730D0A004E4F3300B1
:1020B000504F34004E48340053694F0000004D45E6
:1020C0004D4F5259204F564552464C4F572045527E
:1020D000524F522040204C696E65203A254C750ABB
:1020E0000D000D0A3A000D0A5741524E494E473A2B
:1020F00020494E56414C494420434F4D4D414E449A
:1021000020494E204D4143524F210D0A00004261AB
:102110006420636F6D6D616E64206174206C696E04
:10212000653A20254C64200D0A00506C656173658A
:102130002072652D75706C6F6164206D6163726FC4
:102140000000497465726174696F6E73206C656616
:10215000743A20254C750D0A00002C6D6163726F76
:102160005B25755D2C73746172740D0A0000404D1F
:10217000434C5B25635D5B254C755D0D0A00404C4F
:102180004E450D0A00004052554E0D0A00004042D7
:1021900041440D0A000040542F4F0D0A00004045F5
:1021A00052520D0A000040454E440D0A00004048BE
:1021B0004C540D0A00002C6D6163726F5B25755DD8
:1021C0002C7374617475735B25635D2C6C696E652B
:1021D0005B254C755D0D0A004052756E6E696E6729
:1021E000202563254C75200D0A00404D6163726FF8
:1021F000202530344C75206F66202530344C750D09
:102200000A00404C4E450D0A00004052554E0D0A42
:102210000000404241440D0A000040542F4F0D0A77
:102220000000404552520D0A000040454E440D0A40
:1022300000002C6175746F2D73616D706C652C736B
:10224000616D706C655B254C755D2C737461727487
:102250000D0A00002C6175746F2D73616D706C65D3
:102260002C73616D706C655B254C755D2C636F6DB7
:10227000706C6574650D0A002C6175746F2D736147
:102280006D706C652C73616D706C655B254C755D54
:102290002C6572726F720D0A00002C6175746F2DBF
:1022A00073616D706C652C73616D706C655B254C32
:1022B000755D2C6D61782073616D706C65730D0AAE
:1022C00000002C6175746F2D73616D706C652C73DB
:1022D000616D706C655B254C755D2C7374617274F7
:1022E0000D0A00002C6175746F2D73616D706C6543
:1022F0002C73616D706C655B254C755D2C636F6D27
:10230000706C6574650D0A002C6175746F2D7361B6
:102310006D706C652C73616D706C655B254C755DC3
:102320002C73746172740D0A00002C6175746F2D2A
:1023300073616D706C652C73616D706C655B254CA1
:10234000755D2C636F6D706C6574650D0A002C6192
:1023500075746F2D73616D706C652C73616D706C2D
:10236000655B254C755D2C6D61782073616D706CBB
:1023700065730D0A00002C6175746F2D73616D70AB
:102380006C652C696E697469616C697A650D0A0007
:102390002C6865616465722C6964235B254C755DEE
:1023A0002C696E745B254C755D2C6D61785B254CDA
:1023B000755D0D0A00002C6175746F2D73616D7071
:1023C0006C652C73616D706C655B254C755D2C6163
:1023D0006C61726D5B25755D0D0A00002C61757472
:1023E0006F2D73616D706C652C736C6565700D0A73
:1023F000000074313A254C752074323A254C750D25
:102400000A00404445542C254C750D0A00004E4FDF
:10241000332C25312E35672C25312E35670D0A00DA
:10242000504F342C25312E35672C25312E35670D34
:102430000A004E48342C25312E35672C25312E3597
:10244000670D0A0053694F342C25312E35672C2532
:10245000312E35670D0A00004E4F33286D293A00A2
:102460004E4F332863293A00504F34286D293A00E3
:10247000504F342863293A004E4834286D293A00D9
:102480004E48342863293A0053694F34286D293A5D
:10249000000053694F342863293A000041726520D7
:1024A000796F75207375726520796F752077616E0D
:1024B0007420746F20657261736520746865207282
:1024C000617720646174612066696C653F205920E2
:1024D0006F72204E210D0A0046696C652064656CA0
:1024E00065746564210A0D004F7065726174696FCF
:1024F0006E2063616E63656C6564210D0A00417234
:102500006520796F75207375726520796F752077F6
:10251000616E7420746F20657261736520746865E4
:102520002063616C63756C617465642064617461BF
:102530002066696C653F2059206F72204E210D0A7C
:10254000000046696C652064656C65746564210AE9
:102550000D004F7065726174696F6E2063616E6308
:10256000656C6564210D0A0040494423254C7520A3
:1025700049254C75204E254C752F254C7520582526
:102580004C75205525752025342E3277560D0A00BE
:10259000404D4F543A56414C3D254C7520535952AD
:1025A0003D254C640D0A0000405057523A25303208
:1025B000752F253032752F25303275202530327534
:1025C0003A253032753A253032750D0A00004050F8
:1025D00057523A253032752F253032752F2530323B
:1025E0007520253032753A253032753A25303275EE
:1025F0000D0A000041254C752049254C75204C25BD
:102600004C752051254C752053254C752025342EB2
:102610003277560D0A00404D4F543A56414C3D25F5
:102620004C75205359523D254C640D0A0000405012
:1026300057523A253032752F253032752F253032DA
:102640007520253032753A253032753A253032758D
:102650000D0A000049254C75204E254C752F254C40
:10266000752050254C752025342E3277560D0A00E2
:10267000404D4F543A5359523D254C640D0A0000C9
:10268000405057523A253032752F253032752F255C
:1026900030327520253032753A253032753A253082
:1026A00032750D0A000040534D50202530344C75D2
:1026B0000D0A000040534D50202530344C750D0A52
:1026C0000000456E746572206461746520666F72E7
:1026D0006D617420303D4D4D2F44442F59592020B9
:1026E000313D44442F4D4D2F59590D0A0000404FA4
:1026F0004B210D0A2000404552520D0A0000405265
:10270000554E0D0A00005B6D6F746F723A315D0DAE
:102710000A005B6D6F746F723A325D0D0A002C45D2
:10272000434F206D6F6465207365740D0A002C574C
:102730004D532D342D5344206D6F646520736574A3
:102740000D0A00002C415753206D6F64652073659E
:10275000740D0A002C574D532D342D5145206D6FAB
:102760006465207365740D0A000030352D4A756C60
:102770002D31370031313A34393A3238000053457F
:102780004E44204845582046494C4520283139328E
:1027900030302C4E38312C584F4E2D584F4646294C
:1027A0000D0A0000404F4B212000404152472000BD
:1027B00040494E56000040434D4400002C636F6D6D
:1027C0006D616E642070726F6D70740D0A004053FD
:1027D000443D254C750D0A00404D43312C254C7568
:1027E0002C254C640D0A0000404D43322C254C75BD
:1027F0002C254C640D0A0000507265737320616EC5
:102800006420686F6C642074686520457363206B76
:10281000657920746F2072657475726E20746F20F4
:10282000436F6D6D616E64204D6F64650D0A00002D
:1028300052657475726E696E6720746F204C6F6795
:1028400067696E67204D6F64650D0A008B940C0EEE
:10285000BB6EBE6ABF6A010E9C6EF80E0F012D178B
:10286000000E2D138B920C0E4E6F516B526B010E9E
:102870001B6FC70E2D17000E2D130509CA6E7F0E94
:10288000CB6E0001D4EFD8F00B0ED76EDC0ED66EF7
:10289000F294F28AD1801200090EEA6EC90EE96E36
:1028A000EF500EE0140E016E006A002EFED7012ECE
:1028B000FBD7BF0E006E002EFED700D0EF2EF2D752
:1028C00012002F0E926E370E936E900E946E200EA5
:1028D000956E400E966E000E976EE40E986E400E4A
:1028E000996E000E9A6E8E968E988E9A919691841D
:1028F000918091829188918C918A8F908F988F96F8
:10290000140E0901C96F0001C7DF8E92909E040169
:10291000B26B8C848C868C908C92B16B000112000F
:1029200090909092909490969098909ABC6A8D9086
:102930008D928D948D968D988D9A0F014F6B8E9CF4
:102940008E9E8E9400011200010E4A6EAE509D8A3A
:1029500012000801776B766B756B7551010820E3E7
:10296000080E796F760E786F75517825016E000E1E
:102970007921036E0150E96E03C0EAFF7451752599
:102980007A6FF2CF7BF8F29E636A7AC862FF7F9C0F
:102990007F9E7F8061507BBFF28EEF6E752BDDD7FF
:1029A00076C801F077C802F0000112000801956BAB
:1029B000F2CF96F8F29E636A94C862FF7F9C7F9E76
:1029C0007F80615096BFF28E956F95C801F000012F
:1029D00012000801686B676B666B656B646B645112
:1029E000030824E3080E6A6F650E696F6451692558
:1029F000016E000E6A21036E0150E96E03C0EAFF0A
:102A0000645162256B6F000E63216C6FF2CF6DF81D
:102A1000F29E6CC863FF6BC862FF7F9C7F9E7F80C5
:102A200061506DBFF28EEF6E642BD9D765C800F090
:102A300066C801F067C802F068C803F00001120020
:102A40001E0E0801746F000184DF02C030F001C067
:102A50002FF01C0E0801746F00017BDF02C020F014
:102A600001C01FF0160E0801746F000172DF02C072
:102A700022F001C021F0140E0801746F000169DF1B
:102A800002C024F001C023F00801746B000161DF73
:102A900002C026F001C025F0180E0801746F000175
:102AA00058DF02C028F001C027F0020E0801946F21
:102AB00000017CDF326A01C031F0280E0801946FFA
:102AC000000174DF346A01C033F0120E0801746F24
:102AD00000013FDF02C036F001C035F03A0E0801B8
:102AE000746F000136DF02C038F001C037F03C0ED1
:102AF0000801746F00012DDF02C03AF001C039F007
:102B00003E0E0801746F000124DF02C03CF001C0DA
:102B10003BF0400E0801746F00011BDF02C03EF065
:102B200001C03DF0420E0801746F000112DF02C0C7
:102B300040F001C03FF0040E0801946F000136DF41
:102B400001C029F70801636B440E626F000141DF89
:102B500003C0F4F302C0F3F301C0F2F300C0F1F3D9
:102B60000801636B480E626F000133DF03C0F8F3A6
:102B700002C0F7F301C0F6F300C0F5F30801636B80
:102B80004C0E626F000125DF03C0FCF302C0FBF3B3
:102B900001C0FAF300C0F9F30801636B520E626FD3
:102BA000000117DF03C000F402C0FFF301C0FEF311
:102BB00000C0FDF30801636B560E626F000109DF70
:102BC00003C004F402C003F401C002F400C001F425
:102BD0000801636B5A0E626F0001FBDE03C008F44C
:102BE00002C007F401C006F400C005F40801636BDD
:102BF0005E0E626F0001EDDE03C00CF402C00BF448
:102C000001C00AF400C009F40801636B620E626F30
:102C10000001DFDE03C010F402C00FF401C00EF4A7
:102C200000C00DF4200E0801746F000192DE02C096
:102C30002AF001C029F0220E0801746F000189DE1C
:102C400002C02CF001C02BF0240E0801746F0001AB
:102C500080DE02C02EF001C02DF01200016A026A6F
:102C6000006A036A0801BB5102E1BA5118E0100E74
:102C7000BC6FD890B837B93700360336BB51035C08
:102C800002E1BA51005C07E3BA51005ED8A0030626
:102C9000BB51035ED88001360236BC2FEAD7000153
:102CA0001200860E0801746F000153DE02C03FF768
:102CB00001C03EF78A0E0801746F00014ADE02C0AF
:102CC00043F701C042F78E0E0801746F000141DE28
:102CD00002C047F701C046F7920E0801746F000169
:102CE00038DE02C04BF701C04AF7960E0801746F38
:102CF00000012FDE02C04FF701C04EF79A0E080107
:102D0000746F000126DE02C053F701C052F79E0E19
:102D10000801746F00011DDE02C057F701C056F7AD
:102D2000A20E0801746F000114DE02C05BF701C03F
:102D30005AF7A60E0801746F00010BDE02C05FF7A0
:102D400001C05EF7820E0801746F000102DE02C04E
:102D500063F701C062F77E0E0801746F0001F9DDB0
:102D600002C0BCF701C0BBF7AA0E0801746F0001D6
:102D7000F0DD02C0C0F701C0BFF77A0E0801746F22
:102D80000001E7DD02C067F701C066F7760E0801B3
:102D9000746F0001DEDD02C06BF701C06AF7720ECE
:102DA0000801746F0001D5DD02C06FF701C06EF736
:102DB0006E0E0801746F0001CCDD02C093F701C0F4
:102DC00092F7AE0E0801746F0001C3DD02C073F705
:102DD00001C072F7B20E0801746F0001BADD02C0C3
:102DE000ACF701C0ABF7B60E0801746F0001B1DD9E
:102DF00002C0B0F701C0AFF7BA0E0801746F00014E
:102E0000A8DD02C077F701C076F7BE0E0801746F27
:102E100000019FDD02C07BF701C07AF7C20E0801F6
:102E2000746F000196DD02C07FF701C07EF7880E47
:102E30000801746F00018DDD02C041F701C040F749
:102E40008C0E0801746F000184DD02C045F701C0DB
:102E500044F7900E0801746F00017BDD02C049F752
:102E600001C048F7940E0801746F000172DD02C0C2
:102E70004DF701C04CF7980E0801746F000169DD31
:102E800002C051F701C050F79C0E0801746F000199
:102E900060DD02C055F701C054F7A00E0801746F41
:102EA000000157DD02C059F701C058F7A40E080110
:102EB000746F00014EDD02C05DF701C05CF7A80E23
:102EC0000801746F000145DD02C061F701C060F7C1
:102ED000840E0801746F00013CDD02C065F701C07B
:102EE00064F7800E0801746F000133DD02C0BEF785
:102EF00001C0BDF7AC0E0801746F00012ADD02C0ED
:102F0000C2F701C0C1F77C0E0801746F000121DD1A
:102F100002C069F701C068F7780E0801746F0001FC
:102F200018DD02C06DF701C06CF7740E0801746FF4
:102F300000010FDD02C071F701C070F7700E0801CB
:102F4000746F000106DD02C095F701C094F7B00E62
:102F50000801746F0001FDDC02C075F701C074F751
:102F6000B40E0801746F0001F4DC02C0AEF701C0BA
:102F7000ADF7B80E0801746F0001EBDC02C0B2F7C8
:102F800001C0B1F7BC0E0801746F0001E2DC02C0A1
:102F900079F701C078F7C00E0801746F0001D9DC21
:102FA00002C07DF701C07CF7C40E0801746F0001F8
:102FB000D0DC02C081F701C080F707013C6B010E35
:102FC0003D6FA16BA06B9F6B9E6BA56BA46BA36BFE
:102FD000A26BB86BB76BBA6BB96B976B966B996B4F
:102FE000986B9B6B9A6B9D6B9C6BB46BB36BB66B66
:102FF000B56B73C7B9F872C7B8F85FC7BBF85EC7DF
:10300000BAF800012BDED890080101340701A76F40
:10301000080102340701A86F75C7B9F874C7B8F87A
:1030200061C7BBF860C7BAF8000118DED890080184
:1030300001340701A96F080102340701AA6F0001DA
:1030400012000801936B935120080AE3036A93511D
:10305000B30FE96E040E0320EA6EEF6A932BF3D7E9
:10306000000112002F50020804E1305202E1000E6C
:10307000996EE7DF0401B26B0001F5EFD8F0F29A28
:10308000D1901200010E0801606F605103081DE32A
:1030900089882F50020803E1305201E1908C200E04
:1030A0000901C96F00014CEC14F089982F500208F7
:1030B00003E1305201E1909C200E0901C96F00012B
:1030C0004CEC14F00801602BE0D70001F9EFD8F0C8
:1030D0002F50006E3050036E02E1005211E0035099
:1030E00003E1010E005C35E0035003E1020E005CD9
:1030F00059E0035004E1030E005CD8B47CD0A4D0A6
:10310000BE0EF66E050EF76E000EF86E1B6AF2BE6E
:103110001B8EF29E060E0A01186F000108EC08F0E3
:103120001BBEF28ECA0EF66E050EF76E000EF86E1E
:103130001B6AF2BE1B8EF29E1DEC07F01BBEF28EC8
:103140000D0E9EA8FED7AD6E0A0E9EA8FED7AD6EE0
:10315000A3D0D20EF66E050EF76E000EF86E1B6A47
:10316000F2BE1B8EF29E090E0A01186F000108ECD8
:1031700008F01BBEF28EE00EF66E050EF76E000E26
:10318000F86E1B6AF2BE1B8EF29E1DEC07F01BBE92
:10319000F28E0D0E9EA8FED7AD6E0A0E9EA8FED72B
:1031A000AD6E7AD0E80EF66E050EF76E000EF86E74
:1031B0001B6AF2BE1B8EF29E060E0A01186F0001FA
:1031C00008EC08F01BBEF28EF40EF66E050EF76EDC
:1031D000000EF86E1B6AF2BE1B8EF29E1DEC07F00D
:1031E0001BBEF28E0D0E9EA8FED7AD6E0A0E9EA8D7
:1031F000FED7AD6E51D0FC0EF66E050EF76E000ECA
:10320000F86E1B6AF2BE1B8EF29E090E0A01186F41
:10321000000108EC08F01BBEF28E0A0EF66E060ED8
:10322000F76E000EF86E1B6AF2BE1B8EF29E1DEC4E
:1032300007F01BBEF28E0D0E9EA8FED7AD6E0A0ED5
:103240009EA8FED7AD6E28D0120EF66E060EF76E53
:10325000000EF86E1B6AF2BE1B8EF29E060E0A016D
:10326000186F000108EC08F01BBEF28E1E0EF66E01
:10327000060EF76E000EF86E1B6AF2BE1B8EF29EF3
:103280001DEC07F01BBEF28E0D0E9EA8FED7AD6E94
:103290000A0E9EA8FED7AD6E1200CBC8CCF808016E
:1032A000CC39006E0F0E001600500A0DF3CFCBF88C
:1032B000CC39006EF00E00160050003A0F0E0016CA
:1032C0000050CB27CBC801F0000112000801CA6BE7
:1032D000C69A210EC66E400EC76E9190C950C96A3B
:1032E000C730FEE3C9CFCAF8C950CAC8C9FFC73042
:1032F000FEE3C9CF28F7C950CAC8C9FFC730FEE3EB
:10330000C9CF21F7C950CAC8C9FFC730FEE3C9CF2A
:1033100022F7C950CAC8C9FFC730FEE3C9CF23F797
:10332000C950CAC8C9FFC730FEE3C9CF24F7C95086
:10333000CAC8C9FFC730FEE3C9CF25F7C950CAC8FC
:10334000C9FFC730FEE3C9CF26F7C950CAC8C9FFB5
:10335000C730FEE3C9CF27F7918021C7CBF8000122
:103360009CDF01C021F722C7CBF897DF01C022F70D
:1033700023C7CBF892DF01C023F725C7CBF88DDF39
:1033800001C025F726C7CBF888DF01C026F727C77D
:10339000CBF883DF01C027F71200F250006EF29ED7
:1033A000636A66C862FF67C861FF7F9C7F9E7F84F7
:1033B0000F01550E7E6EAA0E7E6E7F827FB2FED703
:1033C0007F940050F2120001120021C73BF722C780
:1033D0003AF723C739F725C737F726C736F727C780
:1033E00038F7060E0801666F36C767F80001D5DFAB
:1033F000080E0801666F37C767F80001CEDF0A0EB6
:103400000801666F38C767F80001C7DF0C0E0801B6
:10341000666F39C767F80001C0DF0E0E0801666FDE
:103420003AC767F80001B9DF100E0801666F3BC7A5
:1034300067F80001B2DFFFEFD8F00801A86BC69A69
:10344000210EC66E400EC76E9190C9500C0EC96E0B
:10345000C730FEE3C9CFA8F8C950A8C8C9FFC73014
:10346000FEE3C9CF2CF7918007012C9D9190C950A4
:103470008C0EC96EC730FEE3C9CFA8F8C9502CC75F
:10348000C9FFC730FEE3C9CFA8F891800001120040
:103490000401E26B010EE16F0A0EE06F010EDF6FB7
:1034A000DE6FDD6BDC6BDB6BDA6B0001120001663B
:1034B00003D0026602D007D0022A00C0EEFF012E20
:1034C000FCD7022EFAD712000A0E0A010E6F050E63
:1034D0000ECA0CFA0B6FC950C968C730FEE3C95059
:1034E00004CAC9FFC730FEE3030E0B25E96E000EC8
:1034F0000C21EA6EEFCF0DFAC9500DCAC9FFC730D3
:10350000FEE3020E0B25E96E000E0C21EA6EEFCFF2
:103510000DFAC9500DCAC9FFC730FEE3010E0B25D5
:10352000E96E000E0C21EA6EEFCF0DFAC9500DCAFC
:10353000C9FFC730FEE30BCAE9FF0CCAEAFFEFCFB1
:103540000DFAC9500DCAC9FFC730FEE3045148083F
:1035500006E1C950870EC96EC730FEE305D0C950D9
:10356000950EC96EC730FEE3096BC950C968C730F4
:10357000FEE3C9CF0AFA0A3D0BD00951630808E3FC
:10358000092BC950C968C730FEE3C9CF0AFAF3D77F
:103590000ACA01F0000112000901CABF10D00F0EC3
:1035A000006EC93900160A0E005C03E2300E0026D8
:1035B00002D0CA51002600509EA8FED7AD6E0F0E55
:1035C000C9170A0EC95D02E2300E02D0CA9FCA5165
:1035D000C927C9519EA8FED7AD6E000112004E0E3C
:1035E000F66E060EF76E000EF86E1B6AF2BE1B8EAC
:1035F000F29E1DEC07F01BBEF28EA8EF21F0090130
:10360000C86B0401E36B91820A0E0901C96F0001C6
:103610004CEC14F0C69A220EC66E400EC76E9E96F3
:103620000901C06BC051090806E3C950C968C73019
:10363000FEE3C02BF7D791921F50040812E12052ED
:1036400010E1760EF66E060EF76E000EF86E1B6A2F
:10365000F2BE1B8EF29E00011DEC07F01BBEF28E27
:103660000901400E0A01046F086B076B066B056BBE
:1036700000012ADF01C0C1F90901C15101082AE294
:103680001F50040824E1205222E1860EF66E060E39
:10369000F76E000EF86E1B6AF2BE1B8EF29E310EA4
:1036A0000A01186F000108EC08F01BBEF28EC1C9B8
:1036B000C9F9570E0901CA6F00016EDF0D0E9EA8F1
:1036C000FED7AD6E0A0E9EA8FED7AD6E0901C88169
:1036D000A9EF21F01F50040824E1205222E1BE0E80
:1036E000F66E060EF76E000EF86E1B6AF2BE1B8EAB
:1036F000F29E1A0E0A01186F000108EC08F01BBEBA
:10370000F28EC1C9C9F9570E0901CA6F000144DF21
:103710000D0E9EA8FED7AD6E0A0E9EA8FED7AD6E0A
:103720000901480E0A01046F086B076B010E066F52
:10373000AA0E056F0001C8DE01C0C1F91F500408C0
:1037400023E1205221E1E00EF66E060EF76E000E28
:10375000F86E1B6AF2BE1B8EF29E250E0A01186FD0
:10376000000108EC08F01BBEF28EC1C9C9F9570E62
:103770000901CA6F000110DF0D0E9EA8FED7AD6EC5
:103780000A0E9EA8FED7AD6E0901C12DE8D11F50CB
:10379000040812E1205210E10A0EF66E070EF76ED1
:1037A000000EF86E1B6AF2BE1B8EF29E00011DEC2D
:1037B00007F01BBEF28E0901C06BC05103080FE376
:1037C000036AC051C20FE96E090E0320EA6EC950A8
:1037D000C968C730FEE3C9CFEFFFC02BEED71F503B
:1037E000040839E1205237E12C0EF66E070EF76E11
:1037F000000EF86E1B6AF2BE1B8EF29E1F0E0A01AF
:10380000186F000108EC08F01BBEF28EC2C9C9F99E
:10381000570E0901CA6F0001BFDEC3C9C9F9570EAF
:103820000901CA6F0001B8DEC4C9C9F9570E090100
:10383000CA6F0001B1DEC5C9C9F9570E0901CA6FC7
:103840000001AADE0D0E9EA8FED7AD6E0A0E9EA840
:10385000FED7AD6E0901C42D6DD1C551AA08D8A4FB
:1038600069D11F50040812E1205210E15E0EF66E7D
:10387000070EF76E000EF86E1B6AF2BE1B8EF29EEC
:1038800000011DEC07F01BBEF28E09011F50040859
:1038900012E1205210E1840EF66E070EF76E000E54
:1038A000F86E1B6AF2BE1B8EF29E00011DEC07F043
:1038B0001BBEF28E0901C76BC66B770E0A01046F3F
:1038C000086B076B066B056B0001FEDD01C0C1F9DB
:1038D000690E0A01046F400E086F076B066B056BDB
:1038E0000001F2DD01C0C1F90901C15328E0C7514F
:1038F000C30825E303E1C6514F0821E36A0E006EB9
:10390000002EFED70000C62BD8B4C72B770E0A01B5
:10391000046F086B076B066B056B0001D5DD01C0FA
:10392000C1F9690E0A01046F400E086F076B066B40
:10393000056B0001C9DD01C0C1F9D6D709011F50CF
:10394000040844E1205242E1B20EF66E070EF76E13
:10395000000EF86E1B6AF2BE1B8EF29E230E0A0149
:10396000186F000108EC08F01BBEF28EC1C9C9F93E
:10397000570E0901CA6F00010FDED90EF66E070E51
:10398000F76E000EF86E1B6AF2BE1B8EF29E0A0ED8
:103990000A01186F000108EC08F01BBEF28E100E31
:1039A000E96E1B6AF2BE1B8EF29EC7C919FAC6C920
:1039B00018FAC9EC08F01BBEF28E0D0E9EA8FED7B9
:1039C000AD6E0A0E9EA8FED7AD6E0901C153D8A4F4
:1039D000B0D07A0E0A01046F400E086F076B066BB9
:1039E000056B000171DD01C0C1F91F50040823E11E
:1039F000205221E1EA0EF66E070EF76E000EF86E09
:103A00001B6AF2BE1B8EF29E180E0A01186F00018F
:103A100008EC08F01BBEF28EC1C9C9F9570E0901A6
:103A2000CA6F0001B9DD0D0E9EA8FED7AD6E0A0E5D
:103A30009EA8FED7AD6E0901C153D8A47AD0C06B41
:103A4000C05103080FE3036AC051C20FE96E090EAB
:103A50000320EA6EC950C968C730FEE3C9CFEFFF43
:103A6000C02BEED7C2AD05D0050E0401E36F04D024
:103A70000901040E0401E36F1F50040859E12052AC
:103A800057E1080EF66E080EF76E000EF86E1B6A10
:103A9000F2BE1B8EF29E1F0E0A01186F000108EC89
:103AA00008F01BBEF28E100EE96E1B6AF2BE1B8E72
:103AB000F29EC7C919FAC6C918FAC9EC08F01BBEAC
:103AC000F28E2A0EF66E080EF76E000EF86E1B6A66
:103AD000F2BE1B8EF29E080E0A01186F000108EC60
:103AE00008F01BBEF28EC2C9C9F9570E0901CA6F90
:103AF000000152DDC3C9C9F9570E0901CA6F00019F
:103B00004BDDC4C9C9F9570E0901CA6F000144DD74
:103B1000C5C9C9F9570E0901CA6F00013DDD0D0E77
:103B20009EA8FED7AD6E0A0E9EA8FED7AD6E04010C
:103B3000090115D01F50040812E1205210E1460E71
:103B4000F66E080EF76E000EF86E1B6AF2BE1B8E44
:103B5000F29E00011DEC07F01BBEF28E090104016C
:103B6000E353D8A467D21F50040812E1205210E199
:103B7000780EF66E080EF76E000EF86E1B6AF2BE37
:103B80001B8EF29E00011DEC07F01BBEF28E04019D
:103B9000400E0A01046F086B076B066B056B000192
:103BA00093DC01C0C1F91F50040823E1205221E138
:103BB000B80EF66E080EF76E000EF86E1B6AF2BEB7
:103BC0001B8EF29E1C0E0A01186F000108EC08F013
:103BD0001BBEF28EC1C9C9F9570E0901CA6F000197
:103BE000DBDC0D0E9EA8FED7AD6E0A0E9EA8FED79A
:103BF000AD6E0901C12D01D005D0C15303E0C881CC
:103C0000A9EF21F0C76BC66B410E0A01046F086B68
:103C1000076B066B056B000157DC01C0C1F9090198
:103C2000C15304E0350E006E002EFED7C62BD8B46B
:103C3000C72BC15307E0C751C30804E3E5E1C651F0
:103C40004F08E2E21F50040844E1205242E1DC0E3A
:103C5000F66E080EF76E000EF86E1B6AF2BE1B8E33
:103C6000F29E280E0A01186F000108EC08F01BBE36
:103C7000F28EC1C9C9F9570E0901CA6F00018CDC67
:103C8000080EF66E090EF76E000EF86E1B6AF2BE95
:103C90001B8EF29E0A0E0A01186F000108EC08F054
:103CA0001BBEF28E100EE96E1B6AF2BE1B8EF29ED8
:103CB000C7C919FAC6C918FAC9EC08F01BBEF28EBA
:103CC0000D0E9EA8FED7AD6E0A0E9EA8FED7AD6E55
:103CD0000901C15302E0C8813CD3770E0A01046F89
:103CE000086B076B066B056B000164EC1AF001C0F2
:103CF000C1F91F50040823E1205221E1180EF66E8D
:103D0000090EF76E000EF86E1B6AF2BE1B8EF29E55
:103D1000430E0A01186F000108EC08F01BBEF28E7A
:103D2000C1C9C9F9570E0901CA6F000135DC0D0E72
:103D30009EA8FED7AD6E0A0E9EA8FED7AD6E0901F5
:103D4000C15305E0020E0401E36FFED00901690EC4
:103D50000A01046F086B076B066B056B000164ECCE
:103D60001AF001C0C1F90901C151010805E3030EB0
:103D70000401E36FE9D009011F5004082FE120522C
:103D80002DE1620EF66E090EF76E000EF86E1B6ADC
:103D9000F2BE1B8EF29E2E0E0A01186F000108EC77
:103DA00008F01BBEF28EC1C9C9F9370E0901CA6FEE
:103DB0000001CCEC1AF0940EF66E090EF76E000EB0
:103DC000F86E1B6AF2BE1B8EF29E190E0A01186F66
:103DD000000108EC08F01BBEF28E0901400E0A013A
:103DE000046F086B076B066B056B000164EC1AF03F
:103DF00001C0C1F90901C12D01D036D0C15334E051
:103E00001F5004082FE120522DE1AE0EF66E090E70
:103E1000F76E000EF86E1B6AF2BE1B8EF29E2C0E21
:103E20000A01186F000108EC08F01BBEF28EC1C930
:103E3000C9F9370E0901CA6F0001CCEC1AF0DE0E89
:103E4000F66E090EF76E000EF86E1B6AF2BE1B8E40
:103E5000F29E0B0E0A01186F000108EC08F01BBE61
:103E6000F28E0901C88175D2C76BC66B410E0A017B
:103E7000046F086B076B066B056B000164EC1AF0AE
:103E800001C0C1F90901C15304E0350E006E002ED6
:103E9000FED7C62BD8B4C72BC15307E0C751C30800
:103EA00004E3E4E1C6514F08E1E2C1534AE01F5088
:103EB000040845E1205243E1EA0EF66E090EF76E62
:103EC000000EF86E1B6AF2BE1B8EF29E4A0E0A01AD
:103ED000186F000108EC08F01BBEF28EC1C9C9F9C9
:103EE000370E0901CA6F0001CCEC1AF0380EF66EDD
:103EF0000A0EF76E000EF86E1B6AF2BE1B8EF29E63
:103F00000A0E0A01186F000108EC08F01BBEF28EC1
:103F1000100EE96E1B6AF2BE1B8EF29EC7C919FA1B
:103F2000C6C918FAC9EC08F01BBEF28E0D0E9EA889
:103F3000FED7AD6E0A0E9EA8FED7AD6E0901C881F0
:103F400008D2020E0401E36F1F50040812E1205250
:103F500010E1480EF66E0A0EF76E000EF86E1B6A40
:103F6000F2BE1B8EF29E00011DEC07F01BBEF28E0E
:103F70000401500E0A01046F086B076B020E066FF6
:103F8000056B000164EC1AF001C0C1F90901C651CA
:103F9000500803E1C751C30803E0C15101084BE2D7
:103FA0000401E36B1F50040845E1205243E1640E15
:103FB000F66E0A0EF76E000EF86E1B6AF2BE1B8ECE
:103FC000F29E2B0E0A01186F000108EC08F01BBED0
:103FD000F28EC1C9C9F9570E0901CA6F0001CCECB4
:103FE0001AF0930EF66E0A0EF76E000EF86E1B6A4C
:103FF000F2BE1B8EF29E0A0E0A01186F000108EC39
:1040000008F01BBEF28E100EE96E1B6AF2BE1B8E0C
:10401000F29EC7C919FAC6C918FAC9EC08F01BBE46
:10402000F28E0D0E9EA8FED7AD6E0A0E9EA8FED78C
:10403000AD6E040109010401E35319E11F500408A6
:1040400012E1205210E1A40EF66E0A0EF76E000E79
:10405000F86E1B6AF2BE1B8EF29E00011DEC07F08B
:104060001BBEF28E04010901C88173D10401E35122
:10407000020A000107E0010A19E0070A2BE0010A21
:104080003DE050D01F50040810E120520EE1C40E54
:10409000F66E0A0EF76E000EF86E1B6AF2BE1B8EED
:1040A000F29E1DEC07F01BBEF28E67D01F50040875
:1040B00010E120520EE1DA0EF66E0A0EF76E000ED7
:1040C000F86E1B6AF2BE1B8EF29E1DEC07F01BBE43
:1040D000F28E53D01F50040810E120520EE1F00E72
:1040E000F66E0A0EF76E000EF86E1B6AF2BE1B8E9D
:1040F000F29E1DEC07F01BBEF28E3FD01F5004084D
:1041000010E120520EE1060EF66E0B0EF76E000E59
:10411000F86E1B6AF2BE1B8EF29E1DEC07F01BBEF2
:10412000F28E2BD01F50040824E1205222E11C0EF5
:10413000F66E0B0EF76E000EF86E1B6AF2BE1B8E4B
:10414000F29E260E0A01186F000108EC08F01BBE53
:10415000F28EE3C4C9F9370E0901CA6F0001CCEC35
:104160001AF00D0E9EA8FED7AD6E0A0E9EA8FED7C1
:10417000AD6E0901C881EDD000010901C8911F5041
:1041800004082BE1205229E14A0EF66E0B0EF76E61
:10419000000EF86E1B6AF2BE1B8EF29E2E0E0A01F6
:1041A000186F000108EC08F01BBEF28E100EE96ECD
:1041B0001B6AF2BE1B8EF29EC7C919FAC6C918FA4D
:1041C000C9EC08F01BBEF28E0D0E9EA8FED7AD6E98
:1041D0000A0E9EA8FED7AD6E09019182C69A200EE6
:1041E000C66E400EC76E9E9691921F50040812E153
:1041F000205210E17E0EF66E0B0EF76E000EF86E7A
:104200001B6AF2BE1B8EF29E00011DEC07F01BBE66
:10421000F28E0901C76BC66B410E0A01046F086B71
:10422000076B066B056B000164EC1AF001C0C1F965
:104230000901C15304E0350E006E002EFED7C62BD7
:10424000D8B4C72BC15307E0C751C30804E3E4E166
:10425000C6514F08E1E2C1534AE01F50040845E14E
:10426000205243E19E0EF66E0B0EF76E000EF86EB6
:104270001B6AF2BE1B8EF29E260E0A01186F000109
:1042800008EC08F01BBEF28EC1C9C9F9370E09014E
:10429000CA6F0001CCEC1AF0C80EF66E0B0EF76E6A
:1042A000000EF86E1B6AF2BE1B8EF29E0A0E0A0109
:1042B000186F000108EC08F01BBEF28E100EE96EBC
:1042C0001B6AF2BE1B8EF29EC7C919FAC6C918FA3C
:1042D000C9EC08F01BBEF28E0D0E9EA8FED7AD6E87
:1042E0000A0E9EA8FED7AD6E0901C88132D01F50BC
:1042F00004082BE1205229E1D80EF66E0B0EF76E62
:10430000000EF86E1B6AF2BE1B8EF29E250E0A018D
:10431000186F000108EC08F01BBEF28E100EE96E5B
:104320001B6AF2BE1B8EF29EC7C919FAC6C918FADB
:10433000C9EC08F01BBEF28E0D0E9EA8FED7AD6E26
:104340000A0E9EA8FED7AD6E09010001EFEF1AF02C
:1043500009019182C8C901F000011200500E0A0142
:10436000046F03CA08FA02CA07FA01CA06FA00CAA9
:1043700005FA000164EC1AF0015003E0400A0CE079
:104380000ED003CAE8F402CAE7F401CAE6F400CA90
:10439000E5F4010E016E05D0000E016E02D0000E94
:1043A000016E44EF22F0C950C968C730FEE3C9CF9F
:1043B00008FA0A01076B066B0751270814E303E1AB
:1043C00006510F0810E3083D0ED0350E006E002E8A
:1043D000FED7C950C968C730FEE3C9CF08FA062B1B
:1043E000D8B4072BE9D70851FE0807E0085302E1CB
:1043F000FE0E086F08CA01F02BD0076B066B055341
:1044000009E1045307E10751035D14E303E102519D
:10441000065D10E200510625E96E01510721EA6EA2
:10442000C950C968C730FEE3C9CFEFFF062BD8B427
:10443000072BE5D7C950C968C730FEE3C950C96822
:10444000C730FEE3C950C968C730FEE3000E016EF5
:10445000000112000401E9A103D0030E016E9CD0FB
:104460000901FF51010802E3FF5305E1040E016E4B
:10447000040192D0090191920A01036B026B020EB2
:10448000016F006B00016AD7015206E19182010EB3
:10449000016E040181D000010401E35105080DE023
:1044A000D890FDC9FEF9FCC9FDF9FBC9FCF9090169
:1044B000FB6BFC37FD37FE3704010901FF2D2CD0C3
:1044C000510E0A01046FFEC908FAFDC907FAFCC9BA
:1044D00006FAFBC905FA000164EC1AF0015206E085
:1044E0009182040E016E040157D00001FAC901FA4D
:1044F000F9C900FA0A01056B046B020E036F026B27
:10450000000151DF015206E09182010E016E0401AB
:1045100043D000013DD00901520E0A01046FFEC9CB
:1045200008FAFDC907FAFCC906FAFBC905FA000139
:1045300064EC1AF0015206E09182040E016E04014F
:104540002BD00001FAC901FAF9C900FA0A01056B7A
:10455000046B020E036F026B000125DF015206E0BF
:104560009182010E016E040117D00001020E0901B3
:10457000FA27FF07D8B402D00001E4D74C0E0A0195
:10458000046F086B076B066B056B000164EC1AF097
:104590009182000E016E040100011200C7C9CDF91D
:1045A000C6C9CCF9C9C9CFF9C8C9CEF90901CB53DD
:1045B00003E1CA51000830E2CCC9E9FFCDC9EAFFE6
:1045C000EFCFD0F9CFC903F0CEC9E9FFCFC9EAFFD9
:1045D000EF50D05D16E0CDC903F0CCC9E9FF03C0B0
:1045E000EAFFEFCFD0F9CFC903F0CEC9E9FFCFC9B9
:1045F000EAFFEF50D05D02E2FF0E01D0010E016E26
:104600000DD0CC2BD8B4CD2BCE2BD8B4CF2BCA51B8
:10461000D8B4CB07CA07CBD7000E016E0001120039
:10462000240E07010E25016E000E0F21036E01C03E
:10463000C4F90901C56FEA6E01C0E9FF006A020E04
:10464000026E016A000157EC1AF0240E07010E25D4
:10465000016E000E0F21036E01C0C4F90901C56F80
:10466000FA6F01C0F9F9C3C9FEF9C2C9FDF9C1C9A0
:10467000FCF9C0C9FBF9010EFF6F0001EBDE01522E
:10468000D8A477D0220E07010E25016E020E0F214D
:10469000036E01C0E9FFEA6EECCFC5F9ED52EFCF32
:1046A000C4F90901C451550865E1C551AA0862E180
:1046B0005A0E07010E25016E000E0F21036E01C078
:1046C000C4F90901C56FC76F01C0C6F9070EC96FEC
:1046D000100EC86FCB6B050ECA6F00015FDF015271
:1046E00003E1010E016E49D05A0E07010E25016E3D
:1046F000000E0F21036E01C0C4F90901C56FC76F19
:1047000001C0C6F9070EC96F150EC86FCB6B050E39
:10471000CA6F000143DF015203E1020E016E2DD08A
:10472000760E07010E25016E000E0F21036E01C0EB
:10473000C4F90901C56FC76F01C0C6F9070EC96F7B
:104740001A0EC86FCB6B050ECA6F000127DF01522E
:1047500010E14C0E07010E25E96E000E0F21EA6EE6
:10476000EF52D8B402D0000104D0030E016E000154
:1047700004D00901000E016E000112000901DB6B7B
:10478000DC6B010EDD6FDA6AD96A090EE06FD30EB9
:10479000DF6F090EEA6ED70EE96EE0C9E2FFDFC9EE
:1047A000E1FFDDC9DEF9D890E550EE02F350DB23DE
:1047B000F450DC23DE2FF7D7DBC9DEFFDCC9DBF9E1
:1047C000DC6BD8B0DC2BDF2BD8B4E02BDD2BDD513C
:1047D0000508DFE10001120007010E510F1103E18E
:1047E0000B0E016EC6D20FC7EAFF0EC7E9FF006AC3
:1047F000020E026E240E016E000157EC1AF0FFEC5F
:104800001AF001C0E9F40401E9A106D00001FFECAF
:104810001AF001C0E9F40401E9A105D0010E016E0E
:104820000701A7D204010901B76BB66BB56BB46B76
:10483000B7C9C3F9B6C9C2F9B5C9C1F9B4C9C0F994
:104840000001EEDE01C0B3F90901B35337E1E60E12
:1048500007010E25E96E010E0F21EA6EEF521EE0F0
:10486000EA0E0E25016E010E0F2101C0E9FFEA6E6E
:10487000EFCFB4F9ECCFB5F9ECCFB6F9ECCFB7F98F
:10488000B7C9C3F9B6C9C2F9B5C9C1F9B4C9C0F944
:104890000001C6DE01C0B3F910D00701040EF66EA8
:1048A0000C0EF76E000EF86E1B6AF2BE1B8EF29EA7
:1048B00000011DEC07F01BBEF28E0901B35305E1A8
:1048C0000C0E016E070155D2090107010EC7E9FF61
:1048D0000FC7EAFFB3C9EFFF0901B351030832E183
:1048E000080E07010E25016E000E0F21036E01C098
:1048F000C0F90901C16F480E07010E25016E000EB7
:104900000F2101C0E9FFEA6EEFCF00F0ECCF01F01C
:10491000ECCF02F0ECCF03F003C0C5F902C0C4F93C
:1049200001C0C3F900C0C2F9C1C9EAFFC0C9E9FFAB
:1049300000C0EFFF01C0ECFF02C0ECFF03C0ECFFC2
:104940002DD00901080E07010E25016E000E0F2162
:10495000036E01C0C0F90901C16F3A0E07010E25AF
:10496000016E000E0F2101C0E9FFEA6EECCF03F0EB
:10497000ED52EFCFC2F9090103C0C3F9C1C9EAFF83
:10498000C0C9E9FFEE52EE52EC6AED52EF6AED5209
:1049900003C0EFFFED52C2C9EFFF0701020E0E2563
:1049A000016E000E0F21036E310E07010E25E96E18
:1049B000000E0F21EA6EEFCFC2F9090103C0EAFF32
:1049C00001C0E9FFC2C9EFFF030E07010E25016E0A
:1049D000000E0F21036E340E07010E25E96E000E46
:1049E0000F21EA6EEFCFC2F9090103C0EAFF01C04F
:1049F000E9FFC2C9EFFF100E07010E25016E000E80
:104A00000F21036E01C0C0F90901C16F320E070109
:104A10000E25016E000E0F2101C0E9FFEA6EECCFFA
:104A200003F0ED52EF500901B425006E0350B5219B
:104A3000016E000EB621026E000EB721C1C9EAFF59
:104A4000C0C9E9FF00C0EFFF01C0ECFF02C0ECFFEE
:104A5000EC6E040E07010E25016E000E0F21036E91
:104A600001C0C0F90901C16F350E07010E25016EA5
:104A7000000E0F2101C0E9FFEA6EECCF03F0ED520A
:104A8000EFCFC2F90901C1C9EAFFC0C9E9FF03C0FC
:104A9000ECFFED52C2C9EFFF080E07010E25E96ECB
:104AA000000E0F21EA6EEFCFD3F9ECCFD4F9ECCFA3
:104AB000D5F9ECCFD6F9030E0E25E96E000E0F21C5
:104AC000EA6EEFCFD7F90901EACFC6F9E9CFC5F908
:104AD000DA6BD96BD86B000151DEC6C9EAFFC5C9D4
:104AE000E9FF03C0C3F902C0C2F901C0C1F900C0A7
:104AF000C0F9100E07010E25E96E000E0F21EA6EB7
:104B0000EFCF00F0ECCF01F0ECCF02F0ECCF03F0F0
:104B100000500901C025B86F0150C121B96F025082
:104B2000C221BA6F0350C321BB6FB351030838E1F0
:104B3000140E07010E25016E000E0F21036E01C039
:104B4000C0F90901C16F500E07010E25016E000E5C
:104B50000F2101C0E9FFEA6EEFCF00F0ECCF01F0CA
:104B6000ECCF02F0ECCF03F0C1C9EAFFC0C9E9FF06
:104B700000C0EFFF01C0ECFF02C0ECFF03C0ECFF80
:104B8000180E0E25E96E000E0F21EA6EB8C9EFFF70
:104B9000B9C9ECFFBAC9ECFFBBC9ECFF47D00901AA
:104BA000140E07010E25E96E000E0F21EA6EB8C93A
:104BB000EFFFB9C9ECFFBAC9ECFFBBC9ECFF180E97
:104BC0000E25016E000E0F2101C0C0F90901C16F51
:104BD000040E07010E25E96E000E0F21EA6EECCFE0
:104BE000C3F9ED52EFCFC2F90901C333C233C33366
:104BF000C233C333C233C333C2330F0EC317C251E0
:104C0000B825006EC351B921016E000EBA21026EA3
:104C1000000EBB21C1C9EAFFC0C9E9FF00C0EFFF18
:104C200001C0ECFF02C0ECFFEC6E0701440E0E2544
:104C3000016E000E0F2101C0E9FFEA6EEFCFBCF953
:104C4000ECCFBDF9ECCFBEF9ECCFBFF90901BC53F5
:104C500017E1BD5315E1BE5313E1BF5311E1370E08
:104C600007010E25016E000E0F2101C0E9FFEA6E5B
:104C70000901BF6BBE6BECCFBDF9ED52EFCFBCF9B4
:104C80000C0E07010E25016E000E0F21036E01C0F0
:104C9000C0F90901C16F180E07010E25E96E000E5B
:104CA0000F21EA6EEFCF00F0ECCF01F0ECCF02F075
:104CB000ECCF03F000500901BC5DC26F0150BD593B
:104CC000C36F0250BE59C46F0350BF59C56FB45172
:104CD000C227B551C323B651C423B751C523020E11
:104CE00007010E25E96E000E0F21EA6EEFCF28FABC
:104CF0000901EACFC8F9E9CFC7F9D8921B6AF2BE19
:104D00001B8EF29EC5C927FAC4C926FAC3C925FA63
:104D1000C2C924FA0A012B6B2A6B296B000121EC12
:104D200008F01BBEF28EC8C9EAFFC7C9E9FF03C07D
:104D3000C5F902C0C4F901C0C3F900C0C2F9020E2E
:104D400009010024006E000E0120016E000E0220F9
:104D5000026E000E0320C1C9EAFFC0C9E9FF00C00E
:104D6000EFFF01C0ECFF02C0ECFFEC6E000E016E25
:104D7000070100011200400EF66E0C0EF76E000ED9
:104D8000F86E1B6AF2BE1B8EF29E1DEC07F01BBE76
:104D9000F28E000B0EE0500EF66E0C0EF76E000E4B
:104DA000F86E1B6AF2BE1B8EF29E1DEC07F01BBE56
:104DB000F28E080167A110D05E0EF66E0C0EF76E33
:104DC000000EF86E1B6AF2BE1B8EF29E00011DECF7
:104DD00007F01BBEF28E080167A310D0740EF66EAA
:104DE0000C0EF76E000EF86E1B6AF2BE1B8EF29E62
:104DF00000011DEC07F01BBEF28E08016751030B8A
:104E000010E0880EF66E0C0EF76E000EF86E1B6A40
:104E1000F2BE1B8EF29E00011DEC07F01BBEF28E4F
:104E2000080167A510D09A0EF66E0C0EF76E000EF4
:104E3000F86E1B6AF2BE1B8EF29E00011DEC07F09D
:104E40001BBEF28E08016751050B10E0AC0EF66E2A
:104E50000C0EF76E000EF86E1B6AF2BE1B8EF29EF1
:104E600000011DEC07F01BBEF28E08016751060B16
:104E700010E0C00EF66E0C0EF76E000EF86E1B6A98
:104E8000F2BE1B8EF29E00011DEC07F01BBEF28EDF
:104E900008016751070B10E0D00EF66E0C0EF76E8E
:104EA000000EF86E1B6AF2BE1B8EF29E00011DEC16
:104EB00007F01BBEF28E08016751090B10E0E60EE9
:104EC000F66E0C0EF76E000EF86E1B6AF2BE1B8EAD
:104ED000F29E00011DEC07F01BBEF28E0801675127
:104EE0000A0B10E0020EF66E0D0EF76E000EF86E55
:104EF0001B6AF2BE1B8EF29E00011DEC07F01BBE6A
:104F0000F28E080167510B0B10E0180EF66E0D0EB5
:104F1000F76E000EF86E1B6AF2BE1B8EF29E000149
:104F20001DEC07F01BBEF28E080167510C0B10E060
:104F30002A0EF66E0D0EF76E000EF86E1B6AF2BEAC
:104F40001B8EF29E00011DEC07F01BBEF28E0801C5
:104F50000001EEEF27F00801CE6BCE5101082CE3E3
:104F6000CB51CE25CF6F080ED16FCC0ED06FCE5166
:104F7000D025016E000ED121036E0150E96E03C0F1
:104F8000EAFFEFCFD0F8F250006EF29E636ACFC80E
:104F900062FFD0C861FF7F9C7F9E7F840F01550E0A
:104FA0007E6EAA0E7E6E7F827FB2FED77F94005007
:104FB000F2120801CE2BD1D7000112000801666B56
:104FC0006651020812E3000107DC01C020F7070167
:104FD000205305E020C767F80001CDD603D00801B3
:104FE00004D000010801662BEBD73E0ECB6FCD6BD2
:104FF00020C7CCF80001AFDF070120C701F0000196
:105000001200560EF66E060EF76E000EF86E1B6A54
:10501000F2BE1B8EF29E1DEC07F01BBEF28E12003C
:105020001EC0EAFF1DC0E9FF0801DCC8EFFFE92A46
:10503000D8B4EA2AEF6A1D2AD8B41E2A0001120049
:105040000900F55210E0F6CFC8F8F7CFC9F8F8CF4D
:10505000CAF8F5CFDCF8E4DFC8C8F6FFC9C8F7FF27
:10506000CAC8F8FFEDD71200020EEA6E950EE96E7F
:10507000006A026A1E0E016E57EC1AF01200080157
:10508000D06BCF6BCE6BCD6B000E016EC250830B1D
:105090000110C26E000E016EC150F80B0110C16EFE
:1050A000010ECA6FCA51320812E3C282C2B2FED7E1
:1050B000C3CFD1F8C4CFD2F8D36BD46B050E09019E
:1050C000C96F00014CEC14F00801CA2BEBD7010E9C
:1050D000CA6FCA51640856E3C282C2B2FED7C3CFB8
:1050E000D1F8C4CFD2F8D36BD46B010ECA5DD56FA3
:1050F000D0C8D6F9CFC8D5F9CEC8D4F9CDC8D3F920
:105100000901DA6BD96BD86BD76F0001BEEC23F0C5
:1051100003C0D8F802C0D7F801C0D6F800C0D5F84F
:105120000801D151D527D251D623D351D723D451F9
:10513000D823D8921B6AF2BE1B8EF29ED8C827FADB
:10514000D7C826FAD6C825FAD5C824FA0A012B6B87
:105150002A6B296BCAC828FA000121EC08F01BBE93
:10516000F28E03C0D0F802C0CFF801C0CEF800C064
:10517000CDF8050E0901C96F00014CEC14F00801CF
:10518000CA2BA7D7D0C8D6F9CFC8D5F9CEC8D4F97D
:10519000CDC8D3F90901DA6BD96BD86B640ED76F20
:1051A0000001BEEC23F003C0D8F802C0D7F801C05C
:1051B000D6F800C0D5F8D8921B6AF2BE1B8EF29EBC
:1051C00003C027FA02C026FA01C025FA00C024FA5B
:1051D0000A012B6B2A6B010E296F100E286F00013C
:1051E00021EC08F01BBEF28E560E08010024CB6F96
:1051F000000E0120CC6FCBC801F0CCC802F000013A
:10520000120001501B6AF2BE1B8EF29ECAC81AFA27
:10521000640E0A011B6F0001B3EC07F01BBEF28E97
:1052200000C0CAF80150300E08E10801CBA30FD02E
:10523000CBB70DD0CBB9200E04D00801CB97CB99BA
:10524000CB81012601C0DCF80001EADE08011B6AFF
:10525000F2BE1B8EF29ECAC81AFA0A0E0A011B6F12
:105260000001B3EC07F01BBEF28E00C0CAF801507B
:10527000300E08E10801CBB70AD0CBA108D0CBB9DA
:10528000200E0001012601C0DCF8CADE0801300E44
:10529000CA27CAC8DCF80001C3DE1200E9500801C1
:1052A000CF6F3B0ED66F9A0ED56FCA0ED46FD36BED
:1052B0000A0ED16FCE51D8A4CF07D882080EEA6E5D
:1052C000CA0EE96E1B6AF2BE1B8EF29ECDC827FA8B
:1052D000CCC826FACBC825FACAC824FAD6C82BFAF5
:1052E000D5C82AFAD4C829FAD3C828FA000121EC73
:1052F00008F01BBEF28E0150005213E10801CE29C6
:10530000D15DD8A402D000010CD0CF510CE00F0B1E
:10531000D15D01E01EE2CFBF1CD0CFBD04D0200E76
:1053200012D00801CF6BCE51D15D0CE100C0CFF897
:105330002E0EDC6F000174DE0801CFC800F0200ED5
:10534000CF17000E300E002600C0DCF8000168DE2A
:105350000801D8921B6AF2BE1B8EF29ED6C827FAAD
:10536000D5C826FAD4C825FAD3C824FA0A012B6B6B
:105370002A6B296B0A0E286F000121EC08F01BBE76
:10538000F28E03C0D6F802C0D5F801C0D4F800C030
:10539000D3F80801D12F91D70001120065DE6FDE2E
:1053A00002C0C9F801C0C8F866EC19F0020E1E6E02
:1053B000950E1D6E26C7CAF8010E0801CB6F0001BD
:1053C00020DF2F0E0801DC6F00012ADE25C7CAF896
:1053D000010E0801CB6F000114DF2F0E0801DC6FF6
:1053E00000011EDE27C7CAF8010E0801CB6F0001BD
:1053F00008DF200E0801DC6F000112DE23C7CAF8A7
:10540000010E0801CB6F0001FCDE3A0E0801DC6FD3
:10541000000106DE22C7CAF8010E0801CB6F0001A9
:10542000F0DE3A0E0801DC6F0001FADD21C7CAF890
:10543000010E0801CB6F0001E4DE2C0E0801DC6FC9
:105440000001EEDD440EE96E0801CD6BCC6BC9C8DE
:10545000CBF8C8C8CAF8020ECE6F00011FDF1200D9
:10546000D6C8DAF8D5C8D9F8DAC803F00801D9C81F
:10547000E9FFDAC8EAFFEF5206E0D92BD8B4DA2BFD
:105480000001F2D70801D8C803F0D7C8E9FFD8C88F
:10549000EAFFEF5213E0D7C8E9FFD8C8EAFFEFCF21
:1054A000DDF8DAC8EAFFD9C8E9FFDDC8EFFFD92B7C
:1054B000D8B4DA2BD72BD8B4D82BE5D7D9C8E9FF85
:1054C000DAC8EAFFEF6AD5C801F0D6C802F00001D9
:1054D0001200F29A04001200CF6ACE6A89882F5017
:1054E000020803E1305201E1908C9E909D8081EF93
:1054F0002AF00B0ED76EDC0ED66E0400F294F28A00
:10550000EBD712000801CA51000A000103E0010AAA
:1055100003E003D0DEDF01D0ECDF12000401E993E9
:10552000E995E9C401F00001120007010E510F11C5
:1055300003E10B0E016E28D00001F0DF01A015D0B1
:10554000010E07010E25E96E000E0F21EA6EEF52E3
:1055500004E0090E016E18D006D00001ECEC23F037
:105560000150070111D00ED0000107010EC7E9FF5D
:105570000FC7EAFFEF5206E10001ECEC23F0015007
:10558000070102D0000E016E00011200020E090197
:10559000CC5F000ECD5BCE5BCF5B0C0E07010E2502
:1055A000E96E000E0F21EA6EEFCF00F0ECCF01F0B4
:1055B000ECCF02F0ECCF03F003500901CF5D11E313
:1055C0000BE10250CE5D0DE307E10150CD5D09E333
:1055D00003E10050CC5D05E3006A016A026A036AD8
:1055E00040D0020E07010E25E96E000E0F21EA6E73
:1055F000EFCFD7F90901EACFD2F9E9CFD1F9CFC975
:10560000D6F9CEC9D5F9CDC9D4F9CCC9D3F9DA6B5D
:10561000D96BD86B0001BEEC23F0D2C9EAFFD1C927
:10562000E9FF03C0D3F902C0D2F901C0D1F900C02B
:10563000D0F9180E07010E25E96E000E0F21EA6E53
:10564000EFCF00F0ECCF01F0ECCF02F0ECCF03F0A5
:105650000901D0510026D1510122D2510222D35149
:10566000032200011200C5C9EAFFC4C9E9FF200EE8
:10567000006E026A0B0E016E57EC1AF00901C96B3D
:10568000180ECA6FC66B080EC76FC2C9E9FFC3C93F
:10569000EAFFECCFCCF9ED52EFCFCBF9CBC9E9FF64
:1056A000CCC9EAFFEFCFC8F9C3C903F0C2C9E9FF0B
:1056B000C3C9EAFF010EEE2601E3EF2AC851200814
:1056C00001E3C86BC85306E0C8512F0803E0C85176
:1056D0005C080FE1C65301E170D00B0EC425E96EE2
:1056E000000EC521EA6EC951CA15EF6EC8C901F096
:1056F00066D0C851200803E2C8517F0801E15DD09F
:10570000C8512E080EE1C9B10BD0C651000808E2FD
:10571000C651080805E3080EC66F0B0EC76F4CD0C4
:105720004CD0C851220801E148D0C851290801E3F2
:1057300035D0C8512C0801E340D0C851390801E3E5
:105740002DD0C8513F0801E338D0C9B127D0C85186
:105750007C0801E132D0C8515A0804E2C8515D0802
:1057600001E32BD0C85140080AE2C8515A0807E3A8
:10577000C751080803E1CA97CA5101D0CA99C85154
:1057800060080CE2C8517A0809E3200EC85FC751CF
:10579000080803E1C987C95101D0C989C991C75116
:1057A000C65D01E30AD0C651C62BC425E96E000EC2
:1057B000C521EA6EC8C9EFFF68D7010E016E00016E
:1057C00077EF31F0C30E0A01086F500E076FC95012
:1057D000C968C730FEE3350E006E002EFED7C950F3
:1057E000C968C730FEE3C9CF06FA0751D8B4080725
:1057F0000707063D01D003D007510811ECE106CAA6
:1058000001F000010AEF2CF0020E0A01056F046B93
:105810000001D8D7013C01D003D0000E016E4DD05D
:10582000C95002CAC9FFC730FEE30A010251FD0890
:1058300041E005CA03F00451D8B40507040703107A
:1058400011E001CA03F00051002BD8B4012BE96E1E
:1058500003C0EAFFEFCF06FAC95006CAC9FFC73036
:10586000FEE3E7D7C950C968C730FEE3C950C9682D
:10587000C730FEE3C950C968C730FEE3C9CF03FA99
:10588000056B046B0551C30815E303E104514F0890
:1058900011E3350E006E002EFED7C950C968C7301F
:1058A000FEE3C9CF03FA035301E004D0042BD8B4BC
:1058B000052BE8D7010E016E000112000401E9A1D9
:1058C00003D0030E016E9BD0E9A503D0020E016E3A
:1058D00096D00901FF5305E1040E016E04018FD03B
:1058E000090191920401E35105080DE0D890FDC92A
:1058F000FEF9FCC9FDF9FBC9FCF90901FB6BFC379A
:10590000FD37FE3704010901FF2D20D0580E0A0192
:10591000046FFEC908FAFDC907FAFCC906FAFBC9FB
:1059200005FA000164EC1AF001520EE1FAC901FA1D
:10593000F9C900FAFE0E0A01026F000165DF01528B
:1059400003E00901FF6B00014DD009010401E3519F
:10595000030B16E0770E0A01046F086B076B066BEA
:10596000056B000164EC1AF0570E0A01046F086B16
:10597000076B066BFFC905FA000164EC1AF004011D
:10598000590E0A01046FFEC908FAFDC907FAFCC9DD
:1059900006FAFBC905FA000164EC1AF0015222E193
:1059A000FAC901FAF9C900FAFC0E0A01026F0001F6
:1059B0002BDF015201E109D0020E0901FA27FF078E
:1059C000D8B402D00001ECD700010A01016B006BD2
:1059D000FD0E026F000118DF015204E1010E090102
:1059E000FF6F00019182C950C968C730FEE3090109
:1059F000FF5302E0010E01D0000E016E0401000110
:105A00001200200E07010E25E96E000E0F21EA6E2E
:105A1000EFCFF1F9ECCFF2F9ECCFF3F9ECCFF4F9E9
:105A20000901ED51F15D0AE1EE51F25D07E1EF513F
:105A3000F35D04E1F051F45DD8B4EAD0060E07013D
:105A40000E25E96E000E0F21EA6EEF52D8B4A5D0F4
:105A5000240E0E25016E000E0F21036E01C0F7F912
:105A60000901F86FFA6F01C0F9F9F4C9FEF9F3C939
:105A7000FDF9F2C9FCF9F1C9FBF9010EFF6F000154
:105A80001DDF01C0F5F90901F55303E0000E016EB9
:105A9000C1D0060E07010E25E96E000E0F21EA6E39
:105AA000EF6A100E0E25E96E000E0F21EA6EEFCFA1
:105AB000F7F9ECCFF8F9ECCFF9F9ECCFFAF9080ED9
:105AC0000E25E96E000E0F21EA6EEFCF00F0ECCF4D
:105AD00001F0ECCF02F0ECCF03F00901F751002602
