:040000004DEFD9F0F7
:08000800046ED8CF05F0E0CF33
:1000100006F00001E9CF0CF0EACF07F0E1CF08F0DD
:10002000E2CF09F0D9CF0AF0DACF0BF0F3CF12F01C
:10003000F4CF13F0FACF14F0F5CF15F0F6CF16F099
:10004000F7CF17F0F8CF18F0FBCF19F000C00EF083
:1000500001C00FF002C010F003C011F0F2AA34EF9B
:1000600000F0F2B474EF07F09DA03AEF00F09EB0FC
:1000700089EF07F0A0A240EF00F0A1B284EF0CF0EE
:10008000F2A846EF00F0F2B20AEF07F0F0A64CEF4C
:1000900000F0F0B075EF0BF0F0A852EF00F0F0B206
:1000A000B0EF0BF09DAA58EF00F09EBA3CEF07F0BE
:1000B0000EC000F00FC001F010C002F011C003F03C
:1000C0000CC0E9FF07C0EAFF078E08C0E1FF09C0C6
:1000D000E2FF0AC0D9FF0BC0DAFF12C0F3FF13C062
:1000E000F4FF14C0FAFF15C0F5FF16C0F6FF17C0E5
:1000F000F7FF18C0F8FF19C0FBFF045006C0E0FF6F
:1001000005C0D8FF1000F76A1A0FF66E010EF7222D
:10011000000EF86E0900F55012004E6F2045727205
:100120006F720000F76A380FF66E010EF722000EAC
:10013000F86E0900F5501200494C4C4547414C20DF
:1001400046494C45204E414D4500F76A5E0FF66E1C
:10015000010EF722000EF86E0900F55012004D4511
:10016000444941204E4F5420524541445900F76ABA
:10017000820FF66E010EF722000EF86E0900F550A0
:10018000120046494C45204E4F5420464F554E4490
:100190000000F76AA60FF66E010EF722000EF86E49
:1001A0000900F550120050415448204E4F5420464B
:1001B0004F554E440000F76ACA0FF66E010EF72243
:1001C000000EF86E0900F5501200414343455353A9
:1001D0002044454E49454400F76AEC0FF66E010E87
:1001E000F722000EF86E0900F55012004D45444903
:1001F000412046554C4C0000F76A0C0FF66E020E7B
:10020000F722000EF86E0900F5501200522F572009
:100210004552524F5200F76A2A0FF66E020EF7222D
:10022000000EF86E0900F5501200494E434F52522D
:10023000454354204D45444941204348414E47459C
:100240000000F76A560FF66E020EF722000EF86EE7
:100250000900F550120057524954452050524F544E
:10026000454354454400F76A7A0FF66E020EF722B2
:10027000000EF86E0900F55012004653204E4F5400
:1002800020454E41424C45440000F76A9E0FF66EF1
:10029000020EF722000EF86E0900F55012004E4FC4
:1002A0002046494C4553595354454D00F76AC00FF9
:1002B000F66E020EF722000EF86E0900F5501200DD
:1002C000554E4B4E4F574E204552524F5200F76AF3
:1002D000E20FF66E020EF722000EF86E0900F550DE
:1002E00012000000F76AF80FF66E020EF722000EF9
:1002F000F86E0900F550120058585800F76A100FB0
:10030000F66E030EF722000EF86E0900F55012008B
:100310004E4F3300F76A280FF66E030EF722000ED9
:10032000F86E0900F5501200504F3400F76A400F84
:10033000F66E030EF722000EF86E0900F55012005B
:100340004E483400F76A580FF66E030EF722000E7F
:10035000F86E0900F550120053694F00F76A700FEC
:10036000F66E030EF722000EF86E0900F55012002B
:1003700055726500F76A880FF66E030EF722000EBD
:10038000F86E0900F55012004E4F3200F76AA00FC8
:10039000F66E030EF722000EF86E0900F5501200FB
:1003A00046655F00F76AB80FF66E030EF722000E7F
:1003B000F86E0900F5501200436C5F00F76AD00F29
:1003C000F66E030EF722000EF86E0900F5501200CB
:1003D000536D7000F76AE80FF66E030EF722000EF9
:1003E000F86E0900F550120053746400F76A000FAC
:1003F000F66E040EF722000EF86E0900F55012009A
:10040000436D6200F76A180FF66E040EF722000EB5
:10041000F86E0900F550120054737400F76A300F3B
:10042000F66E040EF722000EF86E0900F550120069
:1004300052626C00F76A480FF66E040EF722000E47
:10044000F86E0900F550120043616C00F76A600F06
:10045000F66E040EF722000EF86E0900F550120039
:10046000466C7300F76A780FF66E040EF722000EE2
:10047000F86E0900F550120055746C00F76A900F81
:10048000F66E040EF722000EF86E0900F550120009
:1004900049307300F76AA80FF66E040EF722000EBB
:1004A000F86E0900F550120049317300F76AC00F69
:1004B000F66E040EF722000EF86E0900F5501200D9
:1004C00049307400F76AD80FF66E040EF722000E5A
:1004D000F86E0900F550120049317400F76AF00F08
:1004E000F66E040EF722000EF86E0900F5501200A9
:1004F00049307200F76A080FF66E050EF722000EFB
:10050000F86E0900F550120049317200F76A200FA9
:10051000F66E050EF722000EF86E0900F550120077
:1005200049307500F76A380FF66E050EF722000E97
:10053000F86E0900F550120049317500F76A500F46
:10054000F66E050EF722000EF86E0900F550120047
:1005500043686B00F76A680FF66E050EF722000E0F
:10056000F86E0900F550120058580000F76A800F25
:10057000F66E050EF722000EF86E0900F550120017
:100580002C2C2C2C2C2C2C0077726974696E670033
:1005900072656164696E6700256C783A20726561E6
:1005A000642025782C2073686F756C642062652048
:1005B00025780A0D0000646F6E650A0D0000454342
:1005C0004F2D322025730D0A000056322E31323560
:1005D0000000574D532D342D53442025730D0A0030
:1005E00056322E31323500004157532D31202573BC
:1005F0000D0A000056322E3132350000574D532D72
:10060000342D51452025730D0A0056322E313235D6
:1006100000005858582D302025730D0A000056321E
:100620002E313235000040494E560D0A000040413F
:1006300052470D0A0000404552520D0A0000404F3B
:100640004B210D0A0000405245530D0A0000405353
:1006500044310D0A00004053445F0D0A0000404D34
:1006600041580D0A00003F404253590D0A004052C4
:1006700044590D0A00004046533A446973636F764B
:100680006572790D0A004046533A556E61626C6599
:1006900020746F20707574206361726420696E200D
:1006A00069646C652073746174652C207265737065
:1006B0006F6E7365203D20253032780D0A0040466C
:1006C000533A436172642069646C652C20726573CF
:1006D000706F6E7365203D20253032780D0A000062
:1006E0004046533A526573706F6E736520746F2085
:1006F0005344207665722032207465737420434D14
:100700004438203D2025780D0A004046533A506F6A
:10071000737369626C65205344763220636172643E
:100720002064657465637465640D0A004046533A3D
:10073000566F6C746167652072616E6765206368CF
:1007400065636B2C206F6372203D20253032782545
:1007500030327825303278253032780D0A00404624
:10076000533A43617264205664642072616E676517
:10077000203D20322E372D332E3620766F6C747349
:100780000D0A00004046533A53656E64696E672057
:1007900041434D44343120636F6D6D616E6420744C
:1007A0006F20534420766572203220636172640D9D
:1007B0000A004046533A526573706F6E7365206647
:1007C000726F6D2073656E64696E672041434D449E
:1007D0003431203D20253032782C2054696D6572EB
:1007E000203D20256C750D0A00004046533A5265A5
:1007F00073706F6E736520746F20434D44353820DD
:100800003D2025780D0A00004046533A53656E742A
:1008100020434D442035382C2054696D6572207674
:10082000616C7565203D20256C752C206F637220EE
:100830003D20253032782530327825303278253009
:1008400032780D0A00004046533A436172642043F7
:10085000414E4E4F5420776F726B20566464207265
:10086000616E6765206F6620322E372D332E36205D
:10087000766F6C74730D0A004046533A4E6F7420C5
:10088000616E2053445343206F72205344484320E9
:10089000636172642C2054657374696E6720666F9F
:1008A000722053442056657231206F72204D4D43A3
:1008B00020436172640D0A004046533A52657370DA
:1008C0006F6E73652066726F6D20474F5F49444CB1
:1008D00045203D20253032780D0A00004046533A2D
:1008E000526573706F6E73652066726F6D2053442E
:1008F0005F434D445F53454E445F4F505F434F4EFF
:1009000044203D20253032782C2054696D657220BA
:100910003D20256C750D0A004046533A41747465BC
:100920006D7074696E6720534476312076657273FA
:100930007573204D4D432049442C20526573706FD0
:100940006E73652066726F6D2053445F434D445F44
:100950004150504C5F434D44203D20253032780DAE
:100960000A004046533A496E76616C6964207265AC
:1009700073706F6E736520746F2053445F41434DF5
:100980004434312C20726573706F6E7365203D2086
:10099000253032582C207265696E697469616C6902
:1009A0007A696E67206173204D4D430D0A00404601
:1009B000533A4661696C656420746F20696E69748E
:1009C00069616C697A65206173204D4D432C2072FA
:1009D0006573706F6E7365203D20253032582C2072
:1009E00065786974696E670D0A004046533A436141
:1009F0007264206661696C656420746F207265732F
:100A0000706F6E6420636F727265636C79206166CB
:100A10007465722053445F434D445F53454E445FB9
:100A20004F505F434F4E442C20726573706F6E734E
:100A300065203D20253032582C2054696D65722088
:100A40003D20256C750D0A004046533A5365747479
:100A5000696E6720626C6F636B206C656E6774688B
:100A60000D0A00004046533A4572726F722073655A
:100A70007474696E6720626C6F636B206C656E675F
:100A800074682C20726573706F6E7365203D20252D
:100A90003032782C2074696D6572203D20256C758C
:100AA0000D0A00004046533A436172642054797045
:100AB0006520446973636F76657279204572726F41
:100AC000720D0A004046533A4D4D43204361726413
:100AD00020666F756E640D0A00004046533A534419
:100AE0007631204361726420666F756E640D0A0072
:100AF0004046533A53445343204361726420666F27
:100B0000756E640D0A004046533A534448432043EF
:100B100061726420666F756E640D0A004046533A38
:100B200043617264205479706520446973636F7601
:100B3000657279204572726F722C20436172642055
:100B40003D20253032580D0A00004046533A43619B
:100B50007264207265736574207375636365737363
:100B6000202D20436D6420746F20526561647920CC
:100B7000636F756E74203D20256C750D0A0040462C
:100B8000533A535049206275732073706565642031
:100B900073657420746F20686967680D0A004046A9
:100BA000533A4361726420616374697661746520AD
:100BB0006661696C7572652C20726573706F6E73F7
:100BC00065203D20253032582C2054696D657220F7
:100BD0003D20256C750D0A004046533A436172640E
:100BE00020616374697661746520737563636573EE
:100BF00073206F6E20617474656D707420256C7540
:100C00000D0A000046415420617420736563746FBF
:100C10007220300D0A005459504520636F6D6D618C
:100C20006E64204552524F520D0A00004046533A1E
:100C30002025730D0A004046533A2025730D0A0003
:100C40002A2A204046533A204552524F520D0A005C
:100C50002020204E6F4572726F720D0A0000202016
:100C6000204D65646961204E6F742052656164791E
:100C70000D0A000020202046696C65204E6F74200C
:100C8000466F756E640D0A00202020496E76616CF7
:100C9000696420506174680D0A00202020496E7636
:100CA000616C6964204E616D650D0A002020204151
:100CB00063636573732044656E6965640D0A0000A3
:100CC0002020204469736B2046756C6C0D0A00006F
:100CD000202020526561642F577269746520457227
:100CE000726F720D0A00202020496E636F72726568
:100CF0006374204D65646961204368616E67650DAA
:100D00000A0020202057726974652050726F746544
:100D1000637465640D0A00002020204E6F74204526
:100D20006E61626C65640D0A00002020204E6F2009
:100D300046696C652053797374656D0D0A006170A6
:100D400070656E643A204653204552524F52206FD0
:100D50006E2066696C655F6F70656E0D0A004046B7
:100D6000533A57726974696E670D0A5B25735D0D9E
:100D70000A004046533A4552524F525B61707065CB
:100D80006E645D0D0A004046533A436C6F73696EA2
:100D9000670D0A00405254433A253032752F000047
:100DA000405254433A253032752F000040414C4D9B
:100DB0003A253032752F000040414C4D3A253032F3
:100DC000752F000074657374363A2025640D0A008F
:100DD00040414C4D0D0A00000A01136BC69A210ECA
:100DE000C66E400EC76E9190C9500F0EC96EC730C7
:100DF000FEE3C9CF13FAC95013CAC9FFC730FEE3D7
:100E0000C9CF33F7C950C96AC730FEE391804D940A
:100E10000001120088AE02D0919E01D0918E4D80CB
:100E20004D924DA401D0FDD74D84D6DF352AD8B4DC
:100E3000362AF29258EF00F09EAAFED7ABCF1CF0F4
:100E4000AECF01F01CA202D0AB98AB881200090013
:100E5000F55211E0F6CF14FAF7CF15FAF8CF16FADB
:100E6000F5509EA8FED7AD6E14CAF6FF15CAF7FF5F
:100E700016CAF8FFECD71200AE504DB228D09EAA89
:100E800025D0DADF01C013FA0A0113513F0A00012D
:100E900005E02E0A15E00A0A16E018D04E2C08D0FC
:100EA000D80EF66E0E0EF76E000EF86ED0DF07D07D
:100EB000E00EF66E0E0EF76E000EF86EC8DF06D06E
:100EC000010E506E03D0326A010E316E02D0F29CD8
:100ED0009E9A9E9A58EF00F03F404253590D0A00E7
:100EE000405244590D0A00000B0ED76EDC0ED66E30
:100EF0000400F294F28ACF6ACE6A89882F500208E1
:100F000003E1305201E1908C9E909D80F29458EF65
:100F100000F09D9089982F50020803E1305201E1C2
:100F2000909C9E9058EF00F0405B4F5D0D0A0000D2
:100F300040434D4420746F6F206C6F6E670D0A0044
:100F4000405B435D0D0A000040534C4545500D0A7F
:100F50000000404D45522C254C752C254C750D0A32
:100F600000006D3A25752C257520633A254C752CAB
:100F7000254C752C254C750D0A000A011F51016A7C
:100F80001E5D03E21ECA00F00CD0006A080E206F3E
:100F90001E3700361F51005CD8B0006E0136202F7E
:100FA000F7D70001120001501CCA1EFA640E0A0194
:100FB0001F6F0001E2DF00C01CFA0150300E08E193
:100FC0000A011DA30ED01DB70CD01DB9200E04D0F0
:100FD0000A011D971D991D81012601509EA8FED76B
:100FE000AD6E1CCA1EFA0A0E1F6F0001C6DF00C0DC
:100FF0001CFA0150300E08E10A011DB70BD01DA1EB
:1010000009D01DB9200E0001012601509EA8FED76F
:10101000AD6E0A01300E1C271C519EA8FED7AD6E86
:10102000000112000900F6CF1DFAF7CF1EFAF8CF23
:101030001FFAF5509EA8FED7AD6E1DCAF6FF1ECA58
:10104000F7FF1FCAF8FF0A011C2F01D002D00001D0
:10105000E9D700011200D8B204D00A0EEA6E300EB1
:10106000E96E006A016A026A036A0A01306B316B39
:10107000326B336B2F512E112D112C112CE0200EC1
:10108000346FD890283729372A372B373037313704
:10109000323733372F51335D08E12E51325D05E190
:1010A0002D51315D02E12C51305D0FE32C51305F49
:1010B0002D51D8A02D3D315F2E51D8A02E3D325F4D
:1010C0002F51D8A02F3D335FD8800036013602362D
:1010D0000336342FD6D730CAEFFF31CAECFF32CAFD
:1010E000ECFF33CAECFF00011200E9500A01206F47
:1010F0003B0E276F9A0E266FCA0E256F246B0A0EC1
:10110000226FD8820A0EEA6E1C0EE96E1FCA2BFAF5
:101110001ECA2AFA1DCA29FA1CCA28FA27CA2FFA97
:1011200026CA2EFA25CA2DFA24CA2CFA000193DF0A
:101130000150005213E10A012251010AD8A402D041
:1011400000010CD020510CE00F0B225D01E00EE2FB
:1011500020BF0CD020BD04D0200E03D00A01206B8C
:10116000300E002600509EA8FED7AD6ED89227CA3A
:101170002BFA26CA2AFA25CA29FA24CA28FA2F6B7A
:101180002E6B2D6B0A0E2C6F000165DF03C027FA52
:1011900002C026FA01C025FA00C024FA0A01222F53
:1011A000B0D700011200EACF24FAE9CF23FA0A01EE
:1011B0001D39F0091F6F1F27E20F206F320F226FBA
:1011C0001D510F0B202720272227E90F216F2127F0
:1011D00021271C390F0B2127222721372237221FD5
:1011E00022371C510F0B22271F37070E1E6F0A0EC6
:1011F00021072227FDE320072127FDE31F072027E2
:10120000FDE31E071F27FDE30A0EEA6E1E0EE96EC0
:10121000070E2315239DE926000EEA22E950220835
:1012200004E1EA500A0801E1238DEF50006E08E165
:1012300023BD06D023B90CD023B702D0200E03D093
:1012400023872399300E002600509EA8FED7AD6E4E
:10125000EE5023ADE3D700011200D89007014035CE
:10126000036A4E0FE96E070E0320EA6EECCF14FA04
:10127000ED52EFCF13FA0A011353D8A4C3D014537D
:10128000D8A4C0D0D89007014035036A860FE96E14
:10129000070E0320EA6EECCF14FAED52EFCF13FAEB
:1012A0000A0113534CE114534AE1D8900701403529
:1012B000036ABF0FE96E070E0320EA6EECCF14FA43
:1012C000ED52EFCF13FAD8904035036A5E0FE96E06
:1012D000070E0320EA6EECCF03F0ED52EFCF01F0E2
:1012E00003500A01145D11E303E10150135D0DE3A6
:1012F000D89007014035036ABF0FE96E070E03203F
:10130000EA6EEC6AED52EF6A0A01D89007014035A7
:10131000036ABF0FE96E070E0320EA6E010EEE2688
:1013200001E3EF2AD8904035036A9A0FE96E070E61
:101330000320EA6EEC6AED52EF6A63D00A01D8909E
:1013400007014035036A860FE96E070E0320EA6E37
:10135000ECCF14FAED52EFCF13FA0A01132D52D04D
:10136000145350E1D89007014035036ABF0FE96E6E
:10137000070E0320EA6EECCF14FAED52EFCF13FA0A
:101380000A01135325E1145323E1D8900701403596
:10139000036ABF0F016E070E03220A0103C014FA8D
:1013A000D89007014035036A5E0FE96E070E0320EF
:1013B000EA6EECCF03F0ED52EFCF15FA0A0114CA32
:1013C000EAFF01C0E9FF03C0ECFFED5215CAEFFFD1
:1013D000D89007014035036ABF0FE96E070E03205E
:1013E000EA6EFF0EEF2602E2EE52ED06D89040358F
:1013F000036A9A0FE96E070E0320EA6EEC6AED525B
:10140000EF6A0A01D89007014035036A4E0FE96E72
:10141000070E0320EA6EECCF14FAED52EFCF13FA69
:101420000A01132DC3D01453D8A4C0D0D8900701FB
:101430004035036A860FE96E070E0320EA6EECCF93
:1014400014FAED52EFCF13FA0A01132D4CD01453B6
:101450004AE1D89007014035036ABF0FE96E070ED5
:101460000320EA6EECCF14FAED52EFCF13FAD890C6
:101470004035036A5E0FE96E070E0320EA6EECCF7B
:1014800003F0ED52EFCF01F003500A01145D11E3B8
:1014900003E10150135D0DE3D89007014035036A65
:1014A000BF0FE96E070E0320EA6EEC6AED52EF6A99
:1014B0000A01D89007014035036ABF0FE96E070E95
:1014C0000320EA6E010EEE2601E3EF2AD8904035A4
:1014D000036A9A0FE96E070E0320EA6EEC6AED527A
:1014E000EF6A63D00A01D89007014035036A860F7E
:1014F000E96E070E0320EA6EECCF14FAED52EFCF3F
:1015000013FA0A01135352E1145350E1D890070122
:101510004035036ABF0FE96E070E0320EA6EECCF79
:1015200014FAED52EFCF13FA0A01135325E11453C5
:1015300023E1D89007014035036ABF0F016E070E03
:1015400003220A0103C014FAD89007014035036A48
:101550005E0FE96E070E0320EA6EECCF03F0ED524A
:10156000EFCF15FA0A0114CAEAFF01C0E9FF03C070
:10157000ECFFED5215CAEFFFD89007014035036A22
:10158000BF0FE96E070E0320EA6EFF0EEF2602E2A0
:10159000EE52ED06D8904035036A9A0FE96E070EB9
:1015A0000320EA6EEC6AED52EF6A0A011F5004084C
:1015B000D8A499D02052D8A496D0D890070140350D
:1015C000036A6A0FE96E070E0320EA6EECCF14FA85
:1015D000ED52EFCF13FA0A0113510208D8A483D0B9
:1015E0001453D8A480D0010E070140250A01136FBF
:1015F00007014051040DF350036AA20FE96E070E74
:101600000320EA6EEFCF14FAECCF15FAECCF16FAFE
:10161000ECCF17FAD8904035036ABB0FE96E070E7E
:101620000320EA6EECCF19FAED52EFCF18FAD890FA
:101630004035036ABF0FE96E070E0320EA6EECCF58
:101640001BFAED52EFCF1AFA6D0E9EA8FED7AD6EC3
:101650003A0E9EA8FED7AD6E13CA1CFA1B0E0A01E5
:101660001D6F0001A0DC2C0E9EA8FED7AD6EAAC790
:101670001CFA1B0E0A011D6F000195DC690EF66E47
:101680000F0EF76E000EF86E030E0A011C6F0001BC
:10169000C9DC410EE96E17CA1FFA16CA1EFA15CA2E
:1016A0001DFA14CA1CFA21DD2C0E9EA8FED7AD6EC1
:1016B000100EE96E19CA1DFA18CA1CFA74DD2C0E38
:1016C0009EA8FED7AD6E100EE96E1BCA1DFA1ACA8F
:1016D0001CFA69DD0D0E9EA8FED7AD6E0A0E9EA8FF
:1016E000FED7AD6E0A0100011200D8900701403507
:1016F000036ABB0FE96E070E0320EA6E010EEE26A9
:1017000001E3EF2AAA51000A000105E0010A06E000
:10171000030A0DE021D0F090F0901ED0020E0701D8
:10172000AA6FF096F090F086F19A000115D0010EA4
:101730000701AA6FD8904035036ABB0FE96E070E08
:101740000320EA6EFF0EEF2602E2EE52ED06F0965F
:10175000F090F086F18A000180DDF09058EF00F003
:10176000D89007014035036ABB0FE96E070E0320CE
:10177000EA6E010EEE2601E3EF2AAA51000A0001EB
:1017800005E0010A06E0030A0DE021D0F092F09294
:101790001ED0020E0701AA6FF098F092F088F1981F
:1017A000000115D0010E0701AA6FD8904035036AD9
:1017B000BB0FE96E070E0320EA6EFF0EEF2602E272
:1017C000EE52ED06F098F092F088F188000145DDC8
:1017D000F09258EF00F007014051000A000103E0C9
:1017E000010A49E08FD0D89007014035036A6A0F9B
:1017F000E96E070E0320EA6EECCF14FAED52EFCF3C
:1018000013FA0A01132D0FD014530DE1036A0701D7
:101810004051CB0FE96E070E0320EA6E000E81B82F
:10182000010EEF6E0A01D89007014035036A6A0F76
:10183000E96E070E0320EA6EECCF14FAED52EFCFFB
:1018400013FA0A011351020814E1145312E1036A56
:1018500007014051CB0FE96E070E0320EA6E000E20
:1018600081B8010E0A01156F000E81B2010E151527
:10187000EF6E000147D0D89007014035036A6A0F28
:10188000E96E070E0320EA6EECCF14FAED52EFCFAB
:1018900013FA0A01132D0FD014530DE1036A070147
:1018A0004051CB0FE96E070E0320EA6E000E81BA9D
:1018B000010EEF6E0A01D89007014035036A6A0FE6
:1018C000E96E070E0320EA6EECCF14FAED52EFCF6B
:1018D00013FA0A011351020814E1145312E1036AC6
:1018E00007014051CB0FE96E070E0320EA6E000E90
:1018F00081BA010E0A01156F000E81B4010E151593
:10190000EF6E000129EF0DF0F90EB36EC00EB26E4E
:10191000D89007014035036A8E0FE96E070E032049
:10192000EA6E010EEE2601E3EF2AD8904035036AF5
:101930008E0FE96E070E0320EA6EECCF14FAED521B
:10194000EFCF13FAD8904035036A4A0FE96E070EBD
:101950000320EA6EECCF03F0ED52EFCF01F003501D
:101960000A01145DD8A076D004E10150135DD8A01F
:1019700071D007014051040DF350036AA20FE96EC4
:10198000070E0320EA6E010EEE26000EEE22EE2276
:10199000ED22D8904035036A9A0FE96E070E0320B6
:1019A000EA6E010EEE2601E3EF2AD8904035036A75
:1019B0008E0FE96E070E0320EA6EEC6AED52EF6AB5
:1019C000405302E1907830D08D78D8904035036A4A
:1019D000860FE96E070E0320EA6EECCF14FAED5283
:1019E000EFCF13FA0A01135312E1145310E1D89008
:1019F00007014035036AB30FE96E070E0320EA6E54
:101A0000FF0EEF2602E2EE52ED060ED00A01D8904C
:101A100007014035036AB30FE96E070E0320EA6E33
:101A2000010EEE2601E3EF2AD8904035036A660FD7
:101A3000E96E070E0320EA6EECCF14FAED52EFCFF9
:101A400013FA0A011351030805E1145303E10001DD
:101A5000C2D60A01A192A192000158EF00F0404CB9
:101A600050432C254C752C254C640D0A0000404D2C
:101A70004D452C25752C254C642C254C752C254C5E
:101A8000752C254C642C254C640D0A0056414C568F
:101A9000452053544F5020254C752C254C750D0A6C
:101AA0000000696E643A2575202F207068613A2520
:101AB000750D0A0040524543202D20686F6D696EF8
:101AC0006720737972696E676520616E6420616C4E
:101AD00069676E696E672076616C766520746F2029
:101AE000706F727420310D0A00002C736572696189
:101AF0006C2077616B652D75702C534420696E697D
:101B00007469616C697A65640D0A0000405253542F
:101B10000D0A0000405744540D0A00002C726573F2
:101B2000746172742063617573652C574420746905
:101B30006D652D6F75740D0A0000405744530D0AF2
:101B400000002C7265737461727420636175736533
:101B50002C57442066726F6D20736C6565700D0A9A
:101B60000000404E50550D0A00002C6964235B258F
:101B70004C755D2C706F776572206170706C696553
:101B8000642C534420696E697469616C697A656478
:101B90000D0A0000405253540D0A00002C72657368
:101BA000746172742063617573652C7265736574FA
:101BB00020696E737472756374696F6E0D0A00002C
:101BC00040424F520D0A00002C72657374617274AA
:101BD0002063617573652C62726F776E2D6F7574FB
:101BE0000D0A0000404D52530D0A00002C7265731F
:101BF000746172742063617573652C4D434C52207F
:101C000066726F6D20736C6565700D0A0000404D43
:101C100052520D0A00002C72657374617274206355
:101C2000617573652C4D434C52207768656E207248
:101C3000756E6E696E670D0A00004E4F33004E4F91
:101C40003200504F34004E48340053694F000000BA
:101C5000404445545B2F25755D5B25635D415247CC
:101C60005B254C755D0D0A002074696D652D6F75DF
:101C70007400206461746120746F6F2073686F72E8
:101C80007400206461746120746F6F206C6F6E67E4
:101C900000002C6465746563746F725B25735D2C42
:101CA0006C656E5B25755D00405254592C25750D91
:101CB0000A002C73746172742068656174696E67C0
:101CC0002C7461726765745B254C755D2C6163745F
:101CD00075616C5B254C755D2C72656164696E671E
:101CE000735B254C755D0D0A00002C656E642068E1
:101CF000656174696E672C7461726765745B254CED
:101D0000755D2C61637475616C5B254C755D2C721F
:101D1000656164696E67735B254C755D0D0A000033
:101D20004E4F33004E4F3200504F34004E48340077
:101D300053694F000000404441432C254C752C252D
:101D40004C752C00405341522C312C254C752C00E5
:101D50004056414C20004056414C20004056414CDA
:101D600020004056414C200040534F4C5B2F315DCA
:101D70005B735D5B254C755D0D0A00002F3173258B
:101D80004C750D0040534F4C5B2F315D5B635D5BC9
:101D900025755D0D0A002F316325750D00002F316B
:101DA000733235360D0028493073292C254C752C9B
:101DB00028493173292C254C752C284162732D73C9
:101DC000292C25312E34672C28493074292C254C98
:101DD000752C28493174292C254C752C28416273A7
:101DE0002D74292C25312E34672C28493072292C4A
:101DF000254C752C28493172292C254C752C2841ED
:101E000062732D72292C25312E3467004041627394
:101E10002C4E4F332C25730D0A0028493073292C82
:101E2000254C752C28493173292C254C752C2841BB
:101E300062732D73292C25312E34672C2849307478
:101E4000292C254C752C28493174292C254C752CAE
:101E5000284162732D74292C25312E34672C284992
:101E60003072292C254C752C28493172292C254C8F
:101E7000752C284162732D72292C25312E34670070
:101E8000404162732C4E4F322C25730D0A002849B5
:101E90003073292C254C752C28493173292C254C5D
:101EA000752C284162732D73292C25312E34672C13
:101EB00028493074292C254C752C28493174292C3B
:101EC000254C752C284162732D74292C25312E3414
:101ED000672C28493072292C254C752C28493172E1
:101EE000292C254C752C284162732D72292C253103
:101EF0002E346700404162732C504F342C25730DF3
:101F00000A0028493073292C254C752C2849317337
:101F1000292C254C752C284162732D73292C2531D1
:101F20002E34672C28493074292C254C752C2849CF
:101F30003174292C254C752C284162732D74292C61
:101F400025312E34672C28493072292C254C752CCC
:101F500028493172292C254C752C284162732D7229
:101F6000292C25312E346700404162732C4E4834B1
:101F70002C25730D0A0028493073292C254C752C0B
:101F800028493173292C254C752C284162732D73F7
:101F9000292C25312E34672C28493074292C254CC6
:101FA000752C28493174292C254C752C28416273D5
:101FB0002D74292C25312E34672C28493072292C78
:101FC000254C752C28493172292C254C752C28411B
:101FD00062732D72292C25312E3467004041425303
:101FE0002C53694F2C25730D0A004E4F33004E4F72
:101FF0003200504F34004E48340053694F00000007
:10200000286D292C25332E33672C2863292C253362
:102010002E336700284373292C25332E33670D0A8E
:10202000000040434F4E2C4E4F332C25730D0A00B9
:10203000286D292C25332E33672C2863292C253332
:102040002E336700284373292C25332E33670D0A5E
:10205000000040434F4E2C504F342C25730D0A0086
:10206000286D292C25332E33672C2863292C253302
:102070002E336700284373292C25332E33670D0A2E
:10208000000040434F4E2C4E48342C25730D0A005F
:10209000286D292C25332E33672C2863292C2533D2
:1020A0002E336700284373292C25332E33670D0AFE
:1020B000000040434F4E2C53694F2C25730D0A00EE
:1020C0004E4F3300504F34004E48340053694F0098
:1020D00000004D454D4F5259204F564552464C4FEA
:1020E00057204552524F522040204C696E65203A8D
:1020F000254C750A0D000D0A3A000D0A5741524E43
:10210000494E473A20494E56414C494420434F4D91
:102110004D414E4420494E204D4143524F210D0A1E
:10212000000042616420636F6D6D616E64206174B4
:10213000206C696E653A20254C64200D0A00506CB5
:10214000656173652072652D75706C6F6164206DBB
:102150006163726F0000497465726174696F6E73B8
:10216000206C6566743A20254C750D0A00002C6DB4
:102170006163726F5B25755D2C73746172740D0AF7
:102180000000404D434C5B25635D5B254C755D0D48
:102190000A00404C4E450D0A00004052554E0D0AB3
:1021A0000000404241440D0A000040542F4F0D0AE8
:1021B0000000404552520D0A000040454E440D0AB1
:1021C000000040484C540D0A00002C6D6163726F92
:1021D0005B25755D2C7374617475735B25635D2C71
:1021E0006C696E655B254C755D0D0A004052756E1D
:1021F0006E696E67202563254C75200D0A00404DE1
:102200006163726F202530344C75206F6620253055
:10221000344C750D0A00404C4E450D0A00004052EA
:10222000554E0D0A0000404241440D0A0000405442
:102230002F4F0D0A0000404552520D0A0000404544
:102240004E440D0A00002C6175746F2D73616D7022
:102250006C652C73616D706C655B254C755D2C73C2
:10226000746172740D0A00002C6175746F2D7361B6
:102270006D706C652C73616D706C655B254C755D64
:102280002C636F6D706C6574650D0A002C6175743C
:102290006F2D73616D706C652C73616D706C655B17
:1022A000254C755D2C6572726F720D0A00002C61F1
:1022B00075746F2D73616D706C652C73616D706CCE
:1022C000655B254C755D2C6D61782073616D706C5C
:1022D00065730D0A00002C6175746F2D73616D704C
:1022E0006C652C73616D706C655B254C755D2C7332
:1022F000746172740D0A00002C6175746F2D736126
:102300006D706C652C73616D706C655B254C755DD3
:102310002C636F6D706C6574650D0A002C617574AB
:102320006F2D73616D706C652C73616D706C655B86
:10233000254C755D2C73746172740D0A00002C615C
:1023400075746F2D73616D706C652C73616D706C3D
:10235000655B254C755D2C636F6D706C6574650DE8
:102360000A002C6175746F2D73616D706C652C7330
:10237000616D706C655B254C755D2C6D61782073AB
:10238000616D706C65730D0A00002C6175746F2DA2
:1023900073616D706C652C696E697469616C697AC2
:1023A000650D0A002C6865616465722C6964235BA5
:1023B000254C755D2C696E745B254C755D2C6D61CB
:1023C000785B254C755D0D0A00002C6175746F2DCE
:1023D00073616D706C652C73616D706C655B254C01
:1023E000755D2C616C61726D5B25755D0D0A000079
:1023F0002C6175746F2D73616D706C652C736C65D9
:1024000065700D0A000074313A254C752074323A1B
:10241000254C750D0A00404445542C254C750D0A79
:1024200000004E4F332C25312E35672C25312E35AB
:10243000670D0A00504F342C25312E35672C25317D
:102440002E35670D0A004E48342C25312E35672C69
:1024500025312E35670D0A0053694F342C25312E56
:1024600035672C25312E35670D0A00004E4F332875
:102470006D293A004E4F332863293A00504F3428D3
:102480006D293A00504F342863293A004E483428C9
:102490006D293A004E48342863293A0053694F3475
:1024A000286D293A000053694F342863293A000007
:1024B00041726520796F75207375726520796F752B
:1024C0002077616E7420746F20657261736520746B
:1024D00068652072617720646174612066696C654B
:1024E0003F2059206F72204E210D0A0046696C650D
:1024F0002064656C65746564210A0D004F70657217
:102500006174696F6E2063616E63656C6564210D33
:102510000A0041726520796F7520737572652079A4
:102520006F752077616E7420746F206572617365BA
:10253000207468652063616C63756C6174656420E8
:10254000646174612066696C653F2059206F722058
:102550004E210D0A000046696C652064656C657447
:102560006564210A0D004F7065726174696F6E2099
:1025700063616E63656C6564210D0A004049442304
:10258000254C752049254C75204E254C752F254C22
:10259000752058254C75205525752025342E327709
:1025A000560D0A00404D4F543A56414C3D254C754E
:1025B000205359523D254C640D0A0000405057529B
:1025C0003A253032752F253032752F25303275205F
:1025D000253032753A253032753A253032750D0A7C
:1025E0000000405057523A253032752F2530327551
:1025F0002F2530327520253032753A253032753A24
:10260000253032750D0A000041254C752049254CB6
:1026100075204C254C752051254C752053254C7543
:102620002025342E3277560D0A00404D4F543A562D
:10263000414C3D254C75205359523D254C640D0AA3
:102640000000405057523A253032752F25303275F0
:102650002F2530327520253032753A253032753AC3
:10266000253032750D0A000049254C75204E254C49
:10267000752F254C752050254C752025342E32772A
:10268000560D0A00404D4F543A5359523D254C6463
:102690000D0A0000405057523A253032752F253030
:1026A00032752F2530327520253032753A2530327B
:1026B000753A253032750D0A000040534D502025E3
:1026C00030344C750D0A000040534D5020253034F5
:1026D0004C750D0A0000456E746572206461746566
:1026E00020666F726D617420303D4D4D2F44442F34
:1026F00059592020313D44442F4D4D2F59590D0A31
:102700000000404F4B210D0A2000404552520D0A57
:1027100000004052554E0D0A00005B6D6F746F72E1
:102720003A315D0D0A005B6D6F746F723A325D0D68
:102730000A002C45434F206D6F6465207365740D4E
:102740000A002C574D532D342D5344206D6F646572
:10275000207365740D0A00002C415753206D6F647F
:1027600065207365740D0A002C574D532D342D517F
:1027700045206D6F6465207365740D0A0000303666
:102780002D4A756C2D31370031333A33393A3334B1
:10279000000053454E44204845582046494C4520AA
:1027A0002831393230302C4E38312C584F4E2D587C
:1027B0004F4646290D0A0000404F4B212000404162
:1027C0005247200040494E56000040434D4400000F
:1027D0002C636F6D6D616E642070726F6D70740D1F
:1027E0000A004053443D254C750D0A00404D4331CD
:1027F0002C254C752C254C640D0A0000404D4332AD
:102800002C254C752C254C640D0A00005072657304
:102810007320616E6420686F6C6420746865204565
:102820007363206B657920746F2072657475726EA6
:1028300020746F20436F6D6D616E64204D6F646511
:102840000D0A000052657475726E696E6720746FB0
:10285000204C6F6767696E67204D6F64650D0A00D5
:102860008B940C0EBB6EBE6ABF6A010E9C6EF80E96
:102870000F012D17000E2D138B920C0E4E6F516B06
:10288000526B010E1B6FC70E2D17000E2D1305097D
:10289000CA6E7F0ECB6E00014CEFDAF00B0ED76ED6
:1028A000DC0ED66EF294F28AD1801200090EEA6E26
:1028B000CD0EE96EEF500EE0140E016E006A002E90
:1028C000FED7012EFBD7BF0E006E002EFED700D024
:1028D000EF2EF2D712002F0E926E370E936E900EDF
:1028E000946E200E956E400E966E000E976EE40E5E
:1028F000986E400E996E000E9A6E8E968E988E9AF5
:1029000091969184918091829188918C918A8F90F7
:102910008F988F96140E0901CD6F0001C7DF8E923C
:10292000909E0401B66B8C848C868C908C92B56BD7
:102930000001120090909092909490969098909AA6
:10294000BC6A8D908D928D948D968D988D9A0F0185
:102950004F6B8E9C8E9E8E9400011200010E4E6E67
:10296000AE509D8A120008017B6B7A6B796B7951AE
:10297000010820E3080E7D6F7A0E7C6F79517C256B
:10298000016E000E7D21036E0150E96E03C0EAFF67
:10299000785179257E6FF2CF7FF8F29E636A7EC808
:1029A00062FF7F9C7F9E7F8061507FBFF28EEF6EC3
:1029B000792BDDD77AC801F07BC802F00001120044
:1029C0000801996BF2CF9AF8F29E636A98C862FF89
:1029D0007F9C7F9E7F8061509ABFF28E996F99C8CD
:1029E00001F00001120008016C6B6B6B6A6B696B84
:1029F000686B6851030824E3080E6E6F690E6D6FF3
:102A000068516D25016E000E6E21036E0150E96E56
:102A100003C0EAFF685166256F6F000E6721706F73
:102A2000F2CF71F8F29E70C863FF6FC862FF7F9C9F
:102A30007F9E7F80615071BFF28EEF6E682BD9D779
:102A400069C800F06AC801F06BC802F06CC803F0F6
:102A5000000112001E0E0801786F000184DF02C021
:102A600030F001C02FF01C0E0801786F00017BDFF1
:102A700002C020F001C01FF0160E0801786F00019F
:102A800072DF02C022F001C021F0140E0801786F3D
:102A9000000169DF02C024F001C023F00801786B57
:102AA000000161DF02C026F001C025F0180E080108
:102AB000786F000158DF02C028F001C027F0020E35
:102AC0000801986F00017CDF326A01C031F0280EE6
:102AD0000801986F000174DF346A01C033F0120EF0
:102AE0000801786F00013FDF02C036F001C035F009
:102AF0003A0E0801786F000136DF02C038F001C0DD
:102B000037F03C0E0801786F00012DDF02C03EF067
:102B100001C03DF03E0E0801786F000124DF02C0C5
:102B200040F001C03FF0400E0801786F00011BDF4C
:102B300002C042F001C041F0420E0801786F00016E
:102B400012DF02C044F001C043F0040E0801986F88
:102B5000000136DF01C02DF70801676B440E666F78
:102B6000000141DF03C0F8F302C0F7F301C0F6F340
:102B700000C0F5F30801676B480E666F000133DF94
:102B800003C0FCF302C0FBF301C0FAF300C0F9F389
:102B90000801676B4C0E666F000125DF03C000F46F
:102BA00002C0FFF301C0FEF300C0FDF30801676B34
:102BB000520E666F000117DF03C004F402C003F475
:102BC00001C002F400C001F40801676B560E666F85
:102BD000000109DF03C008F402C007F401C006F4D5
:102BE00000C005F40801676B5A0E666F0001FBDE3A
:102BF00003C00CF402C00BF401C00AF400C009F4D5
:102C00000801676B5E0E666F0001EDDE03C010F415
:102C100002C00FF401C00EF400C00DF40801676B90
:102C2000620E666F0001DFDE03C014F402C013F40D
:102C300001C012F400C011F4200E0801786F0001E9
:102C400092DE02C02AF001C029F0220E0801786F3E
:102C5000000189DE02C02CF001C02BF0240E080117
:102C6000786F000180DE02C02EF001C02DF012004E
:102C7000016A026A006A036A0801BF5102E1BE519B
:102C800018E0100EC06FD890BC37BD370036033641
:102C9000BF51035C02E1BE51005C07E3BE51005E20
:102CA000D8A00306BF51035ED88001360236C02F7C
:102CB000EAD700011200860E0801786F000153DE8A
:102CC00002C043F701C042F78A0E0801786F000185
:102CD0004ADE02C047F701C046F78E0E0801786F42
:102CE000000141DE02C04BF701C04AF7920E080115
:102CF000786F000138DE02C04FF701C04EF7960E24
:102D00000801786F00012FDE02C053F701C052F7AF
:102D10009A0E0801786F000126DE02C057F701C045
:102D200056F79E0E0801786F00011DDE02C05BF7AA
:102D300001C05AF7A20E0801786F000114DE02C02C
:102D40005FF701C05EF7A60E0801786F00010BDE89
:102D500002C063F701C062F7820E0801786F0001BC
:102D600002DE02C067F701C066F77E0E0801786FC9
:102D70000001F9DD02C0C0F701C0BFF7AA0E0801CB
:102D8000786F0001F0DD02C0C4F701C0C3F77A0E0E
:102D90000801786F0001E7DD02C06BF701C06AF738
:102DA000760E0801786F0001DEDD02C06FF701C00A
:102DB0006EF7720E0801786F0001D5DD02C073F75F
:102DC00001C072F76E0E0801786F0001CCDD02C001
:102DD00097F701C096F7AE0E0801786F0001C3DDCA
:102DE00002C077F701C076F7B20E0801786F0001D4
:102DF000BADD02C0B0F701C0AFF7B60E0801786FB8
:102E00000001B1DD02C0B4F701C0B3F7BA0E08018A
:102E1000786F0001A8DD02C07BF701C07AF7BE0E13
:102E20000801786F00019FDD02C07FF701C07EF7C7
:102E3000C20E0801786F000196DD02C083F701C061
:102E400082F7880E0801786F00018DDD02C045F71A
:102E500001C044F78C0E0801786F000184DD02C0C8
:102E600049F701C048F7900E0801786F00017BDD3B
:102E700002C04DF701C04CF7940E0801786F0001B5
:102E800072DD02C051F701C050F7980E0801786F4B
:102E9000000169DD02C055F701C054F79C0E08011E
:102EA000786F000160DD02C059F701C058F7A00E2D
:102EB0000801786F000157DD02C05DF701C05CF7C3
:102EC000A40E0801786F00014EDD02C061F701C059
:102ED00060F7A80E0801786F000145DD02C065F7B4
:102EE00001C064F7840E0801786F00013CDD02C068
:102EF00069F701C068F7800E0801786F000133DDC3
:102F000002C0C2F701C0C1F7AC0E0801786F000122
:102F10002ADD02C0C6F701C0C5F77C0E0801786F34
:102F2000000121DD02C06DF701C06CF7780E0801C9
:102F3000786F000118DD02C071F701C070F7740EE0
:102F40000801786F00010FDD02C075F701C074F74A
:102F5000700E0801786F000106DD02C099F701C00C
:102F600098F7B00E0801786F0001FDDC02C079F718
:102F700001C078F7B40E0801786F0001F4DC02C0DC
:102F8000B2F701C0B1F7B80E0801786F0001EBDCB1
:102F900002C0B6F701C0B5F7BC0E0801786F00019A
:102FA000E2DC02C07DF701C07CF7C00E0801786F3B
:102FB0000001D9DC02C081F701C080F7C40E08010E
:102FC000786F0001D0DC02C085F701C084F70701EB
:102FD000406B010E416FA56BA46BA36BA26BA96B39
:102FE000A86BA76BA66BBC6BBB6BBE6BBD6B9B6B07
:102FF0009A6B9D6B9C6B9F6B9E6BA16BA06BB86B70
:10300000B76BBA6BB96B77C7BDF876C7BCF863C747
:10301000BFF862C7BEF800012BDED890080101346A
:103020000701AB6F080102340701AC6F79C7BDF827
:1030300078C7BCF865C7BFF864C7BEF8000118DEE2
:10304000D890080101340701AD6F0801023407016F
:10305000AE6F000112000801976B975120080AE338
:10306000036A9751B70FE96E040E0320EA6EEF6A08
:10307000972BF3D7000112002F50020804E13052C1
:1030800002E1000E996EE7DF0401B66B00016DEFFF
:10309000DAF0F29AD1901200010E0801646F6451C7
:1030A00003081DE389882F50020803E1305201E133
:1030B000908C200E0901CD6F000156EC14F0899818
:1030C0002F50020803E1305201E1909C200E0901CB
:1030D000CD6F000156EC14F00801642BE0D700011D
:1030E00071EFDAF02F50006E3050036E02E10052A3
:1030F00011E0035003E1010E005C35E0035003E1F1
:10310000020E005C59E0035004E1030E005CD8B4E9
:103110007CD0A4D0BE0EF66E050EF76E000EF86ED3
:103120001B6AF2BE1B8EF29E060E0A011C6F000186
:1031300012EC08F01BBEF28ECA0EF66E050EF76E8C
:10314000000EF86E1B6AF2BE1B8EF29E27EC07F093
:103150001BBEF28E0D0E9EA8FED7AD6E0A0E9EA867
:10316000FED7AD6EA3D0D20EF66E050EF76E000E32
:10317000F86E1B6AF2BE1B8EF29E090E0A011C6FCE
:10318000000112EC08F01BBEF28EE00EF66E050E8A
:10319000F76E000EF86E1B6AF2BE1B8EF29E27ECD5
:1031A00007F01BBEF28E0D0E9EA8FED7AD6E0A0E66
:1031B0009EA8FED7AD6E7AD0E80EF66E050EF76EBD
:1031C000000EF86E1B6AF2BE1B8EF29E060E0A01FE
:1031D0001C6F000112EC08F01BBEF28EF40EF66EAE
:1031E000050EF76E000EF86E1B6AF2BE1B8EF29E85
:1031F00027EC07F01BBEF28E0D0E9EA8FED7AD6E1B
:103200000A0E9EA8FED7AD6E51D0FC0EF66E050ECE
:10321000F76E000EF86E1B6AF2BE1B8EF29E090E50
:103220000A011C6F000112EC08F01BBEF28E0A0EA0
:10323000F66E060EF76E000EF86E1B6AF2BE1B8E5F
:10324000F29E27EC07F01BBEF28E0D0E9EA8FED755
:10325000AD6E0A0E9EA8FED7AD6E28D0120EF66E89
:10326000060EF76E000EF86E1B6AF2BE1B8EF29E03
:10327000060E0A011C6F000112EC08F01BBEF28E54
:103280001E0EF66E060EF76E000EF86E1B6AF2BE8C
:103290001B8EF29E27EC07F01BBEF28E0D0E9EA831
:1032A000FED7AD6E0A0E9EA8FED7AD6E1200CFC837
:1032B000D0F80801D039006E0F0E001600500A0D2C
:1032C000F3CFCFF8D039006EF00E00160050003A60
:1032D0000F0E00160050CF27CFC801F000011200DA
:1032E0000801CE6BC69A210EC66E400EC76E919035
:1032F000C950C96AC730FEE3C9CFCEF8C950CEC89D
:10330000C9FFC730FEE3C9CF2CF7C950CEC8C9FFEB
:10331000C730FEE3C9CF25F7C950CEC8C9FFC730B3
:10332000FEE3C9CF26F7C950CEC8C9FFC730FEE3B8
:10333000C9CF27F7C950CEC8C9FFC730FEE3C9CFF0
:1033400028F7C950CEC8C9FFC730FEE3C9CF29F757
:10335000C950CEC8C9FFC730FEE3C9CF2AF7C9504C
:10336000CEC8C9FFC730FEE3C9CF2BF7918025C770
:10337000CFF800019CDF01C025F726C7CFF897DF03
:1033800001C026F727C7CFF892DF01C027F729C76A
:10339000CFF88DDF01C029F72AC7CFF888DF01C039
:1033A0002AF72BC7CFF883DF01C02BF71200F250AA
:1033B000006EF29E636A6AC862FF6BC861FF7F9C01
:1033C0007F9E7F840F01550E7E6EAA0E7E6E7F82D9
:1033D0007FB2FED77F940050F2120001120025C781
:1033E0003FF726C73EF727C73DF729C73BF72AC750
:1033F0003AF72BC73CF7060E08016A6F3AC76BF81D
:103400000001D5DF080E08016A6F3BC76BF80001A9
:10341000CEDF0A0E08016A6F3CC76BF80001C7DFF8
:103420000C0E08016A6F3DC76BF80001C0DF0E0E7D
:1034300008016A6F3EC76BF80001B9DF100E080182
:103440006A6F3FC76BF80001B2DF77EFDAF008016F
:10345000AC6BC69A210EC66E400EC76E9190C950D5
:103460000C0EC96EC730FEE3C9CFACF8C950ACC86A
:10347000C9FFC730FEE3C9CF30F791800701309D07
:103480009190C9508C0EC96EC730FEE3C9CFACF81D
:10349000C95030C7C9FFC730FEE3C9CFACF891802F
:1034A000000112000401E66B010EE56F0A0EE46FE5
:1034B000010EE36FE26FE16BE06BDF6BDE6B00012F
:1034C0001200016603D0026602D007D0022A00C0B3
:1034D000EEFF012EFCD7022EFAD712000A0E0A01C7
:1034E000126F090E12CA10FA0F6FC950C968C7309F
:1034F000FEE3C95008CAC9FFC730FEE3030E0F251B
:10350000E96E000E1021EA6EEFCF11FAC95011CA10
:10351000C9FFC730FEE3020E0F25E96E000E102131
:10352000EA6EEFCF11FAC95011CAC9FFC730FEE3E6
:10353000010E0F25E96E000E1021EA6EEFCF11FA91
:10354000C95011CAC9FFC730FEE30FCAE9FF10CA4C
:10355000EAFFEFCF11FAC95011CAC9FFC730FEE325
:103560000851480806E1C950870EC96EC730FEE30E
:1035700005D0C950950EC96EC730FEE30D6BC9501A
:10358000C968C730FEE3C9CF0EFA0E3D0BD00D510E
:10359000630808E30D2BC950C968C730FEE3C9CFE3
:1035A0000EFAF3D70ECA01F0000112000901CEBFD6
:1035B00010D00F0E006ECD3900160A0E005C03E22B
:1035C000300E002602D0CE51002600509EA8FED715
:1035D000AD6E0F0ECD170A0ECD5D02E2300E02D099
:1035E000CE9FCE51CD27CD519EA8FED7AD6E000106
:1035F00012004E0EF66E060EF76E000EF86E1B6A87
:10360000F2BE1B8EF29E27EC07F01BBEF28EB2EFCD
:1036100021F00901CC6B0401E76B91820A0E0901CC
:10362000CD6F000156EC14F0C69A220EC66E400E05
:10363000C76E9E960901C46BC451090806E3C950C0
:10364000C968C730FEE3C42BF7D791921F50040816
:1036500012E1205210E1760EF66E060EF76E000EA5
:10366000F86E1B6AF2BE1B8EF29E000127EC07F07B
:103670001BBEF28E0901400E0A01086F0C6B0B6B2A
:103680000A6B096B00012ADF01C0C5F90901C551A8
:1036900001082AE21F50040824E1205222E1860E8C
:1036A000F66E060EF76E000EF86E1B6AF2BE1B8EEB
:1036B000F29E310E0A011C6F000112EC08F01BBED5
:1036C000F28EC5C9CDF9570E0901CE6F00016EDF2C
:1036D0000D0E9EA8FED7AD6E0A0E9EA8FED7AD6E4B
:1036E0000901CC81B3EF21F01F50040824E12052DE
:1036F00022E1BE0EF66E060EF76E000EF86E1B6A25
:10370000F2BE1B8EF29E1A0E0A011C6F000112EC13
:1037100008F01BBEF28EC5C9CDF9570E0901CE6F58
:10372000000144DF0D0E9EA8FED7AD6E0A0E9EA8C6
:10373000FED7AD6E0901480E0A01086F0C6B0B6BCA
:10374000010E0A6FAA0E096F0001C8DE01C0C5F99B
:103750001F50040823E1205221E1E00EF66E060E10
:10376000F76E000EF86E1B6AF2BE1B8EF29E250EDF
:103770000A011C6F000112EC08F01BBEF28EC5C9D5
:10378000CDF9570E0901CE6F000110DF0D0E9EA876
:10379000FED7AD6E0A0E9EA8FED7AD6E0901C52DEF
:1037A000E8D11F50040812E1205210E10A0EF66E13
:1037B000070EF76E000EF86E1B6AF2BE1B8EF29EAD
:1037C000000127EC07F01BBEF28E0901C46BC45147
:1037D00003080FE3036AC451C60FE96E090E032004
:1037E000EA6EC950C968C730FEE3C9CFEFFFC42BEA
:1037F000EED71F50040839E1205237E12C0EF66E47
:10380000070EF76E000EF86E1B6AF2BE1B8EF29E5C
:103810001F0E0A011C6F000112EC08F01BBEF28E95
:10382000C6C9CDF9570E0901CE6F0001BFDEC7C969
:10383000CDF9570E0901CE6F0001B8DEC8C9CDF928
:10384000570E0901CE6F0001B1DEC9C9CDF9570E7F
:103850000901CE6F0001AADE0D0E9EA8FED7AD6E47
:103860000A0E9EA8FED7AD6E0901C82D6DD1C951B3
:10387000AA08D8A469D11F50040812E1205210E10F
:103880005E0EF66E070EF76E000EF86E1B6AF2BE45
:103890001B8EF29E000127EC07F01BBEF28E090181
:1038A0001F50040812E1205210E1840EF66E070E3C
:1038B000F76E000EF86E1B6AF2BE1B8EF29E0001C0
:1038C00027EC07F01BBEF28E0901CB6BCA6B770E9B
:1038D0000A01086F0C6B0B6B0A6B096B0001FEDDB4
:1038E00001C0C5F9690E0A01086F400E0C6F0B6B21
:1038F0000A6B096B0001F2DD01C0C5F90901C5536E
:1039000028E0CB51C30825E303E1CA514F0821E366
:103910006A0E006E002EFED70000CA2BD8B4CB2B47
:10392000770E0A01086F0C6B0B6B0A6B096B0001B9
:10393000D5DD01C0C5F9690E0A01086F400E0C6F94
:103940000B6B0A6B096B0001C9DD01C0C5F9D6D745
:1039500009011F50040844E1205242E1B20EF66E04
:10396000070EF76E000EF86E1B6AF2BE1B8EF29EFB
:10397000230E0A011C6F000112EC08F01BBEF28E30
:10398000C5C9CDF9570E0901CE6F00010FDED90E62
:10399000F66E070EF76E000EF86E1B6AF2BE1B8EF7
:1039A000F29E0A0E0A011C6F000112EC08F01BBE09
:1039B000F28E100EE96E1B6AF2BE1B8EF29ECBC910
:1039C0001DFACAC91CFAD3EC08F01BBEF28E0D0E0C
:1039D0009EA8FED7AD6E0A0E9EA8FED7AD6E090159
:1039E000C553D8A4B0D07A0E0A01086F400E0C6FF0
:1039F0000B6B0A6B096B000171DD01C0C5F91F502B
:103A0000040823E1205221E1EA0EF66E070EF76E5C
:103A1000000EF86E1B6AF2BE1B8EF29E180E0A0193
:103A20001C6F000112EC08F01BBEF28EC5C9CDF967
:103A3000570E0901CE6F0001B9DD0D0E9EA8FED70D
:103A4000AD6E0A0E9EA8FED7AD6E0901C553D8A46F
:103A50007AD0C46BC45103080FE3036AC451C60F84
:103A6000E96E090E0320EA6EC950C968C730FEE34B
:103A7000C9CFEFFFC42BEED7C6AD05D0050E0401AC
:103A8000E76F04D00901040E0401E76F1F5004081A
:103A900059E1205257E1080EF66E080EF76E000E3F
:103AA000F86E1B6AF2BE1B8EF29E1F0E0A011C6F7F
:103AB000000112EC08F01BBEF28E100EE96E1B6ABC
:103AC000F2BE1B8EF29ECBC91DFACAC91CFAD3ECFA
:103AD00008F01BBEF28E2A0EF66E080EF76E000E70
:103AE000F86E1B6AF2BE1B8EF29E080E0A011C6F56
:103AF000000112EC08F01BBEF28EC6C9CDF9570EBC
:103B00000901CE6F000152DDC7C9CDF9570E090179
:103B1000CE6F00014BDDC8C9CDF9570E0901CE6F3C
:103B2000000144DDC9C9CDF9570E0901CE6F00016E
:103B30003DDD0D0E9EA8FED7AD6E0A0E9EA8FED7E7
:103B4000AD6E0401090115D01F50040812E1205286
:103B500010E1460EF66E080EF76E000EF86E1B6A48
:103B6000F2BE1B8EF29E000127EC07F01BBEF28E08
:103B700009010401E753D8A467D21F50040812E1D9
:103B8000205210E1780EF66E080EF76E000EF86EF9
:103B90001B6AF2BE1B8EF29E000127EC07F01BBED3
:103BA000F28E0401400E0A01086F0C6B0B6B0A6B5E
:103BB000096B000193DC01C0C5F91F50040823E123
:103BC000205221E1B80EF66E080EF76E000EF86E68
:103BD0001B6AF2BE1B8EF29E1C0E0A011C6F0001B6
:103BE00012EC08F01BBEF28EC5C9CDF9570E0901C3
:103BF000CE6F0001DBDC0D0E9EA8FED7AD6E0A0E67
:103C00009EA8FED7AD6E0901C52D01D005D0C553C4
:103C100003E0CC81B3EF21F0CB6BCA6B410E0A01FC
:103C2000086F0C6B0B6B0A6B096B000157DC01C052
:103C3000C5F90901C55304E0350E006E002EFED70C
:103C4000CA2BD8B4CB2BC55307E0CB51C30804E330
:103C5000E5E1CA514F08E2E21F50040844E1205256
:103C600042E1DC0EF66E080EF76E000EF86E1B6A6F
:103C7000F2BE1B8EF29E280E0A011C6F000112EC90
:103C800008F01BBEF28EC5C9CDF9570E0901CE6FE3
:103C900000018CDC080EF66E090EF76E000EF86E51
:103CA0001B6AF2BE1B8EF29E0A0E0A011C6F0001F7
:103CB00012EC08F01BBEF28E100EE96E1B6AF2BE0B
:103CC0001B8EF29ECBC91DFACAC91CFAD3EC08F0B0
:103CD0001BBEF28E0D0E9EA8FED7AD6E0A0E9EA8DC
:103CE000FED7AD6E0901C55302E0CC813CD3770EFF
:103CF0000A01086F0C6B0B6B0A6B096B00016EEC11
:103D00001AF001C0C5F91F50040823E1205221E137
:103D1000180EF66E090EF76E000EF86E1B6AF2BEF4
:103D20001B8EF29E430E0A011C6F000112EC08F07C
:103D30001BBEF28EC5C9CDF9570E0901CE6F000129
:103D400035DC0D0E9EA8FED7AD6E0A0E9EA8FED7DE
:103D5000AD6E0901C55305E0020E0401E76FFED008
:103D60000901690E0A01086F0C6B0B6B0A6B096B7A
:103D700000016EEC1AF001C0C5F90901C551010836
:103D800005E3030E0401E76FE9D009011F500408A1
:103D90002FE120522DE1620EF66E090EF76E000E35
:103DA000F86E1B6AF2BE1B8EF29E2E0E0A011C6F6D
:103DB000000112EC08F01BBEF28EC5C9CDF9370E1A
:103DC0000901CE6F0001D6EC1AF0940EF66E090EC2
:103DD000F76E000EF86E1B6AF2BE1B8EF29E190E75
:103DE0000A011C6F000112EC08F01BBEF28E0901E3
:103DF000400E0A01086F0C6B0B6B0A6B096B00011C
:103E00006EEC1AF001C0C5F90901C52D01D036D0FC
:103E1000C55334E01F5004082FE120522DE1AE0EAF
:103E2000F66E090EF76E000EF86E1B6AF2BE1B8E60
:103E3000F29E2C0E0A011C6F000112EC08F01BBE52
:103E4000F28EC5C9CDF9370E0901CE6F0001D6EC4F
:103E50001AF0DE0EF66E090EF76E000EF86E1B6A93
:103E6000F2BE1B8EF29E0B0E0A011C6F000112ECBB
:103E700008F01BBEF28E0901CC8175D2CB6BCA6BE8
:103E8000410E0A01086F0C6B0B6B0A6B096B00018A
:103E90006EEC1AF001C0C5F90901C55304E0350EF6
:103EA000006E002EFED7CA2BD8B4CB2BC55307E02B
:103EB000CB51C30804E3E4E1CA514F08E1E2C55322
:103EC0004AE01F50040845E1205243E1EA0EF66E35
:103ED000090EF76E000EF86E1B6AF2BE1B8EF29E84
:103EE0004A0E0A011C6F000112EC08F01BBEF28E94
:103EF000C5C9CDF9370E0901CE6F0001D6EC1AF015
:103F0000380EF66E0A0EF76E000EF86E1B6AF2BEE1
:103F10001B8EF29E0A0E0A011C6F000112EC08F0C3
:103F20001BBEF28E100EE96E1B6AF2BE1B8EF29E55
:103F3000CBC91DFACAC91CFAD3EC08F01BBEF28E1D
:103F40000D0E9EA8FED7AD6E0A0E9EA8FED7AD6ED2
:103F50000901CC8108D2020E0401E76F1F5004084A
:103F600012E1205210E1480EF66E0A0EF76E000EB6
:103F7000F86E1B6AF2BE1B8EF29E000127EC07F062
:103F80001BBEF28E0401500E0A01086F0C6B0B6B06
:103F9000020E0A6F096B00016EEC1AF001C0C5F940
:103FA0000901CA51500803E1CB51C30803E0C551D0
:103FB00001084BE20401E76B1F50040845E1205261
:103FC00043E1640EF66E0A0EF76E000EF86E1B6A81
:103FD000F2BE1B8EF29E2B0E0A011C6F000112EC2A
:103FE00008F01BBEF28EC5C9CDF9570E0901CE6F80
:103FF0000001D6EC1AF0930EF66E0A0EF76E000E64
:10400000F86E1B6AF2BE1B8EF29E0A0E0A011C6F2E
:10401000000112EC08F01BBEF28E100EE96E1B6A56
:10402000F2BE1B8EF29ECBC91DFACAC91CFAD3EC94
:1040300008F01BBEF28E0D0E9EA8FED7AD6E0A0EC6
:104040009EA8FED7AD6E040109010401E75319E1F2
:104050001F50040812E1205210E1A40EF66E0A0E61
:10406000F76E000EF86E1B6AF2BE1B8EF29E000108
:1040700027EC07F01BBEF28E04010901CC8173D13D
:104080000401E751020A000107E0010A19E0070AEA
:104090002BE0010A3DE050D01F50040810E12052EF
:1040A0000EE1C40EF66E0A0EF76E000EF86E1B6A75
:1040B000F2BE1B8EF29E27EC07F01BBEF28E67D07D
:1040C0001F50040810E120520EE1DA0EF66E0A0EBF
:1040D000F76E000EF86E1B6AF2BE1B8EF29E27EC86
:1040E00007F01BBEF28E53D01F50040810E120527F
:1040F0000EE1F00EF66E0A0EF76E000EF86E1B6AF9
:10410000F2BE1B8EF29E27EC07F01BBEF28E3FD054
:104110001F50040810E120520EE1060EF66E0B0E41
:10412000F76E000EF86E1B6AF2BE1B8EF29E27EC35
:1041300007F01BBEF28E2BD01F50040824E1205242
:1041400022E11C0EF66E0B0EF76E000EF86E1B6A67
:10415000F2BE1B8EF29E260E0A011C6F000112ECAD
:1041600008F01BBEF28EE7C4CDF9370E0901CE6F01
:104170000001D6EC1AF00D0E9EA8FED7AD6E0A0E09
:104180009EA8FED7AD6E0901CC81EDD000010901DA
:10419000CC911F5004082BE1205229E14A0EF66E03
:1041A0000B0EF76E000EF86E1B6AF2BE1B8EF29EAF
:1041B0002E0E0A011C6F000112EC08F01BBEF28EDD
:1041C000100EE96E1B6AF2BE1B8EF29ECBC91DFA61
:1041D000CAC91CFAD3EC08F01BBEF28E0D0E9EA8C5
:1041E000FED7AD6E0A0E9EA8FED7AD6E0901918274
:1041F000C69A200EC66E400EC76E9E9691921F50B4
:10420000040812E1205210E17E0EF66E0B0EF76EDE
:10421000000EF86E1B6AF2BE1B8EF29E000127ECA8
:1042200007F01BBEF28E0901CB6BCA6B410E0A016F
:10423000086F0C6B0B6B0A6B096B00016EEC1AF0CC
:1042400001C0C5F90901C55304E0350E006E002E0A
:10425000FED7CA2BD8B4CB2BC55307E0CB51C3082C
:1042600004E3E4E1CA514F08E1E2C5534AE01F50BC
:10427000040845E1205243E19E0EF66E0B0EF76EE8
:10428000000EF86E1B6AF2BE1B8EF29E260E0A010D
:104290001C6F000112EC08F01BBEF28EC5C9CDF9EF
:1042A000370E0901CE6F0001D6EC1AF0C80EF66E7B
:1042B0000B0EF76E000EF86E1B6AF2BE1B8EF29E9E
:1042C0000A0E0A011C6F000112EC08F01BBEF28EF0
:1042D000100EE96E1B6AF2BE1B8EF29ECBC91DFA50
:1042E000CAC91CFAD3EC08F01BBEF28E0D0E9EA8B4
:1042F000FED7AD6E0A0E9EA8FED7AD6E0901CC8129
:1043000032D01F5004082BE1205229E1D80EF66E5E
:104310000B0EF76E000EF86E1B6AF2BE1B8EF29E3D
:10432000250E0A011C6F000112EC08F01BBEF28E74
:10433000100EE96E1B6AF2BE1B8EF29ECBC91DFAEF
:10434000CAC91CFAD3EC08F01BBEF28E0D0E9EA853
:10435000FED7AD6E0A0E9EA8FED7AD6E0901000114
:10436000F9EF1AF009019182CCC901F000011200A5
:10437000500E0A01086F07CA0CFA06CA0BFA05CAE2
:104380000AFA04CA09FA00016EEC1AF0015003E0BF
:10439000400A0CE00ED007CAECF406CAEBF405CADA
:1043A000EAF404CAE9F4010E016E05D0000E016EB4
:1043B00002D0000E016E4DEF22F0C950C968C7301F
:1043C000FEE3C9CF0CFA0A010B6B0A6B0B512708ED
:1043D00014E303E10A510F0810E30C3D0ED0350E33
:1043E000006E002EFED7C950C968C730FEE3C9CFA2
:1043F0000CFA0A2BD8B40B2BE9D70C51FE0807E0B6
:104400000C5302E1FE0E0C6F0CCA01F02BD00B6BAB
:104410000A6B095309E1085307E10B51075D14E3E7
:1044200003E106510A5D10E204510A25E96E0551C7
:104430000B21EA6EC950C968C730FEE3C9CFEFFF50
:104440000A2BD8B40B2BE5D7C950C968C730FEE397
:10445000C950C968C730FEE3C950C968C730FEE318
:10446000000E016E000112000401EDA103D0030E45
:10447000016E9AD00A010351010802E3035305E1DA
:10448000040E016E040190D00A019192076B066B35
:10449000020E056F046B00016BD7015206E1918299
:1044A000010E016E040180D000010401E7510508EE
:1044B0000EE0D89001CA02FA00CA01FAFFC900FA58
:1044C0000901FF6B0A0100370137023704010A01B5
:1044D000032D2BD0510E086F02CA0CFA01CA0BFA39
:1044E00000CA0AFAFFC909FA00016EEC1AF001527B
:1044F00006E09182040E016E040156D00001FEC94F
:1045000005FAFDC904FA0A01096B086B020E076F70
:10451000066B000152DF015206E09182010E016E2E
:10452000040142D000013CD00A01520E086F02CAB9
:104530000CFA01CA0BFA00CA0AFAFFC909FA00010B
:104540006EEC1AF0015206E09182040E016E040135
:104550002BD00001FEC905FAFDC904FA0A01096B56
:10456000086B020E076F066B000127DF015206E0A1
:104570009182010E016E040117D00001020E0901A3
:10458000FE270A010307D8B402D00001E3D74C0E7E
:10459000086F0C6B0B6B0A6B096B00016EEC1AF069
:1045A0009182000E016E040100011200CBC9D1F905
:1045B000CAC9D0F9CDC9D3F9CCC9D2F90901CF53B1
:1045C00003E1CE51000830E2D0C9E9FFD1C9EAFFCA
:1045D000EFCFD4F9D3C903F0D2C9E9FFD3C9EAFFB9
:1045E000EF50D45D16E0D1C903F0D0C9E9FF03C094
:1045F000EAFFEFCFD4F9D3C903F0D2C9E9FFD3C999
:10460000EAFFEF50D45D02E2FF0E01D0010E016E11
:104610000DD0D02BD8B4D12BD22BD8B4D32BCE5194
:10462000D8B4CF07CE07CBD7000E016E0001120021
:10463000240E07011225016E000E1321036E01C026
:10464000C8F90901C96FEA6E01C0E9FF006A020EEC
:10465000026E016A000161EC1AF0240E07011225B6
:10466000016E000E1321036E01C0C8F90901C96F64
:10467000FE6F01C0FDF9C7C902FAC6C901FAC5C972
:1046800000FAC4C9FFF9010E0A01036F0001ECDE54
:104690000152D8A477D0220E07011225016E020E16
:1046A0001321036E01C0E9FFEA6EECCFC9F9ED52A8
:1046B000EFCFC8F90901C851550865E1C951AA08E9
:1046C00062E15A0E07011225016E000E1321036EDE
:1046D00001C0C8F90901C96FCB6F01C0CAF9070E43
:1046E000CD6F140ECC6FCF6B050ECE6F00015EDF69
:1046F000015203E1010E016E49D05A0E0701122545
:10470000016E000E1321036E01C0C8F90901C96FC3
:10471000CB6F01C0CAF9070ECD6F190ECC6FCF6BEE
:10472000050ECE6F000142DF015203E1020E016E61
:104730002DD0760E07011225016E000E1321036E97
:1047400001C0C8F90901C96FCB6F01C0CAF9070ED2
:10475000CD6F1E0ECC6FCF6B050ECE6F000126DF26
:10476000015210E14C0E07011225E96E000E1321D3
:10477000EA6EEF52D8B402D0000104D0030E016EED
:10478000000104D00901000E016E000112000901B0
:10479000DF6BE06B010EE16FDA6AD96A090EE46F34
:1047A000D70EE36F090EEA6EDB0EE96EE4C9E2FF95
:1047B000E3C9E1FFE1C9E2F9D890E550EE02F35018
:1047C000DF23F450E023E22FF7D7DFC9DEFFE0C993
:1047D000DFF9E06BD8B0E02BE32BD8B4E42BE12B6E
:1047E000E1510508DFE10001120007011251131128
:1047F00003E10B0E016EC6D213C7EAFF12C7E9FF31
:10480000006A020E026E240E016E000161EC1AF0C5
:1048100009EC1BF001C0EDF40401EDA106D000018C
:1048200009EC1BF001C0EDF40401EDA105D0010E6F
:10483000016E0701A7D204010901BB6BBA6BB96B0A
:10484000B86BBBC9C7F9BAC9C6F9B9C9C5F9B8C9FE
:10485000C4F90001EDDE01C0B7F90901B75337E132
:10486000E60E07011225E96E010E1321EA6EEF52E2
:104870001EE0EA0E1225016E010E132101C0E9FFB0
:10488000EA6EEFCFB8F9ECCFB9F9ECCFBAF9ECCFCB
:10489000BBF9BBC9C7F9BAC9C6F9B9C9C5F9B8C91D
:1048A000C4F90001C5DE01C0B7F910D00701040E3C
:1048B000F66E0C0EF76E000EF86E1B6AF2BE1B8EC3
:1048C000F29E000127EC07F01BBEF28E0901B753E0
:1048D00005E10C0E016E070155D20901070112C74F
:1048E000E9FF13C7EAFFB7C9EFFF0901B751030892
:1048F00032E1080E07011225016E000E1321036E2E
:1049000001C0C4F90901C56F480E07011225016EE7
:10491000000E132101C0E9FFEA6EEFCF00F0ECCFEB
:1049200001F0ECCF02F0ECCF03F003C0C9F902C0F4
:10493000C8F901C0C7F900C0C6F9C5C9EAFFC4C9B2
:10494000E9FF00C0EFFF01C0ECFF02C0ECFF03C0B5
:10495000ECFF2DD00901080E07011225016E000E93
:104960001321036E01C0C4F90901C56F3A0E070196
:104970001225016E000E132101C0E9FFEA6EECCF93
:1049800003F0ED52EFCFC6F9090103C0C7F9C5C95D
:10499000EAFFC4C9E9FFEE52EE52EC6AED52EF6A4B
:1049A000ED5203C0EFFFED52C6C9EFFF0701020E43
:1049B0001225016E000E1321036E310E0701122520
:1049C000E96E000E1321EA6EEFCFC6F9090103C0AC
:1049D000EAFF01C0E9FFC6C9EFFF030E0701122578
:1049E000016E000E1321036E340E07011225E96ECD
:1049F000000E1321EA6EEFCFC6F9090103C0EAFFEA
:104A000001C0E9FFC6C9EFFF100E07011225016EB4
:104A1000000E1321036E01C0C4F90901C56F320EE7
:104A200007011225016E000E132101C0E9FFEA6E95
:104A3000ECCF03F0ED52EF500901B825006E0350A2
:104A4000B921016E000EBA21026E000EBB21C5C94C
:104A5000EAFFC4C9E9FF00C0EFFF01C0ECFF02C0DC
:104A6000ECFFEC6E040E07011225016E000E1321FF
:104A7000036E01C0C4F90901C56F350E0701122587
:104A8000016E000E132101C0E9FFEA6EECCF03F0C6
:104A9000ED52EFCFC6F90901C5C9EAFFC4C9E9FF64
:104AA00003C0ECFFED52C6C9EFFF080E0701122547
:104AB000E96E000E1321EA6EEFCFD7F9ECCFD8F9EB
:104AC000ECCFD9F9ECCFDAF9030E1225E96E000E1E
:104AD0001321EA6EEFCFDBF90901EACFCAF9E9CF7A
:104AE000C9F9DE6BDD6BDC6B000151DECAC9EAFF80
:104AF000C9C9E9FF03C0C7F902C0C6F901C0C5F9B9
:104B000000C0C4F9100E07011225E96E000E132132
:104B1000EA6EEFCF00F0ECCF01F0ECCF02F0ECCF7B
:104B200003F000500901C425BC6F0150C521BD6FC1
:104B30000250C621BE6F0350C721BF6FB751030893
:104B400038E1140E07011225016E000E1321036EC9
:104B500001C0C4F90901C56F500E07011225016E8D
:104B6000000E132101C0E9FFEA6EEFCF00F0ECCF99
:104B700001F0ECCF02F0ECCF03F0C5C9EAFFC4C9E5
:104B8000E9FF00C0EFFF01C0ECFF02C0ECFF03C073
:104B9000ECFF180E1225E96E000E1321EA6EBCC957
:104BA000EFFFBDC9ECFFBEC9ECFFBFC9ECFF47D0AA
:104BB0000901140E07011225E96E000E1321EA6E99
:104BC000BCC9EFFFBDC9ECFFBEC9ECFFBFC9ECFF1C
:104BD000180E1225016E000E132101C0C4F909013F
:104BE000C56F040E07011225E96E000E1321EA6E4F
:104BF000ECCFC7F9ED52EFCFC6F90901C733C63381
:104C0000C733C633C733C633C733C6330F0EC717D0
:104C1000C651BC25006EC751BD21016E000EBE21DC
:104C2000026E000EBF21C5C9EAFFC4C9E9FF00C07A
:104C3000EFFF01C0ECFF02C0ECFFEC6E0701440E79
:104C40001225016E000E132101C0E9FFEA6EEFCFBD
:104C5000C0F9ECCFC1F9ECCFC2F9ECCFC3F909012F
:104C6000C05317E1C15315E1C25313E1C35311E11E
:104C7000370E07011225016E000E132101C0E9FF56
:104C8000EA6E0901C36BC26BECCFC1F9ED52EFCFF5
:104C9000C0F90C0E07011225016E000E1321036EE0
:104CA00001C0C4F90901C56F180E07011225E96E8C
:104CB000000E1321EA6EEFCF00F0ECCF01F0ECCF45
:104CC00002F0ECCF03F000500901C05DC66F015047
:104CD000C159C76F0250C259C86F0350C359C96F39
:104CE000B851C627B951C723BA51C823BB51C923EC
:104CF000020E07011225E96E000E1321EA6EEFCFB6
:104D00002CFA0901EACFCCF9E9CFCBF9D8921B6A8A
:104D1000F2BE1B8EF29EC9C92BFAC8C92AFAC7C9AE
:104D200029FAC6C928FA0A012F6B2E6B2D6B0001D8
:104D30002BEC08F01BBEF28ECCC9EAFFCBC9E9FF11
:104D400003C0C9F902C0C8F901C0C7F900C0C6F95B
:104D5000020E09010024006E000E0120016E000EFB
:104D60000220026E000E0320C5C9EAFFC4C9E9FF94
:104D700000C0EFFF01C0ECFF02C0ECFFEC6E000EC4
:104D8000016E070100011200400EF66E0C0EF76E68
:104D9000000EF86E1B6AF2BE1B8EF29E27EC07F027
:104DA0001BBEF28E000B0EE0500EF66E0C0EF76E70
:104DB000000EF86E1B6AF2BE1B8EF29E27EC07F007
:104DC0001BBEF28E08016BA110D05E0EF66E0C0EAB
:104DD000F76E000EF86E1B6AF2BE1B8EF29E00018B
:104DE00027EC07F01BBEF28E08016BA310D0740EE7
:104DF000F66E0C0EF76E000EF86E1B6AF2BE1B8E7E
:104E0000F29E000127EC07F01BBEF28E08016B51E9
:104E1000030B10E0880EF66E0C0EF76E000EF86EA7
:104E20001B6AF2BE1B8EF29E000127EC07F01BBE30
:104E3000F28E08016BA510D09A0EF66E0C0EF76E6E
:104E4000000EF86E1B6AF2BE1B8EF29E000127EC6C
:104E500007F01BBEF28E08016B51050B10E0AC0E83
:104E6000F66E0C0EF76E000EF86E1B6AF2BE1B8E0D
:104E7000F29E000127EC07F01BBEF28E08016B5179
:104E8000060B10E0C00EF66E0C0EF76E000EF86EFC
:104E90001B6AF2BE1B8EF29E000127EC07F01BBEC0
:104EA000F28E08016B51070B10E0D00EF66E0C0E5F
:104EB000F76E000EF86E1B6AF2BE1B8EF29E0001AA
:104EC00027EC07F01BBEF28E08016B51090B10E0B6
:104ED000E60EF66E0C0EF76E000EF86E1B6AF2BE52
:104EE0001B8EF29E000127EC07F01BBEF28E08011C
:104EF0006B510A0B10E0020EF66E0D0EF76E000EEF
:104F0000F86E1B6AF2BE1B8EF29E000127EC07F0C2
:104F10001BBEF28E08016B510B0B10E0180EF66EE3
:104F20000D0EF76E000EF86E1B6AF2BE1B8EF29E1F
:104F3000000127EC07F01BBEF28E08016B510C0B31
:104F400010E02A0EF66E0D0EF76E000EF86E1B6A5C
:104F5000F2BE1B8EF29E000127EC07F01BBEF28E04
:104F600008010001F7EF27F00801D26BD2510108C8
:104F70002CE3CF51D225D36F080ED56FD00ED46F4E
:104F8000D251D425016E000ED521036E0150E96E79
:104F900003C0EAFFEFCFD4F8F250006EF29E636ACE
:104FA000D3C862FFD4C861FF7F9C7F9E7F840F01BE
:104FB000550E7E6EAA0E7E6E7F827FB2FED77F94E4
:104FC0000050F2120801D22BD1D7000112000801C3
:104FD0006A6B6A51020812E3000107DC01C024F782
:104FE0000701245305E024C76BF80001CDD603D098
:104FF000080104D0000108016A2BEBD73E0ECF6FE9
:10500000D16B24C7D0F80001AFDF070124C701F03E
:1050100000011200560EF66E060EF76E000EF86EC8
:105020001B6AF2BE1B8EF29E27EC07F01BBEF28EAF
:1050300012001EC0EAFF1DC0E9FF0801E0C8EFFF33
:10504000E92AD8B4EA2AEF6A1D2AD8B41E2A000138
:1050500012000900F55210E0F6CFCCF8F7CFCDF8EA
:10506000F8CFCEF8F5CFE0F8E4DFCCC8F6FFCDC836
:10507000F7FFCEC8F8FFEDD71200020EEA6E990EC8
:10508000E96E006A026A1E0E016E61EC1AF01200EF
:105090000801D46BD36BD26BD16B000E016EC25082
:1050A000830B0110C26E000E016EC150F80B01108F
:1050B000C16E010ECE6FCE51320812E3C282C2B26F
:1050C000FED7C3CFD5F8C4CFD6F8D76BD86B050EB3
:1050D0000901CD6F000156EC14F00801CE2BEBD77F
:1050E000010ECE6FCE51640856E3C282C2B2FED723
:1050F000C3CFD5F8C4CFD6F8D76BD86B010ECE5D31
:10510000D96FD4C8DAF9D3C8D9F9D2C8D8F9D1C877
:10511000D7F90901DE6BDD6BDC6BDB6F0001C7ECDF
:1051200023F003C0DCF802C0DBF801C0DAF800C0ED
:10513000D9F80801D551D927D651DA23D751DB2325
:10514000D851DC23D8921B6AF2BE1B8EF29EDCC8BB
:105150002BFADBC82AFADAC829FAD9C828FA0A01D0
:105160002F6B2E6B2D6BCEC82CFA00012BEC08F0A8
:105170001BBEF28E03C0D4F802C0D3F801C0D2F82F
:1051800000C0D1F8050E0901CD6F000156EC14F0F6
:105190000801CE2BA7D7D4C8DAF9D3C8D9F9D2C819
:1051A000D8F9D1C8D7F90901DE6BDD6BDC6B640E71
:1051B000DB6F0001C7EC23F003C0DCF802C0DBF8B2
:1051C00001C0DAF800C0D9F8D8921B6AF2BE1B8E73
:1051D000F29E03C02BFA02C02AFA01C029FA00C0CD
:1051E00028FA0A012F6B2E6B010E2D6F100E2C6FFB
:1051F00000012BEC08F01BBEF28E560E08010024B5
:10520000CF6F000E0120D06FCFC801F0D0C802F0E0
:105210000001120001501B6AF2BE1B8EF29ECEC826
:105220001EFA640E0A011F6F0001BDEC07F01BBEE1
:10523000F28E00C0CEF80150300E08E10801CFA375
:105240000FD0CFB70DD0CFB9200E04D00801CF9723
:10525000CF99CF81012601C0E0F80001EADE080104
:105260001B6AF2BE1B8EF29ECEC81EFA0A0E0A01FF
:105270001F6F0001BDEC07F01BBEF28E00C0CEF820
:105280000150300E08E10801CFB70AD0CFA108D0F5
:10529000CFB9200E0001012601C0E0F8CADE0801E6
:1052A000300ECE27CEC8E0F80001C3DE1200E95070
:1052B0000801D36F3B0EDA6F9A0ED96FCA0ED86F02
:1052C000D76B0A0ED56FD251D8A4D307D882080E57
:1052D000EA6ECE0EE96E1B6AF2BE1B8EF29ED1C83C
:1052E0002BFAD0C82AFACFC829FACEC828FADAC8C9
:1052F0002FFAD9C82EFAD8C82DFAD7C82CFA00012F
:105300002BEC08F01BBEF28E0150005213E1080195
:10531000D229D55DD8A402D000010CD0D3510CE025
:105320000F0BD55D01E01EE2D3BF1CD0D3BD04D06E
:10533000200E12D00801D36BD251D55D0CE100C014
:10534000D3F82E0EE06F000174DE0801D3C800F020
:10535000200ED317000E300E002600C0E0F800012A
:1053600068DE0801D8921B6AF2BE1B8EF29EDAC874
:105370002BFAD9C82AFAD8C829FAD7C828FA0A01B4
:105380002F6B2E6B2D6B0A0E2C6F00012BEC08F08F
:105390001BBEF28E03C0DAF802C0D9F801C0D8F8FB
:1053A00000C0D7F80801D52F91D70001120065DEA3
:1053B0006FDE02C0CDF801C0CCF870EC19F0020E1F
:1053C0001E6E990E1D6E2AC7CEF8010E0801CF6F12
:1053D000000120DF2F0E0801E06F00012ADE29C73F
:1053E000CEF8010E0801CF6F000114DF2F0E080167
:1053F000E06F00011EDE2BC7CEF8010E0801CF6F53
:10540000000108DF200E0801E06F000112DE27C74F
:10541000CEF8010E0801CF6F0001FCDE3A0E080144
:10542000E06F000106DE26C7CEF8010E0801CF6F3F
:105430000001F0DE3A0E0801E06F0001FADD25C739
:10544000CEF8010E0801CF6F0001E4DE2C0E08013A
:10545000E06F0001EEDD440EE96E0801D16BD06B08
:10546000CDC8CFF8CCC8CEF8020ED26F00011FDF36
:105470001200DAC8DEF8D9C8DDF8DEC803F008018A
:10548000DDC8E9FFDEC8EAFFEF5206E0DD2BD8B445
:10549000DE2B0001F2D70801DCC803F0DBC8E9FF0E
:1054A000DCC8EAFFEF5213E0DBC8E9FFDCC8EAFF23
:1054B000EFCFE1F8DEC8EAFFDDC8E9FFE1C8EFFFA2
:1054C000DD2BD8B4DE2BDB2BD8B4DC2BE5D7DDC845
:1054D000E9FFDEC8EAFFEF6AD9C801F0DAC802F0D6
:1054E00000011200F29A04001200CF6ACE6A898885
:1054F0002F50020803E1305201E1908C9E909D8074
:105500008AEF2AF00B0ED76EDC0ED66E0400F294F2
:10551000F28AEBD712000801CE51000A000103E025
:10552000010A03E003D0DEDF01D0ECDF120004014A
:10553000ED93ED95EDC401F0000112000701125149
:10554000131103E10B0E016E28D00001F0DF01A062
:1055500015D0010E07011225E96E000E1321EA6E27
:10556000EF5204E0090E016E18D006D00001F5ECF0
:1055700023F00150070111D00ED00001070112C71E
:10558000E9FF13C7EAFFEF5206E10001F5EC23F053
:105590000150070102D0000E016E00011200020E40
:1055A0000901D05F000ED15BD25BD35B0C0E07010B
:1055B0001225E96E000E1321EA6EEFCF00F0ECCF5A
:1055C00001F0ECCF02F0ECCF03F003500901D35D02
:1055D00011E30BE10250D25D0DE307E10150D15D13
:1055E00009E303E10050D05D05E3006A016A026A45
:1055F000036A40D0020E07011225E96E000E132146
:10560000EA6EEFCFDBF90901EACFD6F9E9CFD5F998
:10561000D3C9DAF9D2C9D9F9D1C9D8F9D0C9D7F9DA
:10562000DE6BDD6BDC6B0001C7EC23F0D6C9EAFF53
:10563000D5C9E9FF03C0D7F902C0D6F901C0D5F931
:1056400000C0D4F9180E07011225E96E000E1321CF
:10565000EA6EEFCF00F0ECCF01F0ECCF02F0ECCF30
:1056600003F00901D4510026D5510122D65102225E
:10567000D751032200011200C9C9EAFFC8C9E9FFD6
:10568000200E006E026A0B0E016E61EC1AF0090129
:10569000CD6B180ECE6FCA6B080ECB6FC6C9E9FF73
:1056A000C7C9EAFFECCFD0F9ED52EFCFCFF9CFC9A0
:1056B000E9FFD0C9EAFFEFCFCCF9C7C903F0C6C9EB
:1056C000E9FFC7C9EAFF010EEE2601E3EF2ACC513C
:1056D000200801E3CC6BCC5306E0CC512F0803E04B
:1056E000CC515C080FE1CA5301E170D00B0EC82504
:1056F000E96E000EC921EA6ECD51CE15EF6ECCC910
:1057000001F066D0CC51200803E2CC517F0801E1C2
:105710005DD0CC512E080EE1CDB10BD0CA5100089E
:1057200008E2CA51080805E3080ECA6F0B0ECB6FDA
:105730004CD04CD0CC51220801E148D0CC512908A2
:1057400001E335D0CC512C0801E340D0CC513908CD
:1057500001E32DD0CC513F0801E338D0CDB127D0A3
:10576000CC517C0801E132D0CC515A0804E2CC5132
:105770005D0801E32BD0CC5140080AE2CC515A0815
:1057800007E3CB51080803E1CE97CE5101D0CE9963
:10579000CC5160080CE2CC517A0809E3200ECC5FB2
:1057A000CB51080803E1CD87CD5101D0CD89CD91F2
:1057B000CB51CA5D01E30AD0CA51CA2BC825E96E94
:1057C000000EC921EA6ECCC9EFFF68D7010E016E49
:1057D000000184EF31F0C30E0A010C6F500E0B6F05
:1057E000C950C968C730FEE3350E006E002EFED7E3
:1057F000C950C968C730FEE3C9CF0AFA0B51D8B403
:105800000C070B070A3D01D003D00B510C11ECE142
:105810000ACA01F0000113EF2CF0020E0A01096F11
:10582000086B0001D8D7013C01D003D0000E016EF7
:105830004DD0C95006CAC9FFC730FEE30A01065160
:10584000FD0841E009CA03F00851D8B40907080768
:10585000031011E005CA03F00451042BD8B4052B42
:10586000E96E03C0EAFFEFCF0AFAC9500ACAC9FFBE
:10587000C730FEE3E7D7C950C968C730FEE3C95057
:10588000C968C730FEE3C950C968C730FEE3C9CF55
:1058900007FA096B086B0951C30815E303E10851C6
:1058A0004F0811E3350E006E002EFED7C950C968AF
:1058B000C730FEE3C9CF07FA075301E004D0082B35
:1058C000D8B4092BE8D7010E016E000112000401C3
:1058D000EDA103D0030E016E9CD0EDA503D0020E06
:1058E000016E97D00A01035305E1040E016E040115
:1058F00090D00A0191920401E75105080EE0D8907A
:1059000001CA02FA00CA01FAFFC900FA0901FF6BD5
:105910000A0100370137023704010A01032D1FD0A5
:10592000580E086F02CA0CFA01CA0BFA00CA0AFA2A
:10593000FFC909FA00016EEC1AF001520EE1FEC92E
:1059400005FAFDC904FAFE0E0A01066F000165DFC3
:10595000015203E00A01036B00014ED00A01040169
:10596000E751030B16E0770E0A01086F0C6B0B6B07
:105970000A6B096B00016EEC1AF0570E0A01086FF2
:105980000C6B0B6B0A6B03CA09FA00016EEC1AF080
:105990000401590E0A01086F02CA0CFA01CA0BFA77
:1059A00000CA0AFAFFC909FA00016EEC1AF00152A6
:1059B00023E1FEC905FAFDC904FAFC0E0A01066FCF
:1059C00000012BDF015201E10AD0020E0901FE277E
:1059D0000A010307D8B402D00001EBD700010A0185
:1059E000056B046BFD0E066F000117DF015204E129
:1059F000010E0A01036F00019182C950C968C730C6
:105A0000FEE30A01035302E0010E01D0000E016E15
:105A1000040100011200200E07011225E96E000E9C
:105A20001321EA6EEFCFF5F9ECCFF6F9ECCFF7F9E9
:105A3000ECCFF8F90901F151F55D0AE1F251F65D9B
:105A400007E1F351F75D04E1F451F85DD8B4EDD00E
:105A5000060E07011225E96E000E1321EA6EEF52C1
:105A6000D8B4A7D0240E1225016E000E1321036EA8
:105A700001C0FBF90901FC6FFE6F01C0FDF9F8C917
:105A800002FAF7C901FAF6C900FAF5C9FFF9010EE1
:105A90000A01036F00011BDF01C0F9F90901F95385
:105AA00003E0000E016EC3D0060E07011225E96E59
:105AB000000E1321EA6EEF6A100E1225E96E000E39
:105AC0001321EA6EEFCFFBF9ECCFFCF9ECCFFDF937
:105AD000ECCFFEF9080E1225E96E000E1321EA6ED6
