:040000009DEFA4F0DC
:08000800046ED8CF05F0E0CF33
:1000100006F00001E9CF0CF0EACF07F0E1CF08F0DD
:10002000E2CF09F0D9CF0AF0DACF0BF0F3CF12F01C
:10003000F4CF13F0FACF14F0F5CF15F0F6CF16F099
:10004000F7CF17F0F8CF18F0FBCF19F000C00EF083
:1000500001C00FF002C010F003C011F0F2AA34EF9B
:1000600000F0F2B489EF07F09DA03AEF00F09EB0E7
:100070009EEF07F0A0A240EF00F0A1B299EF0CF0C4
:10008000F2A846EF00F0F2B21FEF07F0F0A64CEF37
:1000900000F0F0B08AEF0BF0F0A852EF00F0F0B2F1
:1000A000C5EF0BF09DAA58EF00F09EBA51EF07F094
:1000B0000EC000F00FC001F010C002F011C003F03C
:1000C0000CC0E9FF07C0EAFF078E08C0E1FF09C0C6
:1000D000E2FF0AC0D9FF0BC0DAFF12C0F3FF13C062
:1000E000F4FF14C0FAFF15C0F5FF16C0F6FF17C0E5
:1000F000F7FF18C0F8FF19C0FBFF045006C0E0FF6F
:1001000005C0D8FF1000F76A1A0FF66E010EF7222D
:10011000000EF86E0900F55012004E6F2045727205
:100120006F720000F76A380FF66E010EF722000EAC
:10013000F86E0900F5501200494C4C4547414C20DF
:1001400046494C45204E414D4500F76A5E0FF66E1C
:10015000010EF722000EF86E0900F55012004D4511
:10016000444941204E4F5420524541445900F76ABA
:10017000820FF66E010EF722000EF86E0900F550A0
:10018000120046494C45204E4F5420464F554E4490
:100190000000F76AA60FF66E010EF722000EF86E49
:1001A0000900F550120050415448204E4F5420464B
:1001B0004F554E440000F76ACA0FF66E010EF72243
:1001C000000EF86E0900F5501200414343455353A9
:1001D0002044454E49454400F76AEC0FF66E010E87
:1001E000F722000EF86E0900F55012004D45444903
:1001F000412046554C4C0000F76A0C0FF66E020E7B
:10020000F722000EF86E0900F5501200522F572009
:100210004552524F5200F76A2A0FF66E020EF7222D
:10022000000EF86E0900F5501200494E434F52522D
:10023000454354204D45444941204348414E47459C
:100240000000F76A560FF66E020EF722000EF86EE7
:100250000900F550120057524954452050524F544E
:10026000454354454400F76A7A0FF66E020EF722B2
:10027000000EF86E0900F55012004653204E4F5400
:1002800020454E41424C45440000F76A9E0FF66EF1
:10029000020EF722000EF86E0900F55012004E4FC4
:1002A0002046494C4553595354454D00F76AC00FF9
:1002B000F66E020EF722000EF86E0900F5501200DD
:1002C000554E4B4E4F574E204552524F5200F76AF3
:1002D000E20FF66E020EF722000EF86E0900F550DE
:1002E00012000000F76AF80FF66E020EF722000EF9
:1002F000F86E0900F550120058585800F76A100FB0
:10030000F66E030EF722000EF86E0900F55012008B
:100310004E4F3300F76A280FF66E030EF722000ED9
:10032000F86E0900F5501200504F3400F76A400F84
:10033000F66E030EF722000EF86E0900F55012005B
:100340004E483400F76A580FF66E030EF722000E7F
:10035000F86E0900F550120053694F00F76A700FEC
:10036000F66E030EF722000EF86E0900F55012002B
:1003700055726500F76A880FF66E030EF722000EBD
:10038000F86E0900F55012004E4F3200F76AA00FC8
:10039000F66E030EF722000EF86E0900F5501200FB
:1003A00046655F00F76AB80FF66E030EF722000E7F
:1003B000F86E0900F5501200436C5F00F76AD00F29
:1003C000F66E030EF722000EF86E0900F5501200CB
:1003D000536D7000F76AE80FF66E030EF722000EF9
:1003E000F86E0900F550120053746400F76A000FAC
:1003F000F66E040EF722000EF86E0900F55012009A
:10040000436D6200F76A180FF66E040EF722000EB5
:10041000F86E0900F550120054737400F76A300F3B
:10042000F66E040EF722000EF86E0900F550120069
:1004300052626C00F76A480FF66E040EF722000E47
:10044000F86E0900F550120043616C00F76A600F06
:10045000F66E040EF722000EF86E0900F550120039
:10046000466C7300F76A780FF66E040EF722000EE2
:10047000F86E0900F550120055746C00F76A900F81
:10048000F66E040EF722000EF86E0900F550120009
:1004900049307300F76AA80FF66E040EF722000EBB
:1004A000F86E0900F550120049317300F76AC00F69
:1004B000F66E040EF722000EF86E0900F5501200D9
:1004C00049307400F76AD80FF66E040EF722000E5A
:1004D000F86E0900F550120049317400F76AF00F08
:1004E000F66E040EF722000EF86E0900F5501200A9
:1004F00049307200F76A080FF66E050EF722000EFB
:10050000F86E0900F550120049317200F76A200FA9
:10051000F66E050EF722000EF86E0900F550120077
:1005200049307500F76A380FF66E050EF722000E97
:10053000F86E0900F550120049317500F76A500F46
:10054000F66E050EF722000EF86E0900F550120047
:1005500043686B00F76A680FF66E050EF722000E0F
:10056000F86E0900F550120058580000F76A800F25
:10057000F66E050EF722000EF86E0900F550120017
:100580002C2C2C2C2C2C2C000A0EEA6EA20EE96EC0
:10059000EF500EE0140E016E006A002EFED7012E01
:1005A000FBD7BF0E006E002EFED700D0EF2EF2D785
:1005B000120077726974696E670072656164696EB2
:1005C0006700256C783A20726561642025782C20BC
:1005D00073686F756C642062652025780A0D0000D1
:1005E000646F6E650A0D000045434F2D3220257360
:1005F0000D0A000056322E3132350000574D532D72
:10060000342D53442025730D0A0056322E313235D5
:1006100000004157532D312025730D0A000056323A
:100620002E3132350000574D532D342D51452025A4
:10063000730D0A0056322E31323500005858582DAD
:10064000302025730D0A000056322E31323500005D
:1006500040494E560D0A0000404152470D0A000025
:10066000404552520D0A0000404F4B210D0A000038
:10067000405245530D0A0000405344310D0A00001A
:100680004053445F0D0A0000404D41580D0A0000E0
:100690003F404253590D0A00405244590D0A000090
:1006A0004046533A446973636F766572790D0A0068
:1006B0004046533A556E61626C6520746F207075C8
:1006C00074206361726420696E2069646C652073B4
:1006D000746174652C20726573706F6E7365203D54
:1006E00020253032780D0A004046533A4361726447
:1006F0002069646C652C20726573706F6E73652061
:100700003D20253032780D0A00004046533A5265AC
:1007100073706F6E736520746F205344207665721A
:100720002032207465737420434D4438203D2025C9
:10073000780D0A004046533A506F737369626C65D6
:10074000205344763220636172642064657465636B
:100750007465640D0A004046533A566F6C746167C5
:10076000652072616E676520636865636B2C206F1E
:100770006372203D202530327825303278253032A2
:1007800078253032780D0A004046533A436172644E
:10079000205664642072616E6765203D20322E37DA
:1007A0002D332E3620766F6C74730D0A0000404690
:1007B000533A53656E64696E672041434D4434314A
:1007C00020636F6D6D616E6420746F2053442076DA
:1007D0006572203220636172640D0A004046533A0C
:1007E000526573706F6E73652066726F6D207365EE
:1007F0006E64696E672041434D443431203D2025AD
:100800003032782C2054696D6572203D20256C753E
:100810000D0A00004046533A526573706F6E73655F
:1008200020746F20434D443538203D2025780D0A33
:1008300000004046533A53656E7420434D442035C2
:10084000382C2054696D65722076616C7565203D89
:1008500020256C752C206F6372203D202530327866
:100860002530327825303278253032780D0A000074
:100870004046533A436172642043414E4E4F5420E8
:10088000776F726B205664642072616E6765206FAB
:100890006620322E372D332E3620766F6C74730D12
:1008A0000A004046533A4E6F7420616E2053445301
:1008B00043206F72205344484320636172642C20AC
:1008C00054657374696E6720666F722053442056B6
:1008D000657231206F72204D4D4320436172640D6B
:1008E0000A004046533A526573706F6E7365206616
:1008F000726F6D20474F5F49444C45203D202530A5
:1009000032780D0A00004046533A526573706F6E9C
:1009100073652066726F6D2053445F434D445F538F
:10092000454E445F4F505F434F4E44203D2025309D
:1009300032782C2054696D6572203D20256C750D30
:100940000A004046533A417474656D7074696E676D
:10095000205344763120766572737573204D4D4374
:100960002049442C20526573706F6E736520667247
:100970006F6D2053445F434D445F4150504C5F4383
:100980004D44203D20253032780D0A004046533A30
:10099000496E76616C696420726573706F6E736501
:1009A00020746F2053445F41434D4434312C2072F6
:1009B0006573706F6E7365203D20253032582C2092
:1009C0007265696E697469616C697A696E672061C4
:1009D00073204D4D430D0A004046533A4661696C01
:1009E000656420746F20696E697469616C697A65E9
:1009F000206173204D4D432C20726573706F6E73B0
:100A000065203D20253032582C2065786974696E48
:100A1000670D0A004046533A43617264206661697B
:100A20006C656420746F20726573706F6E642063F0
:100A30006F727265636C79206166746572205344CD
:100A40005F434D445F53454E445F4F505F434F4EAD
:100A5000442C20726573706F6E7365203D202530C5
:100A600032582C2054696D6572203D20256C750D1F
:100A70000A004046533A53657474696E6720626C8D
:100A80006F636B206C656E6774680D0A00004046EA
:100A9000533A4572726F722073657474696E672081
:100AA000626C6F636B206C656E6774682C20726576
:100AB00073706F6E7365203D20253032782C207462
:100AC000696D6572203D20256C750D0A0000404659
:100AD000533A4361726420547970652044697363AA
:100AE0006F76657279204572726F720D0A0040460A
:100AF000533A4D4D43204361726420666F756E64B6
:100B00000D0A00004046533A534476312043617247
:100B10006420666F756E640D0A004046533A534474
:100B20005343204361726420666F756E640D0A0042
:100B30004046533A53444843204361726420666FF1
:100B4000756E640D0A004046533A43617264205446
:100B500079706520446973636F7665727920457298
:100B6000726F722C2043617264203D202530325810
:100B70000D0A00004046533A436172642072657367
:100B800065742073756363657373202D20436D64F2
:100B900020746F20526561647920636F756E7420D4
:100BA0003D20256C750D0A004046533A53504920AC
:100BB0006275732073706565642073657420746F4B
:100BC00020686967680D0A004046533A43617264C1
:100BD000206163746976617465206661696C757201
:100BE000652C20726573706F6E7365203D20253013
:100BF00032582C2054696D6572203D20256C750D8E
:100C00000A004046533A4361726420616374697616
:100C10006174652073756363657373206F6E206103
:100C20007474656D707420256C750D0A0000464162
:100C30005420617420736563746F7220300D0A0054
:100C40005459504520636F6D6D616E64204552525A
:100C50004F520D0A00004046533A2025730D0A00FA
:100C60004046533A2025730D0A002A2A2040465355
:100C70003A204552524F520D0A002020204E6F4517
:100C800072726F720D0A00002020204D6564696148
:100C9000204E6F742052656164790D0A0000202097
:100CA0002046696C65204E6F7420466F756E640D2A
:100CB0000A00202020496E76616C696420506174BE
:100CC000680D0A00202020496E76616C6964204E10
:100CD000616D650D0A0020202041636365737320F8
:100CE00044656E6965640D0A000020202044697324
:100CF0006B2046756C6C0D0A000020202052656147
:100D0000642F5772697465204572726F720D0A0004
:100D1000202020496E636F7272656374204D656494
:100D20006961204368616E67650D0A0020202057C5
:100D3000726974652050726F7465637465640D0A1E
:100D400000002020204E6F7420456E61626C656447
:100D50000D0A00002020204E6F2046696C6520534C
:100D6000797374656D0D0A00617070656E643A2068
:100D70004653204552524F52206F6E2066696C6573
:100D80005F6F70656E0D0A004046533A5772697482
:100D9000696E670D0A5B25735D0D0A004046533A84
:100DA0004552524F525B617070656E645D0D0A0072
:100DB0004046533A436C6F73696E670D0A004052A8
:100DC00054433A253032752F0000405254433A259F
:100DD0003032752F000040414C4D3A253032752F8E
:100DE000000040414C4D3A253032752F00007465AB
:100DF0007374363A2025640D0A0040414C4D0D0AAB
:100E000000000A01106BC69A210EC66E400EC76E16
:100E10009190C9500F0EC96EC730FEE3C9CF10FACA
:100E2000C95010CAC9FFC730FEE3C9CF33F7C95054
:100E3000C96AC730FEE391804D940001120088AE6C
:100E400002D0919E01D0918E4D804D924DA401D043
:100E5000FDD74D84D6DF352AD8B4362AF29258EF22
:100E600000F09EAAFED7ABCF1CF0AECF01F01CA2C3
:100E700002D0AB98AB8812000900F55211E0F6CF12
:100E800011FAF7CF12FAF8CF13FAF5509EA8FED751
:100E9000AD6E11CAF6FF12CAF7FF13CAF8FFECD7FE
:100EA0001200AE504DB228D09EAA25D0DADF01C084
:100EB00010FA0A0110513F0A000105E02E0A15E060
:100EC0000A0A16E018D04E2C08D0020EF66E0F0E4D
:100ED000F76E000EF86ED0DF07D00A0EF66E0F0E1A
:100EE000F76E000EF86EC8DF06D0010E506E03D00C
:100EF000326A010E316E02D0F29C9E9A9E9A58EF91
:100F000000F03F404253590D0A00405244590D0A27
:100F100000000B0ED76EDC0ED66E0400F294F28A3F
:100F2000CF6ACE6A89882F50020803E1305201E16E
:100F3000908C9E909D80F29458EF00F09D9089983F
:100F40002F50020803E1305201E1909C9E9058EF2F
:100F500000F0405B4F5D0D0A000040434D4420749B
:100F60006F6F206C6F6E670D0A00405B435D0D0A6A
:100F7000000040534C4545500D0A0000404D45527D
:100F80002C254C752C254C750D0A00006D3A2575E5
:100F90002C257520633A254C752C254C752C254C39
:100FA000750D0A000A011C51016A1B5D03E21BCA90
:100FB00000F00CD0006A080E1D6F1B3700361C5164
:100FC000005CD8B0006E01361D2FF7D7000112006B
:100FD000015019CA1BFA640E0A011C6F0001E2DFFE
:100FE00000C019FA0150300E08E10A011AA30ED010
:100FF0001AB70CD01AB9200E04D00A011A971A9900
:101000001A81012601509EA8FED7AD6E19CA1BFA9F
:101010000A0E1C6F0001C6DF00C019FA0150300E25
:1010200008E10A011AB70BD01AA109D01AB9200E8B
:101030000001012601509EA8FED7AD6E0A01300EB8
:10104000192719519EA8FED7AD6E000112000900A4
:10105000F6CF1AFAF7CF1BFAF8CF1CFAF5509EA874
:10106000FED7AD6E1ACAF6FF1BCAF7FF1CCAF8FFFF
:101070000A01192F01D002D00001E9D700011200A6
:10108000D8B204D00A0EEA6E2D0EE96E006A016A2B
:10109000026A036A0A012D6B2E6B2F6B306B2C5189
:1010A0002B112A1129112CE0200E316FD8902537F1
:1010B0002637273728372D372E372F3730372C5103
:1010C000305D08E12B512F5D05E12A512E5D02E1D3
:1010D00029512D5D0FE329512D5F2A51D8A02A3DBA
:1010E0002E5F2B51D8A02B3D2F5F2C51D8A02C3D2B
:1010F000305FD8800036013602360336312FD6D71E
:101100002DCAEFFF2ECAECFF2FCAECFF30CAECFF4E
:1011100000011200E9500A011D6F3B0E246F9A0E68
:10112000236FCA0E226F216B0A0E1F6FD8820A0E20
:10113000EA6E190EE96E1CCA28FA1BCA27FA1ACAE7
:1011400026FA19CA25FA24CA2CFA23CA2BFA22CA6B
:101150002AFA21CA29FA000193DF0150005213E153
:101160000A011F51010AD8A402D000010CD01D5160
:101170000CE00F0B1F5D01E00EE21DBF0CD01DBD8A
:1011800004D0200E03D00A011D6B300E0026005043
:101190009EA8FED7AD6ED89224CA28FA23CA27FA91
:1011A00022CA26FA21CA25FA2C6B2B6B2A6B0A0E4F
:1011B000296F000165DF03C024FA02C023FA01C0D1
:1011C00022FA00C021FA0A011F2FB0D70001120035
:1011D000EACF21FAE9CF20FA0A011A39F0091C6F87
:1011E0001C27E20F1D6F320F1F6F1A510F0B1D27A7
:1011F0001D271F27E90F1E6F1E271E2719390F0BEA
:101200001E271F271E371F371F1F1F3719510F0B90
:101210001F271C37070E1B6F0A0E1E071F27FDE333
:101220001D071E27FDE31C071D27FDE31B071C27C9
:10123000FDE30A0EEA6E1B0EE96E070E2015209DD7
:10124000E926000EEA22E9501F0804E1EA500A08E4
:1012500001E1208DEF50006E08E120BD06D020B9DD
:101260000CD020B702D0200E03D020872099300E5A
:10127000002600509EA8FED7AD6EEE5020ADE3D7FD
:1012800000011200D89007014035036A4E0FE96E45
:10129000070E0320EA6EECCF11FAED52EFCF10FAF1
:1012A0000A011053D8A4C3D01153D8A4C0D0D890E9
:1012B00007014035036A860FE96E070E0320EA6EC8
:1012C000ECCF11FAED52EFCF10FA0A0110534CE1B6
:1012D00011534AE1D89007014035036ABF0FE96E08
:1012E000070E0320EA6EECCF11FAED52EFCF10FAA1
:1012F000D8904035036A5E0FE96E070E0320EA6E50
:10130000ECCF03F0ED52EFCF01F003500A01115D75
:1013100011E303E10150105D0DE3D8900701403562
:10132000036ABF0FE96E070E0320EA6EEC6AED5206
:10133000EF6A0A01D89007014035036ABF0FE96ED2
:10134000070E0320EA6E010EEE2601E3EF2AD89085
:101350004035036A9A0FE96E070E0320EA6EEC6AC5
:10136000ED52EF6A63D00A01D89007014035036A55
:10137000860FE96E070E0320EA6EECCF11FAED52EC
:10138000EFCF10FA0A01102D52D0115350E1D8902E
:1013900007014035036ABF0FE96E070E0320EA6EAE
:1013A000ECCF11FAED52EFCF10FA0A01105325E1FC
:1013B000115323E1D89007014035036ABF0F016E36
:1013C000070E03220A0103C011FAD8900701403525
:1013D000036A5E0FE96E070E0320EA6EECCF03F09E
:1013E000ED52EFCF12FA0A0111CAEAFF01C0E9FF7C
:1013F00003C0ECFFED5212CAEFFFD8900701403551
:10140000036ABF0FE96E070E0320EA6EFF0EEF2698
:1014100002E2EE52ED06D8904035036A9A0FE96E6B
:10142000070E0320EA6EEC6AED52EF6A0A01D890CB
:1014300007014035036A4E0FE96E070E0320EA6E7E
:10144000ECCF11FAED52EFCF10FA0A01102DC3D0F4
:101450001153D8A4C0D0D89007014035036A860F35
:10146000E96E070E0320EA6EECCF11FAED52EFCFD2
:1014700010FA0A01102D4CD011534AE1D8900701FF
:101480004035036ABF0FE96E070E0320EA6EECCF0A
:1014900011FAED52EFCF10FAD8904035036A5E0F83
:1014A000E96E070E0320EA6EECCF03F0ED52EFCFAA
:1014B00001F003500A01115D11E303E10150105DD9
:1014C0000DE3D89007014035036ABF0FE96E070EA0
:1014D0000320EA6EEC6AED52EF6A0A01D890070128
:1014E0004035036ABF0FE96E070E0320EA6E010E56
:1014F000EE2601E3EF2AD8904035036A9A0FE96E91
:10150000070E0320EA6EEC6AED52EF6A63D00A011F
:10151000D89007014035036A860FE96E070E032055
:10152000EA6EECCF11FAED52EFCF10FA0A01105328
:1015300052E1115350E1D89007014035036ABF0FC3
:10154000E96E070E0320EA6EECCF11FAED52EFCFF1
:1015500010FA0A01105325E1115323E1D890070135
:101560004035036ABF0F016E070E03220A0103C054
:1015700011FAD89007014035036A5E0FE96E070E35
:101580000320EA6EECCF03F0ED52EFCF12FA0A011E
:1015900011CAEAFF01C0E9FF03C0ECFFED5212CA15
:1015A000EFFFD89007014035036ABF0FE96E070EC1
:1015B0000320EA6EFF0EEF2602E2EE52ED06D8900F
:1015C0004035036A9A0FE96E070E0320EA6EEC6A53
:1015D000ED52EF6A0A011F500408D8A499D0205296
:1015E000D8A496D0D89007014035036A6A0FE96EF7
:1015F000070E0320EA6EECCF11FAED52EFCF10FA8E
:101600000A0110510208D8A483D01153D8A480D065
:10161000010E070140250A01106F07014051040D1A
:10162000F350036AA20FE96E070E0320EA6EEFCFB4
:1016300011FAECCF12FAECCF13FAECCF14FAD890DF
:101640004035036ABB0FE96E070E0320EA6EECCF4C
:1016500016FAED52EFCF15FAD8904035036ABF0F56
:10166000E96E070E0320EA6EECCF18FAED52EFCFC9
:1016700017FA6D0E9EA8FED7AD6E3A0E9EA8FED745
:10168000AD6E10CA19FA1B0E0A011A6F0001A0DC18
:101690002C0E9EA8FED7AD6EAAC719FA1B0E0A0122
:1016A0001A6F000195DC930EF66E0F0EF76E000EAA
:1016B000F86E030E0A01196F0001C9DC410EE96ED4
:1016C00014CA1CFA13CA1BFA12CA1AFA11CA19FA56
:1016D00021DD2C0E9EA8FED7AD6E100EE96E16CA47
:1016E0001AFA15CA19FA74DD2C0E9EA8FED7AD6E33
:1016F000100EE96E18CA1AFA17CA19FA69DD0D0E2A
:101700009EA8FED7AD6E0A0E9EA8FED7AD6E0A014A
:1017100000011200D89007014035036ABB0FE96E43
:10172000070E0320EA6E010EEE2601E3EF2AAA510E
:10173000000A000105E0010A06E0030A0DE021D0DD
:10174000F090F0901ED0020E0701AA6FF096F09074
:10175000F086F19A000115D0010E0701AA6FD8900A
:101760004035036ABB0FE96E070E0320EA6EFF0ED9
:10177000EF2602E2EE52ED06F096F090F086F18A46
:10178000000180DDF09058EF00F0D890070140355F
:10179000036ABB0FE96E070E0320EA6E010EEE2608
:1017A00001E3EF2AAA51000A000105E0010A06E060
:1017B000030A0DE021D0F092F0921ED0020E070134
:1017C000AA6FF098F092F088F198000115D0010E00
:1017D0000701AA6FD8904035036ABB0FE96E070E68
:1017E0000320EA6EFF0EEF2602E2EE52ED06F098BD
:1017F000F092F088F188000145DDF09258EF00F09A
:1018000007014051000A000103E0010A49E08FD0BE
:10181000D89007014035036A6A0FE96E070E03206E
:10182000EA6EECCF11FAED52EFCF10FA0A01102D4B
:101830000FD011530DE1036A07014051CB0FE96E40
:10184000070E0320EA6E000E81B8010EEF6E0A014A
:10185000D89007014035036A6A0FE96E070E03202E
:10186000EA6EECCF11FAED52EFCF10FA0A011051E7
:10187000020814E1115312E1036A07014051CB0F32
:10188000E96E070E0320EA6E000E81B8010E0A0110
:10189000126F000E81B2010E1215EF6E000147D0DB
:1018A000D89007014035036A6A0FE96E070E0320DE
:1018B000EA6EECCF11FAED52EFCF10FA0A01102DBB
:1018C0000FD011530DE1036A07014051CB0FE96EB0
:1018D000070E0320EA6E000E81BA010EEF6E0A01B8
:1018E000D89007014035036A6A0FE96E070E03209E
:1018F000EA6EECCF11FAED52EFCF10FA0A01105157
:10190000020814E1115312E1036A07014051CB0FA1
:10191000E96E070E0320EA6E000E81BA010E0A017D
:10192000126F000E81B4010E1215EF6E00013EEF32
:101930000DF0F90EB36EC00EB26ED89007014035AF
:10194000036A8E0FE96E070E0320EA6E010EEE2683
:1019500001E3EF2AD8904035036A8E0FE96E070E37
:101960000320EA6EECCF11FAED52EFCF10FAD890C7
:101970004035036A4A0FE96E070E0320EA6EECCF8A
:1019800003F0ED52EFCF01F003500A01115DD8A032
:1019900076D004E10150105DD8A071D0070140510C
:1019A000040DF350036AA20FE96E070E0320EA6EDE
:1019B000010EEE26000EEE22EE22ED22D8904035EA
:1019C000036A9A0FE96E070E0320EA6E010EEE26F7
:1019D00001E3EF2AD8904035036A8E0FE96E070EB7
:1019E0000320EA6EEC6AED52EF6A405302E1907810
:1019F00030D08D78D8904035036A860FE96E070E97
:101A00000320EA6EECCF11FAED52EFCF10FA0A0183
:101A1000105312E1115310E1D89007014035036AC9
:101A2000B30FE96E070E0320EA6EFF0EEF2602E207
:101A3000EE52ED060ED00A01D89007014035036A38
:101A4000B30FE96E070E0320EA6E010EEE2601E3E6
:101A5000EF2AD8904035036A660FE96E070E03201F
:101A6000EA6EECCF11FAED52EFCF10FA0A011051E5
:101A7000030805E1115303E10001C2D60A01A19256
:101A8000A192000158EF00F0404C50432C254C75BA
:101A90002C254C640D0A0000404D4D452C25752C1D
:101AA000254C642C254C752C254C752C254C642C10
:101AB000254C640D0A0056414C56452053544F5056
:101AC00020254C752C254C750D0A0000696E643A72
:101AD0002575202F207068613A25750D0A00405247
:101AE0004543202D20686F6D696E67207379726998
:101AF0006E676520616E6420616C69676E696E67F0
:101B00002076616C766520746F20706F727420315E
:101B10000D0A00002C73657269616C2077616B653A
:101B20002D75702C534420696E697469616C697AF3
:101B300065640D0A0000405253540D0A00004057DE
:101B400044540D0A00002C72657374617274206332
:101B5000617573652C57442074696D652D6F7574BC
:101B60000D0A0000405744530D0A00002C726573A3
:101B7000746172742063617573652C5744206672BA
:101B80006F6D20736C6565700D0A0000404E5055F6
:101B90000D0A00002C6964235B254C755D2C706F69
:101BA000776572206170706C6965642C534420699C
:101BB0006E697469616C697A65640D0A000040524F
:101BC00053540D0A00002C726573746172742063A3
:101BD000617573652C726573657420696E737472B8
:101BE000756374696F6E0D0A000040424F520D0A12
:101BF00000002C7265737461727420636175736583
:101C00002C62726F776E2D6F75740D0A0000404D57
:101C100052530D0A00002C72657374617274206354
:101C2000617573652C4D434C522066726F6D207345
:101C30006C6565700D0A0000404D52520D0A00009F
:101C40002C726573746172742063617573652C4DB9
:101C5000434C52207768656E2072756E6E696E67B0
:101C60000D0A00004E4F33004E4F3200504F3400EB
:101C70004E48340053694F000000404445545B2FE8
:101C800025755D5B25635D4152475B254C755D0D98
:101C90000A002074696D652D6F757400206461748D
:101CA0006120746F6F2073686F72740020646174B8
:101CB0006120746F6F206C6F6E6700002C64657418
:101CC0006563746F725B25735D2C6C656E5B257547
:101CD0005D00405254592C25750D0A002C73746117
:101CE00072742068656174696E672C7461726765CF
:101CF000745B254C755D2C61637475616C5B254C60
:101D0000755D2C72656164696E67735B254C755DEA
:101D10000D0A00002C656E642068656174696E6749
:101D20002C7461726765745B254C755D2C616374FE
:101D300075616C5B254C755D2C72656164696E67BD
:101D4000735B254C755D0D0A00004E4F33004E4FFE
:101D50003200504F34004E48340053694F000000A9
:101D6000404441432C254C752C254C752C00405388
:101D700041522C312C254C752C004056414C2000F2
:101D80004056414C20004056414C20004056414CAA
:101D9000200040534F4C5B2F315D5B735D5B254CE6
:101DA000755D0D0A00002F3173254C750D004053F1
:101DB0004F4C5B2F315D5B635D5B25755D0D0A00EC
:101DC0002F316325750D00002F31733235360D002C
:101DD00028493073292C254C752C28493173292C1E
:101DE000254C752C284162732D73292C25312E34F6
:101DF000672C28493074292C254C752C28493174BE
:101E0000292C254C752C284162732D74292C2531E1
:101E10002E34672C28493072292C254C752C2849E2
:101E20003172292C254C752C284162732D72292C76
:101E300025312E346700404162732C4E4F332C25E0
:101E4000730D0A0028493073292C254C752C28491C
:101E50003173292C254C752C284162732D73292C44
:101E600025312E34672C28493074292C254C752CAB
:101E700028493174292C254C752C284162732D7406
:101E8000292C25312E34672C28493072292C254CD9
:101E9000752C28493172292C254C752C28416273E8
:101EA0002D72292C25312E346700404162732C4E4F
:101EB0004F322C25730D0A0028493073292C254CEC
:101EC000752C28493173292C254C752C28416273B7
:101ED0002D73292C25312E34672C28493074292C58
:101EE000254C752C28493174292C254C752C2841FA
:101EF00062732D74292C25312E34672C28493072B9
:101F0000292C254C752C28493172292C254C752CEF
:101F1000284162732D72292C25312E3467004041EF
:101F200062732C504F342C25730D0A0028493073EE
:101F3000292C254C752C28493173292C254C752CBE
:101F4000284162732D73292C25312E34672C2849A2
:101F50003074292C254C752C28493174292C254C9A
:101F6000752C284162732D74292C25312E34672C51
:101F700028493072292C254C752C28493172292C7E
:101F8000254C752C284162732D72292C25312E3455
:101F90006700404162732C4E48342C25730D0A00B3
:101FA00028493073292C254C752C28493173292C4C
:101FB000254C752C284162732D73292C25312E3424
:101FC000672C28493074292C254C752C28493174EC
:101FD000292C254C752C284162732D74292C253110
:101FE0002E34672C28493072292C254C752C284911
:101FF0003172292C254C752C284162732D72292CA5
:1020000025312E346700404142532C53694F2C2513
:10201000730D0A004E4F33004E4F3200504F3400C4
:102020004E48340053694F000000286D292C253399
:102030002E33672C2863292C25332E336700284341
:1020400073292C25332E33670D0A000040434F4E71
:102050002C4E4F332C25730D0A00286D292C253367
:102060002E33672C2863292C25332E336700284311
:1020700073292C25332E33670D0A000040434F4E41
:102080002C504F342C25730D0A00286D292C253334
:102090002E33672C2863292C25332E3367002843E1
:1020A00073292C25332E33670D0A000040434F4E11
:1020B0002C4E48342C25730D0A00286D292C25330D
:1020C0002E33672C2863292C25332E3367002843B1
:1020D00073292C25332E33670D0A000040434F4EE1
:1020E0002C53694F2C25730D0A004E4F3300504F6F
:1020F00034004E48340053694F0000004D454D4FA9
:102100005259204F564552464C4F57204552524F38
:10211000522040204C696E65203A254C750A0D000E
:102120000D0A3A000D0A5741524E494E473A20498E
:102130004E56414C494420434F4D4D414E44204959
:102140004E204D4143524F210D0A00004261642050
:10215000636F6D6D616E64206174206C696E653AA9
:1021600020254C64200D0A00506C65617365207257
:10217000652D75706C6F6164206D6163726F000016
:10218000497465726174696F6E73206C6566743A28
:1021900020254C750D0A00002C6D6163726F5B2564
:1021A000755D2C73746172740D0A0000404D434CD0
:1021B0005B25635D5B254C755D0D0A00404C4E450B
:1021C0000D0A00004052554E0D0A000040424144A5
:1021D0000D0A000040542F4F0D0A00004045525296
:1021E0000D0A000040454E440D0A000040484C5482
:1021F0000D0A00002C6D6163726F5B25755D2C7399
:1022000074617475735B25635D2C6C696E655B2509
:102210004C755D0D0A004052756E6E696E67202523
:1022200063254C75200D0A00404D6163726F2025B7
:1022300030344C75206F66202530344C750D0A0003
:10224000404C4E450D0A00004052554E0D0A00000C
:10225000404241440D0A000040542F4F0D0A000037
:10226000404552520D0A000040454E440D0A000000
:102270002C6175746F2D73616D706C652C73616D5D
:10228000706C655B254C755D2C73746172740D0AFE
:1022900000002C6175746F2D73616D706C652C730B
:1022A000616D706C655B254C755D2C636F6D706C3A
:1022B0006574650D0A002C6175746F2D73616D7006
:1022C0006C652C73616D706C655B254C755D2C6560
:1022D00072726F720D0A00002C6175746F2D73613C
:1022E0006D706C652C73616D706C655B254C755DF4
:1022F0002C6D61782073616D706C65730D0A000040
:102300002C6175746F2D73616D706C652C73616DCC
:10231000706C655B254C755D2C73746172740D0A6D
:1023200000002C6175746F2D73616D706C652C737A
:10233000616D706C655B254C755D2C636F6D706CA9
:102340006574650D0A002C6175746F2D73616D7075
:102350006C652C73616D706C655B254C755D2C73C1
:10236000746172740D0A00002C6175746F2D7361B5
:102370006D706C652C73616D706C655B254C755D63
:102380002C636F6D706C6574650D0A002C6175743B
:102390006F2D73616D706C652C73616D706C655B16
:1023A000254C755D2C6D61782073616D706C657363
:1023B0000D0A00002C6175746F2D73616D706C6572
:1023C0002C696E697469616C697A650D0A002C6804
:1023D00065616465722C6964235B254C755D2C69AD
:1023E0006E745B254C755D2C6D61785B254C755D5D
:1023F0000D0A00002C6175746F2D73616D706C6532
:102400002C73616D706C655B254C755D2C616C6126
:10241000726D5B25755D0D0A00002C6175746F2D62
:1024200073616D706C652C736C6565700D0A0000CE
:1024300074313A254C752074323A254C750D0A00DA
:10244000404445542C254C750D0A00004E4F332C4A
:1024500025312E35672C25312E35670D0A00504F5A
:10246000342C25312E35672C25312E35670D0A0089
:102470004E48342C25312E35672C25312E35670DED
:102480000A0053694F342C25312E35672C25312E07
:1024900035670D0A00004E4F33286D293A004E4F24
:1024A000332863293A00504F34286D293A00504FA1
:1024B000342863293A004E4834286D293A004E48A2
:1024C000342863293A0053694F34286D293A0000B3
:1024D00053694F342863293A000041726520796FAF
:1024E00075207375726520796F752077616E742021
:1024F000746F2065726173652074686520726177FE
:1025000020646174612066696C653F2059206F7298
:10251000204E210D0A0046696C652064656C657467
:102520006564210A0D004F7065726174696F6E20D9
:1025300063616E63656C6564210D0A0041726520FC
:10254000796F75207375726520796F752077616E6C
:102550007420746F206572617365207468652063F0
:10256000616C63756C61746564206461746120667C
:10257000696C653F2059206F72204E210D0A0000C2
:1025800046696C652064656C65746564210A0D009C
:102590004F7065726174696F6E2063616E63656C04
:1025A0006564210D0A0040494423254C75204925C6
:1025B0004C75204E254C752F254C752058254C7593
:1025C000205525752025342E3277560D0A00404DB2
:1025D0004F543A56414C3D254C75205359523D2598
:1025E0004C640D0A0000405057523A253032752F86
:1025F000253032752F2530327520253032753A2539
:102600003032753A253032750D0A0000405057526D
:102610003A253032752F253032752F25303275200E
:10262000253032753A253032753A253032750D0A2B
:10263000000041254C752049254C75204C254C75D2
:102640002051254C752053254C752025342E32778A
:10265000560D0A00404D4F543A56414C3D254C759D
:10266000205359523D254C640D0A000040505752EA
:102670003A253032752F253032752F2530327520AE
:10268000253032753A253032753A253032750D0ACB
:10269000000049254C75204E254C752F254C752082
:1026A00050254C752025342E3277560D0A00404DAA
:1026B0004F543A5359523D254C640D0A0000405086
:1026C00057523A253032752F253032752F2530324A
:1026D0007520253032753A253032753A25303275FD
:1026E0000D0A000040534D50202530344C750D0A22
:1026F000000040534D50202530344C750D0A000029
:10270000456E746572206461746520666F726D61D8
:102710007420303D4D4D2F44442F59592020313DD8
:1027200044442F4D4D2F59590D0A0000404F4B2165
:102730000D0A2000404552520D0A00004052554EED
:102740000D0A00005B6D6F746F723A315D0D0A0007
:102750005B6D6F746F723A325D0D0A002C45434F0A
:10276000206D6F6465207365740D0A002C574D53FE
:102770002D342D5344206D6F6465207365740D0AEC
:1027800000002C415753206D6F6465207365740DF4
:102790000A002C574D532D342D5145206D6F646523
:1027A000207365740D0A000030362D4A756C2D318A
:1027B000370031353A31303A3431000053454E4418
:1027C000204845582046494C452028313932303080
:1027D0002C4E38312C584F4E2D584F4646290D0A55
:1027E0000000404F4B21200040415247200040490B
:1027F0004E56000040434D4400002C636F6D6D61E8
:102800006E642070726F6D70740D0A00202020209D
:1028100020202020202020202020202020202020B8
:1028200020202020202020202020202020202020A8
:102830002020200040434D4400002C636F6D6D61EB
:102840006E642070726F6D70740D0A004053443DC9
:10285000254C750D0A00404D43312C254C752C2517
:102860004C640D0A0000404D43322C254C752C253C
:102870004C640D0A0000507265737320616E642011
:10288000686F6C642074686520457363206B65799C
:1028900020746F2072657475726E20746F20436FA0
:1028A0006D6D616E64204D6F64650D0A00005265A8
:1028B0007475726E696E6720746F204C6F676769FC
:1028C0006E67204D6F64650D0A008B940C0EBB6E15
:1028D000BE6ABF6A010E9C6EF80E0F012D17000E26
:1028E0002D138B920C0E4E6F516B526B010E1B6FA2
:1028F000C70E2D17000E2D130509CA6E7F0ECB6E65
:1029000000019CEFA5F00B0ED76EDC0ED66EF29494
:10291000F28AD18012002F0E926E370E936E900EB7
:10292000946E200E956E400E966E000E976EE40E1D
:10293000986E400E996E000E9A6E8E968E988E9AB4
:1029400091969184918091829188918C918A8F90B7
:102950008F988F96140E0A01A26F0001C4EC02F04A
:102960008E92909E0401B66B8C848C868C908C9297
:10297000B56B000112009090909290949096909870
:10298000909ABC6A8D908D928D948D968D988D9A2B
:102990000F014F6B8E9C8E9E8E9400011200010ED3
:1029A0004E6EAE509D8A12000801756B746B736B8E
:1029B0007351010820E3080E776F740E766F735120
:1029C0007625016E000E7721036E0150E96E03C07B
:1029D000EAFF72517325786FF2CF79F8F29E636A3D
:1029E00078C862FF7F9C7F9E7F80615079BFF28EA6
:1029F000EF6E732BDDD774C801F075C802F00001CB
:102A000012000801976BF2CF98F8F29E636A96C89D
:102A100062FF7F9C7F9E7F80615098BFF28E976F90
:102A200097C801F00001120008016A6B696B686BBE
:102A3000676B666B6651030824E3080E6C6F670EC4
:102A40006B6F66516B25016E000E6C21036E015099
:102A5000E96E03C0EAFF665164256D6F000E6521C3
:102A60006E6FF2CF6FF8F29E6EC863FF6DC862FFA3
:102A70007F9C7F9E7F8061506FBFF28EEF6E662BD2
:102A8000D9D767C800F068C801F069C802F06AC801
:102A900003F0000112001E0E0801726F000184DFB6
:102AA00002C030F001C02FF01C0E0801726F00014F
:102AB0007BDF02C020F001C01FF0160E0801726F0C
:102AC000000172DF02C022F001C021F0140E0801E3
:102AD000726F000169DF02C024F001C023F0080119
:102AE000726B000161DF02C026F001C025F0180EF4
:102AF0000801726F000158DF02C028F001C027F002
:102B0000020E0801966F00017CDF326A01C031F0CD
:102B1000280E0801966F000174DF346A01C033F09B
:102B2000120E0801726F00013FDF02C036F001C0D3
:102B300035F03A0E0801726F000136DF02C038F03E
:102B400001C037F03C0E0801726F00012DDF02C09A
:102B50003EF001C03DF03E0E0801726F000124DF1F
:102B600002C040F001C03FF0400E0801726F00014A
:102B70001BDF02C042F001C041F0420E0801726F3B
:102B8000000112DF02C044F001C043F0040E08014E
:102B9000966F000136DF01C02DF70801656B440E0A
:102BA000646F000141DF03C0F8F302C0F7F301C016
:102BB000F6F300C0F5F30801656B480E646F000181
:102BC00033DF03C0FCF302C0FBF301C0FAF300C023
:102BD000F9F30801656B4C0E646F000125DF03C03B
:102BE00000F402C0FFF301C0FEF300C0FDF30801D2
:102BF000656B520E646F000117DF03C004F402C05E
:102C000003F401C002F400C001F40801656B560E24
:102C1000646F000109DF03C008F402C007F401C0BB
:102C200006F400C005F40801656B5A0E646F0001DC
:102C3000FBDE03C00CF402C00BF401C00AF400C0B8
:102C400009F40801656B5E0E646F0001EDDE03C0E0
:102C500010F402C00FF401C00EF400C00DF408011E
:102C6000656B620E646F0001DFDE03C014F402C006
:102C700013F401C012F400C011F4200E0801726FA9
:102C8000000192DE02C02AF001C029F0220E0801E4
:102C9000726F000189DE02C02CF001C02BF0240EFF
:102CA0000801726F000180DE02C02EF001C02DF01D
:102CB000B9EFA5F0016A026A006A036A0801BC5113
:102CC00002E1BB5118E0100EBD6FD890B937BA378A
:102CD00000360336BC51035C02E1BB51005C07E3E4
:102CE000BB51005ED8A00306BC51035ED8800136FC
:102CF0000236BD2FEAD700011200860E0801726F5E
:102D0000000152DE02C043F701C042F78A0E0801FB
:102D1000726F000149DE02C047F701C046F78E0E10
:102D20000801726F000140DE02C04BF701C04AF794
:102D3000920E0801726F000137DE02C04FF701C02A
:102D40004EF7960E0801726F00012EDE02C053F797
:102D500001C052F79A0E0801726F000125DE02C011
:102D600057F701C056F79E0E0801726F00011CDE76
:102D700002C05BF701C05AF7A20E0801726F000192
:102D800013DE02C05FF701C05EF7A60E0801726F86
:102D900000010ADE02C063F701C062F7820E08017B
:102DA000726F000101DE02C067F701C066F77E0E98
:102DB0000801726F0001F8DD02C0C0F701C0BFF763
:102DC000AA0E0801726F0001EFDD02C0C4F701C056
:102DD000C3F77A0E0801726F0001E6DD02C06BF7DF
:102DE00001C06AF7760E0801726F0001DDDD02C0D6
:102DF0006FF701C06EF7720E0801726F0001D4DD2B
:102E000002C073F701C072F76E0E0801726F000105
:102E1000CBDD02C097F701C096F7AE0E0801726FC6
:102E20000001C2DD02C077F701C076F7B20E0801DB
:102E3000726F0001B9DD02C0B0F701C0AFF7B60E86
:102E40000801726F0001B0DD02C0B4F701C0B3F732
:102E5000BA0E0801726F0001A7DD02C07BF701C046
:102E60007AF7BE0E0801726F00019EDD02C07FF787
:102E700001C07EF7C20E0801726F000195DD02C02D
:102E800083F701C082F7880E0801726F00018CDDA4
:102E900002C045F701C044F78C0E0801726F0001B3
:102EA00083DD02C049F701C048F7900E0801726F38
:102EB00000017ADD02C04DF701C04CF7940E080105
:102EC000726F000171DD02C051F701C050F7980E1A
:102ED0000801726F000168DD02C055F701C054F7A8
:102EE0009C0E0801726F00015FDD02C059F701C03E
:102EF00058F7A00E0801726F000156DD02C05DF7A1
:102F000001C05CF7A40E0801726F00014DDD02C024
:102F100061F701C060F7A80E0801726F000144DD7F
:102F200002C065F701C064F7840E0801726F0001EA
:102F30003BDD02C069F701C068F7800E0801726FBF
:102F4000000132DD02C0C2F701C0C1F7AC0E0801BA
:102F5000726F000129DD02C0C6F701C0C5F77C0E03
:102F60000801726F000120DD02C06DF701C06CF72F
:102F7000780E0801726F000117DD02C071F701C001
:102F800070F7740E0801726F00010EDD02C075F754
:102F900001C074F7700E0801726F000105DD02C0F8
:102FA00099F701C098F7B00E0801726F0001FCDCC0
:102FB00002C079F701C078F7B40E0801726F000102
:102FC000F3DC02C0B2F701C0B1F7B80E0801726FAE
:102FD0000001EADC02C0B6F701C0B5F7BC0E08017B
:102FE000726F0001E1DC02C07DF701C07CF7C00E0A
:102FF0000801726F0001D8DC02C081F701C080F7C0
:10300000C40E0801726F0001CFDC02C085F701C059
:1030100084F70701406B010E416FA56BA46BA36B96
:10302000A26BA96BA86BA76BA66BBC6BBB6BBE6BD3
:10303000BD6B9B6B9A6B9D6B9C6B9F6B9E6BA16B2F
:10304000A06BB86BB76BBA6BB96B77C7BAF876C7BA
:10305000B9F863C7BCF862C7BBF800012BDED89093
:10306000080101340701AB6F080102340701AC6F9E
:1030700079C7BAF878C7B9F865C7BCF864C7BBF8B0
:10308000000118DED890080101340701AD6F080176
:1030900002340701AE6F0001BBEFA5F00801946B8D
:1030A000945120080AE3036A9451B70FE96E040EA5
:1030B0000320EA6EEF6A942BF3D7000112002F5021
:1030C000020804E1305202E1000E996EE7DF0401CC
:1030D000B66B0001BDEFA5F0F29AD1901200010E7F
:1030E0000801646F645103081DE389882F500208AA
:1030F00003E1305201E1908C200E0A01A26F000121
:10310000C4EC02F089982F50020803E1305201E12B
:10311000909C200E0A01A26F0001C4EC02F008018D
:10312000642BE0D70001C1EFA5F02F50006E3050A6
:10313000036E02E1005211E0035003E1010E005C56
:1031400035E0035003E1020E005C59E0035004E156
:10315000030E005CD8B47CD0A4D0E80EF66E050E49
:10316000F76E000EF86E1B6AF2BE1B8EF29E060E04
:103170000A01196F000127EC08F01BBEF28EF40E55
:10318000F66E050EF76E000EF86E1B6AF2BE1B8E11
:10319000F29E3CEC07F01BBEF28E0D0E9EA8FED7F1
:1031A000AD6E0A0E9EA8FED7AD6EA3D0FC0EF66ED5
:1031B000050EF76E000EF86E1B6AF2BE1B8EF29EB5
:1031C000090E0A01196F000127EC08F01BBEF28EF0
:1031D0000A0EF66E060EF76E000EF86E1B6AF2BE51
:1031E0001B8EF29E3CEC07F01BBEF28E0D0E9EA8CD
:1031F000FED7AD6E0A0E9EA8FED7AD6E7AD0120E27
:10320000F66E060EF76E000EF86E1B6AF2BE1B8E8F
:10321000F29E060E0A01196F000127EC08F01BBE92
:10322000F28E1E0EF66E060EF76E000EF86E1B6A1C
:10323000F2BE1B8EF29E3CEC07F01BBEF28E0D0E12
:103240009EA8FED7AD6E0A0E9EA8FED7AD6E51D0D9
:10325000260EF66E060EF76E000EF86E1B6AF2BEB4
:103260001B8EF29E090E0A01196F000127EC08F06F
:103270001BBEF28E340EF66E060EF76E000EF86E62
:103280001B6AF2BE1B8EF29E3CEC07F01BBEF28E58
:103290000D0E9EA8FED7AD6E0A0E9EA8FED7AD6E8F
:1032A00028D03C0EF66E060EF76E000EF86E1B6A06
:1032B000F2BE1B8EF29E060E0A01196F000127EC6A
:1032C00008F01BBEF28E480EF66E060EF76E000E6C
:1032D000F86E1B6AF2BE1B8EF29E3CEC07F01BBE22
:1032E000F28E0D0E9EA8FED7AD6E0A0E9EA8FED7DA
:1032F000AD6EC3EFA5F0CCC8CDF80801CD39006E96
:103300000F0E001600500A0DF3CFCCF8CD39006E29
:10331000F00E00160050003A0F0E00160050CC2799
:10332000CCC801F0000112000801CB6BC69A210E37
:10333000C66E400EC76E9190C950C96AC730FEE391
:10334000C9CFCBF8C950CBC8C9FFC730FEE3C9CF3E
:103350002CF7C950CBC8C9FFC730FEE3C9CF25F74A
:10336000C950CBC8C9FFC730FEE3C9CF26F7C95043
:10337000CBC8C9FFC730FEE3C9CF27F7C950CBC8B8
:10338000C9FFC730FEE3C9CF28F7C950CBC8C9FF72
:10339000C730FEE3C9CF29F7C950CBC8C9FFC73032
:1033A000FEE3C9CF2AF7C950CBC8C9FFC730FEE337
:1033B000C9CF2BF7918025C7CCF800019CDF01C055
:1033C00025F726C7CCF897DF01C026F727C7CCF82A
:1033D00092DF01C027F729C7CCF88DDF01C029F79C
:1033E0002AC7CCF888DF01C02AF72BC7CCF883DFC7
:1033F00001C02BF71200F250006EF29E636AA2C861
:1034000062FFA3C861FF7F9C7F9E7F840F01550EE2
:103410007E6EAA0E7E6E7F827FB2FED77F940050B2
:10342000F2120001120025C73FF726C73EF727C753
:103430003DF729C73BF72AC73AF72BC73CF7060EDB
:103440000801A26F3AC7A3F80001D5DF080E0801F2
:10345000A26F3BC7A3F80001CEDF0A0E0801A26FDE
:103460003CC7A3F80001C7DF0C0E0801A26F3DC7DF
:10347000A3F80001C0DF0E0E0801A26F3EC7A3F83B
:103480000001B9DF100E0801A26F3FC7A3F80001C9
:10349000B2DFC7EFA5F00801A96BC69A210EC66E70
:1034A000400EC76E9190C9500C0EC96EC730FEE336
:1034B000C9CFA9F8C950A9C8C9FFC730FEE3C9CF11
:1034C00030F791800701309D9190C9508C0EC96EE4
:1034D000C730FEE3C9CFA9F8C95030C7C9FFC7300C
:1034E000FEE3C9CFA9F89180000112000401E66B48
:1034F000010EE56F0A0EE46F010EE36FE26FE16B00
:10350000E06BDF6BDE6B00011200016603D0026628
:1035100002D007D0022A00C0EEFF012EFCD7022EF7
:10352000FAD712000A0E0A010F6F060E0FCA0DFA23
:103530000C6FC950C968C730FEE3C95005CAC9FF3E
:10354000C730FEE3030E0C25E96E000E0D21EA6E76
:10355000EFCF0EFAC9500ECAC9FFC730FEE3020E04
:103560000C25E96E000E0D21EA6EEFCF0EFAC95060
:103570000ECAC9FFC730FEE3010E0C25E96E000E2E
:103580000D21EA6EEFCF0EFAC9500ECAC9FFC7303F
:10359000FEE30CCAE9FF0DCAEAFFEFCF0EFAC950ED
:1035A0000ECAC9FFC730FEE30551480806E1C950FD
:1035B000870EC96EC730FEE305D0C950950EC96E9F
:1035C000C730FEE30A6BC950C968C730FEE3C9CFF4
:1035D0000BFA0B3D0BD00A51630808E30A2BC950C4
:1035E000C968C730FEE3C9CF0BFAF3D70BCA01F0A5
:1035F000000112000901CBBF10D00F0E006ECA39B6
:1036000000160A0E005C03E2300E002602D0CB51F9
:10361000002600509EA8FED7AD6E0F0ECA170A0EE8
:10362000CA5D02E2300E02D0CB9FCB51CA27CA51ED
:103630009EA8FED7AD6E00011200780EF66E060E43
:10364000F76E000EF86E1B6AF2BE1B8EF29E3CEC0B
:1036500007F01BBEF28ED6EF21F00901C96B040101
:10366000E76B91820A0E0A01A26F0001C4EC02F01E
:10367000C69A220EC66E400EC76E9E960901C16B99
:10368000C151090806E3C950C968C730FEE3C12B20
:10369000F7D791921F50040812E1205210E1A00EBA
:1036A000F66E060EF76E000EF86E1B6AF2BE1B8EEB
:1036B000F29E00013CEC07F01BBEF28E0901400EA9
:1036C0000A01056F096B086B076B066B00012ADFA7
:1036D00001C0C2F90901C25101082AE21F500408C1
:1036E00024E1205222E1B00EF66E060EF76E000EB7
:1036F000F86E1B6AF2BE1B8EF29E310E0A01196F24
:10370000000127EC08F01BBEF28EC2C9CAF9570EA1
:103710000901CB6F00016EDF0D0E9EA8FED7AD6EC6
:103720000A0E9EA8FED7AD6E0901C981D7EF21F020
:103730001F50040824E1205222E1E80EF66E060E26
:10374000F76E000EF86E1B6AF2BE1B8EF29E1A0E0A
:103750000A01196F000127EC08F01BBEF28EC2C9E6
:10376000CAF9570E0901CB6F000144DF0D0E9EA868
:10377000FED7AD6E0A0E9EA8FED7AD6E0901480EAB
:103780000A01056F096B086B010E076FAA0E066F21
:103790000001C8DE01C0C2F91F50040823E1205215
:1037A00021E10A0EF66E070EF76E000EF86E1B6A28
:1037B000F2BE1B8EF29E250E0A01196F000127EC46
:1037C00008F01BBEF28EC2C9CAF9570E0901CB6FB1
:1037D000000110DF0D0E9EA8FED7AD6E0A0E9EA84A
:1037E000FED7AD6E0901C22DE8D11F50040812E1C9
:1037F000205210E1340EF66E070EF76E000EF86ED2
:103800001B6AF2BE1B8EF29E00013CEC07F01BBE51
:10381000F28E0901C16BC15103080FE3036AC15164
:10382000C30FE96E090E0320EA6EC950C968C7309C
:10383000FEE3C9CFEFFFC12BEED71F50040839E1DB
:10384000205237E1560EF66E070EF76E000EF86E38
:103850001B6AF2BE1B8EF29E1F0E0A01196F000139
:1038600027EC08F01BBEF28EC3C9CAF9570E090136
:10387000CB6F0001BFDEC4C9CAF9570E0901CB6F77
:103880000001B8DEC5C9CAF9570E0901CB6F0001A6
:10389000B1DEC6C9CAF9570E0901CB6F0001AADE15
:1038A0000D0E9EA8FED7AD6E0A0E9EA8FED7AD6E79
:1038B0000901C52D6DD1C651AA08D8A469D11F50E0
:1038C000040812E1205210E1880EF66E070EF76E22
:1038D000000EF86E1B6AF2BE1B8EF29E00013CECDD
:1038E00007F01BBEF28E09011F50040812E120529E
:1038F00010E1AE0EF66E070EF76E000EF86E1B6A44
:10390000F2BE1B8EF29E00013CEC07F01BBEF28E55
:103910000901C86BC76B770E0A01056F096B086B4D
:10392000076B066B0001FEDD01C0C2F9690E0A01DA
:10393000056F400E096F086B076B066B0001F2DD27
:1039400001C0C2F90901C25328E0C851C30825E3E8
:1039500003E1C7514F0821E36A0E006E002EFED727
:103960000000C72BD8B4C82B770E0A01056F096B6E
:10397000086B076B066B0001D5DD01C0C2F9690E4B
:103980000A01056F400E096F086B076B066B00019B
:10399000C9DD01C0C2F9D6D709011F50040844E1AE
:1039A000205242E1DC0EF66E070EF76E000EF86E46
:1039B0001B6AF2BE1B8EF29E230E0A01196F0001D4
:1039C00027EC08F01BBEF28EC2C9CAF9570E0901D6
:1039D000CB6F00010FDE030EF66E080EF76E000EC1
:1039E000F86E1B6AF2BE1B8EF29E0A0E0A01196F58
:1039F000000127EC08F01BBEF28E100EE96E1B6A68
:103A0000F2BE1B8EF29EC8C91AFAC7C919FAE8ECB1
:103A100008F01BBEF28E0D0E9EA8FED7AD6E0A0EEC
:103A20009EA8FED7AD6E0901C253D8A4B0D07A0EBD
:103A30000A01056F400E096F086B076B066B0001EA
:103A400071DD01C0C2F91F50040823E1205221E1B9
:103A5000140EF66E080EF76E000EF86E1B6AF2BEBC
:103A60001B8EF29E180E0A01196F000127EC08F058
:103A70001BBEF28EC2C9CAF9570E0901CB6F0001F5
:103A8000B9DD0D0E9EA8FED7AD6E0A0E9EA8FED71C
:103A9000AD6E0901C253D8A47AD0C16BC1510308DD
:103AA0000FE3036AC151C30FE96E090E0320EA6EEA
:103AB000C950C968C730FEE3C9CFEFFFC12BEED7AD
:103AC000C3AD05D0050E0401E76F04D00901040E53
:103AD0000401E76F1F50040859E1205257E1320EEC
:103AE000F66E080EF76E000EF86E1B6AF2BE1B8EA5
:103AF000F29E1F0E0A01196F000127EC08F01BBE91
:103B0000F28E100EE96E1B6AF2BE1B8EF29EC8C9C1
:103B10001AFAC7C919FAE8EC08F01BBEF28E540E67
:103B2000F66E080EF76E000EF86E1B6AF2BE1B8E64
:103B3000F29E080E0A01196F000127EC08F01BBE67
:103B4000F28EC3C9CAF9570E0901CB6F000152DDCD
:103B5000C4C9CAF9570E0901CB6F00014BDDC5C9B5
:103B6000CAF9570E0901CB6F000144DDC6C9CAF975
:103B7000570E0901CB6F00013DDD0D0E9EA8FED74B
:103B8000AD6E0A0E9EA8FED7AD6E0401090115D0D8
:103B90001F50040812E1205210E1700EF66E080E5C
:103BA000F76E000EF86E1B6AF2BE1B8EF29E0001CD
:103BB0003CEC07F01BBEF28E09010401E753D8A4C8
:103BC00067D21F50040812E1205210E1A20EF66ED7
:103BD000080EF76E000EF86E1B6AF2BE1B8EF29E88
:103BE00000013CEC07F01BBEF28E0401400E0A01FE
:103BF000056F096B086B076B066B000193DC01C056
:103C0000C2F91F50040823E1205221E1E20EF66EB2
:103C1000080EF76E000EF86E1B6AF2BE1B8EF29E47
:103C20001C0E0A01196F000127EC08F01BBEF28E72
:103C3000C2C9CAF9570E0901CB6F0001DBDC0D0EBA
:103C40009EA8FED7AD6E0A0E9EA8FED7AD6E0901E6
:103C5000C22D01D005D0C25303E0C981D7EF21F0B6
:103C6000C86BC76B410E0A01056F096B086B076BC8
:103C7000066B000157DC01C0C2F90901C25304E020
:103C8000350E006E002EFED7C72BD8B4C82BC253FA
:103C900007E0C851C30804E3E5E1C7514F08E2E279
:103CA0001F50040844E1205242E1060EF66E090E50
:103CB000F76E000EF86E1B6AF2BE1B8EF29E280E87
:103CC0000A01196F000127EC08F01BBEF28EC2C971
:103CD000CAF9570E0901CB6F00018CDC320EF66E6B
:103CE000090EF76E000EF86E1B6AF2BE1B8EF29E76
:103CF0000A0E0A01196F000127EC08F01BBEF28EB4
:103D0000100EE96E1B6AF2BE1B8EF29EC8C91AFA2B
:103D1000C7C919FAE8EC08F01BBEF28E0D0E9EA87A
:103D2000FED7AD6E0A0E9EA8FED7AD6E0901C25336
:103D300002E0C9813CD3770E0A01056F096B086B5D
:103D4000076B066B000192EC1AF001C0C2F91F501C
:103D5000040823E1205221E1420EF66E090EF76EAF
:103D6000000EF86E1B6AF2BE1B8EF29E430E0A0115
:103D7000196F000127EC08F01BBEF28EC2C9CAF908
:103D8000570E0901CB6F000135DC0D0E9EA8FED742
:103D9000AD6E0A0E9EA8FED7AD6E0901C25305E0B6
:103DA000020E0401E76FFED00901690E0A01056FDA
:103DB000096B086B076B066B000192EC1AF001C0EF
:103DC000C2F90901C251010805E3030E0401E76FBE
:103DD000E9D009011F5004082FE120522DE18C0E7B
:103DE000F66E090EF76E000EF86E1B6AF2BE1B8EA1
:103DF000F29E2E0E0A01196F000127EC08F01BBE7F
:103E0000F28EC2C9CAF9370E0901CB6F0001FAEC74
:103E10001AF0BE0EF66E090EF76E000EF86E1B6AF3
:103E2000F2BE1B8EF29E190E0A01196F000127ECDB
:103E300008F01BBEF28E0901400E0A01056F096BE6
:103E4000086B076B066B000192EC1AF001C0C2F917
:103E50000901C22D01D036D0C25334E01F500408EE
:103E60002FE120522DE1D80EF66E090EF76E000EEE
:103E7000F86E1B6AF2BE1B8EF29E2C0E0A01196FA1
:103E8000000127EC08F01BBEF28EC2C9CAF9370E3A
:103E90000901CB6F0001FAEC1AF0080EF66E0A0E5B
:103EA000F76E000EF86E1B6AF2BE1B8EF29E0B0EB2
:103EB0000A01196F000127EC08F01BBEF28E090100
:103EC000C98175D2C86BC76B410E0A01056F096BBA
:103ED000086B076B066B000192EC1AF001C0C2F987
:103EE0000901C25304E0350E006E002EFED7C72B29
:103EF000D8B4C82BC25307E0C851C30804E3E4E1B7
:103F0000C7514F08E1E2C2534AE01F50040845E19F
:103F1000205243E1140EF66E0A0EF76E000EF86E94
:103F20001B6AF2BE1B8EF29E4A0E0A01196F000137
:103F300027EC08F01BBEF28EC2C9CAF9370E090180
:103F4000CB6F0001FAEC1AF0620EF66E0A0EF76EF5
:103F5000000EF86E1B6AF2BE1B8EF29E0A0E0A015C
:103F6000196F000127EC08F01BBEF28E100EE96EEF
:103F70001B6AF2BE1B8EF29EC8C91AFAC7C919FA8B
:103F8000E8EC08F01BBEF28E0D0E9EA8FED7AD6EBB
:103F90000A0E9EA8FED7AD6E0901C98108D2020E95
:103FA0000401E76F1F50040812E1205210E1720E65
:103FB000F66E0A0EF76E000EF86E1B6AF2BE1B8ECE
:103FC000F29E00013CEC07F01BBEF28E0401500E85
:103FD0000A01056F096B086B020E076F066B000183
:103FE00092EC1AF001C0C2F90901C751500803E16F
:103FF000C851C30803E0C25101084BE20401E76B5A
:104000001F50040845E1205243E18E0EF66E0A0E61
:10401000F76E000EF86E1B6AF2BE1B8EF29E2B0E20
:104020000A01196F000127EC08F01BBEF28EC2C90D
:10403000CAF9570E0901CB6F0001FAEC1AF0BD0E58
:10404000F66E0A0EF76E000EF86E1B6AF2BE1B8E3D
:10405000F29E0A0E0A01196F000127EC08F01BBE40
:10406000F28E100EE96E1B6AF2BE1B8EF29EC8C95C
:104070001AFAC7C919FAE8EC08F01BBEF28E0D0E49
:104080009EA8FED7AD6E0A0E9EA8FED7AD6E0401A7
:1040900009010401E75319E11F50040812E12052FD
:1040A00010E1CE0EF66E0A0EF76E000EF86E1B6A69
:1040B000F2BE1B8EF29E00013CEC07F01BBEF28E9E
:1040C00004010901C98173D10401E751020A000109
:1040D00007E0010A19E0070A2BE0010A3DE050D091
:1040E0001F50040810E120520EE1EE0EF66E0A0E8B
:1040F000F76E000EF86E1B6AF2BE1B8EF29E3CEC51
:1041000007F01BBEF28E67D01F50040810E120524A
:104110000EE1040EF66E0B0EF76E000EF86E1B6AC3
:10412000F2BE1B8EF29E3CEC07F01BBEF28E53D00B
:104130001F50040810E120520EE11A0EF66E0B0E0D
:10414000F76E000EF86E1B6AF2BE1B8EF29E3CEC00
:1041500007F01BBEF28E3FD01F50040810E1205222
:104160000EE1300EF66E0B0EF76E000EF86E1B6A47
:10417000F2BE1B8EF29E3CEC07F01BBEF28E2BD0E3
:104180001F50040824E1205222E1460EF66E0B0E69
:10419000F76E000EF86E1B6AF2BE1B8EF29E260EA4
:1041A0000A01196F000127EC08F01BBEF28EE7C46C
:1041B000CAF9370E0901CB6F0001FAEC1AF00D0EA7
:1041C0009EA8FED7AD6E0A0E9EA8FED7AD6E090161
:1041D000C981EDD000010901C9911F5004082BE1EC
:1041E000205229E1740EF66E0B0EF76E000EF86E7B
:1041F0001B6AF2BE1B8EF29E2E0E0A01196F000181
:1042000027EC08F01BBEF28E100EE96E1B6AF2BEA0
:104210001B8EF29EC8C91AFAC7C919FAE8EC08F051
:104220001BBEF28E0D0E9EA8FED7AD6E0A0E9EA886
:10423000FED7AD6E09019182C69A200EC66E400E61
:10424000C76E9E9691921F50040812E1205210E111
:10425000A80EF66E0B0EF76E000EF86E1B6AF2BE1D
:104260001B8EF29E00013CEC07F01BBEF28E090192
:10427000C86BC76B410E0A01056F096B086B076BB2
:10428000066B000192EC1AF001C0C2F90901C25399
:1042900004E0350E006E002EFED7C72BD8B4C82B15
:1042A000C25307E0C851C30804E3E4E1C7514F0813
:1042B000E1E2C2534AE01F50040845E1205243E1C5
:1042C000C80EF66E0B0EF76E000EF86E1B6AF2BE8D
:1042D0001B8EF29E260E0A01196F000127EC08F0D2
:1042E0001BBEF28EC2C9CAF9370E0901CB6F00019D
:1042F000FAEC1AF0F20EF66E0B0EF76E000EF86E78
:104300001B6AF2BE1B8EF29E0A0E0A01196F000193
:1043100027EC08F01BBEF28E100EE96E1B6AF2BE8F
:104320001B8EF29EC8C91AFAC7C919FAE8EC08F040
:104330001BBEF28E0D0E9EA8FED7AD6E0A0E9EA875
:10434000FED7AD6E0901C98132D01F5004082BE1A0
:10435000205229E1020EF66E0C0EF76E000EF86E7A
:104360001B6AF2BE1B8EF29E250E0A01196F000118
:1043700027EC08F01BBEF28E100EE96E1B6AF2BE2F
:104380001B8EF29EC8C91AFAC7C919FAE8EC08F0E0
:104390001BBEF28E0D0E9EA8FED7AD6E0A0E9EA815
:1043A000FED7AD6E090100011DEF1BF009019182DE
:1043B000C9C901F000011200500E0A01056F04CABC
:1043C00009FA03CA08FA02CA07FA01CA06FA000182
:1043D00092EC1AF0015003E0400A0CE00ED004CA3F
:1043E000ECF403CAEBF402CAEAF401CAE9F4010EE0
:1043F000016E05D0000E016E02D0000E016E71EF4D
:1044000022F0C950C968C730FEE3C9CF09FA0A01D2
:10441000086B076B0851270814E303E107510F08E5
:1044200010E3093D0ED0350E006E002EFED7C950A8
:10443000C968C730FEE3C9CF09FA072BD8B4082BE7
:10444000E9D70951FE0807E0095302E1FE0E096FA2
:1044500009CA01F02BD0086B076B065309E105531D
:1044600007E10851045D14E303E10351075D10E225
:1044700001510725E96E02510821EA6EC950C96849
:10448000C730FEE3C9CFEFFF072BD8B4082BE5D721
:10449000C950C968C730FEE3C950C968C730FEE3D8
:1044A000C950C968C730FEE3000E016E000112005A
:1044B0000401EDA103D0030E016E99D00A01005151
:1044C000010802E3005305E1040E016E04018FD0E0
:1044D0000A019192046B036B020E026F016B0001E3
:1044E0006BD7015206E19182010E016E04017FD06B
:1044F00000010401E75105080DE0D890FEC9FFF95D
:10450000FDC9FEF9FCC9FDF90901FC6BFD37FE3759
:10451000FF3704010A01002D2BD0510E056FFFC992
:1045200009FAFEC908FAFDC907FAFCC906FA000132
:1045300092EC1AF0015206E09182040E016E040121
:1045400056D00001FBC902FAFAC901FA0A01066B4A
:10455000056B020E046F036B000153DF015206E08E
:104560009182010E016E040142D000013CD00A018B
:10457000520E056FFFC909FAFEC908FAFDC907FA0C
:10458000FCC906FA000192EC1AF0015206E0918291
:10459000040E016E04012BD00001FBC902FAFAC916
:1045A00001FA0A01066B056B020E046F036B000132
:1045B00028DF015206E09182010E016E040117D03E
:1045C0000001020E0901FB270A010007D8B402D03E
:1045D0000001E3D74C0E056F096B086B076B066B88
:1045E000000192EC1AF09182000E016E04010001AC
:1045F0001200C8C9CEF9C7C9CDF9CAC9D0F9C9C90D
:10460000CFF90901CC5303E1CB51000830E2CDC909
:10461000E9FFCEC9EAFFEFCFD1F9D0C903F0CFC986
:10462000E9FFD0C9EAFFEF50D15D16E0CEC903F033
:10463000CDC9E9FF03C0EAFFEFCFD1F9D0C903F03C
:10464000CFC9E9FFD0C9EAFFEF50D15D02E2FF0E0A
:1046500001D0010E016E0DD0CD2BD8B4CE2BCF2BB7
:10466000D8B4D02BCB51D8B4CC07CB07CBD7000EC6
:10467000016E00011200240E07011225016E000ECA
:104680001321036E01C0C5F90901C66FEA6E01C0AE
:10469000E9FF006A020E026E016A000185EC1AF061
:1046A000240E07011225016E000E1321036E01C0B6
:1046B000C5F90901C66FFB6F01C0FAF9C4C9FFF95A
:1046C000C3C9FEF9C2C9FDF9C1C9FCF9010E0A014D
:1046D000006F0001EDDE0152D8A477D0220E070151
:1046E0001225016E020E1321036E01C0E9FFEA6E6E
:1046F000ECCFC6F9ED52EFCFC5F90901C551550808
:1047000065E1C651AA0862E15A0E07011225016E41
:10471000000E1321036E01C0C5F90901C66FC86FF1
:1047200001C0C7F9070ECA6F140EC96FCC6B050E16
:10473000CB6F00015EDF015203E1010E016E49D033
:104740005A0E07011225016E000E1321036E01C0DF
:10475000C5F90901C66FC86F01C0C7F9070ECA6F56
:10476000190EC96FCC6B050ECB6F000142DF0152F1
:1047700003E1020E016E2DD0760E07011225016EA7
:10478000000E1321036E01C0C5F90901C66FC86F81
:1047900001C0C7F9070ECA6F1E0EC96FCC6B050E9C
:1047A000CB6F000126DF015210E14C0E07011225EC
:1047B000E96E000E1321EA6EEF52D8B402D0000168
:1047C00004D0030E016E000104D00901000E016E39
:1047D000000112000901DC6BDD6B010EDE6FDA6A8D
:1047E000D96A090EE16FD40EE06F090EEA6ED80E99
:1047F000E96EE1C9E2FFE0C9E1FFDEC9DFF9D89067
:10480000E550EE02F350DC23F450DD23DF2FF7D721
:10481000DCC9DEFFDDC9DCF9DD6BD8B0DD2BE02BB8
:10482000D8B4E12BDE2BDE510508DFE100011200D8
:1048300007011251131103E10B0E016EC6D213C70B
:10484000EAFF12C7E9FF006A020E026E240E016E33
:10485000000185EC1AF02DEC1BF001C0EDF4040111
:10486000EDA106D000012DEC1BF001C0EDF4040118
:10487000EDA105D0010E016E0701A7D204010901C7
:10488000B86BB76BB66BB56BB8C9C4F9B7C9C3F928
:10489000B6C9C2F9B5C9C1F90001EDDE01C0B4F96C
:1048A0000901B45337E1E60E07011225E96E010E46
:1048B0001321EA6EEF521EE0EA0E1225016E010E80
:1048C000132101C0E9FFEA6EEFCFB5F9ECCFB6F9DD
:1048D000ECCFB7F9ECCFB8F9B8C9C4F9B7C9C3F987
:1048E000B6C9C2F9B5C9C1F90001C5DE01C0B4F944
:1048F00010D007012E0EF66E0C0EF76E000EF86E3D
:104900001B6AF2BE1B8EF29E00013CEC07F01BBE40
:10491000F28E0901B45305E10C0E016E070155D268
:104920000901070112C7E9FF13C7EAFFB4C9EFFF86
:104930000901B451030832E1080E07011225016E86
:10494000000E1321036E01C0C1F90901C26F480EA8
:1049500007011225016E000E132101C0E9FFEA6E66
:10496000EFCF00F0ECCF01F0ECCF02F0ECCF03F092
:1049700003C0C6F902C0C5F901C0C4F900C0C3F93B
:10498000C2C9EAFFC1C9E9FF00C0EFFF01C0ECFFE7
:1049900002C0ECFF03C0ECFF2DD00901080E070197
:1049A0001225016E000E1321036E01C0C1F9090129
:1049B000C26F3A0E07011225016E000E132101C0CD
:1049C000E9FFEA6EECCF03F0ED52EFCFC3F9090136
:1049D00003C0C4F9C2C9EAFFC1C9E9FFEE52EE52F1
:1049E000EC6AED52EF6AED5203C0EFFFED52C3C91E
:1049F000EFFF0701020E1225016E000E1321036E58
:104A0000310E07011225E96E000E1321EA6EEFCF79
:104A1000C3F9090103C0EAFF01C0E9FFC3C9EFFF01
:104A2000030E07011225016E000E1321036E340ED2
:104A300007011225E96E000E1321EA6EEFCFC3F9CC
:104A4000090103C0EAFF01C0E9FFC3C9EFFF100E6F
:104A500007011225016E000E1321036E01C0C1F97A
:104A60000901C26F320E07011225016E000E1321DB
:104A700001C0E9FFEA6EECCF03F0ED52EF500901FF
:104A8000B525006E0350B621016E000EB721026EEF
:104A9000000EB821C2C9EAFFC1C9E9FF00C0EFFF9B
:104AA00001C0ECFF02C0ECFFEC6E040E0701122502
:104AB000016E000E1321036E01C0C1F90901C26F1E
:104AC000350E07011225016E000E132101C0E9FF0A
:104AD000EA6EECCF03F0ED52EFCFC3F90901C2C982
:104AE000EAFFC1C9E9FF03C0ECFFED52C3C9EFFF04
:104AF000080E07011225E96E000E1321EA6EEFCFB2
:104B0000D4F9ECCFD5F9ECCFD6F9ECCFD7F9030E29
:104B10001225E96E000E1321EA6EEFCFD8F90901D4
:104B2000EACFC7F9E9CFC6F9DB6BDA6BD96B0001C5
:104B300051DEC7C9EAFFC6C9E9FF03C0C4F902C014
:104B4000C3F901C0C2F900C0C1F9100E0701122556
:104B5000E96E000E1321EA6EEFCF00F0ECCF01F00A
:104B6000ECCF02F0ECCF03F000500901C125B96F82
:104B70000150C221BA6F0250C321BB6F0350C42140
:104B8000BC6FB451030838E1140E07011225016E01
:104B9000000E1321036E01C0C1F90901C26F500E4E
:104BA00007011225016E000E132101C0E9FFEA6E14
:104BB000EFCF00F0ECCF01F0ECCF02F0ECCF03F040
:104BC000C2C9EAFFC1C9E9FF00C0EFFF01C0ECFFA5
:104BD00002C0ECFF03C0ECFF180E1225E96E000EB8
:104BE0001321EA6EB9C9EFFFBAC9ECFFBBC9ECFFEC
:104BF000BCC9ECFF47D00901140E07011225E96E6C
:104C0000000E1321EA6EB9C9EFFFBAC9ECFFBBC9A8
:104C1000ECFFBCC9ECFF180E1225016E000E13212B
:104C200001C0C1F90901C26F040E07011225E96E26
:104C3000000E1321EA6EECCFC4F9ED52EFCFC3F9A9
:104C40000901C433C333C433C333C433C333C4339C
:104C5000C3330F0EC417C351B925006EC451BA2116
:104C6000016E000EBB21026E000EBC21C2C9EAFF1C
:104C7000C1C9E9FF00C0EFFF01C0ECFF02C0ECFFBB
:104C8000EC6E0701440E1225016E000E132101C0C7
:104C9000E9FFEA6EEFCFBDF9ECCFBEF9ECCFBFF97B
:104CA000ECCFC0F90901BD5317E1BE5315E1BF5365
:104CB00013E1C05311E1370E07011225016E000EFA
:104CC000132101C0E9FFEA6E0901C06BBF6BECCF95
:104CD000BEF9ED52EFCFBDF90C0E07011225016EA2
:104CE000000E1321036E01C0C1F90901C26F180E35
:104CF00007011225E96E000E1321EA6EEFCF00F0D6
:104D0000ECCF01F0ECCF02F0ECCF03F00050090142
:104D1000BD5DC36F0150BE59C46F0250BF59C56F0E
:104D20000350C059C66FB551C327B651C423B751FC
:104D3000C523B851C623020E07011225E96E000EE5
:104D40001321EA6EEFCF29FA0901EACFC9F9E9CFB9
:104D5000C8F9D8921B6AF2BE1B8EF29EC6C928FA09
:104D6000C5C927FAC4C926FAC3C925FA0A012C6B9A
:104D70002B6B2A6B000140EC08F01BBEF28EC9C9F8
:104D8000EAFFC8C9E9FF03C0C6F902C0C5F901C0FE
:104D9000C4F900C0C3F9020E09010024006E000E20
:104DA0000120016E000E0220026E000E0320C2C917
:104DB000EAFFC1C9E9FF00C0EFFF01C0ECFF02C07C
:104DC000ECFFEC6E000E016E0701000112006A0E8E
:104DD000F66E0C0EF76E000EF86E1B6AF2BE1B8E9E
:104DE000F29E3CEC07F01BBEF28E000B0EE07A0E3A
:104DF000F66E0C0EF76E000EF86E1B6AF2BE1B8E7E
:104E0000F29E3CEC07F01BBEF28E080169A110D0A7
:104E1000880EF66E0C0EF76E000EF86E1B6AF2BE70
:104E20001B8EF29E00013CEC07F01BBEF28E0801C7
:104E300069A310D09E0EF66E0C0EF76E000EF86E83
:104E40001B6AF2BE1B8EF29E00013CEC07F01BBEFB
:104E5000F28E08016951030B10E0B20EF66E0C0ED3
:104E6000F76E000EF86E1B6AF2BE1B8EF29E0001FA
:104E70003CEC07F01BBEF28E080169A510D0C40EF1
:104E8000F66E0C0EF76E000EF86E1B6AF2BE1B8EED
:104E9000F29E00013CEC07F01BBEF28E0801695146
:104EA000050B10E0D60EF66E0C0EF76E000EF86EC7
:104EB0001B6AF2BE1B8EF29E00013CEC07F01BBE8B
:104EC000F28E08016951060B10E0EA0EF66E0C0E28
:104ED000F76E000EF86E1B6AF2BE1B8EF29E00018A
:104EE0003CEC07F01BBEF28E08016951070B10E085
:104EF000FA0EF66E0C0EF76E000EF86E1B6AF2BE1E
:104F00001B8EF29E00013CEC07F01BBEF28E0801E6
:104F10006951090B10E0100EF66E0D0EF76E000EC3
:104F2000F86E1B6AF2BE1B8EF29E00013CEC07F08D
:104F30001BBEF28E080169510A0B10E02C0EF66EB2
:104F40000D0EF76E000EF86E1B6AF2BE1B8EF29EFF
:104F500000013CEC07F01BBEF28E080169510B0BFF
:104F600010E0420EF66E0D0EF76E000EF86E1B6A24
:104F7000F2BE1B8EF29E00013CEC07F01BBEF28ECF
:104F8000080169510C0B10E0540EF66E0D0EF76E11
:104F9000000EF86E1B6AF2BE1B8EF29E00013CEC06
:104FA00007F01BBEF28E080100011AEF28F008017D
:104FB000CF6BCF5101082CE3CC51CF25D06F080E19
:104FC000D26FCD0ED16FCF51D125016E000ED221FF
:104FD000036E0150E96E03C0EAFFEFCFD1F8F25043
:104FE000006EF29E636AD0C862FFD1C861FF7F9CE9
:104FF0007F9E7F840F01550E7E6EAA0E7E6E7F828D
:105000007FB2FED77F940050F2120801CF2BD1D788
:10501000000112000801686B6851020812E30001E8
:1050200007DC01C024F70701245305E024C769F811
:105030000001CDD603D0080104D000010801682B7F
:10504000EBD73E0ECC6FCE6B24C7CDF80001AFDF9F
:10505000070124C701F000011200800EF66E060E53
:10506000F76E000EF86E1B6AF2BE1B8EF29E3CECD1
:1050700007F01BBEF28E12001EC0EAFF1DC0E9FF42
:105080000801DDC8EFFFE92AD8B4EA2AEF6A1D2A31
:10509000D8B41E2A000112000900F55210E0F6CF24
:1050A000C9F8F7CFCAF8F8CFCBF8F5CFDDF8E4DFD1
:1050B000C9C8F6FFCAC8F7FFCBC8F8FFEDD7120082
:1050C000020EEA6E990EE96E006A026A1E0E016E09
:1050D00085EC1AF012000801D16BD06BCF6BCE6B50
:1050E000000E016EC250830B0110C26E000E016EE5
:1050F000C150F80B0110C16E010ECB6FCB513208BD
:1051000012E3C282C2B2FED7C3CFD2F8C4CFD3F863
:10511000D46BD56B050E0A01A26F0001C4EC02F03E
:105120000801CB2BEBD7010ECB6FCB51640856E3B4
:10513000C282C2B2FED7C3CFD2F8C4CFD3F8D46BE9
:10514000D56B010ECB5DD66FD1C8D7F9D0C8D6F9D3
:10515000CFC8D5F9CEC8D4F90901DB6BDA6BD96BAE
:10516000D86F0001EAEC23F003C0D9F802C0D8F8E8
:1051700001C0D7F800C0D6F80801D251D627D351C4
:10518000D723D451D823D551D923D8921B6AF2BE44
:105190001B8EF29ED9C828FAD8C827FAD7C826FA93
:1051A000D6C825FA0A012C6B2B6B2A6BCBC829FABF
:1051B000000140EC08F01BBEF28E03C0D1F802C023
:1051C000D0F801C0CFF800C0CEF8050E0A01A26FDA
:1051D0000001C4EC02F00801CB2BA7D7D1C8D7F946
:1051E000D0C8D6F9CFC8D5F9CEC8D4F90901DB6B40
:1051F000DA6BD96B640ED86F0001EAEC23F003C0C0
:10520000D9F802C0D8F801C0D7F800C0D6F8D892B3
:105210001B6AF2BE1B8EF29E03C028FA02C027FA58
:1052200001C026FA00C025FA0A012C6B2B6B010E77
:105230002A6F100E296F000140EC08F01BBEF28EA1
:10524000560E08010024CC6F000E0120CD6FCCC893
:1052500001F0CDC802F00001120001501B6AF2BE3D
:105260001B8EF29ECBC81BFA640E0A011C6F000154
:10527000D2EC07F01BBEF28E00C0CBF80150300E0E
:1052800008E10801CCA30FD0CCB70DD0CCB9200ECB
:1052900004D00801CC97CC99CC81012601C0DDF85F
:1052A0000001EADE08011B6AF2BE1B8EF29ECBC82B
:1052B0001BFA0A0E0A011C6F0001D2EC07F01BBE9C
:1052C000F28E00C0CBF80150300E08E10801CCB7D7
:1052D0000AD0CCA108D0CCB9200E0001012601C013
:1052E000DDF8CADE0801300ECB27CBC8DDF800019F
:1052F000C3DE1200E9500801D06F3B0ED76F9A0E43
:10530000D66FCA0ED56FD46B0A0ED26FCF51D8A408
:10531000D007D882080EEA6ECB0EE96E1B6AF2BE89
:105320001B8EF29ECEC828FACDC827FACCC826FA22
:10533000CBC825FAD7C82CFAD6C82BFAD5C82AFA72
:10534000D4C829FA000140EC08F01BBEF28E0150CF
:10535000005213E10801CF29D25DD8A402D0000188
:105360000CD0D0510CE00F0BD25D01E01EE2D0BF9B
:105370001CD0D0BD04D0200E12D00801D06BCF516C
:10538000D25D0CE100C0D0F82E0EDD6F000174DE9E
:105390000801D0C800F0200ED017000E300E0026F5
:1053A00000C0DDF8000168DE0801D8921B6AF2BE79
:1053B0001B8EF29ED7C828FAD6C827FAD5C826FA77
:1053C000D4C825FA0A012C6B2B6B2A6B0A0E296FA5
:1053D000000140EC08F01BBEF28E03C0D7F802C0FB
:1053E000D6F801C0D5F800C0D4F80801D22F91D763
:1053F0000001120065DE6FDE02C0CAF801C0C9F804
:1054000094EC19F0020E1E6E990E1D6E2AC7CBF891
:10541000010E0801CC6F000120DF2F0E0801DD6FA7
:1054200000012ADE29C7CBF8010E0801CC6F00016C
:1054300014DF2F0E0801DD6F00011EDE2BC7CBF835
:10544000010E0801CC6F000108DF200E0801DD6F9E
:10545000000112DE27C7CBF8010E0801CC6F000156
:10546000FCDE3A0E0801DD6F000106DE26C7CBF830
:10547000010E0801CC6F0001F0DE3A0E0801DD6F6D
:105480000001FADD25C7CBF8010E0801CC6F000141
:10549000E4DE2C0E0801DD6F0001EEDD440EE96E46
:1054A0000801CE6BCD6BCAC8CCF8C9C8CBF8020EC8
:1054B000CF6F00011FDF1200D7C8DBF8D6C8DAF8BB
:1054C000DBC803F00801DAC8E9FFDBC8EAFFEF52E6
:1054D00006E0DA2BD8B4DB2B0001F2D70801D9C8DB
:1054E00003F0D8C8E9FFD9C8EAFFEF5213E0D8C8E3
:1054F000E9FFD9C8EAFFEFCFDEF8DBC8EAFFDAC878
:10550000E9FFDEC8EFFFDA2BD8B4DB2BD82BD8B4F9
:10551000D92BE5D7DAC8E9FFDBC8EAFFEF6AD6C8BE
:1055200001F0D7C802F000011200F29A0400120044
:10553000CF6ACE6A89882F50020803E1305201E118
:10554000908C9E909D80ADEF2AF00B0ED76EDC0EF6
:10555000D66E0400F294F28AEBD712000801CB5108
:10556000000A000103E0010A03E003D0DEDF01D0FE
:10557000ECDF12000401ED93ED95EDC401F00001A4
:10558000120007011251131103E10B0E016E28D016
:105590000001F0DF01A015D0010E07011225E96E10
:1055A000000E1321EA6EEF5204E0090E016E18D0CE
:1055B00006D0000118EC24F00150070111D00ED0E4
:1055C0000001070112C7E9FF13C7EAFFEF5206E126
:1055D000000118EC24F00150070102D0000E016E0A
:1055E00000011200020E0901CD5F000ECE5BCF5B01
:1055F000D05B0C0E07011225E96E000E1321EA6E36
:10560000EFCF00F0ECCF01F0ECCF02F0ECCF03F0E5
:1056100003500901D05D11E30BE10250CF5D0DE3B2
:1056200007E10150CE5D09E303E10050CD5D05E3E4
:10563000006A016A026A036A40D0020E070112255D
:10564000E96E000E1321EA6EEFCFD8F90901EACF17
:10565000D3F9E9CFD2F9D0C9D7F9CFC9D6F9CEC994
:10566000D5F9CDC9D4F9DB6BDA6BD96B0001EAEC63
:1056700023F0D3C9EAFFD2C9E9FF03C0D4F902C0BD
:10568000D3F901C0D2F900C0D1F9180E07011225D3
:10569000E96E000E1321EA6EEFCF00F0ECCF01F0BF
:1056A000ECCF02F0ECCF03F00901D1510026D2512A
:1056B0000122D3510222D451032200011200C6C993
:1056C000EAFFC5C9E9FF200E006E026A0B0E016EEB
:1056D00085EC1AF00901CA6B180ECB6FC76B080E68
:1056E000C86FC3C9E9FFC4C9EAFFECCFCDF9ED52D9
:1056F000EFCFCCF9CCC9E9FFCDC9EAFFEFCFC9F9AB
:10570000C4C903F0C3C9E9FFC4C9EAFF010EEE260C
:1057100001E3EF2AC951200801E3C96BC95306E030
:10572000C9512F0803E0C9515C080FE1C75301E1DB
:1057300070D00B0EC525E96E000EC621EA6ECA5167
:10574000CB15EF6EC9C901F066D0C951200803E23C
:10575000C9517F0801E15DD0C9512E080EE1CAB1DF
:105760000BD0C751000808E2C751080805E3080E2E
:10577000C76F0B0EC86F4CD04CD0C951220801E145
:1057800048D0C951290801E335D0C9512C0801E39B
:1057900040D0C951390801E32DD0C9513F0801E378
:1057A00038D0CAB127D0C9517C0801E132D0C951E3
:1057B0005A0804E2C9515D0801E32BD0C9514008E1
:1057C0000AE2C9515A0807E3C851080803E1CB9718
:1057D000CB5101D0CB99C95160080CE2C9517A086C
:1057E00009E3200EC95FC851080803E1CA87CA51FE
:1057F00001D0CA89CA91C851C75D01E30AD0C75117
:10580000C72BC525E96E000EC621EA6EC9C9EFFF98
:1058100068D7010E016E0001A6EF31F0C30E0A0138
:10582000096F500E086FC950C968C730FEE3350EC6
:10583000006E002EFED7C950C968C730FEE3C9CF3D
:1058400007FA0851D8B409070807073D01D003D06B
:1058500008510911ECE107CA01F0000136EF2CF004
:10586000020E0A01066F056B0001D8D7013C01D07A
:1058700003D0000E016E4DD0C95003CAC9FFC73016
:10588000FEE30A010351FD0841E006CA03F0055199
:10589000D8B406070507031011E002CA03F001514E
:1058A000012BD8B4022BE96E03C0EAFFEFCF07FA51
:1058B000C95007CAC9FFC730FEE3E7D7C950C96856
:1058C000C730FEE3C950C968C730FEE3C950C96894
:1058D000C730FEE3C9CF04FA066B056B0651C30857
:1058E00015E303E105514F0811E3350E006E002E5C
:1058F000FED7C950C968C730FEE3C9CF04FA0453C4
:1059000001E004D0052BD8B4062BE8D7010E016EB8
:10591000000112000401EDA103D0030E016E9BD023
:10592000EDA503D0020E016E96D00A01005305E1E9
:10593000040E016E04018FD00A0191920401E75117
:1059400005080DE0D890FEC9FFF9FDC9FEF9FCC9B4
:10595000FDF90901FC6BFD37FE37FF3704010A0131
:10596000002D1FD0580E056FFFC909FAFEC908FAAD
:10597000FDC907FAFCC906FA000192EC1AF00152BF
:105980000EE1FBC902FAFAC901FAFE0E0A01036F21
:10599000000166DF015203E00A01006B00014ED0F6
:1059A0000A010401E751030B16E0770E0A01056FA7
:1059B000096B086B076B066B000192EC1AF0570E2F
:1059C0000A01056F096B086B076B00CA06FA000134
:1059D00092EC1AF00401590E0A01056FFFC909FA89
:1059E000FEC908FAFDC907FAFCC906FA000192ECE3
:1059F0001AF0015223E1FBC902FAFAC901FAFC0EBE
:105A00000A01036F00012CDF015201E10AD0020EEE
:105A10000901FB270A010007D8B402D00001EBD727
:105A200000010A01026B016BFD0E036F000118DF1C
:105A3000015204E1010E0A01006F00019182C95078
:105A4000C968C730FEE30A01005302E0010E01D02D
:105A5000000E016E040100011200200E0701122544
:105A6000E96E000E1321EA6EEFCFF2F9ECCFF3F9F5
:105A7000ECCFF4F9ECCFF5F90901EE51F25D0AE152
:105A8000EF51F35D07E1F051F45D04E1F151F55D93
:105A9000D8B4EDD0060E07011225E96E000E1321D1
:105AA000EA6EEF52D8B4A7D0240E1225016E000E74
:105AB0001321036E01C0F8F90901F96FFB6F01C0F2
:105AC000FAF9F5C9FFF9F4C9FEF9F3C9FDF9F2C90C
:105AD000FCF9010E0A01006F00011CDF01C0F6F99C
