:0400000032EFD8F013
:08000800046ED8CF05F0E0CF33
:1000100006F00001E9CF0CF0EACF07F0E1CF08F0DD
:10002000E2CF09F0D9CF0AF0DACF0BF0F3CF12F01C
:10003000F4CF13F0FACF14F0F5CF15F0F6CF16F099
:10004000F7CF17F0F8CF18F0FBCF19F000C00EF083
:1000500001C00FF002C010F003C011F0F2AA34EF9B
:1000600000F0F2B46AEF07F09DA03AEF00F09EB006
:100070007FEF07F0A0A240EF00F0A1B27AEF0CF002
:10008000F2A846EF00F0F2B200EF07F0F0A64CEF56
:1000900000F0F0B06BEF0BF0F0A852EF00F0F0B210
:1000A000A6EF0BF09DAA58EF00F09EBA32EF07F0D2
:1000B0000EC000F00FC001F010C002F011C003F03C
:1000C0000CC0E9FF07C0EAFF078E08C0E1FF09C0C6
:1000D000E2FF0AC0D9FF0BC0DAFF12C0F3FF13C062
:1000E000F4FF14C0FAFF15C0F5FF16C0F6FF17C0E5
:1000F000F7FF18C0F8FF19C0FBFF045006C0E0FF6F
:1001000005C0D8FF1000F76A1A0FF66E010EF7222D
:10011000000EF86E0900F55012004E6F2045727205
:100120006F720000F76A380FF66E010EF722000EAC
:10013000F86E0900F5501200494C4C4547414C20DF
:1001400046494C45204E414D4500F76A5E0FF66E1C
:10015000010EF722000EF86E0900F55012004D4511
:10016000444941204E4F5420524541445900F76ABA
:10017000820FF66E010EF722000EF86E0900F550A0
:10018000120046494C45204E4F5420464F554E4490
:100190000000F76AA60FF66E010EF722000EF86E49
:1001A0000900F550120050415448204E4F5420464B
:1001B0004F554E440000F76ACA0FF66E010EF72243
:1001C000000EF86E0900F5501200414343455353A9
:1001D0002044454E49454400F76AEC0FF66E010E87
:1001E000F722000EF86E0900F55012004D45444903
:1001F000412046554C4C0000F76A0C0FF66E020E7B
:10020000F722000EF86E0900F5501200522F572009
:100210004552524F5200F76A2A0FF66E020EF7222D
:10022000000EF86E0900F5501200494E434F52522D
:10023000454354204D45444941204348414E47459C
:100240000000F76A560FF66E020EF722000EF86EE7
:100250000900F550120057524954452050524F544E
:10026000454354454400F76A7A0FF66E020EF722B2
:10027000000EF86E0900F55012004653204E4F5400
:1002800020454E41424C45440000F76A9E0FF66EF1
:10029000020EF722000EF86E0900F55012004E4FC4
:1002A0002046494C4553595354454D00F76AC00FF9
:1002B000F66E020EF722000EF86E0900F5501200DD
:1002C000554E4B4E4F574E204552524F5200F76AF3
:1002D000E20FF66E020EF722000EF86E0900F550DE
:1002E00012000000F76AF80FF66E020EF722000EF9
:1002F000F86E0900F550120058585800F76A100FB0
:10030000F66E030EF722000EF86E0900F55012008B
:100310004E4F3300F76A280FF66E030EF722000ED9
:10032000F86E0900F5501200504F3400F76A400F84
:10033000F66E030EF722000EF86E0900F55012005B
:100340004E483400F76A580FF66E030EF722000E7F
:10035000F86E0900F550120053694F00F76A700FEC
:10036000F66E030EF722000EF86E0900F55012002B
:1003700055726500F76A880FF66E030EF722000EBD
:10038000F86E0900F55012004E4F3200F76AA00FC8
:10039000F66E030EF722000EF86E0900F5501200FB
:1003A00046655F00F76AB80FF66E030EF722000E7F
:1003B000F86E0900F5501200436C5F00F76AD00F29
:1003C000F66E030EF722000EF86E0900F5501200CB
:1003D000536D7000F76AE80FF66E030EF722000EF9
:1003E000F86E0900F550120053746400F76A000FAC
:1003F000F66E040EF722000EF86E0900F55012009A
:10040000436D6200F76A180FF66E040EF722000EB5
:10041000F86E0900F550120054737400F76A300F3B
:10042000F66E040EF722000EF86E0900F550120069
:1004300052626C00F76A480FF66E040EF722000E47
:10044000F86E0900F550120043616C00F76A600F06
:10045000F66E040EF722000EF86E0900F550120039
:10046000466C7300F76A780FF66E040EF722000EE2
:10047000F86E0900F550120055746C00F76A900F81
:10048000F66E040EF722000EF86E0900F550120009
:1004900049307300F76AA80FF66E040EF722000EBB
:1004A000F86E0900F550120049317300F76AC00F69
:1004B000F66E040EF722000EF86E0900F5501200D9
:1004C00049307400F76AD80FF66E040EF722000E5A
:1004D000F86E0900F550120049317400F76AF00F08
:1004E000F66E040EF722000EF86E0900F5501200A9
:1004F00049307200F76A080FF66E050EF722000EFB
:10050000F86E0900F550120049317200F76A200FA9
:10051000F66E050EF722000EF86E0900F550120077
:1005200049307500F76A380FF66E050EF722000E97
:10053000F86E0900F550120049317500F76A500F46
:10054000F66E050EF722000EF86E0900F550120047
:1005500043686B00F76A680FF66E050EF722000E0F
:10056000F86E0900F550120058580000F76A800F25
:10057000F66E050EF722000EF86E0900F550120017
:100580002C2C2C2C2C2C2C0077726974696E670033
:1005900072656164696E6700256C783A20726561E6
:1005A000642025782C2073686F756C642062652048
:1005B00025780A0D0000646F6E650A0D0000454342
:1005C0004F2D322025730D0A000056322E31323560
:1005D0000000574D532D342D53442025730D0A0030
:1005E00056322E31323500004157532D31202573BC
:1005F0000D0A000056322E3132350000574D532D72
:10060000342D51452025730D0A0056322E313235D6
:1006100000005858582D302025730D0A000056321E
:100620002E313235000040494E560D0A000040413F
:1006300052470D0A0000404552520D0A0000404F3B
:100640004B210D0A0000405245530D0A0000405353
:1006500044310D0A00004053445F0D0A0000404D34
:1006600041580D0A00003F404253590D0A004052C4
:1006700044590D0A00004046533A446973636F764B
:100680006572790D0A004046533A556E61626C6599
:1006900020746F20707574206361726420696E200D
:1006A00069646C652073746174652C207265737065
:1006B0006F6E7365203D20253032780D0A0040466C
:1006C000533A436172642069646C652C20726573CF
:1006D000706F6E7365203D20253032780D0A000062
:1006E0004046533A526573706F6E736520746F2085
:1006F0005344207665722032207465737420434D14
:100700004438203D2025780D0A004046533A506F6A
:10071000737369626C65205344763220636172643E
:100720002064657465637465640D0A004046533A3D
:10073000566F6C746167652072616E6765206368CF
:1007400065636B2C206F6372203D20253032782545
:1007500030327825303278253032780D0A00404624
:10076000533A43617264205664642072616E676517
:10077000203D20322E372D332E3620766F6C747349
:100780000D0A00004046533A53656E64696E672057
:1007900041434D44343120636F6D6D616E6420744C
:1007A0006F20534420766572203220636172640D9D
:1007B0000A004046533A526573706F6E7365206647
:1007C000726F6D2073656E64696E672041434D449E
:1007D0003431203D20253032782C2054696D6572EB
:1007E000203D20256C750D0A00004046533A5265A5
:1007F00073706F6E736520746F20434D44353820DD
:100800003D2025780D0A00004046533A53656E742A
:1008100020434D442035382C2054696D6572207674
:10082000616C7565203D20256C752C206F637220EE
:100830003D20253032782530327825303278253009
:1008400032780D0A00004046533A436172642043F7
:10085000414E4E4F5420776F726B20566464207265
:10086000616E6765206F6620322E372D332E36205D
:10087000766F6C74730D0A004046533A4E6F7420C5
:10088000616E2053445343206F72205344484320E9
:10089000636172642C2054657374696E6720666F9F
:1008A000722053442056657231206F72204D4D43A3
:1008B00020436172640D0A004046533A52657370DA
:1008C0006F6E73652066726F6D20474F5F49444CB1
:1008D00045203D20253032780D0A00004046533A2D
:1008E000526573706F6E73652066726F6D2053442E
:1008F0005F434D445F53454E445F4F505F434F4EFF
:1009000044203D20253032782C2054696D657220BA
:100910003D20256C750D0A004046533A41747465BC
:100920006D7074696E6720534476312076657273FA
:100930007573204D4D432049442C20526573706FD0
:100940006E73652066726F6D2053445F434D445F44
:100950004150504C5F434D44203D20253032780DAE
:100960000A004046533A496E76616C6964207265AC
:1009700073706F6E736520746F2053445F41434DF5
:100980004434312C20726573706F6E7365203D2086
:10099000253032582C207265696E697469616C6902
:1009A0007A696E67206173204D4D430D0A00404601
:1009B000533A4661696C656420746F20696E69748E
:1009C00069616C697A65206173204D4D432C2072FA
:1009D0006573706F6E7365203D20253032582C2072
:1009E00065786974696E670D0A004046533A436141
:1009F0007264206661696C656420746F207265732F
:100A0000706F6E6420636F727265636C79206166CB
:100A10007465722053445F434D445F53454E445FB9
:100A20004F505F434F4E442C20726573706F6E734E
:100A300065203D20253032582C2054696D65722088
:100A40003D20256C750D0A004046533A5365747479
:100A5000696E6720626C6F636B206C656E6774688B
:100A60000D0A00004046533A4572726F722073655A
:100A70007474696E6720626C6F636B206C656E675F
:100A800074682C20726573706F6E7365203D20252D
:100A90003032782C2074696D6572203D20256C758C
:100AA0000D0A00004046533A436172642054797045
:100AB0006520446973636F76657279204572726F41
:100AC000720D0A004046533A4D4D43204361726413
:100AD00020666F756E640D0A00004046533A534419
:100AE0007631204361726420666F756E640D0A0072
:100AF0004046533A53445343204361726420666F27
:100B0000756E640D0A004046533A534448432043EF
:100B100061726420666F756E640D0A004046533A38
:100B200043617264205479706520446973636F7601
:100B3000657279204572726F722C20436172642055
:100B40003D20253032580D0A00004046533A43619B
:100B50007264207265736574207375636365737363
:100B6000202D20436D6420746F20526561647920CC
:100B7000636F756E74203D20256C750D0A0040462C
:100B8000533A535049206275732073706565642031
:100B900073657420746F20686967680D0A004046A9
:100BA000533A4361726420616374697661746520AD
:100BB0006661696C7572652C20726573706F6E73F7
:100BC00065203D20253032582C2054696D657220F7
:100BD0003D20256C750D0A004046533A436172640E
:100BE00020616374697661746520737563636573EE
:100BF00073206F6E20617474656D707420256C7540
:100C00000D0A000046415420617420736563746FBF
:100C10007220300D0A005459504520636F6D6D618C
:100C20006E64204552524F520D0A00004046533A1E
:100C30002025730D0A004046533A2025730D0A0003
:100C40002A2A204046533A204552524F520D0A005C
:100C50002020204E6F4572726F720D0A0000202016
:100C6000204D65646961204E6F742052656164791E
:100C70000D0A000020202046696C65204E6F74200C
:100C8000466F756E640D0A00202020496E76616CF7
:100C9000696420506174680D0A00202020496E7636
:100CA000616C6964204E616D650D0A002020204151
:100CB00063636573732044656E6965640D0A0000A3
:100CC0002020204469736B2046756C6C0D0A00006F
:100CD000202020526561642F577269746520457227
:100CE000726F720D0A00202020496E636F72726568
:100CF0006374204D65646961204368616E67650DAA
:100D00000A0020202057726974652050726F746544
:100D1000637465640D0A00002020204E6F74204526
:100D20006E61626C65640D0A00002020204E6F2009
:100D300046696C652053797374656D0D0A006170A6
:100D400070656E643A204653204552524F52206FD0
:100D50006E2066696C655F6F70656E0D0A004046B7
:100D6000533A57726974696E670D0A5B25735D0D9E
:100D70000A004046533A4552524F525B61707065CB
:100D80006E645D0D0A004046533A436C6F73696EA2
:100D9000670D0A00405254433A253032752F000047
:100DA000405254433A253032752F000040414C4D9B
:100DB0003A253032752F000040414C4D3A253032F3
:100DC000752F000040414C4D0D0A00000A011C6BBC
:100DD000C69A210EC66E400EC76E9190C9500F0E76
:100DE000C96EC730FEE3C9CF1CFAC9501CCAC9FF7F
:100DF000C730FEE3C9CF2FF791804994000112005C
:100E000088AE02D0919E01D0918E4980499249A42A
:100E100001D0FDD74984DADF352AD8B4362AF292D8
:100E200058EF00F09EAAFED7ABCF1CF0AECF01F07A
:100E30001CA202D0AB98AB8812000900F55211E059
:100E4000F6CF1DFAF7CF1EFAF8CF1FFAF5509EA87D
:100E5000FED7AD6E1DCAF6FF1ECAF7FF1FCAF8FF08
:100E6000ECD71200AE5049B228D09EAA25D0DADFC6
:100E700001C01CFA0A011C513F0A000105E02E0ABC
:100E800015E00A0A16E018D04A2C08D0C40EF66EF7
:100E90000E0EF76E000EF86ED0DF07D0CC0EF66E99
:100EA0000E0EF76E000EF86EC8DF06D0010E4C6E07
:100EB00003D0326A010E316E02D0F29C9E9A9E9A45
:100EC00058EF00F03F404253590D0A004052445938
:100ED0000D0A00000B0ED76EDC0ED66E0400F294E5
:100EE000F28ACF6ACE6A89882F50020803E1305215
:100EF00001E1908C9E909D80F29458EF00F09D90BF
:100F000089982F50020803E1305201E1909C9E9095
:100F100058EF00F0405B4F5D0D0A000040434D4428
:100F200020746F6F206C6F6E670D0A00405B435D2D
:100F30000D0A000040534C4545500D0A0000404D3D
:100F400045522C254C752C254C750D0A00006D3A28
:100F500025752C257520633A254C752C254C752C50
:100F6000254C750D0A000A012851016A275D03E22C
:100F700027CA00F00CD0006A080E296F2737003608
:100F80002851005CD8B0006E0136292FF7D7000138
:100F90001200015025CA27FA640E0A01286F0001C9
:100FA000E2DF00C025FA0150300E08E10A0126A355
:100FB0000ED026B70CD026B9200E04D00A012697F1
:100FC00026992681012601509EA8FED7AD6E25CA1E
:100FD00027FA0A0E286F0001C6DF00C025FA01506B
:100FE000300E08E10A0126B70BD026A109D026B998
:100FF000200E0001012601509EA8FED7AD6E0A0109
:10100000300E252725519EA8FED7AD6E0001120097
:101010000900F6CF26FAF7CF27FAF8CF28FAF550CD
:101020009EA8FED7AD6E26CAF6FF27CAF7FF28CACC
:10103000F8FF0A01252F01D002D00001E9D70001F5
:101040001200D8B204D00A0EEA6E390EE96E006AB8
:10105000016A026A036A0A01396B3A6B3B6B3C6BAB
:1010600038513711361135112CE0200E3D6FD890D4
:10107000313732373337343739373A373B373C3704
:1010800038513C5D08E137513B5D05E136513A5D31
:1010900002E13551395D0FE33551395F3651D8A042
:1010A000363D3A5F3751D8A0373D3B5F3851D8A025
:1010B000383D3C5FD88000360136023603363D2F7E
:1010C000D6D739CAEFFF3ACAECFF3BCAECFF3CCA9D
:1010D000ECFF00011200E9500A01296F3B0E306F4E
:1010E0009A0E2F6FCA0E2E6F2D6B0A0E2B6FD882A1
:1010F0000A0EEA6E250EE96E28CA34FA27CA33FAB8
:1011000026CA32FA25CA31FA30CA38FA2FCA37FA53
:101110002ECA36FA2DCA35FA000193DF015000526B
:1011200013E10A012B51010AD8A402D000010CD00E
:1011300029510CE00F0B2B5D01E00EE229BF0CD012
:1011400029BD04D0200E03D00A01296B300E0026E1
:1011500000509EA8FED7AD6ED89230CA34FA2FCA7E
:1011600033FA2ECA32FA2DCA31FA386B376B366B26
:101170000A0E356F000165DF03C030FA02C02FFA96
:1011800001C02EFA00C02DFA0A012B2FB0D70001A2
:101190001200EACF2DFAE9CF2CFA0A012639F0091C
:1011A000286F2827E20F296F320F2B6F26510F0B64
:1011B000292729272B27E90F2A6F2A272A272539AC
:1011C0000F0B2A272B272A372B372B1F2B3725517D
:1011D0000F0B2B272837070E276F0A0E2A072B27FE
:1011E000FDE329072A27FDE328072927FDE3270731
:1011F0002827FDE30A0EEA6E270EE96E070E2C156E
:101200002C9DE926000EEA22E9502B0804E1EA5061
:101210000A0801E12C8DEF50006E08E12CBD06D0CC
:101220002CB90CD02CB702D0200E03D02C872C99CF
:10123000300E002600509EA8FED7AD6EEE502CADAD
:10124000E3D700011200D89007013C35036A4A0F2A
:10125000E96E070E0320EA6EECCF1DFAED52EFCFD8
:101260001CFA0A011C53D8A4C3D01D53D8A4C0D063
:10127000D89007013C35036A820FE96E070E032000
:10128000EA6EECCF1DFAED52EFCF1CFA0A011C53A7
:101290004CE11D534AE1D89007013C35036ABB0F6E
:1012A000E96E070E0320EA6EECCF1DFAED52EFCF88
:1012B0001CFAD8903C35036A5A0FE96E070E0320DA
:1012C000EA6EECCF03F0ED52EFCF01F003500A01CC
:1012D0001D5D11E303E101501C5D0DE3D890070192
:1012E0003C35036ABB0FE96E070E0320EA6EEC6A19
:1012F000ED52EF6A0A01D89007013C35036ABB0F33
:10130000E96E070E0320EA6E010EEE2601E3EF2AD6
:10131000D8903C35036A960FE96E070E0320EA6EFB
:10132000EC6AED52EF6A63D00A01D89007013C35B0
:10133000036A820FE96E070E0320EA6EECCF1DFAF6
:10134000ED52EFCF1CFA0A011C2D52D01D5350E173
:10135000D89007013C35036ABB0FE96E070E0320E6
:10136000EA6EECCF1DFAED52EFCF1CFA0A011C53C6
:1013700025E11D5323E1D89007013C35036ABB0FDB
:10138000016E070E03220A0103C01DFAD89007015F
:101390003C35036A5A0FE96E070E0320EA6EECCF64
:1013A00003F0ED52EFCF1EFA0A011DCAEAFF01C099
:1013B000E9FF03C0ECFFED521ECAEFFFD890070112
:1013C0003C35036ABB0FE96E070E0320EA6EFF0E81
:1013D000EF2602E2EE52ED06D8903C35036A960FF6
:1013E000E96E070E0320EA6EEC6AED52EF6A0A011D
:1013F000D89007013C35036A4A0FE96E070E0320B7
:10140000EA6EECCF1DFAED52EFCF1CFA0A011C2D4B
:10141000C3D01D53D8A4C0D0D89007013C35036A6F
:10142000820FE96E070E0320EA6EECCF1DFAED5233
:10143000EFCF1CFA0A011C2D4CD01D534AE1D89065
:1014400007013C35036ABB0FE96E070E0320EA6E05
:10145000ECCF1DFAED52EFCF1CFAD8903C35036A61
:101460005A0FE96E070E0320EA6EECCF03F0ED523F
:10147000EFCF01F003500A011D5D11E303E10150BC
:101480001C5D0DE3D89007013C35036ABB0FE96E84
:10149000070E0320EA6EEC6AED52EF6A0A01D8905B
:1014A00007013C35036ABB0FE96E070E0320EA6EA5
:1014B000010EEE2601E3EF2AD8903C35036A960F21
:1014C000E96E070E0320EA6EEC6AED52EF6A63D014
:1014D0000A01D89007013C35036A820FE96E070EB6
:1014E0000320EA6EECCF1DFAED52EFCF1CFA0A0191
:1014F0001C5352E11D5350E1D89007013C35036A5B
:10150000BB0FE96E070E0320EA6EECCF1DFAED5219
:10151000EFCF1CFA0A011C5325E11D5323E1D8909B
:1015200007013C35036ABB0F016E070E03220A0157
:1015300003C01DFAD89007013C35036A5A0FE96EC3
:10154000070E0320EA6EECCF03F0ED52EFCF1EFA48
:101550000A011DCAEAFF01C0E9FF03C0ECFFED521A
:101560001ECAEFFFD89007013C35036ABB0FE96E36
:10157000070E0320EA6EFF0EEF2602E2EE52ED06A2
:10158000D8903C35036A960FE96E070E0320EA6E89
:10159000EC6AED52EF6A0A011F500408D8A499D0F2
:1015A0002052D8A496D0D89007013C35036A660F24
:1015B000E96E070E0320EA6EECCF1DFAED52EFCF75
:1015C0001CFA0A011C510208D8A483D01D53D8A4C8
:1015D00080D0010E07013C250A011C6F07013C5118
:1015E000040DF350036A9E0FE96E070E0320EA6EA6
:1015F000EFCF1DFAECCF1EFAECCF1FFAECCF20FA9A
:10160000D8903C35036AB70FE96E070E0320EA6EE7
:10161000ECCF22FAED52EFCF21FAD8903C35036A95
:10162000BB0FE96E070E0320EA6EECCF24FAED52F1
:10163000EFCF23FA6D0E9EA8FED7AD6E3A0E9EA890
:10164000FED7AD6E1CCA25FA1B0E0A01266F0001DB
:10165000A0DC2C0E9EA8FED7AD6EA6C725FA1B0EE9
:101660000A01266F000195DC550EF66E0F0EF76E1F
:10167000000EF86E030E0A01256F0001C9DC410E51
:10168000E96E20CA28FA1FCA27FA1ECA26FA1DCAFE
:1016900025FA21DD2C0E9EA8FED7AD6E100EE96E48
:1016A00022CA26FA21CA25FA74DD2C0E9EA8FED77E
:1016B000AD6E100EE96E24CA26FA23CA25FA69DD3A
:1016C0000D0E9EA8FED7AD6E0A0E9EA8FED7AD6E7B
:1016D0000A0100011200D89007013C35036AB70FD8
:1016E000E96E070E0320EA6E010EEE2601E3EF2AF3
:1016F000A651000A000105E0010A06E0030A0DE018
:1017000021D0F090F0901ED0020E0701A66FF09647
:10171000F090F086F19A000115D0010E0701A66F36
:10172000D8903C35036AB70FE96E070E0320EA6EC6
:10173000FF0EEF2602E2EE52ED06F096F090F086F4
:10174000F18A000180DDF09058EF00F0D890070199
:101750003C35036AB70FE96E070E0320EA6E010EEF
:10176000EE2601E3EF2AA651000A000105E0010A76
:1017700006E0030A0DE021D0F092F0921ED0020E96
:101780000701A66FF098F092F088F198000115D04B
:10179000010E0701A66FD8903C35036AB70FE96EBA
:1017A000070E0320EA6EFF0EEF2602E2EE52ED0670
:1017B000F098F092F088F188000145DDF09258EF42
:1017C00000F007013C51000A000103E0010A49E072
:1017D0008FD0D89007013C35036A660FE96E070E7B
:1017E0000320EA6EECCF1DFAED52EFCF1CFA0A018E
:1017F0001C2D0FD01D530DE1036A07013C51C70F8B
:10180000E96E070E0320EA6E000E81B8010EEF6E3E
:101810000A01D89007013C35036A660FE96E070E8E
:101820000320EA6EECCF1DFAED52EFCF1CFA0A014D
:101830001C51020814E11D5312E1036A07013C51D7
:10184000C70FE96E070E0320EA6E000E81B8010E85
:101850000A011E6F000E81B2010E1E15EF6E00010F
:1018600047D0D89007013C35036A660FE96E070E32
:101870000320EA6EECCF1DFAED52EFCF1CFA0A01FD
:101880001C2D0FD01D530DE1036A07013C51C70FFA
:10189000E96E070E0320EA6E000E81BA010EEF6EAC
:1018A0000A01D89007013C35036A660FE96E070EFE
:1018B0000320EA6EECCF1DFAED52EFCF1CFA0A01BD
:1018C0001C51020814E11D5312E1036A07013C5147
:1018D000C70FE96E070E0320EA6E000E81BA010EF3
:1018E0000A011E6F000E81B4010E1E15EF6E00017D
:1018F0001FEF0DF0F90EB36EC00EB26ED890070157
:101900003C35036A8A0FE96E070E0320EA6E010E6A
:10191000EE2601E3EF2AD8903C35036A8A0FE96E80
:10192000070E0320EA6EECCF1DFAED52EFCF1CFA42
:10193000D8903C35036A460FE96E070E0320EA6E25
:10194000ECCF03F0ED52EFCF01F003500A011D5D23
:10195000D8A076D004E101501C5DD8A071D0070159
:101960003C51040DF350036A9E0FE96E070E0320ED
:10197000EA6E010EEE26000EEE22EE22ED22D89047
:101980003C35036A960FE96E070E0320EA6E010EDE
:10199000EE2601E3EF2AD8903C35036A8A0FE96E00
:1019A000070E0320EA6EEC6AED52EF6A3C5302E147
:1019B000907830D08D78D8903C35036A820FE96EEC
:1019C000070E0320EA6EECCF1DFAED52EFCF1CFAA2
:1019D0000A011C5312E11D5310E1D89007013C3558
:1019E000036AAF0FE96E070E0320EA6EFF0EEF26C3
:1019F00002E2EE52ED060ED00A01D89007013C3506
:101A0000036AAF0FE96E070E0320EA6E010EEE26A1
:101A100001E3EF2AD8903C35036A620FE96E070EA6
:101A20000320EA6EECCF1DFAED52EFCF1CFA0A014B
:101A30001C51030805E11D5303E10001C2D60A0150
:101A4000A192A192000158EF00F0404C50432C2588
:101A50004C752C254C640D0A0000404D4D452C253D
:101A6000752C254C642C254C752C254C752C254C3F
:101A7000642C254C640D0A0056414C5645205354A5
:101A80004F5020254C752C254C750D0A0000696EB1
:101A9000643A2575202F207068613A25750D0A007B
:101AA00040524543202D20686F6D696E6720737921
:101AB00072696E676520616E6420616C69676E692A
:101AC0006E672076616C766520746F20706F72741B
:101AD00020310D0A00002C73657269616C207761FA
:101AE0006B652D75702C534420696E697469616C47
:101AF000697A65640D0A0000405253540D0A0000D3
:101B0000405744540D0A00002C726573746172745E
:101B10002063617573652C57442074696D652D6F62
:101B200075740D0A0000405744530D0A00002C72D2
:101B30006573746172742063617573652C574420FA
:101B400066726F6D20736C6565700D0A0000404E03
:101B500050550D0A00002C6964235B254C755D2CE3
:101B6000706F776572206170706C6965642C534486
:101B700020696E697469616C697A65640D0A000098
:101B8000405253540D0A00002C72657374617274D4
:101B90002063617573652C726573657420696E735B
:101BA0007472756374696F6E0D0A000040424F5283
:101BB0000D0A00002C726573746172742063617584
:101BC00073652C62726F776E2D6F75740D0A00004D
:101BD000404D52530D0A00002C726573746172748B
:101BE0002063617573652C4D434C522066726F6D96
:101BF00020736C6565700D0A0000404D52520D0A4D
:101C000000002C7265737461727420636175736572
:101C10002C4D434C52207768656E2072756E6E694C
:101C20006E670D0A00004E4F33004E4F3200504F8A
:101C300034004E48340053694F000000404445547E
:101C40005B2F25755D5B25635D4152475B254C75B8
:101C50005D0D0A002074696D652D6F757400206438
:101C600061746120746F6F2073686F7274002064F8
:101C700061746120746F6F206C6F6E6700002C645C
:101C800065746563746F725B25735D2C6C656E5B48
:101C900025755D00405254592C25750D0A002C7392
:101CA000746172742068656174696E672C74617206
:101CB0006765745B254C755D2C61637475616C5B45
:101CC000254C755D2C72656164696E67735B254C8C
:101CD000755D0D0A00002C656E642068656174698D
:101CE0006E672C7461726765745B254C755D2C6141
:101CF000637475616C5B254C755D2C7265616469FC
:101D00006E67735B254C755D0D0A00004E4F330006
:101D10004E4F3200504F34004E48340053694F004C
:101D20000000404441432C254C752C254C752C005B
:101D3000405341522C312C254C752C004056414CBF
:101D400020004056414C20004056414C2000405657
:101D5000414C200040534F4C5B2F315D5B735D5B0A
:101D6000254C755D0D0A00002F3173254C750D0053
:101D700040534F4C5B2F315D5B635D5B25755D0DA3
:101D80000A002F316325750D00002F31733235366F
:101D90000D0028493073292C254C752C28493173A6
:101DA000292C254C752C284162732D73292C253143
:101DB0002E34672C28493074292C254C752C284941
:101DC0003174292C254C752C284162732D74292CD3
:101DD00025312E34672C28493072292C254C752C3E
:101DE00028493172292C254C752C284162732D729B
:101DF000292C25312E346700404162732C4E4F331D
:101E00002C25730D0A0028493073292C254C752C7C
:101E100028493173292C254C752C284162732D7368
:101E2000292C25312E34672C28493074292C254C37
:101E3000752C28493174292C254C752C2841627346
:101E40002D74292C25312E34672C28493072292CE9
:101E5000254C752C28493172292C254C752C28418C
:101E600062732D72292C25312E3467004041627334
:101E70002C4E4F322C25730D0A0028493073292C23
:101E8000254C752C28493173292C254C752C28415B
:101E900062732D73292C25312E34672C2849307418
:101EA000292C254C752C28493174292C254C752C4E
:101EB000284162732D74292C25312E34672C284932
:101EC0003072292C254C752C28493172292C254C2F
:101ED000752C284162732D72292C25312E34670010
:101EE000404162732C504F342C25730D0A00284951
:101EF0003073292C254C752C28493173292C254CFD
:101F0000752C284162732D73292C25312E34672CB2
:101F100028493074292C254C752C28493174292CDA
:101F2000254C752C284162732D74292C25312E34B3
:101F3000672C28493072292C254C752C2849317280
:101F4000292C254C752C284162732D72292C2531A2
:101F50002E346700404162732C4E48342C25730D9B
:101F60000A0028493073292C254C752C28493173D7
:101F7000292C254C752C284162732D73292C253171
:101F80002E34672C28493074292C254C752C28496F
:101F90003174292C254C752C284162732D74292C01
:101FA00025312E34672C28493072292C254C752C6C
:101FB00028493172292C254C752C284162732D72C9
:101FC000292C25312E346700404142532C53694F50
:101FD0002C25730D0A004E4F33004E4F3200504FE8
:101FE00034004E48340053694F000000286D292CFE
:101FF00025332E33672C2863292C25332E33670095
:10200000284373292C25332E33670D0A00004043E3
:102010004F4E2C4E4F332C25730D0A00286D292C62
:1020200025332E33672C2863292C25332E33670064
:10203000284373292C25332E33670D0A00004043B3
:102040004F4E2C504F342C25730D0A00286D292C2F
:1020500025332E33672C2863292C25332E33670034
:10206000284373292C25332E33670D0A0000404383
:102070004F4E2C4E48342C25730D0A00286D292C08
:1020800025332E33672C2863292C25332E33670004
:10209000284373292C25332E33670D0A0000404353
:1020A0004F4E2C53694F2C25730D0A004E4F3300B1
:1020B000504F34004E48340053694F0000004D45E6
:1020C0004D4F5259204F564552464C4F572045527E
:1020D000524F522040204C696E65203A254C750ABB
:1020E0000D000D0A3A000D0A5741524E494E473A2B
:1020F00020494E56414C494420434F4D4D414E449A
:1021000020494E204D4143524F210D0A00004261AB
:102110006420636F6D6D616E64206174206C696E04
:10212000653A20254C64200D0A00506C656173658A
:102130002072652D75706C6F6164206D6163726FC4
:102140000000497465726174696F6E73206C656616
:10215000743A20254C750D0A00002C6D6163726F76
:102160005B25755D2C73746172740D0A0000404D1F
:10217000434C5B25635D5B254C755D0D0A00404C4F
:102180004E450D0A00004052554E0D0A00004042D7
:1021900041440D0A000040542F4F0D0A00004045F5
:1021A00052520D0A000040454E440D0A00004048BE
:1021B0004C540D0A00002C6D6163726F5B25755DD8
:1021C0002C7374617475735B25635D2C6C696E652B
:1021D0005B254C755D0D0A004052756E6E696E6729
:1021E000202563254C75200D0A00404D6163726FF8
:1021F000202530344C75206F66202530344C750D09
:102200000A00404C4E450D0A00004052554E0D0A42
:102210000000404241440D0A000040542F4F0D0A77
:102220000000404552520D0A000040454E440D0A40
:1022300000002C6175746F2D73616D706C652C736B
:10224000616D706C655B254C755D2C737461727487
:102250000D0A00002C6175746F2D73616D706C65D3
:102260002C73616D706C655B254C755D2C636F6DB7
:10227000706C6574650D0A002C6175746F2D736147
:102280006D706C652C73616D706C655B254C755D54
:102290002C6572726F720D0A00002C6175746F2DBF
:1022A00073616D706C652C73616D706C655B254C32
:1022B000755D2C6D61782073616D706C65730D0AAE
:1022C00000002C6175746F2D73616D706C652C73DB
:1022D000616D706C655B254C755D2C7374617274F7
:1022E0000D0A00002C6175746F2D73616D706C6543
:1022F0002C73616D706C655B254C755D2C636F6D27
:10230000706C6574650D0A002C6175746F2D7361B6
:102310006D706C652C73616D706C655B254C755DC3
:102320002C73746172740D0A00002C6175746F2D2A
:1023300073616D706C652C73616D706C655B254CA1
:10234000755D2C636F6D706C6574650D0A002C6192
:1023500075746F2D73616D706C652C73616D706C2D
:10236000655B254C755D2C6D61782073616D706CBB
:1023700065730D0A00002C6175746F2D73616D70AB
:102380006C652C696E697469616C697A650D0A0007
:102390002C6865616465722C6964235B254C755DEE
:1023A0002C696E745B254C755D2C6D61785B254CDA
:1023B000755D0D0A00002C6175746F2D73616D7071
:1023C0006C652C73616D706C655B254C755D2C6163
:1023D0006C61726D5B25755D0D0A00002C61757472
:1023E0006F2D73616D706C652C736C6565700D0A73
:1023F000000074313A254C752074323A254C750D25
:102400000A00404445542C254C750D0A00004E4FDF
:10241000332C25312E35672C25312E35670D0A00DA
:10242000504F342C25312E35672C25312E35670D34
:102430000A004E48342C25312E35672C25312E3597
:10244000670D0A0053694F342C25312E35672C2532
:10245000312E35670D0A00004E4F33286D293A00A2
:102460004E4F332863293A00504F34286D293A00E3
:10247000504F342863293A004E4834286D293A00D9
:102480004E48342863293A0053694F34286D293A5D
:10249000000053694F342863293A000041726520D7
:1024A000796F75207375726520796F752077616E0D
:1024B0007420746F20657261736520746865207282
:1024C000617720646174612066696C653F205920E2
:1024D0006F72204E210D0A0046696C652064656CA0
:1024E00065746564210A0D004F7065726174696FCF
:1024F0006E2063616E63656C6564210D0A00417234
:102500006520796F75207375726520796F752077F6
:10251000616E7420746F20657261736520746865E4
:102520002063616C63756C617465642064617461BF
:102530002066696C653F2059206F72204E210D0A7C
:10254000000046696C652064656C65746564210AE9
:102550000D004F7065726174696F6E2063616E6308
:10256000656C6564210D0A0040494423254C7520A3
:1025700049254C75204E254C752F254C7520582526
:102580004C75205525752025342E3277560D0A00BE
:10259000404D4F543A56414C3D254C7520535952AD
:1025A0003D254C640D0A0000405057523A25303208
:1025B000752F253032752F25303275202530327534
:1025C0003A253032753A253032750D0A00004050F8
:1025D00057523A253032752F253032752F2530323B
:1025E0007520253032753A253032753A25303275EE
:1025F0000D0A000041254C752049254C75204C25BD
:102600004C752051254C752053254C752025342EB2
:102610003277560D0A00404D4F543A56414C3D25F5
:102620004C75205359523D254C640D0A0000405012
:1026300057523A253032752F253032752F253032DA
:102640007520253032753A253032753A253032758D
:102650000D0A000049254C75204E254C752F254C40
:10266000752050254C752025342E3277560D0A00E2
:10267000404D4F543A5359523D254C640D0A0000C9
:10268000405057523A253032752F253032752F255C
:1026900030327520253032753A253032753A253082
:1026A00032750D0A000040534D50202530344C75D2
:1026B0000D0A000040534D50202530344C750D0A52
:1026C0000000456E746572206461746520666F72E7
:1026D0006D617420303D4D4D2F44442F59592020B9
:1026E000313D44442F4D4D2F59590D0A0000404FA4
:1026F0004B210D0A2000404552520D0A0000405265
:10270000554E0D0A00005B6D6F746F723A315D0DAE
:102710000A005B6D6F746F723A325D0D0A002C45D2
:10272000434F206D6F6465207365740D0A002C574C
:102730004D532D342D5344206D6F646520736574A3
:102740000D0A00002C415753206D6F64652073659E
:10275000740D0A002C574D532D342D5145206D6FAB
:102760006465207365740D0A000030332D4A756C62
:102770002D31370031343A31363A33390000534580
:102780004E44204845582046494C4520283139328E
:1027900030302C4E38312C584F4E2D584F4646294C
:1027A0000D0A0000404F4B212000404152472000BD
:1027B00040494E56000040434D4400002C636F6D6D
:1027C0006D616E642070726F6D70740D0A004053FD
:1027D000443D254C750D0A00404D43312C254C7568
:1027E0002C254C640D0A0000404D43322C254C75BD
:1027F0002C254C640D0A0000507265737320616EC5
:102800006420686F6C642074686520457363206B76
:10281000657920746F2072657475726E20746F20F4
:10282000436F6D6D616E64204D6F64650D0A00002D
:1028300052657475726E696E6720746F204C6F6795
:1028400067696E67204D6F64650D0A006372617081
:102850003A2025750D0A0000726567303A2025750B
:102860000D0A0000726567313A2025750D0A0000D7
:10287000726567323A2025750D0A0000726567336C
:102880003A2025750D0A0000726567343A202575D7
:102890000D0A0000726567353A2025750D0A0000A3
:1028A000726567363A2025750D0A00007265673734
:1028B0003A2025750D0A0000726567383A202575A3
:1028C0000D0A0000726567393A2025750D0A00006F
:1028D000726567413A2025750D0A000072656742EE
:1028E0003A2025750D0A0000726567433A20257568
:1028F0000D0A0000726567443A2025750D0A000034
:10290000726567453A2025750D0A000072656746B5
:102910003A2025750D0A00008B940C0EBB6EBE6A22
:10292000BF6A010E9C6EF80E0F012D17000E2D13BD
:102930008B920C0E4E6F516B526B010E1B6FC70EBC
:102940002D17000E2D130509CA6E7F0ECB6E0001E8
:102950002DEFD9F00B0ED76EDC0ED66EF294F28A04
:10296000D1801200090EEA6ED60EE96EEF500EE02D
:10297000140E016E006A002EFED7012EFBD7BF0E8B
:10298000006E002EFED700D0EF2EF2D712002F0ED1
:10299000926E370E936E900E946E200E956E400ED2
:1029A000966E000E976EE40E986E400E996E000EB5
:1029B0009A6E8E968E988E9A91969184918091823D
:1029C0009188918C918A8F908F988F96140E09011F
:1029D000D66F0001C7DF8E92909E0401B26B8C848B
:1029E0008C868C908C92B16B00011200909090922A
:1029F000909490969098909ABC6A8D908D928D94B8
:102A00008D968D988D9A0F014F6B8E9C8E9E8E9415
:102A100000011200010E4A6EAE509D8A120008019C
:102A2000846B836B826B8251010820E3080E866FF2
:102A3000830E856F82518525016E000E8621036EFF
:102A40000150E96E03C0EAFF81518225876FF2CF02
:102A500088F8F29E636A87C862FF7F9C7F9E7F80B2
:102A6000615088BFF28EEF6E822BDDD783C801F0F4
:102A700084C802F0000112000801A26BF2CFA3F893
:102A8000F29E636AA1C862FF7F9C7F9E7F80615037
:102A9000A3BFF28EA26FA2C801F0000112000801CC
:102AA000756B746B736B726B716B7151030824E3FC
:102AB000080E776F720E766F71517625016E000EDB
:102AC0007721036E0150E96E03C0EAFF71516F2553
:102AD000786F000E7021796FF2CF7AF8F29E79C884
:102AE00063FF78C862FF7F9C7F9E7F8061507ABFC2
:102AF000F28EEF6E712BD9D772C800F073C801F057
:102B000074C802F075C803F0000112001E0E08011F
:102B1000816F000184DF02C030F001C02FF01C0E75
:102B20000801816F00017BDF02C020F001C01FF0AF
:102B3000160E0801816F000172DF02C022F001C091
:102B400021F0140E0801816F000169DF02C024F03A
:102B500001C023F00801816B000161DF02C026F093
:102B600001C025F0180E0801816F000158DF02C076
:102B700028F001C027F0020E0801A16F00017CDFE0
:102B8000326A01C031F0280E0801A16F000174DF24
:102B9000346A01C033F0120E0801816F00013FDF7B
:102BA00002C036F001C035F03A0E0801816F000115
:102BB00036DF02C038F001C037F03C0E0801816FEB
:102BC00000012DDF02C03AF001C039F03E0E0801CD
:102BD000816F000124DF02C03CF001C03BF0400ED9
:102BE0000801816F00011BDF02C03EF001C03DF013
:102BF000420E0801816F000112DF02C040F001C0E7
:102C00003FF0040E0801A16F000136DF01C029F773
:102C10000801706B440E6F6F000141DF03C0F4F3D5
:102C200002C0F3F301C0F2F300C0F1F30801706BCE
:102C3000480E6F6F000133DF03C0F8F302C0F7F3F3
:102C400001C0F6F300C0F5F30801706B4C0E6F6F16
:102C5000000125DF03C0FCF302C0FBF301C0FAF35F
:102C600000C0F9F30801706B520E6F6F000117DF9F
:102C700003C000F402C0FFF301C0FEF300C0FDF387
:102C80000801706B560E6F6F000109DF03C004F47A
:102C900002C003F401C002F400C001F40801706B2B
:102CA0005A0E6F6F0001FBDE03C008F402C007F488
:102CB00001C006F400C005F40801706B5E0E6F6F72
:102CC0000001EDDE03C00CF402C00BF401C00AF4F5
:102CD00000C009F40801706B620E6F6F0001DFDE47
:102CE00003C010F402C00FF401C00EF400C00DF4D4
:102CF000200E0801816F000192DE02C02AF001C09F
:102D000029F0220E0801816F000189DE02C02CF03B
:102D100001C02BF0240E0801816F000180DE02C08B
:102D20002EF001C02DF01200016A026A006A036AE7
:102D30000801C85102E1C75118E0100EC96FD890C0
:102D4000C537C63700360336C851035C02E1C751A8
:102D5000005C07E3C751005ED8A00306C851035EBC
:102D6000D88001360236C92FEAD700011200860E3C
:102D70000801816F000153DE02C03FF701C03EF73A
:102D80008A0E0801816F00014ADE02C043F701C0CC
:102D900042F78E0E0801816F000141DE02C047F745
:102DA00001C046F7920E0801816F000138DE02C0B3
:102DB0004BF701C04AF7960E0801816F00012FDE24
:102DC00002C04FF701C04EF79A0E0801816F000153
:102DD00026DE02C053F701C052F79E0E0801816F34
:102DE00000011DDE02C057F701C056F7A20E080110
:102DF000816F000114DE02C05BF701C05AF7A60E16
:102E00000801816F00010BDE02C05FF701C05EF7B1
:102E1000820E0801816F000102DE02C063F701C06B
:102E200062F77E0E0801816F0001F9DD02C0BCF778
:102E300001C0BBF7AA0E0801816F0001F0DD02C0DE
:102E4000C0F701C0BFF77A0E0801816F0001E7DD0E
:102E500002C067F701C066F7760E0801816F0001B6
:102E6000DEDD02C06BF701C06AF7720E0801816FE8
:102E70000001D5DD02C06FF701C06EF76E0E0801CC
:102E8000816F0001CCDD02C093F701C092F7AE0E56
:102E90000801816F0001C3DD02C073F701C072F742
:102EA000B20E0801816F0001BADD02C0ACF701C0AB
:102EB000ABF7B60E0801816F0001B1DD02C0B0F7BB
:102EC00001C0AFF7BA0E0801816F0001A8DD02C092
:102ED00077F701C076F7BE0E0801816F00019FDD14
:102EE00002C07BF701C07AF7C20E0801816F0001B2
:102EF00096DD02C07FF701C07EF7880E0801816F62
:102F000000018DDD02C041F701C040F78C0E0801C1
:102F1000816F000184DD02C045F701C044F7900EC7
:102F20000801816F00017BDD02C049F701C048F74D
:102F3000940E0801816F000172DD02C04DF701C0DF
:102F40004CF7980E0801816F000169DD02C051F74E
:102F500001C050F79C0E0801816F000160DD02C0C6
:102F600055F701C054F7A00E0801816F000157DD2D
:102F700002C059F701C058F7A40E0801816F000183
:102F80004EDD02C05DF701C05CF7A80E0801816F3D
:102F9000000145DD02C061F701C060F7840E080141
:102FA000816F00013CDD02C065F701C064F7800E4F
:102FB0000801816F000133DD02C0BEF701C0BDF71B
:102FC000AC0E0801816F00012ADD02C0C2F701C00A
:102FD000C1F77C0E0801816F000121DD02C069F795
:102FE00001C068F7780E0801816F000118DD02C08A
:102FF0006DF701C06CF7740E0801816F00010FDDE1
:1030000002C071F701C070F7700E0801816F0001F6
:1030100006DD02C095F701C094F7B00E0801816F7C
:103020000001FDDC02C075F701C074F7B40E0801A1
:10303000816F0001F4DC02C0AEF701C0ADF7B80E3D
:103040000801816F0001EBDC02C0B2F701C0B1F7EB
:10305000BC0E0801816F0001E2DC02C079F701C0FB
:1030600078F7C00E0801816F0001D9DC02C07DF73E
:1030700001C07CF7C40E0801816F0001D0DC02C0E2
:1030800081F701C080F707013C6B010E3D6FA16B1A
:10309000A06B9F6B9E6BA56BA46BA36BA26BB86BB5
:1030A000B76BBA6BB96B976B966B996B986B9B6BA5
:1030B0009A6B9D6B9C6BB46BB36BB66BB56B73C744
:1030C000C6F872C7C5F85FC7C8F85EC7C7F8000181
:1030D0002BDED890080101340701A76F08010234E4
:1030E0000701A86F75C7C6F874C7C5F861C7C8F8E7
:1030F00060C7C7F8000118DED89008010134070145
:10310000A96F080102340701AA6F0001120008012B
:10311000A06BA05120080AE3036AA051B30FE96E27
:10312000040E0320EA6EEF6AA02BF3D70001120011
:103130002F50020804E1305202E1000E996EE7DFE1
:103140000401B26B00014EEFD9F0F29AD190120057
:10315000010E08016D6F6D5103081DE389882F5022
:10316000020803E1305201E1908C200E0901D66F74
:103170000001B2EC14F089982F50020803E130529C
:1031800001E1909C200E0901D66F0001B2EC14F011
:1031900008016D2BE0D7000152EFD9F02F50006EDF
:1031A0003050036E02E1005211E0035003E1010EC2
:1031B000005C35E0035003E1020E005C59E003506F
:1031C00004E1030E005CD8B47CD0A4D0BE0EF66E31
:1031D000050EF76E000EF86E1B6AF2BE1B8EF29E95
:1031E000060E0A01256F000108EC08F01BBEF28EE6
:1031F000CA0EF66E050EF76E000EF86E1B6AF2BE72
:103200001B8EF29E1DEC07F01BBEF28E0D0E9EA8CB
:10321000FED7AD6E0A0E9EA8FED7AD6EA3D0D20E1D
:10322000F66E050EF76E000EF86E1B6AF2BE1B8E70
:10323000F29E090E0A01256F000108EC08F01BBE82
:10324000F28EE00EF66E050EF76E000EF86E1B6A3B
:10325000F2BE1B8EF29E1DEC07F01BBEF28E0D0E11
:103260009EA8FED7AD6E0A0E9EA8FED7AD6E7AD090
:10327000E80EF66E050EF76E000EF86E1B6AF2BED3
:103280001B8EF29E060E0A01256F000108EC08F065
:103290001BBEF28EF40EF66E050EF76E000EF86E83
:1032A0001B6AF2BE1B8EF29E1DEC07F01BBEF28E57
:1032B0000D0E9EA8FED7AD6E0A0E9EA8FED7AD6E6F
:1032C00051D0FC0EF66E050EF76E000EF86E1B6AFE
:1032D000F2BE1B8EF29E090E0A01256F000108EC5A
:1032E00008F01BBEF28E0A0EF66E060EF76E000E8A
:1032F000F86E1B6AF2BE1B8EF29E1DEC07F01BBE21
:10330000F28E0D0E9EA8FED7AD6E0A0E9EA8FED7B9
:10331000AD6E28D0120EF66E060EF76E000EF86E29
:103320001B6AF2BE1B8EF29E060E0A01256F00017B
:1033300008EC08F01BBEF28E1E0EF66E060EF76E3F
:10334000000EF86E1B6AF2BE1B8EF29E1DEC07F09B
:103350001BBEF28E0D0E9EA8FED7AD6E0A0E9EA865
:10336000FED7AD6E1200D8C8D9F80801D939006E61
:103370000F0E001600500A0DF3CFD8F8D939006EA1
:10338000F00E00160050003A0F0E00160050D8271D
:10339000D8C801F0000112000801D76BC69A210EAF
:1033A000C66E400EC76E9190C950C96AC730FEE321
:1033B000C9CFD7F8C950D7C8C9FFC730FEE3C9CFB6
:1033C00028F7C950D7C8C9FFC730FEE3C9CF21F7D6
:1033D000C950D7C8C9FFC730FEE3C9CF22F7C950CB
:1033E000D7C8C9FFC730FEE3C9CF23F7C950D7C834
:1033F000C9FFC730FEE3C9CF24F7C950D7C8C9FFFA
:10340000C730FEE3C9CF25F7C950D7C8C9FFC730B9
:10341000FEE3C9CF26F7C950D7C8C9FFC730FEE3BE
:10342000C9CF27F7918021C7D8F800019CDF01C0E0
:1034300021F722C7D8F897DF01C022F723C7D8F8B1
:1034400092DF01C023F725C7D8F88DDF01C025F72B
:1034500026C7D8F888DF01C026F727C7D8F883DF4A
:1034600001C027F71200F250006EF29E636A73C823
:1034700062FF74C861FF7F9C7F9E7F840F01550EA1
:103480007E6EAA0E7E6E7F827FB2FED77F94005042
:10349000F2120001120021C73BF722C73AF723C7F7
:1034A00039F725C737F726C736F727C738F7060E87
:1034B0000801736F36C774F80001D5DF080E0801E4
:1034C000736F37C774F80001CEDF0A0E0801736FFF
:1034D00038C774F80001C7DF0C0E0801736F39C7D5
:1034E00074F80001C0DF0E0E0801736F3AC774F85C
:1034F0000001B9DF100E0801736F3BC774F80001BB
:10350000B2DF58EFD9F00801B56BC69A210EC66E2E
:10351000400EC76E9190C9500C0EC96EC730FEE3C5
:10352000C9CFB5F8C950B5C8C9FFC730FEE3C9CF88
:103530002CF7918007012C9D9190C9508C0EC96E7B
:10354000C730FEE3C9CFB5F8C9502CC7C9FFC73093
:10355000FEE3C9CFB5F89180000112000401E26BCF
:10356000010EE16F0A0EE06F010EDF6FDE6FDD6BA3
:10357000DC6BDB6BDA6B00011200016603D00266C4
:1035800002D007D0022A00C0EEFF012EFCD7022E87
:10359000FAD712000A0E0A011B6F120E1BCA19FA83
:1035A000186FC950C968C730FEE3C95011CAC9FFB6
:1035B000C730FEE3030E1825E96E000E1921EA6EEE
:1035C000EFCF1AFAC9501ACAC9FFC730FEE3020E7C
:1035D0001825E96E000E1921EA6EEFCF1AFAC950CC
:1035E0001ACAC9FFC730FEE3010E1825E96E000EA6
:1035F0001921EA6EEFCF1AFAC9501ACAC9FFC730AB
:10360000FEE318CAE9FF19CAEAFFEFCF1AFAC95058
:103610001ACAC9FFC730FEE31151480806E1C95074
:10362000870EC96EC730FEE305D0C950950EC96E2E
:10363000C730FEE3166BC950C968C730FEE3C9CF77
:1036400017FA173D0BD01651630808E3162BC95023
:10365000C968C730FEE3C9CF17FAF3D717CA01F01C
:10366000000112000901D7BF10D00F0E006ED6392D
:1036700000160A0E005C03E2300E002602D0D7517D
:10368000002600509EA8FED7AD6E0F0ED6170A0E6C
:10369000D65D02E2300E02D0D79FD751D627D65141
:1036A0009EA8FED7AD6E000112004E0EF66E060EFD
:1036B000F76E000EF86E1B6AF2BE1B8EF29E1DECBA
:1036C00007F01BBEF28E0EEF22F00901D56B04014C
:1036D000E36B91820A0E0901D66F0001B2EC14F07F
:1036E000C69A220EC66E400EC76E9E960901CD6B1D
:1036F000CD51090806E3C950C968C730FEE3CD2B98
:10370000F7D791921F50040812E1205210E1760E73
:10371000F66E060EF76E000EF86E1B6AF2BE1B8E7A
:10372000F29E00011DEC07F01BBEF28E0901400E57
:103730000A01116F156B146B136B126B00012ADFFA
:1037400001C0CEF90901CE5101082AE21F50040838
:1037500024E1205222E1860EF66E060EF76E000E70
:10376000F86E1B6AF2BE1B8EF29E310E0A01256FA7
:10377000000108EC08F01BBEF28ECEC9D6F9570E38
:103780000901D76F00016EDF0D0E9EA8FED7AD6E4A
:103790000A0E9EA8FED7AD6E0901D5810FEF22F06B
:1037A0001F50040824E1205222E1BE0EF66E060EE0
:1037B000F76E000EF86E1B6AF2BE1B8EF29E1A0E9A
:1037C0000A01256F000108EC08F01BBEF28ECEC97D
:1037D000D6F9570E0901D76F000144DF0D0E9EA8E0
:1037E000FED7AD6E0A0E9EA8FED7AD6E0901480E3B
:1037F0000A01116F156B146B010E136FAA0E126F75
:103800000001C8DE01C0CEF91F50040823E1205298
:1038100021E1E00EF66E060EF76E000EF86E1B6AE2
:10382000F2BE1B8EF29E250E0A01256F000108ECE8
:1038300008F01BBEF28ECEC9D6F9570E0901D76F1C
:10384000000110DF0D0E9EA8FED7AD6E0A0E9EA8D9
:10385000FED7AD6E0901CE2DE8D11F50040812E14C
:10386000205210E10A0EF66E070EF76E000EF86E8B
:103870001B6AF2BE1B8EF29E00011DEC07F01BBE00
:10388000F28E0901CD6BCD5103080FE3036ACD51D0
:10389000CF0FE96E090E0320EA6EC950C968C73020
:1038A000FEE3C9CFEFFFCD2BEED71F50040839E15F
:1038B000205237E12C0EF66E070EF76E000EF86EF2
:1038C0001B6AF2BE1B8EF29E1F0E0A01256F0001BD
:1038D00008EC08F01BBEF28ECFC9D6F9570E0901CD
:1038E000D76F0001BFDED0C9D6F9570E0901D76FD7
:1038F0000001B8DED1C9D6F9570E0901D76F000112
:10390000B1DED2C9D6F9570E0901D76F0001AADE80
:103910000D0E9EA8FED7AD6E0A0E9EA8FED7AD6E08
:103920000901D12D6DD1D251AA08D8A469D11F5057
:10393000040812E1205210E15E0EF66E070EF76EDB
:10394000000EF86E1B6AF2BE1B8EF29E00011DEC8B
:1039500007F01BBEF28E09011F50040812E120522D
:1039600010E1840EF66E070EF76E000EF86E1B6AFD
:10397000F2BE1B8EF29E00011DEC07F01BBEF28E04
:103980000901D46BD36B770E0A01116F156B146BA1
:10399000136B126B0001FEDD01C0CEF9690E0A0146
:1039A000116F400E156F146B136B126B0001F2DD7B
:1039B00001C0CEF90901CE5328E0D451C30825E354
:1039C00003E1D3514F0821E36A0E006E002EFED7AB
:1039D0000000D32BD8B4D42B770E0A01116F156BCE
:1039E000146B136B126B0001D5DD01C0CEF9690EAB
:1039F0000A01116F400E156F146B136B126B0001EF
:103A0000C9DD01C0CEF9D6D709011F50040844E131
:103A1000205242E1B20EF66E070EF76E000EF86EFF
:103A20001B6AF2BE1B8EF29E230E0A01256F000157
:103A300008EC08F01BBEF28ECEC9D6F9570E09016C
:103A4000D76F00010FDED90EF66E070EF76E000E6F
:103A5000F86E1B6AF2BE1B8EF29E0A0E0A01256FDB
:103A6000000108EC08F01BBEF28E100EE96E1B6A16
:103A7000F2BE1B8EF29ED4C926FAD3C925FAC9EC30
:103A800008F01BBEF28E0D0E9EA8FED7AD6E0A0E7C
:103A90009EA8FED7AD6E0901CE53D8A4B0D07A0E41
:103AA0000A01116F400E156F146B136B126B00013E
:103AB00071DD01C0CEF91F50040823E1205221E13D
:103AC000EA0EF66E070EF76E000EF86E1B6AF2BE77
:103AD0001B8EF29E180E0A01256F000108EC08F0FB
:103AE0001BBEF28ECEC9D6F9570E0901D76F000161
:103AF000B9DD0D0E9EA8FED7AD6E0A0E9EA8FED7AC
:103B0000AD6E0901CE53D8A47AD0CD6BCD51030848
:103B10000FE3036ACD51CF0FE96E090E0320EA6E61
:103B2000C950C968C730FEE3C9CFEFFFCD2BEED730
:103B3000CFAD05D0050E0401E36F04D00901040EDA
:103B40000401E36F1F50040859E1205257E1080EA9
:103B5000F66E080EF76E000EF86E1B6AF2BE1B8E34
:103B6000F29E1F0E0A01256F000108EC08F01BBE33
:103B7000F28E100EE96E1B6AF2BE1B8EF29ED4C945
:103B800026FAD3C925FAC9EC08F01BBEF28E2A0E1C
:103B9000F66E080EF76E000EF86E1B6AF2BE1B8EF4
:103BA000F29E080E0A01256F000108EC08F01BBE0A
:103BB000F28ECFC9D6F9570E0901D76F000152DD39
:103BC000D0C9D6F9570E0901D76F00014BDDD1C915
:103BD000D6F9570E0901D76F000144DDD2C9D6F9D5
:103BE000570E0901D76F00013DDD0D0E9EA8FED7CF
:103BF000AD6E0A0E9EA8FED7AD6E0401090115D068
:103C00001F50040812E1205210E1460EF66E080E15
:103C1000F76E000EF86E1B6AF2BE1B8EF29E00015C
:103C20001DEC07F01BBEF28E09010401E353D8A47A
:103C300067D21F50040812E1205210E1780EF66E90
:103C4000080EF76E000EF86E1B6AF2BE1B8EF29E17
:103C500000011DEC07F01BBEF28E0401400E0A01AC
:103C6000116F156B146B136B126B000193DC01C0A9
:103C7000CEF91F50040823E1205221E1B80EF66E60
:103C8000080EF76E000EF86E1B6AF2BE1B8EF29ED7
:103C90001C0E0A01256F000108EC08F01BBEF28E15
:103CA000CEC9D6F9570E0901D76F0001DBDC0D0E26
:103CB0009EA8FED7AD6E0A0E9EA8FED7AD6E090176
:103CC000CE2D01D005D0CE5303E0D5810FEF22F0E9
:103CD000D46BD36B410E0A01116F156B146B136B10
:103CE000126B000157DC01C0CEF90901CE5304E08C
:103CF000350E006E002EFED7D32BD8B4D42BCE5366
:103D000007E0D451C30804E3E5E1D3514F08E2E2F0
:103D10001F50040844E1205242E1DC0EF66E080E0A
:103D2000F76E000EF86E1B6AF2BE1B8EF29E280E16
:103D30000A01256F000108EC08F01BBEF28ECEC907
:103D4000D6F9570E0901D76F00018CDC080EF66E0C
:103D5000090EF76E000EF86E1B6AF2BE1B8EF29E05
:103D60000A0E0A01256F000108EC08F01BBEF28E56
:103D7000100EE96E1B6AF2BE1B8EF29ED4C926FAA3
:103D8000D3C925FAC9EC08F01BBEF28E0D0E9EA811
:103D9000FED7AD6E0A0E9EA8FED7AD6E0901CE53BA
:103DA00002E0D5813CD3770E0A01116F156B146BBD
:103DB000136B126B0001CAEC1AF001C0CEF91F5050
:103DC000040823E1205221E1180EF66E090EF76E69
:103DD000000EF86E1B6AF2BE1B8EF29E430E0A01A5
:103DE000256F000108EC08F01BBEF28ECEC9D6F993
:103DF000570E0901D76F000135DC0D0E9EA8FED7C6
:103E0000AD6E0A0E9EA8FED7AD6E0901CE5305E039
:103E1000020E0401E36FFED00901690E0A01116F61
:103E2000156B146B136B126B0001CAEC1AF001C016
:103E3000CEF90901CE51010805E3030E0401E36F39
:103E4000E9D009011F5004082FE120522DE1620E34
:103E5000F66E090EF76E000EF86E1B6AF2BE1B8E30
:103E6000F29E2E0E0A01256F000108EC08F01BBE21
:103E7000F28ECEC9D6F9370E0901D76F000132ECA8
:103E80001BF0940EF66E090EF76E000EF86E1B6AAC
:103E9000F2BE1B8EF29E190E0A01256F000108EC7E
:103EA00008F01BBEF28E0901400E0A01116F156B5E
:103EB000146B136B126B0001CAEC1AF001C0CEF93F
:103EC0000901CE2D01D036D0CE5334E01F50040866
:103ED0002FE120522DE1AE0EF66E090EF76E000EA8
:103EE000F86E1B6AF2BE1B8EF29E2C0E0A01256F25
:103EF000000108EC08F01BBEF28ECEC9D6F9370ED1
:103F00000901D76F000132EC1BF0DE0EF66E090ED0
:103F1000F76E000EF86E1B6AF2BE1B8EF29E0B0E41
:103F20000A01256F000108EC08F01BBEF28E0901A2
:103F3000D58175D2D46BD36B410E0A01116F156B0D
:103F4000146B136B126B0001CAEC1AF001C0CEF9AE
:103F50000901CE5304E0350E006E002EFED7D32BA0
:103F6000D8B4D42BCE5307E0D451C30804E3E4E122
:103F7000D3514F08E1E2CE534AE01F50040845E117
:103F8000205243E1EA0EF66E090EF76E000EF86E4F
:103F90001B6AF2BE1B8EF29E4A0E0A01256F0001BB
:103FA00008EC08F01BBEF28ECEC9D6F9370E090117
:103FB000D76F000132EC1BF0380EF66E0A0EF76E6A
:103FC000000EF86E1B6AF2BE1B8EF29E0A0E0A01EC
:103FD000256F000108EC08F01BBEF28E100EE96E92
:103FE0001B6AF2BE1B8EF29ED4C926FAD3C925FAEB
:103FF000C9EC08F01BBEF28E0D0E9EA8FED7AD6E6A
:104000000A0E9EA8FED7AD6E0901D58108D2020E18
:104010000401E36F1F50040812E1205210E1480E22
:10402000F66E0A0EF76E000EF86E1B6AF2BE1B8E5D
:10403000F29E00011DEC07F01BBEF28E0401500E33
:104040000A01116F156B146B020E136F126B0001D6
:10405000CAEC1AF001C0CEF90901D351500803E1AE
:10406000D451C30803E0CE5101084BE20401E36BD5
:104070001F50040845E1205243E1640EF66E0A0E1B
:10408000F76E000EF86E1B6AF2BE1B8EF29E2B0EB0
:104090000A01256F000108EC08F01BBEF28ECEC9A4
:1040A000D6F9570E0901D76F000132EC1BF0930EC1
:1040B000F66E0A0EF76E000EF86E1B6AF2BE1B8ECD
:1040C000F29E0A0E0A01256F000108EC08F01BBEE3
:1040D000F28E100EE96E1B6AF2BE1B8EF29ED4C9E0
:1040E00026FAD3C925FAC9EC08F01BBEF28E0D0ED4
:1040F0009EA8FED7AD6E0A0E9EA8FED7AD6E040137
:1041000009010401E35319E11F50040812E1205290
:1041100010E1A40EF66E0A0EF76E000EF86E1B6A22
:10412000F2BE1B8EF29E00011DEC07F01BBEF28E4C
:1041300004010901D58173D10401E351020A000190
:1041400007E0010A19E0070A2BE0010A3DE050D020
:104150001F50040810E120520EE1C40EF66E0A0E44
:10416000F76E000EF86E1B6AF2BE1B8EF29E1DECFF
:1041700007F01BBEF28E67D01F50040810E12052DA
:104180000EE1DA0EF66E0A0EF76E000EF86E1B6A7E
:10419000F2BE1B8EF29E1DEC07F01BBEF28E53D0BA
:1041A0001F50040810E120520EE1F00EF66E0A0EC8
:1041B000F76E000EF86E1B6AF2BE1B8EF29E1DECAF
:1041C00007F01BBEF28E3FD01F50040810E12052B2
:1041D0000EE1060EF66E0B0EF76E000EF86E1B6A01
:1041E000F2BE1B8EF29E1DEC07F01BBEF28E2BD092
:1041F0001F50040824E1205222E11C0EF66E0B0E23
:10420000F76E000EF86E1B6AF2BE1B8EF29E260E33
:104210000A01256F000108EC08F01BBEF28EE3C412
:10422000D6F9370E0901D76F000132EC1BF00D0EE5
:104230009EA8FED7AD6E0A0E9EA8FED7AD6E0901F0
:10424000D581EDD000010901D5911F5004082BE163
:10425000205229E14A0EF66E0B0EF76E000EF86E34
:104260001B6AF2BE1B8EF29E2E0E0A01256F000104
:1042700008EC08F01BBEF28E100EE96E1B6AF2BE4F
:104280001B8EF29ED4C926FAD3C925FAC9EC08F0D0
:104290001BBEF28E0D0E9EA8FED7AD6E0A0E9EA816
:1042A000FED7AD6E09019182C69A200EC66E400EF1
:1042B000C76E9E9691921F50040812E1205210E1A1
:1042C0007E0EF66E0B0EF76E000EF86E1B6AF2BED7
:1042D0001B8EF29E00011DEC07F01BBEF28E090141
:1042E000D46BD36B410E0A01116F156B146B136BFA
:1042F000126B0001CAEC1AF001C0CEF90901CE53CD
:1043000004E0350E006E002EFED7D32BD8B4D42B8C
:10431000CE5307E0D451C30804E3E4E1D3514F087E
:10432000E1E2CE534AE01F50040845E1205243E148
:104330009E0EF66E0B0EF76E000EF86E1B6AF2BE46
:104340001B8EF29E260E0A01256F000108EC08F074
:104350001BBEF28ECEC9D6F9370E0901D76F000108
:1043600032EC1BF0C80EF66E0B0EF76E000EF86EF8
:104370001B6AF2BE1B8EF29E0A0E0A01256F000117
:1043800008EC08F01BBEF28E100EE96E1B6AF2BE3E
:104390001B8EF29ED4C926FAD3C925FAC9EC08F0BF
:1043A0001BBEF28E0D0E9EA8FED7AD6E0A0E9EA805
:1043B000FED7AD6E0901D58132D01F5004082BE124
:1043C000205229E1D80EF66E0B0EF76E000EF86E35
:1043D0001B6AF2BE1B8EF29E250E0A01256F00019C
:1043E00008EC08F01BBEF28E100EE96E1B6AF2BEDE
:1043F0001B8EF29ED4C926FAD3C925FAC9EC08F05F
:104400001BBEF28E0D0E9EA8FED7AD6E0A0E9EA8A4
:10441000FED7AD6E0901000155EF1BF00901918235
:10442000D5C901F000011200500E0A01116F10CA27
:1044300015FA0FCA14FA0ECA13FA0DCA12FA0001BD
:10444000CAEC1AF0015003E0400A0CE00ED010CA8A
:10445000E8F40FCAE7F40ECAE6F40DCAE5F4010E5B
:10446000016E05D0000E016E02D0000E016EA9EFA4
:1044700022F0C950C968C730FEE3C9CF15FA0A0156
:10448000146B136B1451270814E303E113510F0845
:1044900010E3153D0ED0350E006E002EFED7C9502C
:1044A000C968C730FEE3C9CF15FA132BD8B4142B53
:1044B000E9D71551FE0807E0155302E1FE0E156F0E
:1044C00015CA01F02BD0146B136B125309E1115371
:1044D00007E11451105D14E303E10F51135D10E285
:1044E0000D511325E96E0E511421EA6EC950C968A9
:1044F000C730FEE3C9CFEFFF132BD8B4142BE5D799
:10450000C950C968C730FEE3C950C968C730FEE367
:10451000C950C968C730FEE3000E016E00011200E9
:104520000401E9A103D0030E016E98D00A010C51D9
:10453000010802E30C5305E1040E016E04018ED064
:104540000A019192106B0F6B020E0E6F0D6B000142
:104550006BD7015206E19182010E016E04017ED0FB
:1045600000010401E35105080DE0D8900ACA0BFAD6
:1045700009CA0AFA08CA09FA0A01086B09370A3790
:104580000B3704010A010C2D2BD0510E116F0BCAF1
:1045900015FA0ACA14FA09CA13FA08CA12FA00016B
:1045A000CAEC1AF0015206E09182040E016E040179
:1045B00055D0000107CA0EFA06CA0DFA0A01126B9D
:1045C000116B020E106F0F6B000153DF015206E0FA
:1045D0009182010E016E040141D000013BD00A011D
:1045E000520E116F0BCA15FA0ACA14FA09CA13FA45
:1045F00008CA12FA0001CAEC1AF0015206E09182D0
:10460000040E016E04012AD0000107CA0EFA06CA80
:104610000DFA0A01126B116B020E106F0F6B000185
:1046200028DF015206E09182010E016E040116D0CE
:104630000001020E0A0107270C07D8B402D00001BE
:10464000E4D74C0E116F156B146B136B126B0001DA
:10465000CAEC1AF09182000E016E040100011200F2
:10466000D4C9DAF9D3C9D9F9D6C9DCF9D5C9DBF986
:104670000901D85303E1D751000830E2D9C9E9FF55
:10468000DAC9EAFFEFCFDDF9DCC903F0DBC9E9FFE6
:10469000DCC9EAFFEF50DD5D16E0DAC903F0D9C9E5
:1046A000E9FF03C0EAFFEFCFDDF9DCC903F0DBC9A6
:1046B000E9FFDCC9EAFFEF50DD5D02E2FF0E01D049
:1046C000010E016E0DD0D92BD8B4DA2BDB2BD8B468
:1046D000DC2BD751D8B4D807D707CBD7000E016E43
:1046E00000011200240E07010E25016E000E0F219D
:1046F000036E01C0D1F90901D26FEA6E01C0E9FF72
:10470000006A020E026E016A0001BDEC1AF0240E6E
:1047100007010E25016E000E0F21036E01C0D1F9B5
:104720000901D26FE8CF07FA01C006FAD0C90BFA27
:10473000CFC90AFACEC909FACDC908FA010E0A0191
:104740000C6F0001EDDE0152D8A477D0220E0701D4
:104750000E25016E020E0F21036E01C0E9FFEA6E05
:10476000ECCFD2F9ED52EFCFD1F90901D151550873
:1047700065E1D251AA0862E15A0E07010E25016EC9
:10478000000E0F21036E01C0D1F90901D26FD46F61
:1047900001C0D3F9070ED66F100ED56FD86B050E7A
:1047A000D76F00015DDF015203E1010E016E49D0B8
:1047B0005A0E07010E25016E000E0F21036E01C077
:1047C000D1F90901D26FD46F01C0D3F9070ED66FAA
:1047D000150ED56FD86B050ED76F000141DF015262
:1047E00003E1020E016E2DD0760E07010E25016E3B
:1047F000000E0F21036E01C0D1F90901D26FD46FF1
:1048000001C0D3F9070ED66F1A0ED56FD86B050EFF
:10481000D76F000125DF015210E14C0E07010E2574
:10482000E96E000E0F21EA6EEF52D8B402D00001FB
:1048300004D0030E016E000104D00901000E016EC8
:10484000000112000901E86BE96B010EEA6FDA6AF8
:10485000D96A090EED6FE00EEC6F090EEA6EE40EF8
:10486000E96EEDC9E2FFECC9E1FFEAC9EBF9D890C6
:10487000E550EE02F350E823F450E923EB2FF7D78D
:10488000E8C9DEFFE9C9E8F9E96BD8B0E92BEC2B00
:10489000D8B4ED2BEA2BEA510508DFE10001120044
:1048A00007010E510F1103E10B0E016EC6D20FC7A7
:1048B000EAFF0EC7E9FF006A020E026E240E016EC7
:1048C0000001BDEC1AF065EC1BF001C0E9F4040135
:1048D000E9A106D0000165EC1BF001C0E9F4040178
:1048E000E9A105D0010E016E0701A7D2040109015B
:1048F000C46BC36BC26BC16BC4C9D0F9C3C9CFF958
:10490000C2C9CEF9C1C9CDF90001ECDE01C0C0F9C0
:104910000901C05337E1E60E07010E25E96E010ECD
:104920000F21EA6EEF521EE0EA0E0E25016E010E17
:104930000F2101C0E9FFEA6EEFCFC1F9ECCFC2F958
:10494000ECCFC3F9ECCFC4F9C4C9D0F9C3C9CFF9CE
:10495000C2C9CEF9C1C9CDF90001C4DE01C0C0F998
:1049600010D00701040EF66E0C0EF76E000EF86EF6
:104970001B6AF2BE1B8EF29E00011DEC07F01BBEEF
:10498000F28E0901C05305E10C0E016E070155D2EC
:10499000090107010EC7E9FF0FC7EAFFC0C9EFFF12
:1049A0000901C051030832E1080E07010E25016E0E
:1049B000000E0F21036E01C0CDF90901CE6F480E24
:1049C00007010E25016E000E0F2101C0E9FFEA6EFE
:1049D000EFCF00F0ECCF01F0ECCF02F0ECCF03F022
:1049E00003C0D2F902C0D1F901C0D0F900C0CFF99B
:1049F000CEC9EAFFCDC9E9FF00C0EFFF01C0ECFF5F
:104A000002C0ECFF03C0ECFF2DD00901080E070126
:104A10000E25016E000E0F21036E01C0CDF90901B4
:104A2000CE6F3A0E07010E25016E000E0F2101C058
:104A3000E9FFEA6EECCF03F0ED52EFCFCFF90901B9
:104A400003C0D0F9CEC9EAFFCDC9E9FFEE52EE525C
:104A5000EC6AED52EF6AED5203C0EFFFED52CFC9A1
:104A6000EFFF0701020E0E25016E000E0F21036EEF
:104A7000310E07010E25E96E000E0F21EA6EEFCF11
:104A8000CFF9090103C0EAFF01C0E9FFCFC9EFFF79
:104A9000030E07010E25016E000E0F21036E340E6A
:104AA00007010E25E96E000E0F21EA6EEFCFCFF958
:104AB000090103C0EAFF01C0E9FFCFC9EFFF100EF3
:104AC00007010E25016E000E0F21036E01C0CDF906
:104AD0000901CE6F320E07010E25016E000E0F2167
:104AE00001C0E9FFEA6EECCF03F0ED52EF5009018F
:104AF000C125006E0350C221016E000EC321026E5B
:104B0000000EC421CEC9EAFFCDC9E9FF00C0EFFF06
:104B100001C0ECFF02C0ECFFEC6E040E07010E2595
:104B2000016E000E0F21036E01C0CDF90901CE6F99
:104B3000350E07010E25016E000E0F2101C0E9FFA1
:104B4000EA6EECCF03F0ED52EFCFCFF90901CEC9F9
:104B5000EAFFCDC9E9FF03C0ECFFED52CFC9EFFF7B
:104B6000080E07010E25E96E000E0F21EA6EEFCF49
:104B7000E0F9ECCFE1F9ECCFE2F9ECCFE3F9030E89
:104B80000E25E96E000E0F21EA6EEFCFE4F9090160
:104B9000EACFD3F9E9CFD2F9E76BE66BE56B000119
:104BA00051DED3C9EAFFD2C9E9FF03C0D0F902C080
:104BB000CFF901C0CEF900C0CDF9100E07010E25C6
:104BC000E96E000E0F21EA6EEFCF00F0ECCF01F09E
:104BD000ECCF02F0ECCF03F000500901CD25C56FFA
:104BE0000150CE21C66F0250CF21C76F0350D02194
:104BF000C86FC051030838E1140E07010E25016E7D
:104C0000000E0F21036E01C0CDF90901CE6F500EC9
:104C100007010E25016E000E0F2101C0E9FFEA6EAB
:104C2000EFCF00F0ECCF01F0ECCF02F0ECCF03F0CF
:104C3000CEC9EAFFCDC9E9FF00C0EFFF01C0ECFF1C
:104C400002C0ECFF03C0ECFF180E0E25E96E000E4B
:104C50000F21EA6EC5C9EFFFC6C9ECFFC7C9ECFF5B
:104C6000C8C9ECFF47D00901140E07010E25E96EF3
:104C7000000E0F21EA6EC5C9EFFFC6C9ECFFC7C918
:104C8000ECFFC8C9ECFF180E0E25016E000E0F21B7
:104C900001C0CDF90901CE6F040E07010E25E96EA2
:104CA000000E0F21EA6EECCFD0F9ED52EFCFCFF925
:104CB0000901D033CF33D033CF33D033CF33D033D8
:104CC000CF330F0ED017CF51C525006ED051C6215E
:104CD000016E000EC721026E000EC821CEC9EAFF88
:104CE000CDC9E9FF00C0EFFF01C0ECFF02C0ECFF3F
:104CF000EC6E0701440E0E25016E000E0F2101C05F
:104D0000E9FFEA6EEFCFC9F9ECCFCAF9ECCFCBF9E6
:104D1000ECCFCCF90901C95317E1CA5315E1CB53C4
:104D200013E1CC5311E1370E07010E25016E000E81
:104D30000F2101C0E9FFEA6E0901CC6BCB6BECCF10
:104D4000CAF9ED52EFCFC9F90C0E07010E25016E1D
:104D5000000E0F21036E01C0CDF90901CE6F180EB0
:104D600007010E25E96E000E0F21EA6EEFCF00F06D
:104D7000ECCF01F0ECCF02F0ECCF03F000500901D2
:104D8000C95DCF6F0150CA59D06F0250CB59D16F56
:104D90000350CC59D26FC151CF27C251D023C35138
:104DA000D123C451D223020E07010E25E96E000E55
:104DB0000F21EA6EEFCF35FA0901EACFD5F9E9CF35
:104DC000D4F9D8921B6AF2BE1B8EF29ED2C934FA75
:104DD000D1C933FAD0C932FACFC931FA0A01386BD6
:104DE000376B366B000121EC08F01BBEF28ED5C983
:104DF000EAFFD4C9E9FF03C0D2F902C0D1F901C06A
:104E0000D0F900C0CFF9020E09010024006E000E97
:104E10000120016E000E0220026E000E0320CEC99A
:104E2000EAFFCDC9E9FF00C0EFFF01C0ECFF02C0FF
:104E3000ECFFEC6E000E016E070100011200400E47
:104E4000F66E0C0EF76E000EF86E1B6AF2BE1B8E2D
:104E5000F29E1DEC07F01BBEF28E000B0EE0500E12
:104E6000F66E0C0EF76E000EF86E1B6AF2BE1B8E0D
:104E7000F29E1DEC07F01BBEF28E080174A110D04B
:104E80005E0EF66E0C0EF76E000EF86E1B6AF2BE2A
:104E90001B8EF29E00011DEC07F01BBEF28E080176
:104EA00074A310D0740EF66E0C0EF76E000EF86E32
:104EB0001B6AF2BE1B8EF29E00011DEC07F01BBEAA
:104EC000F28E08017451030B10E0880EF66E0C0E82
:104ED000F76E000EF86E1B6AF2BE1B8EF29E00018A
:104EE0001DEC07F01BBEF28E080174A510D09A0EBF
:104EF000F66E0C0EF76E000EF86E1B6AF2BE1B8E7D
:104F0000F29E00011DEC07F01BBEF28E08017451E9
:104F1000050B10E0AC0EF66E0C0EF76E000EF86E80
:104F20001B6AF2BE1B8EF29E00011DEC07F01BBE39
:104F3000F28E08017451060B10E0C00EF66E0C0ED6
:104F4000F76E000EF86E1B6AF2BE1B8EF29E000119
:104F50001DEC07F01BBEF28E08017451070B10E028
:104F6000D00EF66E0C0EF76E000EF86E1B6AF2BED7
:104F70001B8EF29E00011DEC07F01BBEF28E080195
:104F80007451090B10E0E60EF66E0C0EF76E000E73
:104F9000F86E1B6AF2BE1B8EF29E00011DEC07F03C
:104FA0001BBEF28E080174510A0B10E0020EF66E61
:104FB0000D0EF76E000EF86E1B6AF2BE1B8EF29E8F
:104FC00000011DEC07F01BBEF28E080174510B0BA3
:104FD00010E0180EF66E0D0EF76E000EF86E1B6ADE
:104FE000F2BE1B8EF29E00011DEC07F01BBEF28E7E
:104FF000080174510C0B10E02A0EF66E0D0EF76EC0
:10500000000EF86E1B6AF2BE1B8EF29E00011DECB4
:1050100007F01BBEF28E0801000152EF28F00801D4
:10502000DB6BDB5101082CE3D851DB25DC6F080E6C
:10503000DE6FD90EDD6FDB51DD25016E000EDE2146
:10504000036E0150E96E03C0EAFFEFCFDDF8F250C6
:10505000006EF29E636ADCC862FFDDC861FF7F9C60
:105060007F9E7F840F01550E7E6EAA0E7E6E7F821C
:105070007FB2FED77F940050F2120801DB2BD1D70C
:10508000000112000801736B7351020812E3000162
:1050900007DC01C020F70701205305E020C774F8A2
:1050A0000001CDD603D0080104D000010801732B04
:1050B000EBD73E0ED86FDA6B20C7D9F80001AFDF0F
:1050C000070120C701F000011200560EF66E060E11
:1050D000F76E000EF86E1B6AF2BE1B8EF29E1DEC80
:1050E00007F01BBEF28E12001EC0EAFF1DC0E9FFD2
:1050F0000801E9C8EFFFE92AD8B4EA2AEF6A1D2AB5
:10510000D8B41E2A000112000900F55210E0F6CFB3
:10511000D5F8F7CFD6F8F8CFD7F8F5CFE9F8E4DF30
:10512000D5C8F6FFD6C8F7FFD7C8F8FFEDD71200ED
:10513000020EEA6E950EE96E006A026A1E0E016E9C
:10514000BDEC1AF012000801DD6BDC6BDB6BDA6B77
:10515000000E016EC250830B0110C26E000E016E74
:10516000C150F80B0110C16E010ED76FD751320834
:1051700012E3C282C2B2FED7C3CFDEF8C4CFDFF8DB
:10518000E06BE16B050E0901D66F0001B2EC14F083
:105190000801D72BEBD7010ED76FD751640856E320
:1051A000C282C2B2FED7C3CFDEF8C4CFDFF8E06B55
:1051B000E16B010ED75DE26FDDC8E3F9DCC8E2F90F
:1051C000DBC8E1F9DAC8E0F90901E76BE66BE56BEA
:1051D000E46F000122EC24F003C0E5F802C0E4F81B
:1051E00001C0E3F800C0E2F80801DE51E227DF5118
:1051F000E323E051E423E151E523D8921B6AF2BE98
:105200001B8EF29EE5C834FAE4C833FAE3C832FADA
:10521000E2C831FA0A01386B376B366BD7C835FAFA
:10522000000121EC08F01BBEF28E03C0DDF802C0C5
:10523000DCF801C0DBF800C0DAF8050E0901D66F12
:105240000001B2EC14F00801D72BA7D7DDC8E3F9B1
:10525000DCC8E2F9DBC8E1F9DAC8E0F90901E76B7B
:10526000E66BE56B640EE46F000122EC24F003C0F2
:10527000E5F802C0E4F801C0E3F800C0E2F8D89213
:105280001B6AF2BE1B8EF29E03C034FA02C033FAD0
:1052900001C032FA00C031FA0A01386B376B010ED7
:1052A000366F100E356F000121EC08F01BBEF28E38
:1052B000560E08010024D86F000E0120D96FD8C8FF
:1052C00001F0D9C802F00001120001501B6AF2BEC1
:1052D0001B8EF29ED7C827FA640E0A01286F0001C0
:1052E000B3EC07F01BBEF28E00C0D7F80150300EB1
:1052F00008E10801D8A30FD0D8B70DD0D8B9200E37
:1053000004D00801D897D899D881012601C0E9F8BE
:105310000001EADE08011B6AF2BE1B8EF29ED7C8AE
:1053200027FA0A0E0A01286F0001B3EC07F01BBE32
:10533000F28E00C0D7F80150300E08E10801D8B74E
:105340000AD0D8A108D0D8B9200E0001012601C08A
:10535000E9F8CADE0801300ED727D7C8E9F80001FE
:10536000C3DE1200E9500801DC6F3B0EE36F9A0EBA
:10537000E26FCA0EE16FE06B0A0EDE6FDB51D8A45C
:10538000DC07D882080EEA6ED70EE96E1B6AF2BE01
:105390001B8EF29EDAC834FAD9C833FAD8C832FA6A
:1053A000D7C831FAE3C838FAE2C837FAE1C836FAA2
:1053B000E0C835FA000121EC08F01BBEF28E015066
:1053C000005213E10801DB29DE5DD8A402D0000100
:1053D0000CD0DC510CE00F0BDE5D01E01EE2DCBF07
:1053E0001CD0DCBD04D0200E12D00801DC6BDB51D8
:1053F000DE5D0CE100C0DCF82E0EE96F000174DE0A
:105400000801DCC800F0200EDC17000E300E00266C
:1054100000C0E9F8000168DE0801D8921B6AF2BEFC
:105420001B8EF29EE3C834FAE2C833FAE1C832FABE
:10543000E0C831FA0A01386B376B366B0A0E356FEC
:10544000000121EC08F01BBEF28E03C0E3F802C09D
:10545000E2F801C0E1F800C0E0F80801DE2F91D7C2
:105460000001120065DE6FDE02C0D6F801C0D5F87B
:10547000CCEC19F0020E1E6E950E1D6E26C7D7F8E5
:10548000010E0801D86F000120DF2F0E0801E96F1F
:1054900000012ADE25C7D7F8010E0801D86F0001E8
:1054A00014DF2F0E0801E96F00011EDE27C7D7F8B1
:1054B000010E0801D86F000108DF200E0801E96F16
:1054C000000112DE23C7D7F8010E0801D86F0001D2
:1054D000FCDE3A0E0801E96F000106DE22C7D7F8AC
:1054E000010E0801D86F0001F0DE3A0E0801E96FE5
:1054F0000001FADD21C7D7F8010E0801D86F0001BD
:10550000E4DE2C0E0801E96F0001EEDD440EE96EC9
:105510000801DA6BD96BD6C8D8F8D5C8D7F8020E0F
:10552000DB6F00011FDF1200E3C8E7F8E2C8E6F80E
:10553000E7C803F00801E6C8E9FFE7C8EAFFEF5251
:1055400006E0E62BD8B4E72B0001F2D70801E5C846
:1055500003F0E4C8E9FFE5C8EAFFEF5213E0E4C84E
:10556000E9FFE5C8EAFFEFCFEAF8E7C8EAFFE6C8D7
:10557000E9FFEAC8EFFFE62BD8B4E72BE42BD8B459
:10558000E52BE5D7E6C8E9FFE7C8EAFFEF6AE2C81E
:1055900001F0E3C802F000011200F29A04001200C8
:1055A000CF6ACE6A89882F50020803E1305201E1A8
:1055B000908C9E909D80E5EF2AF00B0ED76EDC0E4E
:1055C000D66E0400F294F28AEBD712000801D7518C
:1055D000000A000103E0010A03E003D0DEDF01D08E
:1055E000ECDF12000401E993E995E9C401F0000140
:1055F000120007010E510F1103E10B0E016E28D0AE
:105600000001F0DF01A015D0010E07010E25E96EA3
:10561000000E0F21EA6EEF5204E0090E016E18D061
:1056200006D0000150EC24F00150070111D00ED03B
:10563000000107010EC7E9FF0FC7EAFFEF5206E1BD
:10564000000150EC24F00150070102D0000E016E61
:1056500000011200020E0901D95F000EDA5BDB5B6C
:10566000DC5B0C0E07010E25E96E000E0F21EA6EC1
:10567000EFCF00F0ECCF01F0ECCF02F0ECCF03F075
:1056800003500901DC5D11E30BE10250DB5D0DE32A
:1056900007E10150DA5D09E303E10050D95D05E35C
:1056A000006A016A026A036A40D0020E07010E25F1
:1056B000E96E000E0F21EA6EEFCFE4F90901EACF9F
:1056C000DFF9E9CFDEF9DCC9E3F9DBC9E2F9DAC9D0
:1056D000E1F9D9C9E0F9E76BE66BE56B000122EC73
:1056E00024F0DFC9EAFFDEC9E9FF03C0E0F902C028
:1056F000DFF901C0DEF900C0DDF9180E07010E2543
:10570000E96E000E0F21EA6EEFCF00F0ECCF01F052
:10571000ECCF02F0ECCF03F00901DD510026DE51A1
:105720000122DF510222E051032200011200D2C9FE
:10573000EAFFD1C9E9FF200E006E026A0B0E016E6E
:10574000BDEC1AF00901D66B180ED76FD36B080E9B
:10575000D46FCFC9E9FFD0C9EAFFECCFD9F9ED5238
:10576000EFCFD8F9D8C9E9FFD9C9EAFFEFCFD5F90A
:10577000D0C903F0CFC9E9FFD0C9EAFF010EEE2678
:1057800001E3EF2AD551200801E3D56BD55306E09C
:10579000D5512F0803E0D5515C080FE1D35301E147
:1057A00070D00B0ED125E96E000ED221EA6ED651D3
:1057B000D715EF6ED5C901F066D0D551200803E2A8
:1057C000D5517F0801E15DD0D5512E080EE1D6B14B
:1057D0000BD0D351000808E2D351080805E3080EA6
:1057E000D36F0B0ED46F4CD04CD0D551220801E1B1
:1057F00048D0D551290801E335D0D5512C0801E313
:1058000040D0D551390801E32DD0D5513F0801E3EF
:1058100038D0D6B127D0D5517C0801E132D0D5514E
:105820005A0804E2D5515D0801E32BD0D551400858
:105830000AE2D5515A0807E3D451080803E1D79783
:10584000D75101D0D799D55160080CE2D5517A08CB
:1058500009E3200ED55FD451080803E1D687D6515D
:1058600001D0D689D691D451D35D01E30AD0D3516A
:10587000D32BD125E96E000ED221EA6ED5C9EFFFF8
:1058800068D7010E016E0001EEEF31F0C30E0A0180
:10589000156F500E146FC950C968C730FEE3350E3E
:1058A000006E002EFED7C950C968C730FEE3C9CFCD
:1058B00013FA1451D8B415071407133D01D003D0BF
:1058C00014511511ECE113CA01F000016EEF2CF038
:1058D000020E0A01126F116B0001D8D7013C01D0F2
:1058E00003D0000E016E4DD0C9500FCAC9FFC7309A
:1058F000FEE30A010F51FD0841E012CA03F0115105
:10590000D8B412071107031011E00ECA03F00D51AD
:105910000D2BD8B40E2BE96E03C0EAFFEFCF13FABC
:10592000C95013CAC9FFC730FEE3E7D7C950C968D9
:10593000C730FEE3C950C968C730FEE3C950C96823
:10594000C730FEE3C9CF10FA126B116B1251C308B6
:1059500015E303E111514F0811E3350E006E002EDF
:10596000FED7C950C968C730FEE3C9CF10FA10533B
:1059700001E004D0112BD8B4122BE8D7010E016E30
:10598000000112000401E9A103D0030E016E9AD0B8
:10599000E9A503D0020E016E95D00A010C5305E172
:1059A000040E016E04018ED00A0191920401E351AC
:1059B00005080DE0D8900ACA0BFA09CA0AFA08CA03
:1059C00009FA0A01086B09370A370B3704010A0183
:1059D0000C2D1FD0580E116F0BCA15FA0ACA14FAF3
:1059E00009CA13FA08CA12FA0001CAEC1AF00152E5
:1059F0000EE107CA0EFA06CA0DFAFE0E0A010F6F73
:105A0000000166DF015203E00A010C6B00014DD07A
:105A10000A010401E351030B16E0770E0A01116F2E
:105A2000156B146B136B126B0001CAEC1AF0570E56
:105A30000A01116F156B146B136B0CCA12FA00017B
:105A4000CAEC1AF00401590E0A01116F0BCA15FABB
:105A50000ACA14FA09CA13FA08CA12FA0001CAECEF
:105A60001AF0015222E107CA0EFA06CA0DFAFC0E1C
:105A70000A010F6F00012CDF015201E109D0020E73
:105A80000A0107270C07D8B402D00001ECD70001A7
:105A90000A010E6B0D6BFD0E0F6F000119DF015235
:105AA00004E1010E0A010C6F00019182C950C9681E
:105AB000C730FEE30A010C5302E0010E01D0000ED4
:105AC000016E040100011200200E07010E25E96E8F
:105AD000000E0F21EA6EEFCFFEF9ECCFFFF9ECCF0D
