:040000008CEFD7F0BA
:08000800046ED8CF05F0E0CF33
:1000100006F00001E9CF0CF0EACF07F0E1CF08F0DD
:10002000E2CF09F0D9CF0AF0DACF0BF0F3CF12F01C
:10003000F4CF13F0FACF14F0F5CF15F0F6CF16F099
:10004000F7CF17F0F8CF18F0FBCF19F000C00EF083
:1000500001C00FF002C010F003C011F0F2AA34EF9B
:1000600000F0F2B465EF07F09DA03AEF00F09EB00B
:100070007AEF07F0A0A240EF00F0A1B275EF0CF00C
:10008000F2A846EF00F0F2B200EF07F0F0A64CEF56
:1000900000F0F0B066EF0BF0F0A852EF00F0F0B215
:1000A000A1EF0BF09DAA58EF00F09EBA2DEF07F0DC
:1000B0000EC000F00FC001F010C002F011C003F03C
:1000C0000CC0E9FF07C0EAFF078E08C0E1FF09C0C6
:1000D000E2FF0AC0D9FF0BC0DAFF12C0F3FF13C062
:1000E000F4FF14C0FAFF15C0F5FF16C0F6FF17C0E5
:1000F000F7FF18C0F8FF19C0FBFF045006C0E0FF6F
:1001000005C0D8FF1000F76A1A0FF66E010EF7222D
:10011000000EF86E0900F55012004E6F2045727205
:100120006F720000F76A380FF66E010EF722000EAC
:10013000F86E0900F5501200494C4C4547414C20DF
:1001400046494C45204E414D4500F76A5E0FF66E1C
:10015000010EF722000EF86E0900F55012004D4511
:10016000444941204E4F5420524541445900F76ABA
:10017000820FF66E010EF722000EF86E0900F550A0
:10018000120046494C45204E4F5420464F554E4490
:100190000000F76AA60FF66E010EF722000EF86E49
:1001A0000900F550120050415448204E4F5420464B
:1001B0004F554E440000F76ACA0FF66E010EF72243
:1001C000000EF86E0900F5501200414343455353A9
:1001D0002044454E49454400F76AEC0FF66E010E87
:1001E000F722000EF86E0900F55012004D45444903
:1001F000412046554C4C0000F76A0C0FF66E020E7B
:10020000F722000EF86E0900F5501200522F572009
:100210004552524F5200F76A2A0FF66E020EF7222D
:10022000000EF86E0900F5501200494E434F52522D
:10023000454354204D45444941204348414E47459C
:100240000000F76A560FF66E020EF722000EF86EE7
:100250000900F550120057524954452050524F544E
:10026000454354454400F76A7A0FF66E020EF722B2
:10027000000EF86E0900F55012004653204E4F5400
:1002800020454E41424C45440000F76A9E0FF66EF1
:10029000020EF722000EF86E0900F55012004E4FC4
:1002A0002046494C4553595354454D00F76AC00FF9
:1002B000F66E020EF722000EF86E0900F5501200DD
:1002C000554E4B4E4F574E204552524F5200F76AF3
:1002D000E20FF66E020EF722000EF86E0900F550DE
:1002E00012000000F76AF80FF66E020EF722000EF9
:1002F000F86E0900F550120058585800F76A100FB0
:10030000F66E030EF722000EF86E0900F55012008B
:100310004E4F3300F76A280FF66E030EF722000ED9
:10032000F86E0900F5501200504F3400F76A400F84
:10033000F66E030EF722000EF86E0900F55012005B
:100340004E483400F76A580FF66E030EF722000E7F
:10035000F86E0900F550120053694F00F76A700FEC
:10036000F66E030EF722000EF86E0900F55012002B
:1003700055726500F76A880FF66E030EF722000EBD
:10038000F86E0900F55012004E4F3200F76AA00FC8
:10039000F66E030EF722000EF86E0900F5501200FB
:1003A00046655F00F76AB80FF66E030EF722000E7F
:1003B000F86E0900F5501200436C5F00F76AD00F29
:1003C000F66E030EF722000EF86E0900F5501200CB
:1003D000536D7000F76AE80FF66E030EF722000EF9
:1003E000F86E0900F550120053746400F76A000FAC
:1003F000F66E040EF722000EF86E0900F55012009A
:10040000436D6200F76A180FF66E040EF722000EB5
:10041000F86E0900F550120054737400F76A300F3B
:10042000F66E040EF722000EF86E0900F550120069
:1004300052626C00F76A480FF66E040EF722000E47
:10044000F86E0900F550120043616C00F76A600F06
:10045000F66E040EF722000EF86E0900F550120039
:10046000466C7300F76A780FF66E040EF722000EE2
:10047000F86E0900F550120055746C00F76A900F81
:10048000F66E040EF722000EF86E0900F550120009
:1004900049307300F76AA80FF66E040EF722000EBB
:1004A000F86E0900F550120049317300F76AC00F69
:1004B000F66E040EF722000EF86E0900F5501200D9
:1004C00049307400F76AD80FF66E040EF722000E5A
:1004D000F86E0900F550120049317400F76AF00F08
:1004E000F66E040EF722000EF86E0900F5501200A9
:1004F00049307200F76A080FF66E050EF722000EFB
:10050000F86E0900F550120049317200F76A200FA9
:10051000F66E050EF722000EF86E0900F550120077
:1005200049307500F76A380FF66E050EF722000E97
:10053000F86E0900F550120049317500F76A500F46
:10054000F66E050EF722000EF86E0900F550120047
:1005500043686B00F76A680FF66E050EF722000E0F
:10056000F86E0900F550120058580000F76A800F25
:10057000F66E050EF722000EF86E0900F550120017
:100580002C2C2C2C2C2C2C0077726974696E670033
:1005900072656164696E6700256C783A20726561E6
:1005A000642025782C2073686F756C642062652048
:1005B00025780A0D0000646F6E650A0D0000454342
:1005C0004F2D322025730D0A000056322E31323560
:1005D0000000574D532D342D53442025730D0A0030
:1005E00056322E31323500004157532D31202573BC
:1005F0000D0A000056322E3132350000574D532D72
:10060000342D51452025730D0A0056322E313235D6
:1006100000005858582D302025730D0A000056321E
:100620002E313235000040494E560D0A000040413F
:1006300052470D0A0000404552520D0A0000404F3B
:100640004B210D0A0000405245530D0A0000405353
:1006500044310D0A00004053445F0D0A0000404D34
:1006600041580D0A00003F404253590D0A004052C4
:1006700044590D0A00004046533A446973636F764B
:100680006572790D0A004046533A556E61626C6599
:1006900020746F20707574206361726420696E200D
:1006A00069646C652073746174652C207265737065
:1006B0006F6E7365203D20253032780D0A0040466C
:1006C000533A436172642069646C652C20726573CF
:1006D000706F6E7365203D20253032780D0A000062
:1006E0004046533A526573706F6E736520746F2085
:1006F0005344207665722032207465737420434D14
:100700004438203D2025780D0A004046533A506F6A
:10071000737369626C65205344763220636172643E
:100720002064657465637465640D0A004046533A3D
:10073000566F6C746167652072616E6765206368CF
:1007400065636B2C206F6372203D20253032782545
:1007500030327825303278253032780D0A00404624
:10076000533A43617264205664642072616E676517
:10077000203D20322E372D332E3620766F6C747349
:100780000D0A00004046533A53656E64696E672057
:1007900041434D44343120636F6D6D616E6420744C
:1007A0006F20534420766572203220636172640D9D
:1007B0000A004046533A526573706F6E7365206647
:1007C000726F6D2073656E64696E672041434D449E
:1007D0003431203D20253032782C2054696D6572EB
:1007E000203D20256C750D0A00004046533A5265A5
:1007F00073706F6E736520746F20434D44353820DD
:100800003D2025780D0A00004046533A53656E742A
:1008100020434D442035382C2054696D6572207674
:10082000616C7565203D20256C752C206F637220EE
:100830003D20253032782530327825303278253009
:1008400032780D0A00004046533A436172642043F7
:10085000414E4E4F5420776F726B20566464207265
:10086000616E6765206F6620322E372D332E36205D
:10087000766F6C74730D0A004046533A4E6F7420C5
:10088000616E2053445343206F72205344484320E9
:10089000636172642C2054657374696E6720666F9F
:1008A000722053442056657231206F72204D4D43A3
:1008B00020436172640D0A004046533A52657370DA
:1008C0006F6E73652066726F6D20474F5F49444CB1
:1008D00045203D20253032780D0A00004046533A2D
:1008E000526573706F6E73652066726F6D2053442E
:1008F0005F434D445F53454E445F4F505F434F4EFF
:1009000044203D20253032782C2054696D657220BA
:100910003D20256C750D0A004046533A41747465BC
:100920006D7074696E6720534476312076657273FA
:100930007573204D4D432049442C20526573706FD0
:100940006E73652066726F6D2053445F434D445F44
:100950004150504C5F434D44203D20253032780DAE
:100960000A004046533A496E76616C6964207265AC
:1009700073706F6E736520746F2053445F41434DF5
:100980004434312C20726573706F6E7365203D2086
:10099000253032582C207265696E697469616C6902
:1009A0007A696E67206173204D4D430D0A00404601
:1009B000533A4661696C656420746F20696E69748E
:1009C00069616C697A65206173204D4D432C2072FA
:1009D0006573706F6E7365203D20253032582C2072
:1009E00065786974696E670D0A004046533A436141
:1009F0007264206661696C656420746F207265732F
:100A0000706F6E6420636F727265636C79206166CB
:100A10007465722053445F434D445F53454E445FB9
:100A20004F505F434F4E442C20726573706F6E734E
:100A300065203D20253032582C2054696D65722088
:100A40003D20256C750D0A004046533A5365747479
:100A5000696E6720626C6F636B206C656E6774688B
:100A60000D0A00004046533A4572726F722073655A
:100A70007474696E6720626C6F636B206C656E675F
:100A800074682C20726573706F6E7365203D20252D
:100A90003032782C2074696D6572203D20256C758C
:100AA0000D0A00004046533A436172642054797045
:100AB0006520446973636F76657279204572726F41
:100AC000720D0A004046533A4D4D43204361726413
:100AD00020666F756E640D0A00004046533A534419
:100AE0007631204361726420666F756E640D0A0072
:100AF0004046533A53445343204361726420666F27
:100B0000756E640D0A004046533A534448432043EF
:100B100061726420666F756E640D0A004046533A38
:100B200043617264205479706520446973636F7601
:100B3000657279204572726F722C20436172642055
:100B40003D20253032580D0A00004046533A43619B
:100B50007264207265736574207375636365737363
:100B6000202D20436D6420746F20526561647920CC
:100B7000636F756E74203D20256C750D0A0040462C
:100B8000533A535049206275732073706565642031
:100B900073657420746F20686967680D0A004046A9
:100BA000533A4361726420616374697661746520AD
:100BB0006661696C7572652C20726573706F6E73F7
:100BC00065203D20253032582C2054696D657220F7
:100BD0003D20256C750D0A004046533A436172640E
:100BE00020616374697661746520737563636573EE
:100BF00073206F6E20617474656D707420256C7540
:100C00000D0A000046415420617420736563746FBF
:100C10007220300D0A005459504520636F6D6D618C
:100C20006E64204552524F520D0A00004046533A1E
:100C30002025730D0A004046533A2025730D0A0003
:100C40002A2A204046533A204552524F520D0A005C
:100C50002020204E6F4572726F720D0A0000202016
:100C6000204D65646961204E6F742052656164791E
:100C70000D0A000020202046696C65204E6F74200C
:100C8000466F756E640D0A00202020496E76616CF7
:100C9000696420506174680D0A00202020496E7636
:100CA000616C6964204E616D650D0A002020204151
:100CB00063636573732044656E6965640D0A0000A3
:100CC0002020204469736B2046756C6C0D0A00006F
:100CD000202020526561642F577269746520457227
:100CE000726F720D0A00202020496E636F72726568
:100CF0006374204D65646961204368616E67650DAA
:100D00000A0020202057726974652050726F746544
:100D1000637465640D0A00002020204E6F74204526
:100D20006E61626C65640D0A00002020204E6F2009
:100D300046696C652053797374656D0D0A006170A6
:100D400070656E643A204653204552524F52206FD0
:100D50006E2066696C655F6F70656E0D0A004046B7
:100D6000533A57726974696E670D0A5B25735D0D9E
:100D70000A004046533A4552524F525B61707065CB
:100D80006E645D0D0A004046533A436C6F73696EA2
:100D9000670D0A00405254433A253032752F000047
:100DA000405254433A253032752F000040414C4D9B
:100DB0003A253032752F000040414C4D3A253032F3
:100DC000752F000040414C4D0D0A00000A010F6BC9
:100DD000C69A210EC66E400EC76E9190C9500F0E76
:100DE000C96EC730FEE3C9CF0FFAC9500FCAC9FF99
:100DF000C730FEE3C9CF2FF791804994000112005C
:100E00004980499249A401D0FDD74984DFDF352AC2
:100E1000D8B4362AF29258EF00F09EAAFED7ABCF94
:100E20001CF0AECF01F01CA202D0AB98AB88120030
:100E30000900F55211E0F6CF10FAF7CF11FAF8CF0A
:100E400012FAF5509EA8FED7AD6E10CAF6FF11CA71
:100E5000F7FF12CAF8FFECD71200AE5049B228D003
:100E60009EAA25D0DADF01C00FFA0A010F513F0A0E
:100E7000000105E02E0A15E00A0A16E018D04A2CF7
:100E800008D0BA0EF66E0E0EF76E000EF86ED0DFBA
:100E900007D0C20EF66E0E0EF76E000EF86EC8DFAB
:100EA00006D0010E4C6E03D0326A010E316E02D0B4
:100EB000F29C9E9A9E9A58EF00F03F404253590D83
:100EC0000A00405244590D0A00000B0ED76EDC0E8A
:100ED000D66E0400F294F28ACF6ACE6A89882F50C7
:100EE000020803E1305201E1908C9E909D80F294C3
:100EF00058EF00F09D9089982F50020803E130527E
:100F000001E1909C9E9058EF00F0405B4F5D0D0A10
:100F1000000040434D4420746F6F206C6F6E670D6E
:100F20000A00405B435D0D0A000040534C454550AC
:100F30000D0A0000404D45522C254C752C254C7552
:100F40000D0A00006D3A25752C257520633A254C55
:100F5000752C254C752C254C750D0A000A011B516A
:100F6000016A1A5D03E21ACA00F00CD0006A080E8A
:100F70001C6F1A3700361B51005CD8B0006E01366A
:100F80001C2FF7D700011200015018CA1AFA640E7C
:100F90000A011B6F0001E2DF00C018FA0150300E99
:100FA00008E10A0119A30ED019B70CD019B9200E07
:100FB00004D00A01199719991981012601509EA898
:100FC000FED7AD6E18CA1AFA0A0E1B6F0001C6DFF3
:100FD00000C018FA0150300E08E10A0119B70BD011
:100FE00019A109D019B9200E0001012601509EA8AF
:100FF000FED7AD6E0A01300E182718519EA8FED7F5
:10100000AD6E000112000900F6CF19FAF7CF1AFAF7
:10101000F8CF1BFAF5509EA8FED7AD6E19CAF6FFA1
:101020001ACAF7FF1BCAF8FF0A01182F01D002D015
:101030000001E9D700011200D8B204D00A0EEA6E0E
:101040002C0EE96E006A016A026A036A0A012C6BBF
:101050002D6B2E6B2F6B2B512A11291128112CE08F
:10106000200E306FD89024372537263727372C3776
:101070002D372E372F372B512F5D08E12A512E5D4A
:1010800005E129512D5D02E128512C5D0FE3285126
:101090002C5F2951D8A0293D2D5F2A51D8A02A3D87
:1010A0002E5F2B51D8A02B3D2F5FD8800036013604
:1010B00002360336302FD6D72CCAEFFF2DCAECFFED
:1010C0002ECAECFF2FCAECFF00011200E9500A0102
:1010D0001C6F3B0E236F9A0E226FCA0E216F206B7E
:1010E0000A0E1E6FD8820A0EEA6E180EE96E1BCA2F
:1010F00027FA1ACA26FA19CA25FA18CA24FA23CADC
:101100002BFA22CA2AFA21CA29FA20CA28FA00018F
:1011100093DF0150005213E10A011E51010AD8A4C5
:1011200002D000010CD01C510CE00F0B1E5D01E041
:101130000EE21CBF0CD01CBD04D0200E03D00A014F
:101140001C6B300E002600509EA8FED7AD6ED892C4
:1011500023CA27FA22CA26FA21CA25FA20CA24FA63
:101160002B6B2A6B296B0A0E286F000165DF03C009
:1011700023FA02C022FA01C021FA00C020FA0A01B3
:101180001E2FB0D700011200EACF20FAE9CF1FFAD4
:101190000A011939F0091B6F1B27E20F1C6F320F70
:1011A0001E6F19510F0B1C271C271E27E90F1D6FDF
:1011B0001D271D2718390F0B1D271E271D371E370A
:1011C0001E1F1E3718510F0B1E271B37070E1A6FD5
:1011D0000A0E1D071E27FDE31C071D27FDE31B0745
:1011E0001C27FDE31A071B27FDE30A0EEA6E1A0E01
:1011F000E96E070E1F151F9DE926000EEA22E95031
:101200001E0804E1EA500A0801E11F8DEF50006E4C
:1012100008E11FBD06D01FB90CD01FB702D0200EA9
:1012200003D01F871F99300E002600509EA8FED7BE
:10123000AD6EEE501FADE3D700011200D89007014C
:101240003C35036A4A0FE96E070E0320EA6EECCFC5
:1012500010FAED52EFCF0FFA0A010F53D8A4C3D002
:101260001053D8A4C0D0D89007013C35036A820F30
:10127000E96E070E0320EA6EECCF10FAED52EFCFC5
:101280000FFA0A010F534CE110534AE1D8900701BD
:101290003C35036ABB0FE96E070E0320EA6EECCF04
:1012A00010FAED52EFCF0FFAD8903C35036A5A0F7F
:1012B000E96E070E0320EA6EECCF03F0ED52EFCF9C
:1012C00001F003500A01105D11E303E101500F5DCD
:1012D0000DE3D89007013C35036ABB0FE96E070E9A
:1012E0000320EA6EEC6AED52EF6A0A01D89007011A
:1012F0003C35036ABB0FE96E070E0320EA6E010E50
:10130000EE2601E3EF2AD8903C35036A960FE96E8A
:10131000070E0320EA6EEC6AED52EF6A63D00A0111
:10132000D89007013C35036A820FE96E070E03204F
:10133000EA6EECCF10FAED52EFCF0FFA0A010F2D43
:1013400052D0105350E1D89007013C35036ABB0FCF
:10135000E96E070E0320EA6EECCF10FAED52EFCFE4
:101360000FFA0A010F5325E1105323E1D89007012A
:101370003C35036ABB0F016E070E03220A0103C04E
:1013800010FAD89007013C35036A5A0FE96E070E30
:101390000320EA6EECCF03F0ED52EFCF11FA0A0111
:1013A00010CAEAFF01C0E9FF03C0ECFFED5211CA09
:1013B000EFFFD89007013C35036ABB0FE96E070EBB
:1013C0000320EA6EFF0EEF2602E2EE52ED06D89001
:1013D0003C35036A960FE96E070E0320EA6EEC6A4D
:1013E000ED52EF6A0A01D89007013C35036A4A0FB3
:1013F000E96E070E0320EA6EECCF10FAED52EFCF44
:101400000FFA0A010F2DC3D01053D8A4C0D0D89022
:1014100007013C35036A820FE96E070E0320EA6E6E
:10142000ECCF10FAED52EFCF0FFA0A010F2D4CD08E
:1014300010534AE1D89007013C35036ABB0FE96EAF
:10144000070E0320EA6EECCF10FAED52EFCF0FFA41
:10145000D8903C35036A5A0FE96E070E0320EA6EF6
:10146000ECCF03F0ED52EFCF01F003500A01105D15
:1014700011E303E101500F5D0DE3D89007013C3506
:10148000036ABB0FE96E070E0320EA6EEC6AED52A9
:10149000EF6A0A01D89007013C35036ABB0FE96E79
:1014A000070E0320EA6E010EEE2601E3EF2AD89024
:1014B0003C35036A960FE96E070E0320EA6EEC6A6C
:1014C000ED52EF6A63D00A01D89007013C35036AF8
:1014D000820FE96E070E0320EA6EECCF10FAED5290
:1014E000EFCF0FFA0A010F5352E1105350E1D89099
:1014F00007013C35036ABB0FE96E070E0320EA6E55
:10150000ECCF10FAED52EFCF0FFA0A010F5325E19D
:10151000105323E1D89007013C35036ABB0F016EDD
:10152000070E03220A0103C010FAD89007013C35C8
:10153000036A5A0FE96E070E0320EA6EECCF03F040
:10154000ED52EFCF11FA0A0110CAEAFF01C0E9FF1C
:1015500003C0ECFFED5211CAEFFFD89007013C35F4
:10156000036ABB0FE96E070E0320EA6EFF0EEF263B
:1015700002E2EE52ED06D8903C35036A960FE96E12
:10158000070E0320EA6EEC6AED52EF6A0A011F5063
:101590000408D8A499D02052D8A496D0D890070196
:1015A0003C35036A660FE96E070E0320EA6EECCF46
:1015B00010FAED52EFCF0FFA0A010F510208D8A42A
:1015C00083D01053D8A480D0010E07013C250A0116
:1015D0000F6F07013C51040DF350036A9E0FE96E33
:1015E000070E0320EA6EEFCF10FAECCF11FAECCF22
:1015F00012FAECCF13FAD8903C35036AB70FE96EB4
:10160000070E0320EA6EECCF15FAED52EFCF14FA75
:10161000D8903C35036ABB0FE96E070E0320EA6ED3
:10162000ECCF17FAED52EFCF16FA6D0E9EA8FED74B
:10163000AD6E3A0E9EA8FED7AD6E0FCA18FA1B0EFD
:101640000A01196F0001A0DC2C0E9EA8FED7AD6E1A
:10165000A6C718FA1B0E0A01196F000195DC4B0E84
:10166000F66E0F0EF76E000EF86E030E0A01186F7D
:101670000001C9DC410EE96E13CA1BFA12CA1AFA3C
:1016800011CA19FA10CA18FA21DD2C0E9EA8FED72D
:10169000AD6E100EE96E15CA19FA14CA18FA74DD87
:1016A0002C0E9EA8FED7AD6E100EE96E17CA19FA61
:1016B00016CA18FA69DD0D0E9EA8FED7AD6E0A0E89
:1016C0009EA8FED7AD6E0A0100011200D890070156
:1016D0003C35036AB70FE96E070E0320EA6E010E70
:1016E000EE2601E3EF2AA651000A000105E0010AF7
:1016F00006E0030A0DE021D0F090F0901ED0020E1B
:101700000701A66FF096F090F086F19A000115D0CF
:10171000010E0701A66FD8903C35036AB70FE96E3A
:10172000070E0320EA6EFF0EEF2602E2EE52ED06F0
:10173000F096F090F086F18A000180DDF09058EF8D
:1017400000F0D89007013C35036AB70FE96E070E29
:101750000320EA6E010EEE2601E3EF2AA651000AED
:10176000000105E0010A06E0030A0DE021D0F09235
:10177000F0921ED0020E0701A66FF098F092F0884A
:10178000F198000115D0010E0701A66FD8903C35E5
:10179000036AB70FE96E070E0320EA6EFF0EEF260D
:1017A00002E2EE52ED06F098F092F088F188000126
:1017B00045DDF09258EF00F007013C51000A0001AE
:1017C00003E0010A49E08FD0D89007013C35036A55
:1017D000660FE96E070E0320EA6EECCF10FAED52A9
:1017E000EFCF0FFA0A010F2D0FD010530DE1036A4E
:1017F00007013C51C70FE96E070E0320EA6E000E89
:1018000081B8010EEF6E0A01D89007013C35036ADA
:10181000660FE96E070E0320EA6EECCF10FAED5268
:10182000EFCF0FFA0A010F51020814E1105312E131
:10183000036A07013C51C70FE96E070E0320EA6EE9
:10184000000E81B8010E0A01116F000E81B2010E67
:101850001115EF6E000147D0D89007013C35036A9F
:10186000660FE96E070E0320EA6EECCF10FAED5218
:10187000EFCF0FFA0A010F2D0FD010530DE1036ABD
:1018800007013C51C70FE96E070E0320EA6E000EF8
:1018900081BA010EEF6E0A01D89007013C35036A48
:1018A000660FE96E070E0320EA6EECCF10FAED52D8
:1018B000EFCF0FFA0A010F51020814E1105312E1A1
:1018C000036A07013C51C70FE96E070E0320EA6E59
:1018D000000E81BA010E0A01116F000E81B4010ED3
:1018E0001115EF6E00011AEF0DF0F90EB36EC00E78
:1018F000B26ED89007013C35036A8A0FE96E070E75
:101900000320EA6E010EEE2601E3EF2AD8903C3563
:10191000036A8A0FE96E070E0320EA6EECCF10FA15
:10192000ED52EFCF0FFAD8903C35036A460FE96EBF
:10193000070E0320EA6EECCF03F0ED52EFCF01F07B
:1019400003500A01105DD8A076D004E101500F5D6C
:10195000D8A071D007013C51040DF350036A9E0FCB
:10196000E96E070E0320EA6E010EEE26000EEE224F
:10197000EE22ED22D8903C35036A960FE96E070EF1
:101980000320EA6E010EEE2601E3EF2AD8903C35E3
:10199000036A8A0FE96E070E0320EA6EEC6AED52C5
:1019A000EF6A3C5302E1907830D08D78D8903C3586
:1019B000036A820FE96E070E0320EA6EECCF10FA7D
:1019C000ED52EFCF0FFA0A010F5312E1105310E15D
:1019D000D89007013C35036AAF0FE96E070E03206C
:1019E000EA6EFF0EEF2602E2EE52ED060ED00A017D
:1019F000D89007013C35036AAF0FE96E070E03204C
:101A0000EA6E010EEE2601E3EF2AD8903C35036A18
:101A1000620FE96E070E0320EA6EECCF10FAED526A
:101A2000EFCF0FFA0A010F51030805E1105303E14C
:101A30000001C2D60A01A192A192000158EF00F064
:101A4000404C50432C254C752C254C640D0A00004D
:101A5000404D4D452C25752C254C642C254C752C62
:101A6000254C752C254C642C254C640D0A005641E0
:101A70004C56452053544F5020254C752C254C7501
:101A80000D0A0000696E643A2575202F2070686188
:101A90003A25750D0A0040524543202D20686F6D90
:101AA000696E6720737972696E676520616E642064
:101AB000616C69676E696E672076616C766520740B
:101AC0006F20706F727420310D0A00002C736572E4
:101AD00069616C2077616B652D75702C53442069AA
:101AE0006E697469616C697A65640D0A0000405220
:101AF00053540D0A0000405744540D0A00002C7244
:101B00006573746172742063617573652C5744202A
:101B100074696D652D6F75740D0A0000405744534C
:101B20000D0A00002C726573746172742063617514
:101B300073652C57442066726F6D20736C656570F9
:101B40000D0A0000404E50550D0A00002C69642318
:101B50005B254C755D2C706F776572206170706CC1
:101B60006965642C534420696E697469616C697A93
:101B700065640D0A0000405253540D0A00002C7297
:101B80006573746172742063617573652C7265731B
:101B9000657420696E737472756374696F6E0D0A73
:101BA000000040424F520D0A00002C7265737461B0
:101BB00072742063617573652C62726F776E2D6F1E
:101BC00075740D0A0000404D52530D0A00002C722E
:101BD0006573746172742063617573652C4D434C39
:101BE000522066726F6D20736C6565700D0A00007F
:101BF000404D52520D0A00002C726573746172746C
:101C00002063617573652C4D434C52207768656E77
:101C10002072756E6E696E670D0A00004E4F3300BC
:101C20004E4F3200504F34004E48340053694F003D
:101C30000000404445545B2F25755D5B25635D4185
:101C400052475B254C755D0D0A002074696D652D4A
:101C50006F757400206461746120746F6F20736805
:101C60006F727400206461746120746F6F206C6FF8
:101C70006E6700002C6465746563746F725B257316
:101C80005D2C6C656E5B25755D00405254592C25AA
:101C9000750D0A002C737461727420686561746933
:101CA0006E672C7461726765745B254C755D2C6181
:101CB000637475616C5B254C755D2C72656164693C
:101CC0006E67735B254C755D0D0A00002C656E64B4
:101CD0002068656174696E672C7461726765745BF6
:101CE000254C755D2C61637475616C5B254C755D6D
:101CF0002C72656164696E67735B254C755D0D0AB6
:101D000000004E4F33004E4F3200504F34004E48CB
:101D1000340053694F000000404441432C254C756A
:101D20002C254C752C00405341522C312C254C75E0
:101D30002C004056414C20004056414C200040565B
:101D4000414C20004056414C200040534F4C5B2FEB
:101D5000315D5B735D5B254C755D0D0A00002F31B5
:101D600073254C750D0040534F4C5B2F315D5B6309
:101D70005D5B25755D0D0A002F316325750D000033
:101D80002F31733235360D0028493073292C254CFC
:101D9000752C28493173292C254C752C28416273E8
:101DA0002D73292C25312E34672C28493074292C89
:101DB000254C752C28493174292C254C752C28412B
:101DC00062732D74292C25312E34672C28493072EA
:101DD000292C254C752C28493172292C254C752C21
:101DE000284162732D72292C25312E346700404121
:101DF00062732C4E4F332C25730D0A002849307323
:101E0000292C254C752C28493173292C254C752CEF
:101E1000284162732D73292C25312E34672C2849D3
:101E20003074292C254C752C28493174292C254CCB
:101E3000752C284162732D74292C25312E34672C82
:101E400028493072292C254C752C28493172292CAF
:101E5000254C752C284162732D72292C25312E3486
:101E60006700404162732C4E4F322C25730D0A00DF
:101E700028493073292C254C752C28493173292C7D
:101E8000254C752C284162732D73292C25312E3455
:101E9000672C28493074292C254C752C284931741D
:101EA000292C254C752C284162732D74292C253141
:101EB0002E34672C28493072292C254C752C284942
:101EC0003172292C254C752C284162732D72292CD6
:101ED00025312E346700404162732C504F342C253D
:101EE000730D0A0028493073292C254C752C28497C
:101EF0003173292C254C752C284162732D73292CA4
:101F000025312E34672C28493074292C254C752C0A
:101F100028493174292C254C752C284162732D7465
:101F2000292C25312E34672C28493072292C254C38
:101F3000752C28493172292C254C752C2841627347
:101F40002D72292C25312E346700404162732C4EAE
:101F500048342C25730D0A0028493073292C254C50
:101F6000752C28493173292C254C752C2841627316
:101F70002D73292C25312E34672C28493074292CB7
:101F8000254C752C28493174292C254C752C284159
:101F900062732D74292C25312E34672C2849307218
:101FA000292C254C752C28493172292C254C752C4F
:101FB000284162732D72292C25312E34670040414F
:101FC00042532C53694F2C25730D0A004E4F33009A
:101FD0004E4F3200504F34004E48340053694F008A
:101FE0000000286D292C25332E33672C2863292CDB
:101FF00025332E336700284373292C25332E33676E
:102000000D0A000040434F4E2C4E4F332C25730DCC
:102010000A00286D292C25332E33672C2863292CA0
:1020200025332E336700284373292C25332E33673D
:102030000D0A000040434F4E2C504F342C25730D99
:102040000A00286D292C25332E33672C2863292C70
:1020500025332E336700284373292C25332E33670D
:102060000D0A000040434F4E2C4E48342C25730D72
:102070000A00286D292C25332E33672C2863292C40
:1020800025332E336700284373292C25332E3367DD
:102090000D0A000040434F4E2C53694F2C25730D01
:1020A0000A004E4F3300504F34004E4834005369FD
:1020B0004F0000004D454D4F5259204F5645524656
:1020C0004C4F57204552524F522040204C696E656C
:1020D000203A254C750A0D000D0A3A000D0A5741A9
:1020E000524E494E473A20494E56414C49442043AE
:1020F0004F4D4D414E4420494E204D4143524F21BA
:102100000D0A000042616420636F6D6D616E642092
:102110006174206C696E653A20254C64200D0A00BC
:10212000506C656173652072652D75706C6F6164AC
:10213000206D6163726F0000497465726174696F2C
:102140006E73206C6566743A20254C750D0A00008C
:102150002C6D6163726F5B25755D2C737461727495
:102160000D0A0000404D434C5B25635D5B254C75BB
:102170005D0D0A00404C4E450D0A00004052554E80
:102180000D0A0000404241440D0A000040542F4F08
:102190000D0A0000404552520D0A000040454E44D1
:1021A0000D0A000040484C540D0A00002C6D61637C
:1021B000726F5B25755D2C7374617475735B256339
:1021C0005D2C6C696E655B254C755D0D0A00405297
:1021D000756E6E696E67202563254C75200D0A00AB
:1021E000404D6163726F202530344C75206F66203E
:1021F0002530344C750D0A00404C4E450D0A000048
:102200004052554E0D0A0000404241440D0A000064
:1022100040542F4F0D0A0000404552520D0A000055
:1022200040454E440D0A00002C6175746F2D73619A
:102230006D706C652C73616D706C655B254C755DA4
:102240002C73746172740D0A00002C6175746F2D0B
:1022500073616D706C652C73616D706C655B254C82
:10226000755D2C636F6D706C6574650D0A002C6173
:1022700075746F2D73616D706C652C73616D706C0E
:10228000655B254C755D2C6572726F720D0A0000DE
:102290002C6175746F2D73616D706C652C73616D3D
:1022A000706C655B254C755D2C6D61782073616D7C
:1022B000706C65730D0A00002C6175746F2D73616D
:1022C0006D706C652C73616D706C655B254C755D14
:1022D0002C73746172740D0A00002C6175746F2D7B
:1022E00073616D706C652C73616D706C655B254CF2
:1022F000755D2C636F6D706C6574650D0A002C61E3
:1023000075746F2D73616D706C652C73616D706C7D
:10231000655B254C755D2C73746172740D0A000049
:102320002C6175746F2D73616D706C652C73616DAC
:10233000706C655B254C755D2C636F6D706C65749E
:10234000650D0A002C6175746F2D73616D706C657D
:102350002C73616D706C655B254C755D2C6D6178BF
:102360002073616D706C65730D0A00002C617574CB
:102370006F2D73616D706C652C696E697469616C29
:10238000697A650D0A002C6865616465722C696460
:10239000235B254C755D2C696E745B254C755D2C3B
:1023A0006D61785B254C755D0D0A00002C617574BC
:1023B0006F2D73616D706C652C73616D706C655BF6
:1023C000254C755D2C616C61726D5B25755D0D0A28
:1023D00000002C6175746F2D73616D706C652C73CA
:1023E0006C6565700D0A000074313A254C752074D7
:1023F000323A254C750D0A00404445542C254C7545
:102400000D0A00004E4F332C25312E35672C253117
:102410002E35670D0A00504F342C25312E35672C90
:1024200025312E35670D0A004E48342C25312E35C6
:10243000672C25312E35670D0A0053694F342C2542
:10244000312E35672C25312E35670D0A00004E4F91
:1024500033286D293A004E4F332863293A00504FF4
:1024600034286D293A00504F342863293A004E48E9
:1024700034286D293A004E48342863293A005369BC
:102480004F34286D293A000053694F342863293AA4
:10249000000041726520796F75207375726520792F
:1024A0006F752077616E7420746F2065726173653B
:1024B00020746865207261772064617461206669A8
:1024C0006C653F2059206F72204E210D0A0046692D
:1024D0006C652064656C65746564210A0D004F703D
:1024E00065726174696F6E2063616E63656C6564AB
:1024F000210D0A0041726520796F75207375726530
:1025000020796F752077616E7420746F2065726119
:102510007365207468652063616C63756C617465B4
:102520006420646174612066696C653F2059206F86
:1025300072204E210D0A000046696C652064656CAE
:1025400065746564210A0D004F7065726174696F6E
:102550006E2063616E63656C6564210D0A004049FD
:102560004423254C752049254C75204E254C752F4C
:10257000254C752058254C75205525752025342E61
:102580003277560D0A00404D4F543A56414C3D2586
:102590004C75205359523D254C640D0A00004050A3
:1025A00057523A253032752F253032752F2530326B
:1025B0007520253032753A253032753A253032751E
:1025C0000D0A0000405057523A253032752F253001
:1025D00032752F2530327520253032753A2530324C
:1025E000753A253032750D0A000041254C75204999
:1025F000254C75204C254C752051254C75205325B4
:102600004C752025342E3277560D0A00404D4F541C
:102610003A56414C3D254C75205359523D254C644A
:102620000D0A0000405057523A253032752F2530A0
:1026300032752F2530327520253032753A253032EB
:10264000753A253032750D0A000049254C75204E2B
:10265000254C752F254C752050254C752025342E82
:102660003277560D0A00404D4F543A5359523D258A
:102670004C640D0A0000405057523A253032752FF5
:10268000253032752F2530327520253032753A25A8
:102690003032753A253032750D0A000040534D50E6
:1026A000202530344C750D0A000040534D50202534
:1026B00030344C750D0A0000456E746572206461FB
:1026C000746520666F726D617420303D4D4D2F44EE
:1026D000442F59592020313D44442F4D4D2F5959F5
:1026E0000D0A0000404F4B210D0A20004045525278
:1026F0000D0A00004052554E0D0A00005B6D6F74CC
:102700006F723A315D0D0A005B6D6F746F723A3211
:102710005D0D0A002C45434F206D6F646520736585
:10272000740D0A002C574D532D342D5344206D6FDA
:102730006465207365740D0A00002C415753206DA9
:102740006F6465207365740D0A002C574D532D344A
:102750002D5145206D6F6465207365740D0A00006E
:1027600032332D4A756E2D31370031333A35353AD3
:102770003036000053454E44204845582046494CC9
:1027800045202831393230302C4E38312C584F4EBC
:102790002D584F4646290D0A0000404F4B2120007E
:1027A00040415247200040494E56000040434D44AE
:1027B00000002C636F6D6D616E642070726F6D70C0
:1027C000740D0A004053443D254C750D0A00404DE0
:1027D00043312C254C752C254C640D0A0000404DCE
:1027E00043322C254C752C254C640D0A0000507288
:1027F00065737320616E6420686F6C642074686513
:1028000020457363206B657920746F207265747541
:10281000726E20746F20436F6D6D616E64204D6F1A
:1028200064650D0A000052657475726E696E6720EA
:10283000746F204C6F6767696E67204D6F64650D1C
:102840000A008B940C0EBB6EBE6ABF6A010E9C6EB2
:10285000F80E0F012D17000E2D138B920C0E4E6FDC
:10286000516B526B010E1B6FC70E2D17000E2D13EF
:102870000509CA6E7F0ECB6E000186EFD8F00B0EF5
:10288000D76EDC0ED66EF294F28AD1801200090E59
:10289000EA6EC80EE96EEF500EE0140E016E006A8B
:1028A000002EFED7012EFBD7BF0E006E002EFED7E6
:1028B00000D0EF2EF2D712002F0E926E370E936ECD
:1028C000900E946E200E956E400E966E000E976ED2
:1028D000E40E986E400E996E000E9A6E8E968E984B
:1028E0008E9A91969184918091829188918C918A0F
:1028F0008F908F988F96140E0901C86F0001C7DF63
:102900008E92909E0401B26B8C848C868C908C92FB
:10291000B16B0001120090909092909490969098D4
:10292000909ABC6A8D908D928D948D968D988D9A8B
:102930000F014F6B8E9C8E9E8E9400011200010E33
:102940004A6EAE509D8A12000801766B756B746BEF
:102950007451010820E3080E786F750E776F74517B
:102960007725016E000E7821036E0150E96E03C0D9
:10297000EAFF73517425796FF2CF7AF8F29E636A99
:1029800079C862FF7F9C7F9E7F8061507ABFF28E04
:10299000EF6E742BDDD775C801F076C802F0000128
:1029A00012000801946BF2CF95F8F29E636A93C807
:1029B00062FF7F9C7F9E7F80615095BFF28E946FF7
:1029C00094C801F0000112000801676B666B656B2B
:1029D000646B636B6351030824E3080E696F640E34
:1029E000686F63516825016E000E6921036E015006
:1029F000E96E03C0EAFF635161256A6F000E622130
:102A00006B6FF2CF6CF8F29E6BC863FF6AC862FF0F
:102A10007F9C7F9E7F8061506CBFF28EEF6E632B38
:102A2000D9D764C800F065C801F066C802F067C86D
:102A300003F0000112001E0E0801736F000184DF15
:102A400002C030F001C02FF01C0E0801736F0001AE
:102A50007BDF02C020F001C01FF0160E0801736F6B
:102A6000000172DF02C022F001C021F0140E080143
:102A7000736F000169DF02C024F001C023F0080178
:102A8000736B000161DF02C026F001C025F0180E53
:102A90000801736F000158DF02C028F001C027F061
:102AA000020E0801936F00017CDF326A01C031F031
:102AB000280E0801936F000174DF346A01C033F0FF
:102AC000120E0801736F00013FDF02C036F001C033
:102AD00035F03A0E0801736F000136DF02C038F09E
:102AE00001C037F03C0E0801736F00012DDF02C0FA
:102AF0003AF001C039F03E0E0801736F000124DF87
:102B000002C03CF001C03BF0400E0801736F0001B1
:102B10001BDF02C03EF001C03DF0420E0801736FA2
:102B2000000112DF02C040F001C03FF0040E0801B6
:102B3000936F000136DF01C029F70801626B440E74
:102B4000616F000141DF03C0F4F302C0F3F301C081
:102B5000F2F300C0F1F30801626B480E616F0001EF
:102B600033DF03C0F8F302C0F7F301C0F6F300C08F
:102B7000F5F30801626B4C0E616F000125DF03C0A5
:102B8000FCF302C0FBF301C0FAF300C0F9F3080143
:102B9000626B520E616F000117DF03C000F402C0C8
:102BA000FFF301C0FEF300C0FDF30801626B560E97
:102BB000616F000109DF03C004F402C003F401C027
:102BC00002F400C001F40801626B5A0E616F00014B
:102BD000FBDE03C008F402C007F401C006F400C025
:102BE00005F40801626B5E0E616F0001EDDE03C04B
:102BF0000CF402C00BF401C00AF400C009F408018F
:102C0000626B620E616F0001DFDE03C010F402C070
:102C10000FF401C00EF400C00DF4200E0801736F14
:102C2000000192DE02C02AF001C029F0220E080144
:102C3000736F000189DE02C02CF001C02BF0240E5E
:102C40000801736F000180DE02C02EF001C02DF07C
:102C50001200016A026A006A036A0801BA5102E1BD
:102C6000B95118E0100EBB6FD890B737B83700369F
:102C70000336BA51035C02E1B951005C07E3B95174
:102C8000005ED8A00306BA51035ED8800136023632
:102C9000BB2FEAD700011200860E0801736F0001F6
:102CA00053DE02C03FF701C03EF78A0E0801736F82
:102CB00000014ADE02C043F701C042F78E0E080150
:102CC000736F000141DE02C047F701C046F7920E64
:102CD0000801736F000138DE02C04BF701C04AF7EC
:102CE000960E0801736F00012FDE02C04FF701C07E
:102CF0004EF79A0E0801736F000126DE02C053F7EB
:102D000001C052F79E0E0801736F00011DDE02C064
:102D100057F701C056F7A20E0801736F000114DEC9
:102D200002C05BF701C05AF7A60E0801736F0001DD
:102D30000BDE02C05FF701C05EF7820E0801736F01
:102D4000000102DE02C063F701C062F77E0E0801D7
:102D5000736F0001F9DD02C0BCF701C0BBF7AA0E1A
:102D60000801736F0001F0DD02C0C0F701C0BFF7BA
:102D70007A0E0801736F0001E7DD02C067F701C03A
:102D800066F7760E0801736F0001DEDD02C06BF797
:102D900001C06AF7720E0801736F0001D5DD02C031
:102DA0006FF701C06EF76E0E0801736F0001CCDD86
:102DB00002C093F701C092F7AE0E0801736F0001D5
:102DC000C3DD02C073F701C072F7B20E0801736F62
:102DD0000001BADD02C0ACF701C0ABF7B60E0801C6
:102DE000736F0001B1DD02C0B0F701C0AFF7BA0EDA
:102DF0000801736F0001A8DD02C077F701C076F704
:102E0000BE0E0801736F00019FDD02C07BF701C099
:102E10007AF7C20E0801736F000196DD02C07FF7DA
:102E200001C07EF7880E0801736F00018DDD02C0BE
:102E300041F701C040F78C0E0801736F000184DD7B
:102E400002C045F701C044F7900E0801736F0001FE
:102E50007BDD02C049F701C048F7940E0801736F8B
:102E6000000172DD02C04DF701C04CF7980E080159
:102E7000736F000169DD02C051F701C050F79C0E6D
:102E80000801736F000160DD02C055F701C054F7FF
:102E9000A00E0801736F000157DD02C059F701C091
:102EA00058F7A40E0801736F00014EDD02C05DF7F4
:102EB00001C05CF7A80E0801736F000145DD02C078
:102EC00061F701C060F7840E0801736F00013CDDFB
:102ED00002C065F701C064F7800E0801736F00013E
:102EE00033DD02C0BEF701C0BDF7AC0E0801736F41
:102EF00000012ADD02C0C2F701C0C1F77C0E080143
:102F0000736F000121DD02C069F701C068F7780E18
:102F10000801736F000118DD02C06DF701C06CF786
:102F2000740E0801736F00010FDD02C071F701C05C
:102F300070F7700E0801736F000106DD02C095F78F
:102F400001C094F7B00E0801736F0001FDDC02C0F0
:102F500075F701C074F7B40E0801736F0001F4DC5B
:102F600002C0AEF701C0ADF7B80E0801736F0001E3
:102F7000EBDC02C0B2F701C0B1F7BC0E0801736F01
:102F80000001E2DC02C079F701C078F7C00E080149
:102F9000736F0001D9DC02C07DF701C07CF7C40E5D
:102FA0000801736F0001D0DC02C081F701C080F717
:102FB00007013C6B010E3D6FA16BA06B9F6B9E6B7D
:102FC000A56BA46BA36BA26BB86BB76BBA6BB96B39
:102FD000976B966B996B986B9B6B9A6B9D6B9C6BCD
:102FE000B46BB36BB66BB56B73C7B8F872C7B7F891
:102FF0005FC7BAF85EC7B9F800012BDED8900801A8
:1030000001340701A76F080102340701A86F75C7D3
:10301000B8F874C7B7F861C7BAF860C7B9F8000163
:1030200018DED890080101340701A96F08010234A5
:103030000701AA6F000112000801926B925120084B
:103040000AE3036A9251B30FE96E040E0320EA6E9D
:10305000EF6A922BF3D7000112002F50020804E10F
:10306000305202E1000E996EE7DF0401B26B0001FD
:10307000A7EFD8F0F29AD1901200010E08015F6F0D
:103080005F5103081DE389882F50020803E1305285
:1030900001E1908C200E0901C86F000147EC14F08B
:1030A00089982F50020803E1305201E1909C200ED4
:1030B0000901C86F000147EC14F008015F2BE0D74D
:1030C0000001ABEFD8F02F50006E3050036E02E1DC
:1030D000005211E0035003E1010E005C35E00350A3
:1030E00003E1020E005C59E0035004E1030E005CB2
:1030F000D8B47CD0A4D0BE0EF66E050EF76E000ECE
:10310000F86E1B6AF2BE1B8EF29E060E0A01186F45
:10311000000103EC08F01BBEF28ECA0EF66E050E1F
:10312000F76E000EF86E1B6AF2BE1B8EF29E18EC54
:1031300007F01BBEF28E0D0E9EA8FED7AD6E0A0ED6
:103140009EA8FED7AD6EA3D0D20EF66E050EF76E1A
:10315000000EF86E1B6AF2BE1B8EF29E090E0A016B
:10316000186F000103EC08F01BBEF28EE00EF66E45
:10317000050EF76E000EF86E1B6AF2BE1B8EF29EF5
:1031800018EC07F01BBEF28E0D0E9EA8FED7AD6E9A
:103190000A0E9EA8FED7AD6E7AD0E80EF66E050E2A
:1031A000F76E000EF86E1B6AF2BE1B8EF29E060EC4
:1031B0000A01186F000103EC08F01BBEF28EF40E3A
:1031C000F66E050EF76E000EF86E1B6AF2BE1B8ED1
:1031D000F29E18EC07F01BBEF28E0D0E9EA8FED7D5
:1031E000AD6E0A0E9EA8FED7AD6E51D0FC0EF66EE7
:1031F000050EF76E000EF86E1B6AF2BE1B8EF29E75
:10320000090E0A01186F000103EC08F01BBEF28ED4
:103210000A0EF66E060EF76E000EF86E1B6AF2BE10
:103220001B8EF29E18EC07F01BBEF28E0D0E9EA8B0
:10323000FED7AD6E0A0E9EA8FED7AD6E28D0120E38
:10324000F66E060EF76E000EF86E1B6AF2BE1B8E4F
:10325000F29E060E0A01186F000103EC08F01BBE77
:10326000F28E1E0EF66E060EF76E000EF86E1B6ADC
:10327000F2BE1B8EF29E18EC07F01BBEF28E0D0EF6
:103280009EA8FED7AD6E0A0E9EA8FED7AD6E1200A8
:10329000CAC8CBF80801CB39006E0F0E00160050DB
:1032A0000A0DF3CFCAF8CB39006EF00E00160050AD
:1032B000003A0F0E00160050CA27CAC801F00001DC
:1032C00012000801C96BC69A210EC66E400EC76E69
:1032D0009190C950C96AC730FEE3C9CFC9F8C95037
:1032E000C9C8C9FFC730FEE3C9CF28F7C950C9C84C
:1032F000C9FFC730FEE3C9CF21F7C950C9C8C9FF0C
:10330000C730FEE3C9CF22F7C950C9C8C9FFC730CB
:10331000FEE3C9CF23F7C950C9C8C9FFC730FEE3D0
:10332000C9CF24F7C950C9C8C9FFC730FEE3C9CF08
:1033300025F7C950C9C8C9FFC730FEE3C9CF26F772
:10334000C950C9C8C9FFC730FEE3C9CF27F791806C
:1033500021C7CAF800019CDF01C021F722C7CAF8C3
:1033600097DF01C022F723C7CAF892DF01C023F715
:1033700025C7CAF88DDF01C025F726C7CAF888DF40
:1033800001C026F727C7CAF883DF01C027F712005C
:10339000F250006EF29E636A65C862FF66C861FF04
:1033A0007F9C7F9E7F840F01550E7E6EAA0E7E6EDF
:1033B0007F827FB2FED77F940050F212000112008C
:1033C00021C73BF722C73AF723C739F725C737F795
:1033D00026C736F727C738F7060E0801656F36C7C8
:1033E00066F80001D5DF080E0801656F37C766F87B
:1033F0000001CEDF0A0E0801656F38C766F80001CC
:10340000C7DF0C0E0801656F39C766F80001C0DF21
:103410000E0E0801656F3AC766F80001B9DF100E9D
:103420000801656F3BC766F80001B2DFB1EFD8F065
:103430000801A76BC69A210EC66E400EC76E91900A
:10344000C9500C0EC96EC730FEE3C9CFA7F8C950EA
:10345000A7C8C9FFC730FEE3C9CF2CF79180070189
:103460002C9D9190C9508C0EC96EC730FEE3C9CF18
:10347000A7F8C9502CC7C9FFC730FEE3C9CFA7F8CA
:103480009180000112000401E26B010EE16F0A0E4F
:10349000E06F010EDF6FDE6FDD6BDC6BDB6BDA6B19
:1034A00000011200016603D0026602D007D0022A92
:1034B00000C0EEFF012EFCD7022EFAD712000A0E32
:1034C0000A010D6F040E0DCA0BFA0A6FC950C968C4
:1034D000C730FEE3C95003CAC9FFC730FEE3030E7D
:1034E0000A25E96E000E0B21EA6EEFCF0CFAC950E7
:1034F0000CCAC9FFC730FEE3020E0A25E96E000EB2
:103500000B21EA6EEFCF0CFAC9500CCAC9FFC730C5
:10351000FEE3010E0A25E96E000E0B21EA6EEFCFE5
:103520000CFAC9500CCAC9FFC730FEE30ACAE9FF4A
:103530000BCAEAFFEFCF0CFAC9500CCAC9FFC7305B
:10354000FEE30351480806E1C950870EC96EC73033
:10355000FEE305D0C950950EC96EC730FEE3086B77
:10356000C950C968C730FEE3C9CF09FA093D0BD07D
:103570000851630808E3082BC950C968C730FEE347
:10358000C9CF09FAF3D709CA01F0000112000901F5
:10359000C9BF10D00F0E006EC83900160A0E005CAD
:1035A00003E2300E002602D0C951002600509EA82A
:1035B000FED7AD6E0F0EC8170A0EC85D02E2300EC0
:1035C00002D0C99FC951C827C8519EA8FED7AD6E69
:1035D000000112004E0EF66E060EF76E000EF86E2B
:1035E0001B6AF2BE1B8EF29E18EC07F01BBEF28E19
:1035F000A3EF21F00901C76B0401E36B91820A0E6E
:103600000901C86F000147EC14F0C69A220EC66E7D
:10361000400EC76E9E960901BF6BBF51090806E3B5
:10362000C950C968C730FEE3BF2BF7D791921F502E
:10363000040812E1205210E1760EF66E060EF76EC7
:10364000000EF86E1B6AF2BE1B8EF29E000118EC93
:1036500007F01BBEF28E0901400E0A01036F076BD3
:10366000066B056B046B00012ADF01C0C0F909017C
:10367000C05101082AE21F50040824E1205222E12F
:10368000860EF66E060EF76E000EF86E1B6AF2BE20
:103690001B8EF29E310E0A01186F000103EC08F038
:1036A0001BBEF28EC0C9C8F9570E0901C96F0001CF
:1036B0006EDF0D0E9EA8FED7AD6E0A0E9EA8FED739
:1036C000AD6E0901C781A4EF21F01F50040824E169
:1036D000205222E1BE0EF66E060EF76E000EF86E58
:1036E0001B6AF2BE1B8EF29E1A0E0A01186F0001B1
:1036F00003EC08F01BBEF28EC0C9C8F9570E0901D1
:10370000C96F000144DF0D0E9EA8FED7AD6E0A0EF4
:103710009EA8FED7AD6E0901480E0A01036F076B24
:10372000066B010E056FAA0E046F0001C8DE01C012
:10373000C0F91F50040823E1205221E1E00EF66E8B
:10374000060EF76E000EF86E1B6AF2BE1B8EF29E1E
:10375000250E0A01186F000103EC08F01BBEF28E63
:10376000C0C9C8F9570E0901C96F000110DF0D0E5D
:103770009EA8FED7AD6E0A0E9EA8FED7AD6E0901BB
:10378000C02DE8D11F50040812E1205210E10A0EAA
:10379000F66E070EF76E000EF86E1B6AF2BE1B8EF9
:1037A000F29E000118EC07F01BBEF28E0901BF6B00
:1037B000BF5103080FE3036ABF51C10FE96E090E41
:1037C0000320EA6EC950C968C730FEE3C9CFEFFFD6
:1037D000BF2BEED71F50040839E1205237E12C0EE1
:1037E000F66E070EF76E000EF86E1B6AF2BE1B8EA9
:1037F000F29E1F0E0A01186F000103EC08F01BBEB9
:10380000F28EC1C9C8F9570E0901C96F0001BFDEA8
:10381000C2C9C8F9570E0901C96F0001B8DEC3C992
:10382000C8F9570E0901C96F0001B1DEC4C9C8F952
:10383000570E0901C96F0001AADE0D0E9EA8FED722
:10384000AD6E0A0E9EA8FED7AD6E0901C32D6DD1D7
:10385000C451AA08D8A469D11F50040812E120520B
:1038600010E15E0EF66E070EF76E000EF86E1B6A24
:10387000F2BE1B8EF29E000118EC07F01BBEF28E0A
:1038800009011F50040812E1205210E1840EF66E67
:10389000070EF76E000EF86E1B6AF2BE1B8EF29ECC
:1038A000000118EC07F01BBEF28E0901C66BC56B58
:1038B000770E0A01036F076B066B056B046B000143
:1038C000FEDD01C0C0F9690E0A01036F400E076FEB
:1038D000066B056B046B0001F2DD01C0C0F9090144
:1038E000C05328E0C651C30825E303E1C5514F0882
:1038F00021E36A0E006E002EFED70000C52BD8B45F
:10390000C62B770E0A01036F076B066B056B046B02
:103910000001D5DD01C0C0F9690E0A01036F400E38
:10392000076F066B056B046B0001C9DD01C0C0F9B0
:10393000D6D709011F50040844E1205242E1B20EDB
:10394000F66E070EF76E000EF86E1B6AF2BE1B8E47
:10395000F29E230E0A01186F000103EC08F01BBE53
:10396000F28EC0C9C8F9570E0901C96F00010FDEF8
:10397000D90EF66E070EF76E000EF86E1B6AF2BED9
:103980001B8EF29E0A0E0A01186F000103EC08F06C
:103990001BBEF28E100EE96E1B6AF2BE1B8EF29EEB
:1039A000C6C919FAC5C918FAC4EC08F01BBEF28ED4
:1039B0000D0E9EA8FED7AD6E0A0E9EA8FED7AD6E68
:1039C0000901C053D8A4B0D07A0E0A01036F400E8B
:1039D000076F066B056B046B000171DD01C0C0F958
:1039E0001F50040823E1205221E1EA0EF66E070E73
:1039F000F76E000EF86E1B6AF2BE1B8EF29E180E5A
:103A00000A01186F000103EC08F01BBEF28EC0C95A
:103A1000C8F9570E0901C96F0001B9DD0D0E9EA846
:103A2000FED7AD6E0A0E9EA8FED7AD6E0901C0533B
:103A3000D8A47AD0BF6BBF5103080FE3036ABF510C
:103A4000C10FE96E090E0320EA6EC950C968C7307C
:103A5000FEE3C9CFEFFFBF2BEED7C1AD05D0050EFA
:103A60000401E36F04D00901040E0401E36F1F5049
:103A7000040859E1205257E1080EF66E080EF76E61
:103A8000000EF86E1B6AF2BE1B8EF29E1F0E0A011C
:103A9000186F000103EC08F01BBEF28E100EE96EE9
:103AA0001B6AF2BE1B8EF29EC6C919FAC5C918FA66
:103AB000C4EC08F01BBEF28E2A0EF66E080EF76EEE
:103AC000000EF86E1B6AF2BE1B8EF29E080E0A01F3
:103AD000186F000103EC08F01BBEF28EC1C9C8F9D3
:103AE000570E0901C96F000152DDC2C9C8F9570E4E
:103AF0000901C96F00014BDDC3C9C8F9570E09019F
:103B0000C96F000144DDC4C9C8F9570E0901C96F66
:103B100000013DDD0D0E9EA8FED7AD6E0A0E9EA8DB
:103B2000FED7AD6E0401090115D01F50040812E143
:103B3000205210E1460EF66E080EF76E000EF86E7B
:103B40001B6AF2BE1B8EF29E000118EC07F01BBE32
:103B5000F28E09010401E353D8A467D21F50040870
:103B600012E1205210E1780EF66E080EF76E000E8C
:103B7000F86E1B6AF2BE1B8EF29E000118EC07F075
:103B80001BBEF28E0401400E0A01036F076B066B29
:103B9000056B046B000193DC01C0C0F91F500408E1
:103BA00023E1205221E1B80EF66E080EF76E000EEA
:103BB000F86E1B6AF2BE1B8EF29E1C0E0A01186F75
:103BC000000103EC08F01BBEF28EC0C9C8F9570E05
:103BD0000901C96F0001DBDC0D0E9EA8FED7AD6E9A
:103BE0000A0E9EA8FED7AD6E0901C02D01D005D0EA
:103BF000C05303E0C781A4EF21F0C66BC56B410E33
:103C00000A01036F076B066B056B046B000157DC41
:103C100001C0C0F90901C05304E0350E006E002E4A
:103C2000FED7C52BD8B4C62BC05307E0C651C30876
:103C300004E3E5E1C5514F08E2E21F50040844E106
:103C4000205242E1DC0EF66E080EF76E000EF86EA2
:103C50001B6AF2BE1B8EF29E280E0A01186F00012D
:103C600003EC08F01BBEF28EC0C9C8F9570E09015B
:103C7000C96F00018CDC080EF66E090EF76E000E9F
:103C8000F86E1B6AF2BE1B8EF29E0A0E0A01186FB6
:103C9000000103EC08F01BBEF28E100EE96E1B6AE9
:103CA000F2BE1B8EF29EC6C919FAC5C918FAC4EC39
:103CB00008F01BBEF28E0D0E9EA8FED7AD6E0A0E4A
:103CC0009EA8FED7AD6E0901C05302E0C7813CD368
:103CD000770E0A01036F076B066B056B046B00011F
:103CE0005FEC1AF001C0C0F91F50040823E1205214
:103CF00021E1180EF66E090EF76E000EF86E1B6AC3
:103D0000F2BE1B8EF29E430E0A01186F000103ECF7
:103D100008F01BBEF28EC0C9C8F9570E0901C96F61
:103D2000000135DC0D0E9EA8FED7AD6E0A0E9EA8D2
:103D3000FED7AD6E0901C05305E0020E0401E36F2A
:103D4000FED00901690E0A01036F076B066B056B54
:103D5000046B00015FEC1AF001C0C0F90901C05109
:103D6000010805E3030E0401E36FE9D009011F50C8
:103D700004082FE120522DE1620EF66E090EF76E57
:103D8000000EF86E1B6AF2BE1B8EF29E2E0E0A010A
:103D9000186F000103EC08F01BBEF28EC0C9C8F911
:103DA000370E0901C96F0001C7EC1AF0940EF66EC8
:103DB000090EF76E000EF86E1B6AF2BE1B8EF29EA5
:103DC000190E0A01186F000103EC08F01BBEF28EF9
:103DD0000901400E0A01036F076B066B056B046B4C
:103DE00000015FEC1AF001C0C0F90901C02D01D03B
:103DF00036D0C05334E01F5004082FE120522DE18B
:103E0000AE0EF66E090EF76E000EF86E1B6AF2BE6D
:103E10001B8EF29E2C0E0A01186F000103EC08F0B5
:103E20001BBEF28EC0C9C8F9370E0901C96F000167
:103E3000C7EC1AF0DE0EF66E090EF76E000EF86E85
:103E40001B6AF2BE1B8EF29E0B0E0A01186F000158
:103E500003EC08F01BBEF28E0901C78175D2C66B58
:103E6000C56B410E0A01036F076B066B056B046B94
:103E700000015FEC1AF001C0C0F90901C05304E071
:103E8000350E006E002EFED7C52BD8B4C62BC053FE
:103E900007E0C651C30804E3E4E1C5514F08E1E27D
:103EA000C0534AE01F50040845E1205243E1EA0EA6
:103EB000F66E090EF76E000EF86E1B6AF2BE1B8ED0
:103EC000F29E4A0E0A01186F000103EC08F01BBEB7
:103ED000F28EC0C9C8F9370E0901C96F0001C7ECDD
:103EE0001AF0380EF66E0A0EF76E000EF86E1B6AA8
:103EF000F2BE1B8EF29E0A0E0A01186F000103EC3F
:103F000008F01BBEF28E100EE96E1B6AF2BE1B8E0D
:103F1000F29EC6C919FAC5C918FAC4EC08F01BBE4E
:103F2000F28E0D0E9EA8FED7AD6E0A0E9EA8FED78D
:103F3000AD6E0901C78108D2020E0401E36F1F5064
:103F4000040812E1205210E1480EF66E0A0EF76ED8
:103F5000000EF86E1B6AF2BE1B8EF29E000118EC7A
:103F600007F01BBEF28E0401500E0A01036F076BAF
:103F7000066B020E056F046B00015FEC1AF001C0C6
:103F8000C0F90901C551500803E1C651C30803E057
:103F9000C05101084BE20401E36B1F50040845E1E6
:103FA000205243E1640EF66E0A0EF76E000EF86EB4
:103FB0001B6AF2BE1B8EF29E2B0E0A01186F0001C7
:103FC00003EC08F01BBEF28EC0C9C8F9570E0901F8
:103FD000C96F0001C7EC1AF0930EF66E0A0EF76E69
:103FE000000EF86E1B6AF2BE1B8EF29E0A0E0A01CC
:103FF000186F000103EC08F01BBEF28E100EE96E84
:104000001B6AF2BE1B8EF29EC6C919FAC5C918FA00
:10401000C4EC08F01BBEF28E0D0E9EA8FED7AD6E4E
:104020000A0E9EA8FED7AD6E040109010401E353F8
:1040300019E11F50040812E1205210E1A40EF66E9F
:104040000A0EF76E000EF86E1B6AF2BE1B8EF29E11
:10405000000118EC07F01BBEF28E04010901C781B4
:1040600073D10401E351020A000107E0010A19E0DB
:10407000070A2BE0010A3DE050D01F50040810E170
:1040800020520EE1C40EF66E0A0EF76E000EF86EA8
:104090001B6AF2BE1B8EF29E18EC07F01BBEF28E5E
:1040A00067D01F50040810E120520EE1DA0EF66EC0
:1040B0000A0EF76E000EF86E1B6AF2BE1B8EF29EA1
:1040C00018EC07F01BBEF28E53D01F50040810E10D
:1040D00020520EE1F00EF66E0A0EF76E000EF86E2C
:1040E0001B6AF2BE1B8EF29E18EC07F01BBEF28E0E
:1040F0003FD01F50040810E120520EE1060EF66E6C
:104100000B0EF76E000EF86E1B6AF2BE1B8EF29E4F
:1041100018EC07F01BBEF28E2BD01F50040824E1D0
:10412000205222E11C0EF66E0B0EF76E000EF86E9A
:104130001B6AF2BE1B8EF29E260E0A01186F00014A
:1041400003EC08F01BBEF28EE3C4C8F9370E090178
:10415000C96F0001C7EC1AF00D0E9EA8FED7AD6E18
:104160000A0E9EA8FED7AD6E0901C781EDD00001F1
:104170000901C7911F5004082BE1205229E14A0E82
:10418000F66E0B0EF76E000EF86E1B6AF2BE1B8EFB
:10419000F29E2E0E0A01186F000103EC08F01BBE00
:1041A000F28E100EE96E1B6AF2BE1B8EF29EC6C91D
:1041B00019FAC5C918FAC4EC08F01BBEF28E0D0E30
:1041C0009EA8FED7AD6E0A0E9EA8FED7AD6E090161
:1041D0009182C69A200EC66E400EC76E9E96919230
:1041E0001F50040812E1205210E17E0EF66E0B0EF5
:1041F000F76E000EF86E1B6AF2BE1B8EF29E000177
:1042000018EC07F01BBEF28E0901C66BC56B410EA0
:104210000A01036F076B066B056B046B00015FEC13
:104220001AF001C0C0F90901C05304E0350E006E58
:10423000002EFED7C52BD8B4C62BC05307E0C651FD
:10424000C30804E3E4E1C5514F08E1E2C0534AE08A
:104250001F50040845E1205243E19E0EF66E0B0EFE
:10426000F76E000EF86E1B6AF2BE1B8EF29E260ED3
:104270000A01186F000103EC08F01BBEF28EC0C9E2
:10428000C8F9370E0901C96F0001C7EC1AF0C80E52
:10429000F66E0B0EF76E000EF86E1B6AF2BE1B8EEA
:1042A000F29E0A0E0A01186F000103EC08F01BBE13
:1042B000F28E100EE96E1B6AF2BE1B8EF29EC6C90C
:1042C00019FAC5C918FAC4EC08F01BBEF28E0D0E1F
:1042D0009EA8FED7AD6E0A0E9EA8FED7AD6E090150
:1042E000C78132D01F5004082BE1205229E1D80E9B
:1042F000F66E0B0EF76E000EF86E1B6AF2BE1B8E8A
:10430000F29E250E0A01186F000103EC08F01BBE97
:10431000F28E100EE96E1B6AF2BE1B8EF29EC6C9AB
:1043200019FAC5C918FAC4EC08F01BBEF28E0D0EBE
:104330009EA8FED7AD6E0A0E9EA8FED7AD6E0901EF
:104340000001EAEF1AF009019182C7C901F00001EA
:104350001200500E0A01036F02CA07FA01CA06FAD8
:1043600000CA05FAFFC904FA00015FEC1AF0015017
:1043700003E0400A0CE00ED002CAE8F401CAE7F4F8
:1043800000CAE6F4FFC9E5F4010E016E05D0000E87
:10439000016E02D0000E016E42EF22F0C950C968D2
:1043A000C730FEE3C9CF07FA0A01066B056B065159
:1043B000270814E303E105510F0810E3073D0ED071
:1043C000350E006E002EFED7C950C968C730FEE317
:1043D000C9CF07FA052BD8B4062BE9D70751FE0839
:1043E00007E0075302E1FE0E076F07CA01F02DD068
:1043F000066B056B045309E1035307E10651025DA7
:1044000016E303E10151055D12E20901FF510A01C2
:104410000525E96E00510621EA6EC950C968C7300A
:10442000FEE3C9CFEFFF052BD8B4062BE3D7C95065
:10443000C968C730FEE3C950C968C730FEE3C95038
:10444000C968C730FEE3000E016E000112000401CE
:10445000E9A103D0030E016E9DD00901FE510108B0
:1044600002E3FE5305E1040E016E040193D009013D
:1044700091920A01026B016B020E006F0901FF6B42
:10448000000167D7015206E19182010E016E04011D
:1044900081D000010401E35105080DE0D890FCC96A
:1044A000FDF9FBC9FCF9FAC9FBF90901FA6BFB3705
:1044B000FC37FD3704010901FE2D2CD0510E0A01F5
:1044C000036FFDC907FAFCC906FAFBC905FAFAC968
:1044D00004FA00015FEC1AF0015206E09182040E2A
:1044E000016E040157D00001F9C900FAF8C9FFF9BB
:1044F0000A01046B036B020E026F016B00014EDFB9
:10450000015206E09182010E016E040143D00001C8
:104510003DD00901520E0A01036FFDC907FAFCC91B
:1045200006FAFBC905FAFAC904FA00015FEC1AF0B1
:10453000015206E09182040E016E04012BD00001AD
:10454000F9C900FAF8C9FFF90A01046B036B020EFE
:10455000026F016B000122DF015206E09182010E21
:10456000016E040117D00001020E0901F927FE07B0
:10457000D8B402D00001E4D74C0E0A01036F076BD8
:10458000066B056B046B00015FEC1AF09182000E64
:10459000016E040100011200C6C9CCF9C5C9CBF9EE
:1045A000C8C9CEF9C7C9CDF90901CA5303E1C95138
:1045B000000830E2CBC9E9FFCCC9EAFFEFCFCFF961
:1045C000CEC903F0CDC9E9FFCEC9EAFFEF50CF5DF8
:1045D00016E0CCC903F0CBC9E9FF03C0EAFFEFCF77
:1045E000CFF9CEC903F0CDC9E9FFCEC9EAFFEF503C
:1045F000CF5D02E2FF0E01D0010E016E0DD0CB2B7C
:10460000D8B4CC2BCD2BD8B4CE2BC951D8B4CA0733
:10461000C907CBD7000E016E00011200240E07015E
:104620000E25016E000E0F21036E01C0C3F90901B2
:10463000C46FEA6E01C0E9FF006A020E026E016AF1
:10464000000152EC1AF0240E07010E25016E000E37
:104650000F21036E01C0C3F90901C46FF96F01C0D6
:10466000F8F9C2C9FDF9C1C9FCF9C0C9FBF9BFC954
:10467000FAF9010EFE6F0001EADE0152D8A477D0EC
:10468000220E07010E25016E020E0F21036E01C0DE
:10469000E9FFEA6EECCFC4F9ED52EFCFC3F909019F
:1046A000C351550865E1C451AA0862E15A0E0701D9
:1046B0000E25016E000E0F21036E01C0C3F9090122
:1046C000C46FC66F01C0C5F9070EC86F100EC76F63
:1046D000CA6B050EC96F00015FDF015203E1010ED5
:1046E000016E49D05A0E07010E25016E000E0F21F2
:1046F000036E01C0C3F90901C46FC66F01C0C5F9DB
:10470000070EC86F150EC76FCA6B050EC96F000183
:1047100043DF015203E1020E016E2DD0760E070138
:104720000E25016E000E0F21036E01C0C3F90901B1
:10473000C46FC66F01C0C5F9070EC86F1A0EC76FE8
:10474000CA6B050EC96F000127DF015210E14C0E44
:1047500007010E25E96E000E0F21EA6EEF52D8B464
:1047600002D0000104D0030E016E000104D0090143
:10477000000E016E000112000901DA6BDB6B010E05
:10478000DC6FDA6AD96A090EDF6FD20EDE6F090EAE
:10479000EA6ED60EE96EDFC9E2FFDEC9E1FFDCC9D1
:1047A000DDF9D890E550EE02F350DA23F450DB2324
:1047B000DD2FF7D7DAC9DEFFDBC9DAF9DB6BD8B05A
:1047C000DB2BDE2BD8B4DF2BDC2BDC510508DFE143
:1047D0000001120007010E510F1103E10B0E016ED3
:1047E000C6D20FC7EAFF0EC7E9FF006A020E026ECB
:1047F000240E016E000152EC1AF0FAEC1AF001C01E
:10480000E9F40401E9A106D00001FAEC1AF001C0B4
:10481000E9F40401E9A105D0010E016E0701A7D258
:1048200004010901B66BB56BB46BB36BB6C9C2F9C1
:10483000B5C9C1F9B4C9C0F9B3C9BFF90001EEDE09
:1048400001C0B2F90901B25337E1E60E07010E25A6
:10485000E96E010E0F21EA6EEF521EE0EA0E0E2500
:10486000016E010E0F2101C0E9FFEA6EEFCFB3F92F
:10487000ECCFB4F9ECCFB5F9ECCFB6F9B6C9C2F9C3
:10488000B5C9C1F9B4C9C0F9B3C9BFF90001C6DEE1
:1048900001C0B2F910D00701040EF66E0C0EF76ECF
:1048A000000EF86E1B6AF2BE1B8EF29E000118EC21
:1048B00007F01BBEF28E0901B25305E10C0E016E2A
:1048C000070155D2090107010EC7E9FF0FC7EAFF2B
:1048D000B2C9EFFF0901B251030832E1080E070126
:1048E0000E25016E000E0F21036E01C0BFF90901F4
:1048F000C06F480E07010E25016E000E0F2101C08A
:10490000E9FFEA6EEFCF00F0ECCF01F0ECCF02F060
:10491000ECCF03F003C0C4F902C0C3F901C0C2F96F
:1049200000C0C1F9C0C9EAFFBFC9E9FF00C0EFFF7D
:1049300001C0ECFF02C0ECFF03C0ECFF2DD0090169
:10494000080E07010E25016E000E0F21036E01C037
:10495000BFF90901C06F3A0E07010E25016E000E66
:104960000F2101C0E9FFEA6EECCF03F0ED52EFCF6B
:10497000C1F9090103C0C2F9C0C9EAFFBFC9E9FF13
:10498000EE52EE52EC6AED52EF6AED5203C0EFFFC9
:10499000ED52C1C9EFFF0701020E0E25016E000E98
:1049A0000F21036E310E07010E25E96E000E0F2157
:1049B000EA6EEFCFC1F9090103C0EAFF01C0E9FFC8
:1049C000C1C9EFFF030E07010E25016E000E0F2176
:1049D000036E340E07010E25E96E000E0F21EA6EFC
:1049E000EFCFC1F9090103C0EAFF01C0E9FFC1C966
:1049F000EFFF100E07010E25016E000E0F21036E52
:104A000001C0BFF90901C06F320E07010E25016E0A
:104A1000000E0F2101C0E9FFEA6EECCF03F0ED526A
:104A2000EF500901B325006E0350B421016E000E52
:104A3000B521026E000EB621C0C9EAFFBFC9E9FF69
:104A400000C0EFFF01C0ECFF02C0ECFFEC6E040EF3
:104A500007010E25016E000E0F21036E01C0BFF984
:104A60000901C06F350E07010E25016E000E0F21E2
:104A700001C0E9FFEA6EECCF03F0ED52EFCFC1F9D0
:104A80000901C0C9EAFFBFC9E9FF03C0ECFFED524D
:104A9000C1C9EFFF080E07010E25E96E000E0F21B8
:104AA000EA6EEFCFD2F9ECCFD3F9ECCFD4F9ECCF5B
:104AB000D5F9030E0E25E96E000E0F21EA6EEFCF39
:104AC000D6F90901EACFC5F9E9CFC4F9D96BD86B9A
:104AD000D76B000151DEC5C9EAFFC4C9E9FF03C0B5
:104AE000C2F902C0C1F901C0C0F900C0BFF9100E7F
:104AF00007010E25E96E000E0F21EA6EEFCF00F0E0
:104B0000ECCF01F0ECCF02F0ECCF03F00050090144
:104B1000BF25B76F0150C021B86F0250C121B96FD6
:104B20000350C221BA6FB251030838E1140E0701D5
:104B30000E25016E000E0F21036E01C0BFF90901A1
:104B4000C06F500E07010E25016E000E0F2101C02F
:104B5000E9FFEA6EEFCF00F0ECCF01F0ECCF02F00E
:104B6000ECCF03F0C0C9EAFFBFC9E9FF00C0EFFF07
:104B700001C0ECFF02C0ECFF03C0ECFF180E0E25D5
:104B8000E96E000E0F21EA6EB7C9EFFFB8C9ECFF5E
:104B9000B9C9ECFFBAC9ECFF47D00901140E0701EF
:104BA0000E25E96E000E0F21EA6EB7C9EFFFB8C9F6
:104BB000ECFFB9C9ECFFBAC9ECFF180E0E25016E67
:104BC000000E0F2101C0BFF90901C06F040E0701DB
:104BD0000E25E96E000E0F21EA6EECCFC2F9ED5200
:104BE000EFCFC1F90901C233C133C233C133C2337C
:104BF000C133C233C1330F0EC217C151B725006E86
:104C0000C251B821016E000EB921026E000EBA2108
:104C1000C0C9EAFFBFC9E9FF00C0EFFF01C0ECFF58
:104C200002C0ECFFEC6E0701440E0E25016E000E73
:104C30000F2101C0E9FFEA6EEFCFBBF9ECCFBCF961
:104C4000ECCFBDF9ECCFBEF90901BB5317E1BC5362
:104C500015E1BD5313E1BE5311E1370E07010E25D7
:104C6000016E000E0F2101C0E9FFEA6E0901BE6B63
:104C7000BD6BECCFBCF9ED52EFCFBBF90C0E0701C9
:104C80000E25016E000E0F21036E01C0BFF9090150
:104C9000C06F180E07010E25E96E000E0F21EA6E97
:104CA000EFCF00F0ECCF01F0ECCF02F0ECCF03F04F
:104CB00000500901BB5DC16F0150BC59C26F025069
:104CC000BD59C36F0350BE59C46FB351C127B4510E
:104CD000C223B551C323B651C423020E07010E25CA
:104CE000E96E000E0F21EA6EEFCF28FA0901EACF34
:104CF000C7F9E9CFC6F9D8921B6AF2BE1B8EF29EA5
:104D0000C4C927FAC3C926FAC2C925FAC1C924FAF7
:104D10000A012B6B2A6B296B00011CEC08F01BBEEF
:104D2000F28EC7C9EAFFC6C9E9FF03C0C4F902C0D1
:104D3000C3F901C0C2F900C0C1F9020E0901002483
:104D4000006E000E0120016E000E0220026E000EA9
:104D50000320C0C9EAFFBFC9E9FF00C0EFFF01C0DF
:104D6000ECFF02C0ECFFEC6E000E016E07010001CB
:104D70001200400EF66E0C0EF76E000EF86E1B6AF7
:104D8000F2BE1B8EF29E18EC07F01BBEF28E000BDB
:104D90000EE0500EF66E0C0EF76E000EF86E1B6AEB
:104DA000F2BE1B8EF29E18EC07F01BBEF28E0801BD
:104DB00066A110D05E0EF66E0C0EF76E000EF86E49
:104DC0001B6AF2BE1B8EF29E000118EC07F01BBEA0
:104DD000F28E080166A310D0740EF66E0C0EF76EFC
:104DE000000EF86E1B6AF2BE1B8EF29E000118ECDC
:104DF00007F01BBEF28E08016651030B10E0880E0F
:104E0000F66E0C0EF76E000EF86E1B6AF2BE1B8E6D
:104E1000F29E000118EC07F01BBEF28E080166A599
:104E200010D09A0EF66E0C0EF76E000EF86E1B6A1E
:104E3000F2BE1B8EF29E000118EC07F01BBEF28E34
:104E400008016651050B10E0AC0EF66E0C0EF76E05
:104E5000000EF86E1B6AF2BE1B8EF29E000118EC6B
:104E600007F01BBEF28E08016651060B10E0C00E63
:104E7000F66E0C0EF76E000EF86E1B6AF2BE1B8EFD
:104E8000F29E000118EC07F01BBEF28E080166517D
:104E9000070B10E0D00EF66E0C0EF76E000EF86EDB
:104EA0001B6AF2BE1B8EF29E000118EC07F01BBEBF
:104EB000F28E08016651090B10E0E60EF66E0C0E3C
:104EC000F76E000EF86E1B6AF2BE1B8EF29E00019A
:104ED00018EC07F01BBEF28E080166510A0B10E0B9
:104EE000020EF66E0D0EF76E000EF86E1B6AF2BE25
:104EF0001B8EF29E000118EC07F01BBEF28E08011B
:104F000066510B0B10E0180EF66E0D0EF76E000ECC
:104F1000F86E1B6AF2BE1B8EF29E000118EC07F0C1
:104F20001BBEF28E080166510C0B10E02A0EF66EC5
:104F30000D0EF76E000EF86E1B6AF2BE1B8EF29E0F
:104F4000000118EC07F01BBEF28E08010001ECEF27
:104F500027F00801CD6BCD5101082CE3CA51CD25B6
:104F6000CE6F080ED06FCB0ECF6FCD51CF25016E17
:104F7000000ED021036E0150E96E03C0EAFFEFCFAF
:104F8000CFF8F250006EF29E636ACEC862FFCFC8BF
:104F900061FF7F9C7F9E7F840F01550E7E6EAA0E5F
:104FA0007E6E7F827FB2FED77F940050F21208019E
:104FB000CD2BD1D7000112000801656B65510208A5
:104FC00012E3000107DC01C020F70701205305E0D0
:104FD00020C766F80001CDD603D0080104D0000137
:104FE0000801652BEBD73E0ECA6FCC6B20C7CBF800
:104FF0000001AFDF070120C701F000011200560ECB
:10500000F66E060EF76E000EF86E1B6AF2BE1B8E71
:10501000F29E18EC07F01BBEF28E12001EC0EAFFD3
:105020001DC0E9FF0801DBC8EFFFE92AD8B4EA2A6E
:10503000EF6A1D2AD8B41E2A000112000900F55299
:1050400010E0F6CFC7F8F7CFC8F8F8CFC9F8F5CF1A
:10505000DBF8E4DFC7C8F6FFC8C8F7FFC9C8F8FF28
:10506000EDD71200020EEA6E950EE96E006A026A32
:105070001E0E016E52EC1AF012000801CF6BCE6BBF
:10508000CD6BCC6B000E016EC250830B0110C26E53
:10509000000E016EC150F80B0110C16E010EC96FF8
:1050A000C951320812E3C282C2B2FED7C3CFD0F8D0
:1050B000C4CFD1F8D26BD36B050E0901C86F0001C4
:1050C00047EC14F00801C92BEBD7010EC96FC95189
:1050D000640856E3C282C2B2FED7C3CFD0F8C4CFB1
:1050E000D1F8D26BD36B010EC95DD46FCFC8D5F99F
:1050F000CEC8D4F9CDC8D3F9CCC8D2F90901D96B3F
:10510000D86BD76BD66F0001BCEC23F003C0D7F887
:1051100002C0D6F801C0D5F800C0D4F80801D051BB
:10512000D427D151D523D251D623D351D723D892C6
:105130001B6AF2BE1B8EF29ED7C827FAD6C826FA83
:10514000D5C825FAD4C824FA0A012B6B2A6B296B1F
:10515000C9C828FA00011CEC08F01BBEF28E03C07F
:10516000CFF802C0CEF801C0CDF800C0CCF8050ED3
:105170000901C86F000147EC14F00801C92BA7D73B
:10518000CFC8D5F9CEC8D4F9CDC8D3F9CCC8D2F997
:105190000901D96BD86BD76B640ED66F0001BCECDC
:1051A00023F003C0D7F802C0D6F801C0D5F800C07C
:1051B000D4F8D8921B6AF2BE1B8EF29E03C027FA67
:1051C00002C026FA01C025FA00C024FA0A012B6B9E
:1051D0002A6B010E296F100E286F00011CEC08F0DD
:1051E0001BBEF28E560E08010024CA6F000E01206D
:1051F000CB6FCAC801F0CBC802F000011200015009
:105200001B6AF2BE1B8EF29EC9C81AFA640E0A010E
:105210001B6F0001AEEC07F01BBEF28E00C0C9F898
:105220000150300E08E10801CAA30FD0CAB70DD053
:10523000CAB9200E04D00801CA97CA99CA810126AA
:1052400001C0DBF80001EADE08011B6AF2BE1B8E1A
:10525000F29EC9C81AFA0A0E0A011B6F0001AEECD1
:1052600007F01BBEF28E00C0C9F80150300E08E1F5
:105270000801CAB70AD0CAA108D0CAB9200E0001D5
:10528000012601C0DBF8CADE0801300EC927C9C8F3
:10529000DBF80001C3DE1200E9500801CE6F3B0EBF
:1052A000D56F9A0ED46FCA0ED36FD26B0A0ED06F21
:1052B000CD51D8A4CE07D882080EEA6EC90EE96E89
:1052C0001B6AF2BE1B8EF29ECCC827FACBC826FA08
:1052D000CAC825FAC9C824FAD5C82BFAD4C82AFAEC
:1052E000D3C829FAD2C828FA00011CEC08F01BBE6A
:1052F000F28E0150005213E10801CD29D05DD8A4EF
:1053000002D000010CD0CE510CE00F0BD05D01E0BB
:105310001EE2CEBF1CD0CEBD04D0200E12D008019C
:10532000CE6BCD51D05D0CE100C0CEF82E0EDB6F00
:10533000000174DE0801CEC800F0200ECE17000E6A
:10534000300E002600C0DBF8000168DE0801D892AC
:105350001B6AF2BE1B8EF29ED5C827FAD4C826FA65
:10536000D3C825FAD2C824FA0A012B6B2A6B296B01
:105370000A0E286F00011CEC08F01BBEF28E03C061
:10538000D5F802C0D4F801C0D3F800C0D2F80801A3
:10539000D02F91D70001120065DE6FDE02C0C8F881
:1053A00001C0C7F861EC19F0020E1E6E950E1D6E5D
:1053B00026C7C9F8010E0801CA6F000120DF2F0EB1
:1053C0000801DB6F00012ADE25C7C9F8010E0801BC
:1053D000CA6F000114DF2F0E0801DB6F00011EDE13
:1053E00027C7C9F8010E0801CA6F000108DF200EA7
:1053F0000801DB6F000112DE23C7C9F8010E0801A6
:10540000CA6F0001FCDE3A0E0801DB6F000106DE08
:1054100022C7C9F8010E0801CA6F0001F0DE3A0E7A
:105420000801DB6F0001FADD21C7C9F8010E080190
:10543000CA6F0001E4DE2C0E0801DB6F0001EEDD17
:10544000440EE96E0801CC6BCB6BC8C8CAF8C7C85C
:10545000C9F8020ECD6F00011FDF1200D5C8D9F8C0
:10546000D4C8D8F8D9C803F00801D8C8E9FFD9C80A
:10547000EAFFEF5206E0D82BD8B4D92B0001F2D7BF
:105480000801D7C803F0D6C8E9FFD7C8EAFFEF5232
:1054900013E0D6C8E9FFD7C8EAFFEFCFDCF8D9C8D8
:1054A000EAFFD8C8E9FFDCC8EFFFD82BD8B4D92B66
:1054B000D62BD8B4D72BE5D7D8C8E9FFD9C8EAFF8F
:1054C000EF6AD4C801F0D5C802F000011200F29AC8
:1054D00004001200CF6ACE6A89882F50020803E1C7
:1054E000305201E1908C9E909D807FEF2AF00B0E50
:1054F000D76EDC0ED66E0400F294F28AEBD712005F
:105500000801C951000A000103E0010A03E003D0C9
:10551000DEDF01D0ECDF12000401E993E995E9C474
:1055200001F00001120007010E510F1103E10B0EF3
:10553000016E28D00001F0DF01A015D0010E070197
:105540000E25E96E000E0F21EA6EEF5204E0090EFF
:10555000016E18D006D00001EAEC23F001500701DB
:1055600011D00ED0000107010EC7E9FF0FC7EAFFF7
:10557000EF5206E10001EAEC23F00150070102D0EE
:10558000000E016E00011200020E0901CB5F000E39
:10559000CC5BCD5BCE5B0C0E07010E25E96E000ED9
:1055A0000F21EA6EEFCF00F0ECCF01F0ECCF02F06C
:1055B000ECCF03F003500901CE5D11E30BE1025083
:1055C000CD5D0DE307E10150CC5D09E303E100503F
:1055D000CB5D05E3006A016A026A036A40D0020EED
:1055E00007010E25E96E000E0F21EA6EEFCFD6F906
:1055F0000901EACFD1F9E9CFD0F9CEC9D5F9CDC9A2
:10560000D4F9CCC9D3F9CBC9D2F9D96BD86BD76B44
:105610000001BCEC23F0D1C9EAFFD0C9E9FF03C007
:10562000D2F902C0D1F901C0D0F900C0CFF9180EEB
:1056300007010E25E96E000E0F21EA6EEFCF00F094
:10564000ECCF01F0ECCF02F0ECCF03F00901CF5129
:105650000026D0510122D1510222D2510322000151
:105660001200C4C9EAFFC3C9E9FF200E006E026A36
:105670000B0E016E52EC1AF00901C86B180EC96FBF
:10568000C56B080EC66FC1C9E9FFC2C9EAFFECCFFE
:10569000CBF9ED52EFCFCAF9CAC9E9FFCBC9EAFF8E
:1056A000EFCFC7F9C2C903F0C1C9E9FFC2C9EAFF18
:1056B000010EEE2601E3EF2AC751200801E3C76B74
:1056C000C75306E0C7512F0803E0C7515C080FE13C
:1056D000C55301E170D00B0EC325E96E000EC42145
:1056E000EA6EC851C915EF6EC7C901F066D0C7513F
:1056F000200803E2C7517F0801E15DD0C7512E08A1
:105700000EE1C8B10BD0C551000808E2C551080828
:1057100005E3080EC56F0B0EC66F4CD04CD0C751B9
:10572000220801E148D0C751290801E335D0C7510B
:105730002C0801E340D0C751390801E32DD0C751EF
:105740003F0801E338D0C8B127D0C7517C0801E138
:1057500032D0C7515A0804E2C7515D0801E32BD08B
:10576000C75140080AE2C7515A0807E3C651080862
:1057700003E1C997C95101D0C999C75160080CE22A
:10578000C7517A0809E3200EC75FC651080803E134
:10579000C887C85101D0C889C891C651C55D01E309
:1057A0000AD0C551C52BC325E96E000EC421EA6E8F
:1057B000C7C9EFFF68D7010E016E00017CEF31F021
:1057C000C30E0A01076F500E066FC950C968C73073
:1057D000FEE3350E006E002EFED7C950C968C730F3
:1057E000FEE3C9CF05FA0651D8B407070607053D01
:1057F00001D003D006510711ECE105CA01F0000108
:1058000008EF2CF0020E0A01046F036B0001D8D7D9
:10581000013C01D003D0000E016E52D0C95001CA24
:10582000C9FFC730FEE30A010151FD0846E004CA82
:1058300003F00351D8B404070307031016E000CAAD
:1058400003F00901FF51FF2BD8A403D00A01002B5C
:105850000901E96E03C0EAFFEFCF05FAC95005CA96
:10586000C9FFC730FEE30A01E2D7C950C968C73093
:10587000FEE3C950C968C730FEE3C950C968C730E4
:10588000FEE3C9CF02FA046B036B0451C30815E3AE
:1058900003E103514F0811E3350E006E002EFED7D1
:1058A000C950C968C730FEE3C9CF02FA025301E00C
:1058B00004D0032BD8B4042BE8D7010E016E0001ED
:1058C00012000401E9A103D0030E016E9DD0E9A5E9
:1058D00003D0020E016E98D00901FE5305E1040EBB
:1058E000016E040191D0090191920401E351050870
:1058F0000DE0D890FCC9FDF9FBC9FCF9FAC9FBF928
:105900000901FA6BFB37FC37FD3704010901FE2D55
:1059100020D0580E0A01036FFDC907FAFCC906FA28
:10592000FBC905FAFAC904FA00015FEC1AF001524A
:105930000EE1F9C900FAF8C9FFF9FE0E0A01016F7C
:10594000000160DF015203E00901FE6B00014FD04E
:1059500009010401E351030B16E0770E0A01036FFE
:10596000076B066B056B046B00015FEC1AF0570EBA
:105970000A01036F076B066B056BFEC904FA000191
:105980005FEC1AF00401590E0A01036FFDC907FA12
:10599000FCC906FAFBC905FAFAC904FA00015FEC72
:1059A0001AF0015224E1F9C900FAF8C9FFF9FC0E16
:1059B0000A01016F000126DF015201E109D0020E48
:1059C0000901F927FE07D8B402D00001ECD7000185
:1059D0000A01006B0901FF6BFD0E0A01016F000156
:1059E00011DF015204E1010E0901FE6F00019182F5
:1059F000C950C968C730FEE30901FE5302E0010E39
:105A000001D0000E016E040100011200200E0701FA
:105A10000E25E96E000E0F21EA6EEFCFF0F9ECCF04
:105A2000F1F9ECCFF2F9ECCFF3F90901EC51F05DAB
:105A30000AE1ED51F15D07E1EE51F25D04E1EF5154
:105A4000F35DD8B4EAD0060E07010E25E96E000E0C
:105A50000F21EA6EEF52D8B4A5D0240E0E25016EA8
:105A6000000E0F21036E01C0F6F90901F76FF96FFF
:105A700001C0F8F9F3C9FDF9F2C9FCF9F1C9FBF964
:105A8000F0C9FAF9010EFE6F00011BDF01C0F4F945
:105A90000901F45303E0000E016EC1D0060E0701A8
:105AA0000E25E96E000E0F21EA6EEF6A100E0E252C
:105AB000E96E000E0F21EA6EEFCFF6F9ECCFF7F9A1
:105AC000ECCFF8F9ECCFF9F9080E0E25E96E000ECF
:105AD0000F21EA6EEFCF00F0ECCF01F0ECCF02F037
